:020000040200F8
:10000000A0E50B22A5D4020235D30202A1D402023C
:10001000A1D40202A1D40202A1D40202A1D40202FC
:100020000000000000000000000000005D3D020232
:10003000A1D4020200000000753D0202DD3D020273
:1000400091B80202A5B00202E9B10202DDB20202D9
:10005000A9B3020235CE0202B1CA0202DDC3020216
:100060005DA40202DDA402025DA5020241A6020215
:10007000D1A6020251A7020289970202BD9602028E
:100080007D980202019902020158020239580202C7
:100090006D58020291580202B5580202ED58020250
:1000A00011590202000000000000000000000000E2
:1000B0000000000000000000000000000000000040
:1000C0000000000000000000000000000000000030
:1000D0000000000000000000000000000000000020
:1000E0000000000000000000000000000000000010
:1000F0000000000000000000000000000000000000
:1001000000000000000000000000000000000000EF
:1001100000000000000000000000000000000000DF
:1001200000000000000000000000000000000000CF
:1001300000000000000000000000000000000000BF
:1001400000000000000000000000000000000000AF
:10015000000000000000000000000000000000009F
:10016000000000000000000000000000000000008F
:10017000000000000000000000000000000000007F
:10018000000000000000000000000000000000006F
:10019000000000000000000000000000000000005F
:1001A000000000000000000000000000000000004F
:1001B000000000000000000000000000000000003F
:1001C000FFFFFFFFFFFFFFFFFFFFFFFFFFFFFFFF3F
:1001D000FFFFFFFFFFFFFFFFFFFFFFFFFFFFFFFF2F
:1001E000FFFFFFFFFFFFFFFFFFFFFFFFFFFFFFFF1F
:1001F000FFFFFFFFFFFFFFFFFFFFFFFFFFFFFFFF0F
:1002000010B5054C237833B9044B13B1044800E012
:1002100000BF0123237010BDA814002200000000BD
:1002200088B4040208B5034B1BB10349034800E03E
:1002300000BF08BD00000000AC14002288B4040216
:1002400070B5002384B0044601938379013B092BE8
:1002500010D8DFE803F00F0F1A0F0F0F240F051C43
:100260003148002301AA04F1080100682EF09EF82D
:10027000012800D100BF019B3BB12C4B4FF08052B5
:100280005A60BFF34F8FBFF36F8F04B070BD284B20
:1002900001A918682EF03AF90128ECD1EAE7254DBA
:1002A00002A92B6F9847BDF8083003F47F43B3F5DC
:1002B000045F24D0B3F5005F28D0A38903F47F4303
:1002C000B3F5085FD7D11C4E0222AB6C20463146F5
:1002D00098470028CFD1E389014632882C6D63F31B
:1002E0000002C3F3400315483280328863F34102B1
:1002F000134B328001221A70A047019BBCE7EB6CC4
:100300000722104920469847019BB5E70D4C07226C
:10031000AB6C2146094898470B4A216813689942FB
:10032000019B18BF1160A7E7503B002200ED00E0E1
:10033000383C00229C940402C8140022DC430022B2
:10034000C4140022CC140022D4140022134A1449ED
:10035000126838B50546134890470446D8B9D5B158
:10036000114D2B88DA0705D401202FF0CBFA2B880A
:10037000DB07F9D500230D481A46194600682DF011
:10038000ADFD012800D100BF094B01224FF4FA70E6
:100390001A702FF0B7FA204638BD00BF9C940402B3
:1003A00024920402DC430022C8140022EC3B002209
:1003B000C4140022444B2DE9F04F1B7883B0002B6E
:1003C00057D0531C80460D4617462AD0002A56D0D7
:1003D0003E4B0026DFF8FC90D3F80CA002E012247C
:1003E000B5421AD9A5EB060B47F2305208EB0601CD
:1003F00080239345484628BF93465A46D0473946FE
:1004000004460028ECD1324B18682EF06FFA012810
:10041000E5D100BF5E44B542E4D8204603B0BDE854
:10042000F08F2A4B0026DFF8AC90DF68DFF8A0A041
:10043000A5EB060B47F2305208EB060180239345EB
:10044000484628BF93465A46B8474FF0FF31044606
:1004500048B9DAF800002EF049FA012801D0122438
:1004600001E000BF5E44AE42E2D3204603B0BDE8E7
:10047000F08F4FF4BC64204603B0BDE8F08F134BFF
:100480000E4647F2305A0146DB68DFF84890019388
:100490005645B346019C4FF0800328BFD3464846DB
:1004A00000915A46A04704460099012044B95F4490
:1004B0002FF028FABD42B0D9EE1B08EB0701E7E7A1
:1004C000BD42E5D8A9E700BFC41400229C940402F1
:1004D000383C0022DC430022F8B5144B1B780BB3E8
:1004E000134F0D4616460146BC6880234FF4007238
:1004F0001048A047044688B90F4B32462860294669
:1005000018682EF06FF8012806D021463B6980223A
:10051000084898472C6014242046F8BD40F2DC546B
:100520002046F8BD4FF4BC642046F8BDC414002238
:100530009C940402DC430022503B002203783BB928
:100540004368044AA3F58073B3FA83F35B0913701D
:10055000704700BFDC1400222DE9F04186B0074649
:10056000D0E900012BF030FD0190019E002E38D122
:100570007A683923204CD2F88420204DD2F80C80A0
:1005800007E04FF47A710D342CF0A8FEA37AFD2B0E
:1005900021D0E27AFE2B14F8010C05960494CDE9E3
:1005A00002668DF809308DF80A20ADF80C00E8D00D
:1005B000D8F8000002A92E7029F0E8FB0190019BF9
:1005C00013B112E000BF00BF2B78002BFAD0E37DFF
:1005D0000D34FD2BDDD138682BF0B2F90190019B71
:1005E0001BB9019806B0BDE8F08138682BF09EFA7F
:1005F000019806B0BDE8F081C16A0302DC14002254
:1006000010B5EFF31082012383F31088174C236891
:100610001BB9174940200B75087523680133236007
:1006200082F31088002240F6012112482AF0E2F8F5
:10063000012107202CF052FE012240F601210D4835
:100640002AF0D8F8EFF31082012383F3108823688F
:1006500013B12368013B236023681BB90449802040
:100660000B75087582F3108810BD00BF94500022EE
:10067000000D4040B436002270B5FF2382B005461D
:100680000E46ADF804301446436801A902221868EA
:1006900001F0EEF94FF49C6301A90222ADF8043099
:1006A0006B68186801F0E4F95A2301A902228DF859
:1006B0000430B308C6F381268DF805306B681868DE
:1006C00001F0D6F95B2301A902228DF80430A308BA
:1006D000240A8DF805306B6804F00404186834436C
:1006E00001F0C6F96B685C2201A98DF805408DF810
:1006F00004200222186801F0BBF96B68E020022296
:1007000001A9ADF80400186801F0B2F9012002B0A7
:1007100070BD00BF0021024AC0E90021704700BF40
:100720000304000208B501F05FFBEFF31081012321
:1007300083F31088144B1A682AB914484FF0400C00
:10074000027580F814C01A6801321A6081F31088AB
:100750000F49104AD1F8D001024042F00402C1F81A
:10076000D021EFF31082012181F31088196811B1B3
:100770001968013919601B681BB9044980200B7581
:10078000087582F3108808BD94500022000D404087
:1007900000084040FE3FFEFF08B501F02BFBEFF3E1
:1007A0001081012383F31088144B1A682AB9144866
:1007B0004FF0400C027580F814C01A6801321A60BC
:1007C00081F310880F49104AD1F8D001024042F05D
:1007D0000502C1F8D021EFF31082012181F31088C6
:1007E000196811B11968013919601B681BB90449EE
:1007F00080200B75087582F3108808BD9450002284
:10080000000D404000084040FE3FFEFF11B1084689
:1008100000F060BE4378042BF9D90846704700BF4A
:1008200030B5FF2383B040F2FF1504468DF8023047
:1008300002228DF8033001A94368ADF8045018680E
:1008400001F016F9636848F2120201A9ADF804201C
:100850000222186801F00CF9322016F09FFA636842
:10086000022201A9ADF80450186801F001F960688E
:1008700001230DF102020A21006801F04BF96068C2
:1008800001230DF103020B21006801F043F99DF8EB
:100890000230262B08D19DF80300A0F14200B0FAE7
:1008A00080F0400903B030BD002003B030BD00BF70
:1008B0002F4B30B5D3E9011202250446126883B0EC
:1008C000C5704360186890472046FFF7A9FF0546AA
:1008D00020B100232846E37003B030BD63689A68F6
:1008E000186853689847234BD3E90112186863606E
:1008F00013689847FF22616801238DF805208DF861
:1009000006208DF807200DF10502086843F20A0160
:1009100001F0C6F8616801230DF10602086843F290
:100920000B0101F0BDF8616801230DF107020868B1
:1009300043F20C0101F0B4F89DF80530362B09D0D4
:1009400063689A681868536898470023284663606C
:1009500003B030BD9DF806304C2BF1D19DF8073027
:10096000782BEDD101231D46E370284603B030BD3E
:10097000388E0402808E0402F0B540F2FF1383B07B
:1009800004460222ADF8043001A943684F4D1868AF
:1009900001F06EF8636848F21201022205F5CF7685
:1009A000ADF8041001A9186801F062F8642016F08F
:1009B000F5F935F8020B0222636801A9ADF80400CD
:1009C000186801F055F8AE42F3D1FF25636801A91C
:1009D0000222ADF804507C2718687D2601F048F803
:1009E000636841F2C70201A9ADF804200222186829
:1009F00001F03EF86368ADF8045001A902221868BE
:100A000001F036F8636801A9ADF804700222186895
:100A100001F02EF840F27D4301A90222ADF8043026
:100A20006368186801F024F840F67C1301A90222DB
:100A3000ADF804306368186801F01AF842F27D03DB
:100A400001A90222ADF804306368186801F010F8BB
:100A5000636801A9ADF804600222186801F008F883
:100A60006368ADF8045001A91868022201F000F88B
:100A7000636801A9ADF804700222186800F0F8FF5D
:100A8000636801A9ADF804600222186800F0F0FF65
:100A9000636840F27C51022248F27D05ADF80410F3
:100AA00001A9186800F0E4FF636801A9ADF80450DB
:100AB0000222186800F0DCFF6368022201A9ADF889
:100AC0000450186800F0D4FF03B0F0BD5071030269
:100AD0002DE9F0410D4682B0044604294DD8DFE8E7
:100AE00001F003132B3F1700254F01AE07F120083B
:100AF00037F8021B02226368ADF80410314618680B
:100B000000F0B6FF4745F3D1A57002B0BDE8F08113
:100B10001C4F01AE07F1120837F8021B022263686E
:100B2000ADF804103146186800F0A2FFB845F3D1C3
:100B3000A57002B0BDE8F081134F01AE07F10E08B9
:100B400037F8021B02226368ADF8041031461868BA
:100B500000F08EFFB845F3D1A57002B0BDE8F0817A
:100B6000FF2143680222ADF8041001A9186800F0C3
:100B70007FFFA57002B0BDE8F0810225C4E700BF89
:100B80007C7303029C7303020C7303022DE9F0478C
:100B9000436882B0802541F23026032201A98DF8F6
:100BA00006500446ADF804604FF6FF78186800F070
:100BB0005FFF322016F0F2F863688DF806500322CA
:100BC000ADF8046001A9186800F052FF32208F4D83
:100BD00016F0E4F835F8046C032215F8027C01A93C
:100BE0006368300A8DF8056004358DF806708DF85D
:100BF0000400186800F03CFF4645EBD1FF2FE9D117
:100C0000834D4FF6FF7835F8046C032215F8027C0B
:100C100001A96368300A8DF8056004358DF8067007
:100C20008DF80400186800F023FF4645EBD1FF2F34
:100C3000E9D140F23327EF26636801A9ADF80470CB
:100C400003228DF8066045F2335518684FF04008CE
:100C500000F00EFF63680222ADF8045001A94FF0C6
:100C6000040A8DF806200322186845F2334900F083
:100C7000FFFE636845F633028DF8068001A9ADF8E2
:100C800004200322186800F0F3FE636845F633126F
:100C90008DF8068001A94FF00108ADF80420032269
:100CA000186800F0E5FE636801A9ADF804708DF8DE
:100CB00006600322186800F0DBFE6368ADF804509C
:100CC0000DEB0A018DF806A00322186800F0D0FE93
:100CD00063680DEB0A01ADF804908DF806800322DD
:100CE000186800F0C5FE45F6336263680DEB0A0133
:100CF000ADF8042000228DF806200322186800F0C9
:100D0000B7FE63680DEB0A01ADF804708DF806605C
:100D10000322186800F0ACFE6368ADF804500DEBD8
:100D20000A018DF806A003221868202500F0A0FE15
:100D300063680DEB0A01ADF804908DF8068003227C
:100D4000186800F095FE636845F633420DEB0A0122
:100D50008DF80650ADF804200322186800F088FED4
:100D6000636845F633518DF806500322ADF8041040
:100D70000DEB0A01186800F07BFE636841F6300154
:100D80003822ADF804100DEB0A018DF8062003227D
:100D9000186800F06DFE636841F630113022ADF83E
:100DA00004100DEB0A018DF806200322186800F0EC
:100DB0005FFE636841F630216122ADF804100DEB4F
:100DC0000A018DF806200322186800F051FE6368BE
:100DD00042F633516022ADF804100DEB0A018DF894
:100DE00006200322186800F043FE42F63371032206
:100DF0006368ADF804100DEB0A018DF80620186841
:100E000000F036FE02B0BDE8F08700BF4474030274
:100E1000EC700302C37813B1012B02D07047FFF7C7
:100E2000ABBDFFF7B3BE00BF2DE9F043884683B0EA
:100E30000446042900F27081DFE811F053007100CC
:100E4000B300330105003122436801A90025ADF844
:100E5000042002228DF806200322186800F008FE04
:100E600040F23312636801A9ADF80420DE228DF848
:100E700006200322186800F0FBFD636840F233424D
:100E800001A98DF80650ADF804200322186800F07F
:100E9000EFFD342301A90322ADF8043063688DF817
:100EA0000650186800F0E4FD636840F234428DF8A3
:100EB000065001A9ADF804200322186800F0D8FDFF
:100EC0003622C4238DF8063001A96368ADF80420EA
:100ED0000322186800F0CCFD84F8028003B0BDE85E
:100EE000F0838C4D4FF6FF7935F8046C032215F82A
:100EF000027C01A96068330A8DF8056004358DF81D
:100F000006708DF80430006800F0B2FD4E45EBD15C
:100F1000FF2FE9D184F8028003B0BDE8F0833122CD
:100F2000436801A9ADF8042002228DF806200322AF
:100F3000186800F09DFD40F23312636801A9ADF816
:100F40000420DE228DF806200322186800F090FDB0
:100F500040F23342636801A9ADF8042000228DF805
:100F600006200322186800F083FD3422636801A97B
:100F7000ADF8042001228DF806200322186800F045
:100F800077FD40F234426368ADF8042013228DF8F7
:100F9000062001A90322186800F06AFD3622C42346
:100FA00090E73122436801A90025ADF804203222E0
:100FB0008DF806200322186800F05AFD636840F29D
:100FC000334201A98DF80650ADF8042003221868B9
:100FD00000F04EFD342301A90322ADF804300223B2
:100FE0008DF806306368186800F042FD40F2344323
:100FF00001A90322ADF8043022238DF8063063687E
:10100000186800F035FD352301A90322ADF804303E
:1010100063688DF80650186800F02AFD362301A990
:101020000322ADF8043042238DF806306368186857
:1010300000F01EFD636841F2360201A98DF80650EA
:10104000ADF804200322186800F012FD41F23612B8
:10105000636801A9ADF8042020228DF80620032240
:10106000186800F005FD40F23572636801A9ADF81B
:10107000042004228DF806200322186800F0F8FCF2
:1010800040F63522636801A9ADF804204F228DF89F
:1010900006200322186800F0EBFC44F6304282235D
:1010A00010E73122436801A9ADF8042002228DF82F
:1010B00006200322186800F0DBFC40F2331263685C
:1010C00001A9ADF80420DE228DF80620032218685D
:1010D00000F0CEFC40F23342636801A9ADF8042071
:1010E00000228DF806200322186800F0C1FC34228B
:1010F000636801A9ADF8042001228DF806200322BF
:10110000186800F0B5FC40F234426368ADF8042082
:1011100008223CE7F47203024368312132220025A1
:10112000ADF8041001A98DF80620032218684FF0CD
:10113000020800F09DFC636840F2334201A98DF87B
:101140000650ADF804200322186800F091FC636893
:10115000342201A98DF80680ADF804200322186816
:1011600000F086FC40F2344301A90322ADF80430BC
:1011700022238DF806306368186800F079FC352367
:1011800001A98DF80650ADF8043003226368186891
:1011900000F06EFC362301A90322ADF8043042238F
:1011A0008DF806306368186800F062FC636841F2ED
:1011B000360201A98DF80650ADF804200322186804
:1011C00000F056FC41F23612636801A9ADF8042024
:1011D00020228DF806200322186800F049FC40F216
:1011E0003572636801A9ADF8042004228DF8062049
:1011F0000322186800F03CFC40F63522636801A920
:10120000ADF804204F228DF806200322186800F064
:101210002FFC44F63042636801A9ADF80420822215
:101220008DF806200322186800F022FC54E600BF67
:10123000C37813B1012B02D07047FFF749BCFFF709
:10124000F3BD00BF2DE9F0470E4682B0044600F022
:101250008BF9042E00F2B480DFE806F0266C498F8B
:101260000300654E01AD4FF6FF7936F8047C03228A
:1012700016F8028C04366368390A8DF805708DF80B
:10128000041029468DF80680186800F0F1FB4F45E0
:10129000EBD1B8F1FF0FE8D104263046667002B0FA
:1012A000BDE8F04700F0ECB8544F01AD4FF6FF7ABF
:1012B00037F8048C032217F8029C043763684FEA5E
:1012C00018218DF805808DF8041029468DF80690B8
:1012D000186800F0CDFBD045EAD1B9F1FF0FE7D196
:1012E0003046667002B0BDE8F04700F0C9B8444F20
:1012F00001AD4FF6FF7A37F8048C032217F8029CF1
:10130000043763684FEA18218DF805808DF80410C2
:1013100029468DF80690186800F0AAFBD045EAD15E
:10132000B9F1FF0FE7D13046667002B0BDE8F04773
:1013300000F0A6B8334F01AD4FF6FF7A37F8048CB2
:10134000032217F8029C043763684FEA18218DF8CE
:1013500005808DF8041029468DF80690186800F075
:1013600087FBD045EAD1B9F1FF0FE7D1304666706F
:1013700002B0BDE8F04700F083B8234F01AD4FF64F
:10138000FF7A37F8048C032217F8029C043763684D
:101390004FEA18218DF805808DF8041029468DF844
:1013A0000690186800F064FBD045EAD1B9F1FF0F50
:1013B000E7D13046667002B0BDE8F04700F060B893
:1013C0000D4E01AD4FF6FF7936F8047C294616F82C
:1013D000028C043663683A0A8DF805708DF8042093
:1013E00003228DF80680186800F042FB4F45EBD1D0
:1013F000B8F1FF0FE8D14FE7147403022073030222
:10140000B473030250730302E473030238B5C37864
:1014100013B1012B27D038BD0D46044600F0A4F8C7
:10142000032D24D8DFE805F019130D029022B02116
:101430002046FFF721F928466570BDE8384000F0E6
:101440001FB87822A0212046FFF716F9F3E76022A3
:1014500020461146FFF710F9EDE7402260212046B3
:10146000FFF70AF9E7E7BDE83840FFF7EBBEF022E7
:101470004FF4A07120460425FFF7FEF8DBE700BF1C
:10148000042870B584B003D90025284604B070BD87
:101490000D4B04460D4E53F8241056F820002BF047
:1014A00085FB01A9054656F824002BF063FB9DF847
:1014B000043023B9064B28461C7004B070BD0825C3
:1014C000284604B070BD00BF600A00224C0A00220A
:1014D000DD14002270B51D4E84B01D4D04463378D6
:1014E00001A955F823002BF045FB9DF8043053BBB0
:1014F00034B13378214655F823002BF075FCC8B978
:1015000014490023144D154E154A164C08684FF423
:10151000FA612B603370137023602DF0E7F910B976
:101520004FF000732360337833B1206800232B60C1
:1015300004B070BD084DF9E72368002BF5D14FF0DA
:1015400000732360F1E7082004B070BDDD140022B1
:101550004C0A0022F0140022E0140022E4140022BD
:10156000EC140022E8140022044B1B78042B00D951
:101570007047034A52F823002BF0FEBBDD14002213
:101580004C0A0022084B05200021032210B5074C0D
:101590001870012021602CF0FFFB054B002818601B
:1015A0000CBF0920002010BDDD140022E014002231
:1015B000F01400220368002200B5B3F5802F83B039
:1015C000019206D021D8B3F5803F02D0B3F5003F99
:1015D00016D114490120144A08701360134B01A955
:1015E00018682CF093FF019B3BB1114B4FF08052D8
:1015F0005A60BFF34F8FBFF36F8F03B05DF804FBEA
:10160000012BFAD10B4A1370E8E7B3F5000FE0D0D5
:10161000B3F1007FDDD0B3F5801FDAD003B05DF801
:1016200004FB00BFEC140022E8140022F014002296
:1016300000ED00E0E4140022002070472DE9F041A5
:101640000F4682B0154638B3012821D13F2A54D81D
:1016500006462D490DF107042C48DFF8B0802AF02A
:10166000A3FF03E09DF80730012B05D1214640463A
:101670002AF0F4FE0028F5D03246394623482BF0F4
:1016800015F9044621482AF0F7FE002C18BF002562
:10169000284602B0BDE8F081B2F5004F2AD3C2F36C
:1016A0000E034FEAD2380BB108F1010872B61649A1
:1016B0000DF107041548154E2AF076FF03E09DF85A
:1016C0000730012B05D1214630462AF0C7FE0028FD
:1016D000F5D0424639460D482BF0E8F804460B4851
:1016E0002AF0CAFE62B6002C18BF0025284602B0B8
:1016F000BDE8F0814FF00108D8E7930601D19609C3
:10170000A7E79009461CA4E7C88E0402243E0022E5
:101710002DE9F0430E46A3B015461C4678B30128C8
:1017200040F0BA80032B00F2EF80002202AF029259
:1017300023B11A462946384631F068FFA84C0DF10E
:101740000705A84920462AF02FFF03E09DF807303F
:10175000012B05D1294620462AF080FE0028F5D02D
:101760000423324639469E482BF064F804469C48D0
:101770002AF082FE002C14BF002404248DE07F2B6D
:1017800040F292805A0623F07F0414BF03F101084F
:10179000984672B6DFF8489202AF924948462AF05E
:1017A00003FF03E09DF80830012B05D13946484678
:1017B0002AF054FE0028F5D02346324629468848B0
:1017C0002BF038F8814686482AF056FE62B6A045CE
:1017D00000F0F680B9F1000F5ED1A8EB04087C227E
:1017E000494603A8CDF8089031F037FF4FF6F6735D
:1017F000A8F109029A4200F2E88049464FEA980CA3
:101800002A193B46013152F8040B8C4543F8040B6E
:10181000F8D828F00302904593B219D0A91888325D
:10182000095D6A4402F8801C5A1C92B242450FD2EC
:101830000233A91888329BB2095D6A44984502F8C0
:10184000801C05D91D4488332A5D6B4403F8802C25
:1018500006EB040872B663490DF107056048604E57
:101860002AF0A2FE03E09DF80730012B05D129469E
:1018700030462AF0F3FD0028F5D080234246394651
:1018800057482AF0D7FF814655482AF0F5FD62B641
:10189000B9F1000F00F09280002451482AF0ECFDCD
:1018A000204623B0BDE8F083014602907C2203A8C5
:1018B00002AF31F0D2FE24B122462946384631F03B
:1018C000A5FE72B6464C0DF10705464920462AF0A2
:1018D0006BFE03E09DF80730012B05D12946204619
:1018E0002AF0BCFD0028F5D08023324639463C481A
:1018F0002AF0A0FF04463A482AF0BEFD62B6002C4A
:1019000014BF00248024C8E7DFF8D490A30735492A
:1019100002AF484614BF04F10108A04624F00304B6
:101920002AF042FE03E09DF80830012B05D139462C
:1019300048462AF093FD0028F5D023463246294632
:1019400027482AF077FF814625482AF095FD44452F
:1019500036D0B9F1000F9FD10023A8EB04081A4636
:1019600002932A44115D5A1C88336B4403F8801C8F
:1019700093B243451A46F4D31A49264418480DF148
:101980000705DFF85C802AF00FFE03E09DF80730C2
:10199000012B05D1294640462AF060FD0028F5D0EC
:1019A0000423324639460E482AF044FF81460C484B
:1019B0002AF062FDB9F1000F7FF46EAF80346CE75E
:1019C000B9F1000F3FF469AF66E725443B46A844F0
:1019D00015F8012B454503F8012BF9D138E700BF75
:1019E000243E0022C88E0402B0FBF1F0704700BF15
:1019F00070B5194D82B02C69D4E9011320681B68B9
:101A0000984718BB6B6833B101460120D3E90062E7
:101A10002CF00AFA30602B682BB11D68042059683D
:101A20002CF04EFC2860206801A929F06BF89DF885
:101A300004300A48002B14BF002407242BF0E8FFD1
:101A4000074B024620461A6002B070BD054BE121EB
:101A5000054A06482BF03AFC78110022F8140022BF
:101A6000F4140022EC7503021876030200760302D8
:101A700010B582B022F0A4FA01220446FA210748E8
:101A800000230068009111462BF0EAFF10F0010FCF
:101A900014BF2046122002B010BD00BFF414002273
:101AA0002DE9F04385B0164602221F468DF80D1031
:101AB000090A0546DFF858908DF80C1003A922F0AA
:101AC0007FFA4FF0FA08012204460023D9F80000FB
:101AD0001146CDF800802BF0C3FFC20714D51CB10E
:101AE000204605B0BDE8F0833A463146284622F04C
:101AF00065FA01222346D9F800001146CDF800808E
:101B00002BF0AEFFC307EBD4122005B0BDE8F08385
:101B1000F41400222DE9F043002485B0164601227A
:101B2000ADF80C401F468DF80C1003A90546DFF8F0
:101B30005C9022F045FA4FF0FA0801222346CDF8D6
:101B4000008004461146D9F800002BF089FFC20737
:101B500017D51CB1204605B0BDE8F0833A463146A2
:101B6000284622F02BFA04460028F3D1012203462E
:101B7000CDF80080D9F8000011462BF071FFC307A3
:101B8000E8D4122005B0BDE8F08300BFF4140022B1
:101B900000B5002383B0019398B1027901200A496E
:101BA00001AB00FA02F2094809682EF069FD019BB9
:101BB0003BB1074B4FF080525A60BFF34F8FBFF3DA
:101BC0006F8F03B05DF804FBF414002229DC0202DD
:101BD00000ED00E0022836D810B4EFF310810123A5
:101BE00083F31088184B1A681AB9184C22754022D2
:101BF00022751A6801321A6081F31088144A154C54
:101C000032F81020110A090151FA82F2124954F8EF
:101C10002200014041F0040144F82210EFF3108249
:101C2000012181F31088196811B11968013919600F
:101C30001B681BB9054980200B75087582F3108855
:101C40005DF8044B7047704794500022000D4040EF
:101C50003876030200084040FE3FFEFF022836D8D7
:101C600010B4EFF31081012383F31088184B1A6826
:101C70001AB9184C2275402222751A6801321A606E
:101C800081F31088144A154C32F81020110A09010A
:101C900051FA82F2124954F82200014041F0050144
:101CA00044F82210EFF31082012181F310881968A3
:101CB00011B11968013919601B681BB905498020E9
:101CC0000B75087582F310885DF8044B70477047F8
:101CD00094500022000D4040387603020008404036
:101CE000FE3FFEFF02283ED810B4EFF3108101231F
:101CF00083F310881C4B1A681AB91C4C22754022B9
:101D000022751A6801321A6081F31088184A19493D
:101D100032F81020100A000150FA82F251F8220025
:101D200051F8224010F0020F134800EA040014BFDB
:101D300040F0040040F0050041F82200EFF310826B
:101D4000012181F31088196811B1196801391960EE
:101D50001B681BB9054980200B75087582F3108834
:101D60005DF8044B7047704794500022000D4040CE
:101D70003876030200084040FE3FFEFF10B50D49D3
:101D800084B00D4829F04EFC0C490D4829F04AFC5E
:101D900008B100BFFDE7044601A9074829F0FEFB92
:101DA000029B0849084AA1FB031354609B0C136073
:101DB00004B010BD2C8F0402883E0022DC8E040289
:101DC000683E002283DE1B431815002208B5044834
:101DD00029F0A6FB034B00200021C3E9000108BD48
:101DE000883E002220150022014829F099BB00BF3F
:101DF000683E0022014829F08DBB00BF683E0022EA
:101E000003793BB9044AD2E90031013341F10001C1
:101E1000C2E90031704700BF2015002230B50F4DD8
:101E200083B000200121D5E9002330F027FA0C4BC4
:101E3000044669461B680B4803FB04F429F076FB53
:101E400000980021D5E9002330F018FA064B204411
:101E5000A3FB0030800903B030BD00BF181500227D
:101E600020150022883E0022D34D621030B50D4D62
:101E700083B000200121D5E9002330F0FFF90A4B9F
:101E8000044669461B68094803FB04F429F04EFB2D
:101E900000980021D5E9002330F0F0F9204403B088
:101EA00030BD00BF1815002220150022883E0022F8
:101EB000054B1B688B4204DB044B03EBC1014868F4
:101EC00070470020704700BF001D0022E81B002261
:101ED000054B1B68994204DC044B03EBC1014868C5
:101EE00070470020704700BF001D0022E81B002241
:101EF000704700BF38B5274BB3F90C0081421BD0A7
:101F000047F6FF7290421BD0B3F91C00814234D0D7
:101F1000904234D0B3F92C00814232D0904232D07A
:101F2000B3F93C00884230D0904230D004211A48A6
:101F300014F046FF002038BD002003EB001038BD30
:101F4000002201EB410E154C03EB021004EBCE0C0A
:101F500014F83E4012019CF801E0022CDCF8085015
:101F6000DCF8044080F808E0456002D10C4D2D6893
:101F70002C449C501344998138BD0120DDE7012297
:101F8000DFE70220D9E70222DBE70320D5E70322BF
:101F9000D7E700BFA81B002240760302740A002284
:101FA00028150022034B10B50446036014F074FAA0
:101FB000204610BDD4DB0302054B10B50446036078
:101FC00014F06AFA204614F0A9FF204610BD00BFA5
:101FD000D4DB030210B50B46194A00EB400E00217A
:101FE0004FEA400C83F82D1002EBCE0112F83EE0D0
:101FF0004C78BEF1020F83F814E01C70CC689C6131
:102000008C6849689C6002D10E4C2468214460446D
:10201000596003F1300C02EBC00202F1100103C958
:102020008CE8030093F83010012900D010BD5269EC
:10203000D2E9001249685268D9601A6110BD00BF28
:10204000740A00222815002238B5214B0D46B3F939
:1020500040108D421CD047F6FF7291421FD0B3F959
:1020600084108D4228D0914228D0B3F9C8108D42F7
:1020700026D0914226D0B3F90C11A94224D0914226
:1020800024D000240421134814F09AFE204638BDC1
:10209000002404EB041403EB8404204638BD002420
:1020A00004EB0414284603EB84042146FFF792FF57
:1020B0002046A4F8405038BD0124EAE70124EFE7A8
:1020C0000224E6E70224EBE70324E2E70324E7E740
:1020D000981A00227876030211F00F0270B50D46AF
:1020E0001BD001F110039B1A194E1A4A346812686A
:1020F000E31A9A4213D9184E3368272B1CD80121B2
:10210000284614F005FF0446E8B1336813495A1C09
:1021100041F823003260204670BD0B46E4E7641BA3
:102120002A4600210F3C24F00F041034204634606E
:1021300031F093FA204670BD00242946084814F077
:102140003FFE204670BD2946064814F039FEE2E7FE
:102150005C1C0022581C0022041D0022601C00226E
:10216000B07603023077030238B5214B0D46B3F940
:1021700040108D421CD047F6FF7291421FD0B3F938
:1021800084108D4228D0914228D0B3F9C8108D42D6
:1021900026D0914226D0B3F90C118D4224D0914221
:1021A00024D000240421134814F00AFE204638BD30
:1021B000002404EB041403EB8404204638BD0024FF
:1021C00004EB0414284603EB84042146FFF702FFC6
:1021D0002046A4F8405038BD0124EAE70124EFE787
:1021E0000224E6E70224EBE70324E2E70324E7E71F
:1021F000981A00227876030238B5274BB3F90C0001
:1022000081421BD047F6FF7290421BD0B3F91C00ED
:10221000814234D0904234D0B3F92C00814232D084
:10222000904232D0B3F93C00814230D0904230D05D
:1022300004211A4814F0C4FD002038BD002003EB2F
:10224000001038BD002201EB410E154C03EB0210CB
:1022500004EBCE0C14F83E4012019CF801E0022C75
:10226000DCF80850DCF8044080F808E0456002D152
:102270000C4D2D682C449C501344998138BD01208D
:10228000DDE70122DFE70220D9E70222DBE70320B6
:10229000D5E70322D7E700BFA81B00224076030240
:1022A000740A00222815002211F00F0270B50D46A5
:1022B0001BD001F110039B1A194E1A4A3468126898
:1022C000E31A9A4213D9184E3368272B1CD80121E0
:1022D000284614F01DFE0446E8B1336813495A1C21
:1022E00041F823003260204670BD0B46E4E7641BD2
:1022F0002A4600210F3C24F00F041034204634609D
:1023000031F0ABF9204670BD00242946084814F08E
:1023100057FD204670BD2946064814F051FDE2E7FE
:102320005C1C0022581C0022041D0022601C00229C
:10233000B076030230770302F8B5294F3D680D2DC2
:102340002CD8164611F00F020C4623D10B46254916
:10235000254A08681168CB1A984224D9234D2B6866
:10236000272B2DD80121204614F0D2FD034688B337
:102370002A681F4941F8220001322A603D686A1C20
:10238000002035603A601B4A42F8354002EBC50236
:102390005360F8BD01F110039B1AD8E7164814F0FA
:1023A0000FFD0120F8BD0B1B00210F3B23F00F0395
:1023B000103313601846224631F04FF90346DEE72A
:1023C00021460E4814F0FCFC21460D4814F0F8FCA0
:1023D0000120F8BD21460B4814F0F2FCF4E700BFE1
:1023E000001D0022581C00225C1C0022041D00223B
:1023F000601C0022E81B002268770302B07603020B
:10240000C077030230770302F8B5294F3D680D2DE0
:102410002CD8164611F00F020C4623D10B46254945
:10242000254A08681168CB1A984224D9234D2B6895
:10243000272B2DD80121204614F06AFD034688B3CE
:102440002A681F4941F8220001322A603D686A1C4F
:10245000002035603A601B4A42F8354002EBC50265
:102460005360F8BD01F110039B1AD8E7164814F029
:10247000A7FC0120F8BD0B1B00210F3B23F00F032D
:10248000103313601846224631F0E7F80346DEE7C2
:1024900021460E4814F094FC21460D4814F090FC9F
:1024A0000120F8BD21460B4814F08AFCF4E700BF78
:1024B000001D0022581C00225C1C0022041D00226A
:1024C000601C0022E81B002268770302B07603023A
:1024D000C0770302307703022DE9F04F764E0346B2
:1024E000764C91B01020314698472060002800F0CB
:1024F000D2808319724E734D3360002328600AA87E
:102500001A46194614F070F86F4A0AA96F4B916089
:102510006F490A9351636F496F4BD1636F4903F55C
:10252000D86711646E49D1646E4911656E491161B5
:1025300048211160296802E018339F420ED01A78B2
:10254000022AF9D1586822680244D86802449142AC
:10255000F2D2183311462A609F42F0D133688B4281
:10256000C0F09380684610F02BFF6C465F4E0FCC96
:102570000FC60FCC0FC62368684646F8203911F005
:102580002DFC6D465A4C0FCD0FC40FCD0FC42B68D8
:102590006846236010F07EFB6D4604340FCD0FC4F7
:1025A0000FCD0FC42B686846236013F0BBFC6D464B
:1025B00004340FCD0FC40FCD0FC42B6868462360C1
:1025C00013F020FEEC4604F1040E4A4F4FF00008D1
:1025D000DFF83491DFF8F0B007F58C6A3C464D46E1
:1025E000BCE80F00AEE80F00BCE80F00AEE80F003B
:1025F000DCF80030CEF800302B7BD5E9000103EB8E
:10260000C303C4E90688C4E9000156F82330A96869
:1026100061611BB10022584698472061283410356B
:102620005445E9D1344C354DDFF89C8004E028371F
:1026300009F11009574525D099F80C3003EBC30375
:1026400006EB83039A68002AF1D047F6FF733946F8
:102650004046A4F84030A4F88430A4F8C830A4F868
:102660000C31AB81AB83AB85AB87904783460028A9
:10267000DDD0164B0AA80A9313F00EFF584611B08E
:10268000BDE8F08F4FF0000BF3E71D4814F098FB06
:102690004FF0010BEDE74FF0010B1A4814F090FBDF
:1026A000584611B0BDE8F08F084B0AA80A9313F002
:1026B000F3FE2EF073F800BFF09F030028150022F0
:1026C0005C1C0022581C0022E0150022D4DB03020F
:1026D000D920000209240002740A0022B11E00025F
:1026E00049200002F51E0002016601022C1500229D
:1026F0005015002238160022981A0022A81B00222A
:102700001C780302F4770302A8D7030200B5164A27
:102710004FF0000E0B4681F82DE0D068117892F84A
:1027200001C098610229906883F800C0197598600B
:1027300015D050680D4903F1300C586003C98CE87E
:10274000030093F83010012906D15269D2E9001232
:1027500049685268D9601A6100205DF804FB044999
:10276000506809680844E5E7740A0022840A0022D8
:1027700028150022194A0B46002092F8A81610B41A
:1027800092F8A946022983F82D001C70D2F8B006F1
:10279000D2F8B44619759C61986018D0D2F8AC068E
:1027A0000F4903F1300C586003C98CE8030093F81B
:1027B0003010012907D1D2F8BC26D2E900124968AD
:1027C0005268D9601A6100205DF8044B70470549D2
:1027D000D2F8AC0609680844E2E700BF740A002298
:1027E0002C110022281500222DE9F84F164D47F62E
:1027F000FF74DFF860B0DFF860A005F58C69134E58
:10280000DFF85880124F01E04D451AD09BF80C308C
:1028100029463846AAF8404003EBC303AAF884408F
:10282000AAF8C840283508EB8303AAF80C41B48104
:102830000BF1100BDB68B483B485B487984700288C
:10284000E2D0BDE8F88F00BF38160022A81B002296
:10285000E0150022A8D70302981A00222C150022A6
:102860000B4A034670B50B4E0024106898470A4A7D
:102870003368146043B1094D55F8040B013414F06A
:1028800049FB3368A342F7D80020306070BD00BF19
:1028900028150022041D0022001D0022601C0022B9
:1028A0002A4A47F230502A4B12682A4910441144F0
:1028B00030B402F51044C3F84405C3F8740502F5BA
:1028C0005850C3F8244402F5904402F55845C3F823
:1028D0008414C3F8544402F5D844C3F8B41402F580
:1028E000D851C3F8E444C3F8144502F56A54C3F858
:1028F000EC0502F59070C3F88C4502F5FC545A6063
:10290000C3F83C24C3F86C24C3F89C24C3F8CC540B
:10291000C3F8FC24C3F82C25C3F85C25C3F8A41520
:10292000C3F8BC25C3F8D415C3F80416C3F81C2695
:10293000C3F83446C3F84C16C3F86426C3F87C16B3
:10294000C3F89406C3F8AC2630BC704728150022A3
:10295000740A002230C20100704700BF0020704797
:1029600000207047704700BF01207047054B0020D2
:1029700082B01B689AB21B0C62F30F0063F31F4016
:1029800002B070473411002202480523086013701A
:10299000704700BF3411002270B58EB282B0044679
:1029A0000D0C602E019115D0A02E09D0B02E31D182
:1029B000902D27D000231846C4E9033302B070BD20
:1029C000782DF7D102214068FEF720FD022384F81C
:1029D00029300AE0402D0DD0602DEBD10121406857
:1029E000FEF714FD012384F829300120C4E90365B2
:1029F00002B070BD00214068FEF708FD002384F896
:102A00002930F2E703214068FEF700FD032384F834
:102A10002930EAE7B6F5A07FCCD1F02DCAD1042148
:102A20004068FEF7F3FC042384F82930DDE700BF9B
:102A300038B50C46D0E9031301FB03F3590003EB4F
:102A4000430393422FD805460A461C48002130F024
:102A500004FE1A496868FDF7D9FE48BBD5E903238F
:102A600002FB03FC3CF0004C1BD0E11C0CEB4C0CBB
:102A700013488C4410F8012C033110F8024C02303A
:102A8000D3088C4524F0070E4FEAC20203F01C0362
:102A900001F806EC43EA441301F8042C01F8053C64
:102AA000E8D1012038BD074814F08AF9002038BD6C
:102AB0000146054814F084F9002038BD0000006884
:102AC0000200006800DC030214DC03020368F0B5B6
:102AD0001546DF68294A85B006460C46974242D122
:102AE000274A019205228DF803209B68254A9342CC
:102AF00033D1234B1A885B88A24201D3AB4224D244
:102B00009DF80360002E34D0019F711ECAB2391D9A
:102B10003B4601EB82011888A04202D35888A842A4
:102B200018D204338B42F6D16FF0404333449B00FC
:102B3000FB580393BDF80C200020BDF80E3062F363
:102B40000F0063F31F4005B0F0BDADF80C20ADF8E9
:102B50000E30EFE718680390ECE730469847029094
:102B600082B2030CC8E70DF1030201A9B84733682C
:102B7000BBE7019F6FF00303DAE700BF892900027A
:102B8000341100226D290002F0B5076885B0DFF826
:102B9000DCC006467B6963454AD11546FB682F4A6F
:102BA0000C46934250D12E4B029305238DF80730EB
:102BB000BB682C4A93423FD1294BB3F800C05988D7
:102BC00064452CD99DF80700002843D0029A00F1F3
:102BD000FF3E5FFA8EF302F1040E0EEB830E1346F6
:102BE000B3F800C0644502D859888D420AD904332D
:102BF0009E45F5D16FF0404303449B00D11832F855
:102C000003C04988ADF808C0ADF80A103B693046EA
:102C100002999847044628B1204605B0F0BD8D4280
:102C2000F0D9CFE7104814F0CBF8204605B0F0BD3E
:102C3000984737680290E9E73046984737681FFAA7
:102C400080FC0390010CBBE70DF1070202A9984735
:102C50003768ADE7029A6FF00303CFE789290002D6
:102C6000341100226D29000240DC0302CD2A00024B
:102C700010B5194A0446194B0260D3E88F2FD207CA
:102C800013D5174A002317494FF4806C108A528AD3
:102C9000E0602046A4F828C0616023772261238188
:102CA000C4E90833C4E9053310BD18462EF08AF98B
:102CB0000028E6D00B48FDF72DFD0B4A0B490948CB
:102CC0002DF0F2FC05482EF08CF9DAE703482EF0DF
:102CD00085F92DF063FD00BF94DD0302081D00227D
:102CE00034110022101D0022641400225929000210
:102CF00010B504464068FDF715FD6068FDF7D8FD86
:102D000084F8280060B16068FEF784F804236068E6
:102D1000002184F82930FEF78BFA94F8280010BDC2
:102D20006068FDF739FD94F8280010BD0C4808B51F
:102D3000D0E88F3FDB0701D50A4808BD2EF042F9E5
:102D40000028F9D00748FFF793FF05482EF049F90E
:102D5000044808BD02482EF041F92DF01FFD00BFC8
:102D60000C1D0022181D002290F82800704700BF9B
:102D70000368DFF858C1F0B55F6985B004460D46B9
:102D8000674516467CD1DF684A4A974240F0828008
:102D9000494A029205228DF807209B68474A9342D0
:102DA00071D1454BB3F800C0598865454CD99DF8A1
:102DB00007700298002F7AD07A1ED3B2021D02EB60
:102DC00083020346B3F800C0654502D859888E4295
:102DD0000AD904339342F5D16FF040433B449B0042
:102DE000C21830F803C05188ADF808C0ADF80A1019
:102DF000637A63BB2368204602991B69984707469C
:102E0000002837D0E3682069AB42C4E905562DD0CD
:102E10003A4600FB03F306FB05F522779D4238BFD7
:102E20001D4605EB4500606214F070F80346206211
:102E3000002835D00123224A1021106823722AF07D
:102E4000A9FE384605B0F0BD8E42CDD9AFE71C4B88
:102E5000082118682AF09EFE637A002BCAD00A2047
:102E600013F09CFF637A002BF9D1C3E7821B18BFD4
:102E70000122CEE7134813F0A3FF384605B0F0BD9A
:102E8000B8470290B4E72046984703901FFA80FCA9
:102E9000010C8AE70DF1070202A9B84723687CE715
:102EA0001F46094813F08CFF384605B0F0BD6FF09F
:102EB000030395E789290002341100226D290002DD
:102EC0008C35002240DC030268DC0302CD2A0002BC
:102ED0002DE9F04390F8089083B0B9F1000F3BD092
:102EE00003680546D0E908121B6898478146002808
:102EF00041D02B7FA3BB4FF42B70D5F82080D5E9B0
:102F00000534002503FB04F414F000F8074604EB35
:102F1000440410E0D4B121464FF42B733A4608EB39
:102F20000500254434460DF0C3FA4FF47A72014689
:102F30003846FDF73FFAB4F5007F4FF00006E9D9B7
:102F40006FF40073E61840F20124E4E7384613F00A
:102F5000E1FF0C4813F034FF484603B0BDE8F083AE
:102F6000D5E905212B6ACDE9002118462A69E968CF
:102F700014F0D8FABFE7044813F022FF484603B024
:102F8000BDE8F08364DF030290DC0302D0F800C0E8
:102F90002DE9F043DCF8183085B0624E07460D4647
:102FA0001446B34240F08780DCF814305E4EB342E2
:102FB00040F09680DCF80C305C4A934240F09580FB
:102FC0005B4B5C4A029305238DF80730DCF8083030
:102FD000934240F09680564B19885E888D425DD9A9
:102FE0009DF807E0BEF1000F00F09880029A0EF104
:102FF000FF30C3B2101D00EB8300134619888D42C9
:1030000002D85E88B44209D904339842F6D16FF0F1
:10301000404373449B00D018D15A4688ADF808103D
:10302000ADF80A60DCF8103038460299984700285D
:103030004DD005FB04F404EB4404204613F066FF76
:103040008046002865D03B682246384641461B68CA
:103050009847814640B34FF42B70002513F056FF7C
:10306000074610E0ECB121464FF42B733A4608EBCB
:103070000500254434460DF01BFA4FF47A720146E0
:103080003846FDF797F9B4F5007F4FF00006E9D90F
:103090006FF40073E61840F20124E4E7B442BDD9AE
:1030A0009EE7384613F036FF404613F033FF48469C
:1030B00005B0BDE8F08398470028BAD11E484FF00C
:1030C000000913F07DFE484605B0BDE8F0831B48BB
:1030D0004FF0000913F074FE174813F071FEF2E789
:1030E0009847D7F800C002909CE70DF1070202A9AB
:1030F0009847D7F800C00F4ADCF8083093423FF4F5
:103100006AAF38469847D7F800C081B20390060CE2
:1031100064E70B48C14613F053FEC8E7029A6FF00C
:10312000030378E7892B0002CD2A000289290002D7
:10313000341100226D290002C4DC030240DC0302CA
:10314000DCDC0302007A704738B5044603F0E8FC83
:103150000546206A13F0DEFE00230C48236213F0BC
:103160002FFE2B680A4A9B6F93420CD1642013F008
:1031700015FE084813F024FE074813F021FE002333
:103180000120237238BD28469847EFE7FCDC030294
:103190006529000204DD030228DD0302407A70473E
:1031A0002DE9F041D0F800E086B08E4E0446DEF8FE
:1031B00014300D461746B34240F0BF80DEF80C30A5
:1031C000894A934240F0D880884B894A0593052369
:1031D0008DF81030DEF80830934240F0D880834BF1
:1031E000B3F800C05988654540F299809DF8108079
:1031F0000598B8F1000F00F0EF8008F1FF32D3B26C
:10320000021D02EB83020346B3F800C0654502D8F5
:1032100059888F420AD904339A42F5D16FF040435E
:1032200043449B00C21830F803C05188ADF808C071
:10323000ADF80A10DEF81030204602999847804613
:10324000002873D0D4E90303C4E90557A84269D024
:10325000424603FB00F007FB05F52277854238BFA5
:1032600005466800606213F051FE034620620028A4
:1032700000F0AD80D4F800C05E4ADCF8183093420C
:10328000D4E9035740F08C80DCF81430ADB2BFB203
:10329000B34257D1DCF80C30534A934240F08F8050
:1032A000524B049305238DF80730DCF80830504A60
:1032B00093427CD14D4B1A885988954201D88F4250
:1032C0001DD99DF807E0049EBEF1000F00F0878035
:1032D0000EF1FF30C3B2301D00EB830033461A8875
:1032E000954202D859888F4209D904338342F6D1D6
:1032F0006FF0404373449B00F118F25A4988ADF8CF
:1033000010202046ADF81210DCF8103004999847D0
:1033100030B301236372404606B0BDE8F0818F42AE
:1033200084D963E7DA1B18BF012292E7324813F011
:1033300047FD404606B0BDE8F0819847D4F800E06C
:10334000029077E729463A4620469847D4F800C0CD
:1033500004902046DCF81030049998470028D8D112
:10336000254813F02DFD4FF00008244813F028FDE8
:10337000404606B0BDE8F08104AA05A99847D4F8F4
:1033800000E01B4ADEF8083093423FF428AF2046A5
:103390009847D4F800E01FFA80FC0390010C22E764
:1033A000BAB22046A9B298470028B2D1DBE720463E
:1033B0009847D4F800C082B20590010C7DE70DF16A
:1033C000070204A920469847D4F800C06DE70C48CE
:1033D000984613F0F5FC9EE76FF0030322E76FF0C9
:1033E000030389E7CD2A0002892900023411002253
:1033F0006D290002892B000240DC0302C4DC0302B9
:1034000068DC030210B50446006A13F083FD002354
:103410002362637210BD00BF38B5046A054664B10B
:10342000426A0021204630F018F9296A6868FDF7E1
:10343000EDF9B0FA80F0400938BD03486C7213F022
:10344000BFFC204638BD00BF2CDD030252081DD052
:103450000230033110B500EB420410F8012C0230A9
:1034600010F804CC0331D30884422CF0070E4FEA45
:10347000C20203F01C0301F806EC43EA4C1301F806
:10348000042C01F8053CE8D1012010BD0120704753
:103490002DE9F04180464FF42B700C46002513F0C7
:1034A00035FD074610E0D4B121464FF42B733A4660
:1034B00008EB0500254434460CF0FAFF4FF47A720D
:1034C00001463846FCF776FFB4F5007F4FF0000662
:1034D000E9D96FF40073E61840F20124E4E73846B6
:1034E00013F018FD0120BDE8F08100BFF8B5456874
:1034F000036903FB05F54DB103680F46164600212D
:103500009B682A4604469847854201D00020F8BDB2
:10351000226833463946204654680022A047301AB4
:10352000B0FA80F04009F8BD38307047503070472D
:1035300068307047803070479830704790ED2C0AA3
:10354000704700BFD0F8B400704700BFB830704774
:10355000D0307047E8307047024808B513F030FCAF
:10356000012008BD64DF030201292DE9F0418AB082
:1035700038DD0446006830F00AF8034660680093BE
:1035800030F005F80190009A019B9A4224D2194F1D
:10359000DFF86880019B009A9B1A1F2B20D8019EA0
:1035A000009BF61A002E09DD02AD0024013415F847
:1035B000011B384613F004FCA642F7DC404613F02A
:1035C000FFFB009A019B9A4206D8009B2033009390
:1035D000009A019B9A42DDD301200AB0BDE8F08138
:1035E0002026E1E7044813F0EBFB01200AB0BDE818
:1035F000F08100BFF0DD0302B8DD0302F8DD030255
:10360000F0B58DB0002304460D4606AF05938DF846
:1036100018300497FFF78AFB012D064625DD206848
:103620002FF0B5FF019060682FF0B1FF022D024628
:10363000019918D0A36893F90040A4F17904B4FA71
:1036400084F464093046FFF793FB98B1164813F0F1
:10365000B7FB9CB900240498B84201D013F05EFC7B
:1036600020460DB0F0BD0024ECE7104813F0A8FB95
:103670000124F0E70E4813F0A3FBF9E70D4813F01F
:103680009FFB642013F08AFB0B4B18680368DB6F09
:103690009847642013F082FBDCE70498B84201D01D
:1036A00013F03CFC2DF07AF83CDE0302FCDD030253
:1036B00024DE0302FCDC0302441D00222DE9F04756
:1036C000424C0E4605462368D3F80C01FFF766FD11
:1036D000012E41DD0746824628682FF058FF1FFA69
:1036E00080F868682FF053FF022E1FFA80F904D08B
:1036F000AB6893F90030792B34D04FB923684A4630
:103700004146D3F80C01FFF741FC0120BDE8F087EA
:103710004FF0000A2E4D082128682AF03BFA01E0FC
:1037200013F03CFB2368D3F80C01FFF737FD034689
:103730000120002BF4D123684A464146D3F80C01FE
:10374000FFF724FCBAF1000F32D1042128682AF0D7
:1037500021FA0120BDE8F0871E4813F031FB01205B
:10376000BDE8F0871C4813F02BFB642013F016FB18
:1037700020680368DB6F9847642013F00FFB002F6D
:10378000C8D123684A464146D3F80C01FFF7FEFB37
:10379000124813F015FB642013F000FB2068036847
:1037A0009B6F9847642013F0F9FA0120BDE8F08779
:1037B0000A4813F005FB642013F0F0FA2068036850
:1037C0009B6F9847642013F0E9FABEE7441D00227E
:1037D0008C350022FCDD0302FCDC03025CDE03020C
:1037E000002908B50DDD036893F90020A2F17902E4
:1037F000B2FA82F252090020012104F00FF80120F0
:1038000008BD0022F7E700BF0022012008B51146DD
:1038100004F004F8BDE8084004F046B9002208B5F9
:103820001146104603F0FAFFBDE8084004F03CB929
:1038300010B5064C206838B1054813F0C1FA20686D
:1038400003685B6E9847012010BD00BF441D002235
:1038500064DE03020129F0B583B042DD244F3C68E9
:10386000C4B106460D4600682FF091FE044670680C
:103870002FF08DFE022D014604D0B36893F900307D
:10388000792B10D020460CF0B3FE04462CB9194811
:1038900013F096FA204603B0F0BD174813F090FAE3
:1038A000204603B0F0BD0190144813F089FA38683F
:1038B0000368DB6F9847642013F070FA0199204683
:1038C0000CF096FE04460E4813F07AFA642013F0CA
:1038D00065FA386803689B6F9847642013F05EFAB6
:1038E000D4E70124074813F06BFA204603B0F0BD7B
:1038F000441D002290DE030264DF0302FCDC0302AD
:103900005CDE0302B8DD0302F0B5494A93B0002340
:1039100003AE11688DF80C3009A8CDE901630B687E
:103920001B6F98470A9B0CACBDF82420A34201985A
:10393000ADF8002060D0B04255D001930C9B039AA3
:1039400003930B9B0293002852D00A900C92002301
:103950000B9303700A98119B9DF84020A042089396
:103960008DF81C2001D013F0D9FA9DF800103148D1
:1039700013F026FA9DF801102F4813F021FA9DF854
:10398000003013B99DF801302BB301992B4813F087
:1039900017FA2B4813F014FA9DF81C30C3B1002419
:1039A000284D294F089B284603EB840233F8241046
:1039B000528813F005FA9DF81C305A1EA24204D01A
:1039C000384613F0FDF99DF81C3001349C42E9DBC8
:1039D0001E4813F0F5F90198B04201D013F09EFA99
:1039E000012013B0F0BDDDE90B12CDE901310392E6
:1039F0000A940CAC2046AAE70B9A32B1012A09D0EE
:103A000021462FF003FE0B9A019800230292835463
:103A10000A989CE79DF9303003700B9A0198F4E7FF
:103A20000198B04201D013F079FA2CF0B7FE00BF34
:103A3000441D0022B0DE0302CCDE0302E8DE0302F6
:103A400004DF030228DF030230DF030220DF03026A
:103A500008B50B4B0B4A186803689B6993420CD15D
:103A600068300168084813F0ABF9084813F0A8F96A
:103A7000074813F0A5F9012008BD9847F1E700BFFA
:103A8000441D00223135000234DF030248DF030207
:103A900058DF030210B5154C206800B30368144AC0
:103AA0001B6D93421CD1E8300168124813F088F96D
:103AB0002068114A03681B6C934213D1B830016827
:103AC0000E4813F07DF920680D4A03689B6C934201
:103AD0000AD1D03001680B4813F072F9012010BDF3
:103AE0009847E1E79847EAE79847F3E7441D002243
:103AF0005535000268DF03024D35000278DF03020E
:103B00005135000288DF030210B51F4C20680028E1
:103B100030D003681D4A9B6A93422CD198300168CB
:103B20001B4813F04DF91B4813F04AF920681A4A54
:103B300003681B6B934220D190ED2C0A13F064F9BB
:103B4000164813F03DF92068154A03689B6B9342B1
:103B500015D1D0F8B410134813F032F92068124A86
:103B600003681B6A93420DD1803001680F4813F03F
:103B700027F9012010BD9847D1E79847DEE798471D
:103B80000146E8E79847F0E7441D00223935000276
:103B900098DF0302A8DF03023D350002B4DF030211
:103BA00045350002BCDF030235350002D4DF0302D5
:103BB00070B505464FF46D7013F0A8F9044600285F
:103BC0005FD04FF46D7200212FF047FD69688022AD
:103BD00020462FF09DFF8022E969A0182FF098FF62
:103BE000D5F8B43095F8341004F58670D5F8B020C7
:103BF00084F80011C4F804218022D5F89810C4F884
:103C000008312FF085FFD5F88010212204F5C67009
:103C10002FF07EFFD5F8B810802204F2AD102FF0FF
:103C200077FFD5F8D010802204F22D202FF070FFFE
:103C3000D5F8E810802204F2AD202FF069FFA96EBC
:103C4000802204F22D302FF063FFD5F80051194A7D
:103C50002B6819495E69C4F8B013964222D16E6888
:103C60002A6902FB06F636B19B68324600212846D7
:103C70009847864208D00025204613F04BF9284685
:103C800070BD0546284670BD296828464FF46D73FF
:103C900000224D682146A847A0F56D75B5FA85F557
:103CA0006D09E9E728464FF46D722146B047054695
:103CB000E2E700BFED340002EFBEADDE10B5464CCA
:103CC000464813F07DF8206800B30368444A1B6936
:103CD00093427FD150300168424813F071F8206858
:103CE000414A0368DB68934272D1383001683F482B
:103CF00013F066F83E493F4813F062F82068036805
:103D00005B6F984701463C4813F05AF83B4813F064
:103D100057F83B4813F054F8384813F051F8394835
:103D200013F04EF8FFF7F0FD344813F049F8364829
:103D300013F046F80321354813F042F8344935486A
:103D400013F03EF82D4813F03BF8334813F038F8E1
:103D5000324813F035F8324813F032F8314813F096
:103D60002FF8314813F02CF8304813F029F8304878
:103D700013F026F8214813F023F82E4813F020F80A
:103D8000FFF7C2FE1D4813F01BF82B4813F018F87C
:103D9000FFF780FE194813F013F8284813F010F8C5
:103DA0002068274A03689B6993420FD168300168F5
:103DB000244813F005F8244813F002F8234812F0C1
:103DC000FFFF0E4812F0FCFF012010BD9847EEE700
:103DD00098478BE798477EE7441D0022E4DF030203
:103DE0002D35000200E003022935000214E0030231
:103DF00028E0030230E0030244E0030264DF030230
:103E000064E003027CE0030294E00302B0E00302FA
:103E1000C8E00302E8E0030200E1030214E1030248
:103E200024E1030234E1030244E1030264E10302FA
:103E300074E1030284E10302A8E10302C8E1030282
:103E40003135000234DF030248DF030258DF03028A
:103E500080ED2C0A01B9704703683F4A1B68934202
:103E600070B504466ED14FF46D7013F04FF80546EF
:103E7000002866D04FF46D7200212FF0EEFB6168D0
:103E8000802228462FF044FE8022E169A8182FF0F6
:103E90003FFED4F8B43094F8341005F58670D4F8A9
:103EA000B02085F80011C5F804218022D4F89810BC
:103EB000C5F808312FF02CFED4F88010212205F52A
:103EC000C6702FF025FED4F8B810802205F2AD1090
:103ED0002FF01EFED4F8D010802205F22D202FF0F6
:103EE00017FED4F8E810802205F2AD202FF010FE66
:103EF000A16E802205F22D302FF00AFED4F8004189
:103F0000164A236816495E69C5F8B01396421CD15B
:103F10006668226902FB06F676B19B68324600218C
:103F200020469847864207D1216820464FF46D739A
:103F300000224C682946A0472846BDE8704012F090
:103F4000E9BF70BDBDE8704018474FF46D72294657
:103F50002046B047F0E700BFB13B0002ED3400025D
:103F6000EFBEADDEC0F8B41002B9704703683F4A37
:103F70001B68934270B504466ED14FF46D7012F019
:103F8000C5FF0546002866D04FF46D7200212FF062
:103F900064FB6168802228462FF0BAFD8022E16927
:103FA000A8182FF0B5FDD4F8B43094F8341005F506
:103FB0008670D4F8B02085F80011C5F8042180225D
:103FC000D4F89810C5F808312FF0A2FDD4F880106D
:103FD000212205F5C6702FF09BFDD4F8B810802281
:103FE00005F2AD102FF094FDD4F8D010802205F228
:103FF0002D202FF08DFDD4F8E810802205F2AD20A1
:104000002FF086FDA16E802205F22D302FF080FD6D
:10401000D4F80041164A236816495E69C5F8B01302
:1040200096421CD16668226902FB06F676B19B684F
:104030003246002120469847864207D12168204613
:104040004FF46D7300224C682946A0472846BDE80E
:10405000704012F05FBF70BDBDE8704018474FF46C
:104060006D7229462046B047F0E700BFB13B000221
:10407000ED340002EFBEADDE70B515460446E83003
:104080002DF0C4F9002D72D023683E4A1B6893427C
:104090006ED14FF46D7012F039FF0546002866D0DE
:1040A0004FF46D7200212FF0D8FA61688022284603
:1040B0002FF02EFD8022E169A8182FF029FDD4F8F9
:1040C000B43094F8341005F58670D4F8B02085F833
:1040D0000011C5F804218022D4F89810C5F80831E1
:1040E0002FF016FDD4F88010212205F5C6702FF0B0
:1040F0000FFDD4F8B810802205F2AD102FF008FDA6
:10410000D4F8D010802205F22D202FF001FDD4F834
:10411000E810802205F2AD202FF0FAFCA16E80227B
:1041200005F22D302FF0F4FCD4F80041164A236834
:1041300016495E69C5F8B01396421DD166682269BA
:1041400002FB06F676B19B6832460021204698476E
:10415000864207D1216820464FF46D7300224C68D7
:104160002946A0472846BDE8704012F0D3BE70BD76
:104170002046BDE8704018474FF46D72294620462E
:10418000B047EFE7B13B0002ED340002EFBEADDE19
:1041900070B515460446B8302DF038F9002D72D0B0
:1041A00023683E4A1B6893426ED14FF46D7012F043
:1041B000ADFE0546002866D04FF46D7200212FF049
:1041C0004CFA6168802228462FF0A2FC8022E16927
:1041D000A8182FF09DFCD4F8B43094F8341005F5ED
:1041E0008670D4F8B02085F80011C5F8042180222B
:1041F000D4F89810C5F808312FF08AFCD4F8801054
:10420000212205F5C6702FF083FCD4F8B810802267
:1042100005F2AD102FF07CFCD4F8D010802205F20E
:104220002D202FF075FCD4F8E810802205F2AD2087
:104230002FF06EFCA16E802205F22D302FF068FC6D
:10424000D4F80041164A236816495E69C5F8B013D0
:1042500096421DD16668226902FB06F676B19B681C
:104260003246002120469847864207D121682046E1
:104270004FF46D7300224C682946A0472846BDE8DC
:10428000704012F047BE70BD2046BDE87040184730
:104290004FF46D7229462046B047EFE7B13B00026C
:1042A000ED340002EFBEADDE70B515460446983021
:1042B0002DF0ACF8002D72D023683E4A1B68934263
:1042C0006ED14FF46D7012F021FE0546002866D0C5
:1042D0004FF46D7200212FF0C0F9616880222846EA
:1042E0002FF016FC8022E169A8182FF011FCD4F8F9
:1042F000B43094F8341005F58670D4F8B02085F801
:104300000011C5F804218022D4F89810C5F80831AE
:104310002FF0FEFBD4F88010212205F5C6702FF097
:10432000F7FBD4F8B810802205F2AD102FF0F0FBA7
:10433000D4F8D010802205F22D202FF0E9FBD4F81C
:10434000E810802205F2AD202FF0E2FBA16E802262
:1043500005F22D302FF0DCFBD4F80041164A23681B
:1043600016495E69C5F8B01396421DD16668226988
:1043700002FB06F676B19B6832460021204698473C
:10438000864207D1216820464FF46D7300224C68A5
:104390002946A0472846BDE8704012F0BBBD70BD5D
:1043A0002046BDE8704018474FF46D7229462046FC
:1043B000B047EFE7B13B0002ED340002EFBEADDEE7
:1043C00070B51546044668302DF020F8002D72D0E7
:1043D00023683E4A1B6893426ED14FF46D7012F011
:1043E00095FD0546002866D04FF46D7200212FF030
:1043F00034F96168802228462FF08AFB8022E16927
:10440000A8182FF085FBD4F8B43094F8341005F5D3
:104410008670D4F8B02085F80011C5F804218022F8
:10442000D4F89810C5F808312FF072FBD4F880103A
:10443000212205F5C6702FF06BFBD4F8B81080224E
:1044400005F2AD102FF064FBD4F8D010802205F2F5
:104450002D202FF05DFBD4F8E810802205F2AD206E
:104460002FF056FBA16E802205F22D302FF050FB6D
:10447000D4F80041164A236816495E69C5F8B0139E
:1044800096421DD16668226902FB06F676B19B68EA
:104490003246002120469847864207D121682046AF
:1044A0004FF46D7300224C682946A0472846BDE8AA
:1044B000704012F02FBD70BD2046BDE87040184717
:1044C0004FF46D7229462046B047EFE7B13B00023A
:1044D000ED340002EFBEADDE70B515460446803007
:1044E0002CF094FF002D72D023683E4A1B68934243
:1044F0006ED14FF46D7012F009FD0546002866D0AC
:104500004FF46D7200212FF0A8F8616880222846D0
:104510002FF0FEFA8022E169A8182FF0F9FAD4F8FA
:10452000B43094F8341005F58670D4F8B02085F8CE
:104530000011C5F804218022D4F89810C5F808317C
:104540002FF0E6FAD4F88010212205F5C6702FF07E
:10455000DFFAD4F8B810802205F2AD102FF0D8FAA7
:10456000D4F8D010802205F22D202FF0D1FAD4F803
:10457000E810802205F2AD202FF0CAFAA16E802249
:1045800005F22D302FF0C4FAD4F80041164A236802
:1045900016495E69C5F8B01396421DD16668226956
:1045A00002FB06F676B19B6832460021204698470A
:1045B000864207D1216820464FF46D7300224C6873
:1045C0002946A0472846BDE8704012F0A3BC70BD44
:1045D0002046BDE8704018474FF46D7229462046CA
:1045E000B047EFE7B13B0002ED340002EFBEADDEB5
:1045F00000292DE9F04188B040F3A9806E4B1C687A
:10460000002C00F09D80236804AE0768D3F8448036
:104610000296002F00F0BE8038462FF05DFA0F287A
:104620000546019000F29F80012840F0998097F99B
:10463000003032468DF810300023039553555F4B00
:10464000984540F09F8002A904F1B8002CF0DEFEEE
:1046500023685B4A1B68934240F099804FF46D7069
:1046600012F054FC0546002864D04FF46D7200210E
:104670002EF0F3FF6168802228462FF049FA80224D
:10468000E169A8182FF044FAD4F8B03094F8342037
:1046900005F58670C5F80431D4F8B430D4F8981014
:1046A000C5F8083185F8002180222FF031FAD4F8BE
:1046B0008010212205F5C6702FF02AFAD4F8B81020
:1046C000802205F2AD102FF023FAD4F8D01080220A
:1046D00005F22D202FF01CFAD4F8E810802205F204
:1046E000AD202FF015FA8022A16E05F22D302FF0AB
:1046F0000FFAD4F80041334A2368C5F8B0235F6944
:10470000314A974249D16768226902FB07F777B1BE
:104710009B683A46002120469847874207D1226885
:1047200020464FF46D73294654680022A04728465E
:1047300012F0F0FB0298B04201D012F0EFFB01241E
:10474000224812F03DFB204608B0BDE8F08100246D
:1047500001211F4812F034FB204608B0BDE8F0816B
:1047600008BB324668E7002201A902A82CF0E6FD4A
:10477000019B029004932A4639462EF047FFDDE95B
:10478000015259E7012202A92046C047D2E720463C
:104790009847CFE70F482CF002FD4FF46D7220468A
:1047A0002946B847C3E73046E5E70298B04201D052
:1047B00012F0B4FB2BF0F2FF441D002291410002E5
:1047C000B13B0002EFBEADDEED340002FCDC0302C3
:1047D000E8E103020CE2030200292DE9F04188B070
:1047E00040F3A480704B1C68002C00F09B80236871
:1047F00004AE0768D3F81C800296002F00F0C78033
:1048000038462FF069F90F280546019000F299808B
:10481000012840F0938097F9003032468DF810302F
:10482000002303955355614B984540F0998002A9A8
:1048300004F168002CF0EAFD23685D4A1B6893428E
:1048400040F093804FF46D7012F060FB0546002835
:104850005CD04FF46D7200212EF0FFFE6168802263
:1048600028462FF055F98022E169A8182FF050F959
:10487000D4F8B03094F8342005F58670C5F80431CA
:10488000D4F8B430D4F89810C5F8083185F8002170
:1048900080222FF03DF9D4F88010212205F5C67052
:1048A0002FF036F9D4F8B810802205F2AD102FF0B1
:1048B0002FF9D4F8D010802205F22D202FF028F9FE
:1048C000D4F8E810802205F2AD202FF021F98022E3
:1048D000A16E05F22D302FF01BF9D4F80041354AB6
:1048E0002368C5F8B0235F69334A974249D16768A6
:1048F000226902FB07F737B19B683A460021204640
:104900009847874234D0284612F004FB0298B04200
:1049100001D012F003FB294812F052FA012008B02E
:10492000BDE8F081204608B0BDE8F08101212448AF
:1049300012F046FA012008B0BDE8F08150BB3246C3
:104940006EE7002201A902A82CF0F8FC019B02905E
:1049500004932A4639462EF059FEDDE901525FE7FD
:10496000012202A92046C047D0E720469847CDE75C
:10497000226820464FF46D73294654680022A047F0
:10498000C1E74FF46D7220462946B847BBE70D4892
:104990002CF005FC3046DCE70298B04201D012F062
:1049A000BDFA2BF0FBFE00BF441D0022C1430002F4
:1049B000B13B0002EFBEADDEED340002FCDC0302D1
:1049C000E8E103020CE2030201292DE9F0478CB073
:1049D00040F34E81C34F3C68002C00F042812368B5
:1049E0000DF10808D0F800A00646D3F85490CDF891
:1049F0000080BAF1000F00F09D8050462FF06CF857
:104A00000F280546069000F24081012840F03981C8
:104A10009AF9003042468DF808300023019553552D
:104A2000B14B994540F05381694604F1E8002CF000
:104A3000EDFC2368AD4A1B68934240F065814FF45A
:104A40006D7012F063FA8146002866D04FF46D72E3
:104A500000212EF002FE6168802248462FF058F8AF
:104A60008022E16909EB02002FF052F894F834300B
:104A7000D4F89810802289F8003109F58670D4F8AE
:104A8000B030C9F80431D4F8B430C9F808312FF087
:104A90003FF8D4F88010212209F5C6702FF038F8BD
:104AA000D4F8B810802209F2AD102FF031F8D4F804
:104AB000D010802209F22D202FF02AF8D4F8E81027
:104AC000802209F2AD202FF023F88022A16E09F296
:104AD0002D302FF01DF8D4F80041854B854AC9F8D8
:104AE000B03323685D69954240F01481656822699E
:104AF00002FB05F575B19B682A46002120469847C0
:104B0000854207D123682046002249465C684FF45D
:104B10006D73A047484612F0FDF90098404501D05A
:104B200012F0FCF93C6808AF76682368D3F844803B
:104B3000069716B970482CF032FB30462EF0CCFFA9
:104B40000F280546009000F2B380012D40F0AC80A4
:104B500096F900303A468DF82030002307955355DA
:104B6000664B984540F0B88006A904F1B8002CF0D7
:104B70004DFC23685D4A1B68934240F0C8804FF4A7
:104B80006D7012F0C3F90546002864D04FF46D72C1
:104B900000212EF062FD6168802228462EF0B8FFC9
:104BA0008022E169A8182EF0B3FFD4F8B03094F851
:104BB000342005F58670C5F80431D4F8B430D4F843
:104BC0009810C5F8083185F8002180222EF0A0FF4A
:104BD000D4F88010212205F5C6702EF099FFD4F884
:104BE000B810802205F2AD102EF092FFD4F8D0104C
:104BF000802205F22D202EF08BFFD4F8E8108022C1
:104C000005F2AD202EF084FF8022A16E05F22D303A
:104C10002EF07EFFD4F80041354A2368C5F8B02352
:104C20005E69344A96427BD16668226902FB06F6C9
:104C300076B19B683246002120469847864207D1CC
:104C4000226820464FF46D73294654680022A0471D
:104C5000284612F05FF90698B84201D012F05EF9CA
:104C60000124274812F0ACF820460CB0BDE8F087CC
:104C700000240221234812F0A3F820460CB0BDE81E
:104C8000F087002854D14246C7E6002206A96846AC
:104C90002CF054FB069B009002932A4651462EF0BE
:104CA000B5FC069D009AB8E6002D3FD13A4654E780
:104CB0006946002206A82CF041FB009B0690089351
:104CC0002A4631462EF0A2FC009D069A45E7204672
:104CD00001226946C84720E7012206A92046C047AD
:104CE000B9E700BF441D002279400002B13B000239
:104CF000EFBEADDEED3400020CE203029141000292
:104D0000FCDC0302E8E103022046984705E7204661
:104D10009847A0E720464FF46D724946A847F9E648
:104D20004FF46D7220462946B04791E73846C7E7F1
:104D30004046B2E70098404501D012F0EFF82BF062
:104D40002DFD0698B842F8D1F9E700BF02292DE9F8
:104D5000F04F2DED028B97B040F3B8806A4F3C685E
:104D6000002C00F0B38023680DF14808D0F800A0B3
:104D70000546D3F82CB0CDF84080BAF1000F00F012
:104D8000A28050460E462EF0A7FE0F2881460A90BC
:104D900000F2AA80012840F0A2809AF90030424631
:104DA0008DF848300023CDF8449002F80930574B75
:104DB0009B4540F0478310A904F198002CF026FB96
:104DC0002368534A1B68934240F041834FF46D704F
:104DD00012F09CF88146002869D04FF46D720021D2
:104DE0002EF03BFC6168802248462EF091FE802226
:104DF000E16909EB02002EF08BFE94F83430D4F810
:104E00009810802289F8003109F58670D4F8B03006
:104E1000C9F80431D4F8B430C9F808312EF078FE5E
:104E2000D4F88010212209F5C6702EF071FED4F856
:104E3000B810802209F2AD102EF06AFED4F8D0101E
:104E4000802209F22D202EF063FED4F8E810802293
:104E500009F2AD202EF05CFE8022A16E09F22D3009
:104E60002EF056FED4F800412A4B2B4AC9F8B03335
:104E70002368D3F814A0924540F002836268216948
:104E800001FB02FABAF1000F0ED09B6852460021D6
:104E900020469847824507D123682046002249468C
:104EA0005C684FF46D73A047484612F033F81098D1
:104EB000404501D012F032F806ABD5F804900493C7
:104EC000B9F1000F2ED115482CF069F9144811F0F2
:104ED00077FF002017B0BDEC028BBDE8F08F0028F3
:104EE00040F0FB8242465DE700220AA910A82CF0A0
:104EF00025FA0A9B109012934A4651462EF086FBE3
:104F0000DDF82890109A4DE7441D0022A9420002C6
:104F1000B13B0002EFBEADDEED3400020CE2030255
:104F200038E2030248462EF0D7FD0F2804461090C1
:104F300000F23082012C40F0238299F9003006AA59
:104F40008DF818300023059413553C68DDF8109057
:104F50002368D3F834A02EF02DFBD0F800B02EF04B
:104F600029FB002310A9036048462FF0B9FB109BD2
:104F7000B0EE408A994500F09E822EF01BFB03683C
:104F8000222B00F095822EF015FB0368002B00F019
:104F90001082B94B9A4540F014822368B74A1B68C7
:104FA00084ED2C8A934240F055824FF46D7011F0DD
:104FB000ADFF8146002869D04FF46D7200212EF0BC
:104FC0004CFB6168802248462EF0A2FD8022E169F8
:104FD00009EB02002EF09CFD94F83430D4F89810C0
:104FE000802289F8003109F58670D4F8B030C9F80C
:104FF0000431D4F8B430C9F808312EF089FDD4F862
:105000008010212209F5C6702EF082FDD4F8B81068
:10501000802209F2AD102EF07BFDD4F8D010802252
:1050200009F22D202EF074FDD4F8E810802209F248
:10503000AD202EF06DFD8022A16E09F22D302EF0F4
:1050400067FDD4F800418E4B8E4AC9F8B03323680F
:10505000D3F814A0924540F01F826268216901FBD9
:1050600002FABAF1000F0ED09B685246002120468A
:105070009847824507D123682046002249465C684C
:105080004FF46D73A047484611F044FF0DF1300B0B
:10509000D5F80890CDF828B0B9F1000F00F0A08144
:1050A00048462EF019FD4844A0EB09040F2C10943B
:1050B00000F29981012C40F0688199F900300A9A38
:1050C0008DF8303000230B9413553C68DDF828A090
:1050D0002368D3F83C902EF06DFA036801932EF00C
:1050E00069FA00230A2210A9036050462FF0BEFB84
:1050F000109B00909A4500F0E4812EF05BFA036863
:10510000222B00F0DB812EF055FA0368002B00F013
:1051100079815D4B994540F07D81009B574AC4F8E9
:10512000B43023681B68934240F097814FF46D7050
:1051300011F0ECFE8146002868D04FF46D7200211A
:105140002EF08BFA6168802248462EF0E1FC802226
:10515000E16909EB02002EF0DBFC94F83430D4F85E
:105160009810802289F8003109F58670D4F8B030A3
:10517000C9F80431D4F8B430C9F808312EF0C8FCAD
:10518000D4F88010212209F5C6702EF0C1FCD4F8A5
:10519000B810802209F2AD102EF0BAFCD4F8D0106D
:1051A000802209F22D202EF0B3FCD4F8E8108022E2
:1051B00009F2AD202EF0ACFCA16E802209F22D3058
:1051C0002EF0A6FCD4F800412D4B22682D49C9F8D9
:1051D000B03353698B4240F059816368216901FB08
:1051E00003FABAF1000F0ED0936800215246204610
:1051F0009847824507D123682046002249465C68CB
:105200004FF46D73A047484611F084FE032E00F062
:10521000A3803C68EE6823685F6ACDF84080002E6A
:1052200000F0528130462EF057FC0F2805460390BF
:1052300000F2F980012840F0F28096F900308DF8F4
:10524000483043460022119510A95A550F4B9F42F2
:1052500040F0068104F180002CF0D8F82368074A5A
:105260001B68934240F000814FF46D7011F04EFEC8
:10527000054600286BD00BE0513E0002B13B000216
:10528000EFBEADDEED340002653F0002D9440002FE
:105290004FF46D7200212EF0E0F9616880222846FB
:1052A0002EF036FC8022E169A8182EF031FC94F82B
:1052B0003430D4F89810802285F8003105F58670D6
:1052C000D4F8B030C5F80431D4F8B430C5F808319A
:1052D0002EF01EFCD4F88010212205F5C6702EF0A9
:1052E00017FCD4F8B810802205F2AD102EF010FC97
:1052F000D4F8D010802205F22D202EF009FCD4F82D
:10530000E810802205F2AD202EF002FC8022A16E72
:1053100005F22D302EF0FCFBD4F80061854B864A57
:10532000C5F8B03333685C69944240F0BB80746860
:10533000326902FB04F43CB19B68224600213046EE
:105340009847844200F09380284611F0E3FD1098BE
:10535000404501D011F0E2FD784811F031FD0A9886
:10536000584501D011F0DAFD049806AB984201D0FF
:1053700011F0D4FD012017B0BDEC028BBDE8F08F19
:10538000002C40F0A88006AADCE5002C40F0A180AB
:105390005A4697E604A8002210A92BF0CFFF109BD5
:1053A00004900693224649462EF030F9109C049A48
:1053B000C8E52EF0FFF8624BC0F800B09A453FF404
:1053C000ECADB0EE480A20460121D0470DF1300B7C
:1053D000D5F80890CDF828B0B9F1000F7FF460AE91
:1053E00058482BF0DCFE002210A90AA82BF0A6FFDB
:1053F000109B0A900C93224649462EF007F9109C08
:105400000A9A5FE62EF0D6F8019B03604E4B994551
:105410003FF483AE009920460122C847F6E60028F3
:1054200055D143460EE7002203A910A82BF086FFB2
:10543000039B109012932A4631462EF0E7F8039D05
:10544000109BFFE62046012210A9D8472FE52046F1
:1054500098472CE52046984718E620469847D5E619
:1054600020460122B84772E7204698476FE7336825
:105470003046002229465C684FF46D73A04763E70D
:1054800020464FF46D724946D0470DE520464FF453
:105490006D7249469847B6E620464FF46D7249460C
:1054A000D047F0E530464FF46D722946A0474BE7F0
:1054B00026482BF07DFE25482BF074FE24482BF067
:1054C00077FE23482BF06EFE1E482BF068FE404608
:1054D000B1E758468FE706A864E740460CE52EF092
:1054E00069F803681BB92EF065F8C0F800B004989D
:1054F00006AB984201D011F011FD2BF04FF92EF0C0
:1055000059F803681BB92EF055F8019B03600A98FF
:105510005845ECD011F002FDE9E7F8E7E7E710980D
:105520004045E8D1E9E710984045F0D011F0F6FC8D
:10553000EDE700BFEFBEADDEED340002FCDC0302A0
:10554000513E00020CE20302653F000280E20302CA
:1055500088E2030270B584B0002406460AF0F6FE25
:105560004D4B05464D4A4E49CDE901441E60234648
:1055700000924C4A09F0DCFF4B4B4C4A28464C4900
:1055800000944C4ECDE9014409F0D2FF4A4A4B4BFE
:1055900028464B49CDE9013200912346494A4A4900
:1055A00009F0C6FF494B4A4A28464A490094CDE9CA
:1055B000014409F0BDFF4849484A23460291284664
:1055C0004749CDE90042474A09F0B2FF464B474AF6
:1055D000284647490094CDE9014409F0A9FF45490F
:1055E000454A2346029128464449CDE90042444AAF
:1055F00009F09EFF434A444B28464449CDE9013215
:1056000000912346424A434909F092FF424A434BE4
:1056100028464349CDE9013200912346414A424997
:1056200009F086FF4149424A2346029128464149F2
:10563000CDE90042404A09F07BFF4049404A2346F9
:10564000029128463F49CDE900423F4A09F070FFE8
:105650003E493F4A2346029128463E49CDE9004251
:105660003D4A09F065FF3D4A3D4B28463D490093C0
:105670002346CDE901263C4A09F05AFF3B4A23461E
:105680003B4928460094CDE901263A4A09F050FFEB
:10569000284604B070BD00BF441D0022BD3C00027E
:1056A000A8E2030290E2030231380002B0E20302F2
:1056B000DCE2030264E5030220E303024D4D000235
:1056C000093B0002E8E2030210E303021D38000276
:1056D00048E3030258E30302B4E30302E1370002A4
:1056E000A4E3030264E3030209380002C0E30302F7
:1056F000E0E3030228E40302553800021CE403023D
:10570000F0E3030280E40302D9470002513A0002A9
:1057100044E4030270E40302BCE40302C94900024A
:10572000953A000284E40302ACE40302E8E40302D5
:10573000F1450002DCE40302C8E403020CE50302C5
:105740006935000204E50302F0E4030240E50302C8
:105750005935000234E503021CE50302BD360002A0
:105760000939000258E5030248E503020136000248
:10577000A4E5030280E5030238B5036814461D68FA
:1057800013460022A847201AB0FA80F0400938BD1D
:105790000020704700207047002301200B60136039
:1057A000704700BF002200F10C018260027341606B
:1057B000704700BF4FF4E130704700BF704700BF33
:1057C0000020704700207047704700BF00207047DE
:1057D00000207047006D7047806B7047004870472D
:1057E000403B32020020704780F80411704700BF30
:1057F00000F58273012010B400240B6014605DF882
:10580000044B704738B53830154600231F220C462C
:105810002BF00EFF0022034610462B60E25438BDE9
:1058200038B55030154600231F220C462BF000FFE0
:105830000022034610462B60E25438BD70B5044682
:10584000164608461D46211D2BF0E0FD04F11C0103
:1058500030462BF0DBFD94F834302B7070BD00BF68
:1058600010B5084C002302222068194640682DF02C
:10587000EDFF21680023022288681946BDE8104028
:105880002DF0E4BF8812002202680749D2F8882070
:105890008A4208B504D1002280F80421012008BD05
:1058A00000219047012008BDE957000210B50446C9
:1058B000D0F8E800264A04F1F0032260984201D0B3
:1058C00011F02CFBD4F8D00004F1D803984201D099
:1058D00011F024FBD4F8B80004F1C003984201D0C1
:1058E00011F01CFBD4F8980004F1A003984201D0F9
:1058F00011F014FBD4F8800004F18803984201D021
:1059000011F00CFBA06E04F17003984201D011F06D
:1059100005FB206D04F15803984201D011F0FEFA06
:10592000A06B04F14003984201D011F0F7FAE0694E
:1059300004F12403984201D011F0F0FA606804F1F8
:105940000C03984201D011F0E9FA204610BD00BFC7
:1059500078E6030270B5002582B02E4E0446294633
:1059600000953346826804302BF0C6FD226A334628
:10597000294604F11C0000952BF0BEFD112229469A
:1059800084F83450244B04F150000092626D2BF0E7
:10599000B3FDE26E3346294604F1680000952BF012
:1059A000ABFDD4F884203346294604F180000095ED
:1059B0002BF0A2FDD4F89C203346294604F1980030
:1059C00000952BF099FD002233462946C4F8B020FB
:1059D00004F1B800C4F8B4500095D4F8BC202BF002
:1059E0008BFDD4F8D4203346294604F1D00000952D
:1059F0002BF082FD3346D4F8EC20294604F1E80070
:105A000000952BF079FD236820469B6802B0BDE825
:105A10007040184730ED0302B4E50302F0B50025ED
:105A200085B004460E4600F10C0724222946039552
:105A30008DF80B502DF011FE25736760D6F80C0120
:105A4000FDF792F9B8B1D6F80C010DF10B0203A9DC
:105A50000368DB68984740F2011103220B4B201DBD
:105A6000218029460092A2682BF046FD9DF80B206C
:105A7000039B22772362204605B0F0BD6068B842E0
:105A800001D011F04BFA2AF089FE00BFC8E50302ED
:105A90003C493D4A70B592B091F8904091F89530EC
:105AA000054604940EAE91F89100039091F892008F
:105AB000029091F89300019007A891F8941000913A
:105AC00014212DF0CBFF07A80C962EF005F80F2817
:105AD0000446069028D8012823D19DF81C30324670
