:020000040000FA
:10000000F80B0020110C0000050D0000C3C3000018
:10001000EDC3000017C400006BC4000041C4000021
:10002000000000000000000000000000D95C00009B
:10003000050D000000000000050D0000050D00008A
:10004000000000000000000000000000E177000058
:1000500000000000050D000000000000000000008E
:10006000050D0000050D0000050D0000050D000048
:1000700000000000050D0000050D0000050D00004A
:10008000050D0000050D000000000000000000004C
:10009000050D0000050D000000000000000000003C
:1000A000050D00000000000000000000050D00002C
:1000B000050D0000050D0000050D0000050D0000F8
:1000C000050D0000050D0000050D0000050D0000E8
:1000D000050D000000000000050D000000000000FC
:1000E000050D000000000000050D000000000000EC
:1000F000050D0000000000000000000000000000EE
:1001000000000000050D00000000000000000000DD
:1001100000000000000000000000000000000000DF
:1001200000000000050D00000000000000000000BD
:1001300000000000000000000000000000000000BF
:10014000050D000000015F5F00000000FE0B0000D5
:10015000195E0000800600000000000000000000A2
:1001600000000000000000000000000060220020ED
:100170000000000001015F5F030100001F0100009B
:100180006B070000000000000000000001000000FC
:10019000010000000000000000000000000000005E
:1001A00000000000700000008CCD00008000000006
:1001B000000F0000010000009B07000001015F5FCD
:1001C000040100001F010000FF0A00000000000001
:1001D000000000000000000001000000000000001E
:1001E00000000000000000000000000098CD0000AA
:1001F000400000000507000001000000C30A0000E5
:1002000080B483B000AF7860054A7B68C2F80434DC
:10021000002318460C37BD465DF8047B704700BFCD
:10022000201C002080B483B000AF7860054BD3F869
:1002300004247B681A60002318460C37BD465DF81D
:10024000047B7047201C002080B483B000AF78602E
:1002500039607B68033323F003037B60104BD3F8D2
:100260000034C3F580637A689A4202D96FF08C0338
:100270000FE00B4BD3F80034094A1A443B681A606C
:10028000074BD3F800247B681344054AC2F80034B6
:10029000002318460C37BD465DF8047B704700BF4D
:1002A000201C002080B500AF084B0022C3F80424B6
:1002B000064BD3F800341A46002104480CF0C8F964
:1002C000024B0022C3F8002400BF80BD201C002088
:1002D00080B582B000AF6FF083037B6000233B608A
:1002E00000F0E2F8386039680A480CF0F0FA00F0E3
:1002F000E9F878607B68002B01D07B6805E0064850
:100300000CF0E5FA09F07CF9034618460837BD46BB
:1003100080BD00BF100B00005C0B000080B58AB0F0
:1003200000AFF860B9607A603B606FF096037B6263
:10033000FB681B683B620023BB6100233B61002319
:100340007B610023FB77FB685B68382B02D06FF082
:10035000800396E03B6A1B8DBB77BB7F022B04D0EA
:10036000BB7F002B01D0012300E00023FB77FB7F44
:1003700003F00103FB77FB7F002B0FD007F118037D
:10038000184600F0BAF878627B6A002B01D07B6ACD
:1003900077E03B6A1B683B61BB697B61BB7F092BD4
:1003A0006AD801A252F823F05B040000D1030000D8
:1003B000E3030000EF030000010400001304000049
:1003C0002504000037040000490400006704000011
:1003D00007F110031A467968F86800F052FA0346EC
:1003E0004FE07968F86800F0F9F9034649E007F151
:1003F00010031A467968F86800F0FDF9034640E0FA
:1004000007F110031A467968F86800F0D9F9034635
:1004100037E007F110031A467968F86800F0F9F937
:1004200003462EE007F110031A467968F86800F0D9
:10043000FEF9034625E007F110031A467968F868CB
:1004400000F003FA03461CE007F110031A4679682E
:10045000F86800F008FA034613E07968F86800F0DD
:100460001EFA03460DE007F110031A467968F86892
:1004700000F029FA034604E004480CF028FA6FF073
:10048000850318462837BD4680BD00BF740B0000A9
:1004900080B500AF2822002102480CF0D9F80023D3
:1004A000184680BD2820002080B500AF0F220349E8
:1004B00003480CF086F8024B184680BD9C0B0000E8
:1004C0005020002080B500AF0121044809F002F857
:1004D000034809F049F80023184680BD6420002035
:1004E000CFC8000080B582B000AF78607868FFF7B1
:1004F00087FE00BF0837BD4680BD80B582B000AF23
:1005000078607868FFF78EFE034618460837BD46C8
:1005100080BDB0B588B000AFF860B9607A603B606C
:1005200000237B610123FB612EE0FB68FA69043242
:1005300053F8223007F1140211461846FFF784FEE3
:10054000B861BB69002B03D0FFF7ACFEBB694DE07F
:10055000FB6858687969FB68FA69043253F82250DD
:10056000FB69DB00BA68D4182B460A46F9690CF01F
:10057000E3F803466360FB69DB00BA6813447A69F9
:100580001A60FB690133FB61FA697B689A42CCD33C
:100590000023FB6125E0FB68FA69083253F822303A
:1005A00007F1140211461846FFF74EFEB861BB6909
:1005B000002B03D0FFF776FEBB6917E0FB69DB0079
:1005C0003A6813447A691A60FB69DB003A6813449D
:1005D000FA68F969083152F821205A60FB69013341
:1005E000FB61FA693B6B9A42D5D30023184620374A
:1005F000BD46B0BD80B5A6B002AF78600023C7F895
:1006000080300423C7F88C300423C7F8883007F102
:1006100060032022002118460CF01AF807F140036D
:100620002022002118460CF013F807F108033822A5
:10063000002118460CF00CF804E0D7F88C30013B90
:10064000C7F88C30D7F88C30002B0ED0D7F88C3010
:100650005A1E7B68043253F82230002BEDD004E0A0
:10066000D7F88830013BC7F88830D7F88830002B9E
:1006700008D0D7F888305A1E7B68083253F82230E9
:10068000002BEDD0D7F88C30002B02D16FF0830314
:1006900060E07B68586807F10802382300210CF0FD
:1006A0004BF80346382B02D06FF0830352E007F17A
:1006B00008033B6638237B6607F1400207F16001BF
:1006C000D7F8883000931346D7F88C207868FFF766
:1006D00020FFC7F88000D7F88030002B02D0D7F871
:1006E000803037E07B689B681846FFF7FBFE07F118
:1006F000400207F16000D7F88830D7F88C10FFF778
:100700000DFEC7F880000023C7F8843018E07B682E
:100710005868D7F88430DB0090333B4453F8502CB2
:10072000D7F88430DB0090333B4453F84C3CD7F887
:1007300084100CF020F8D7F884300133C7F88430E7
:10074000D7F88420D7F888309A42E0D3FFF7AAFD83
:10075000D7F8803018469037BD4680BD80B500AFD1
:10076000FFF796FE0346184680BD80B582B000AF05
:10077000FFF7F4FF78607B68002B01D07B6808E00E
:10078000FFF7A6FD78607B68002B01D07B6800E056
:10079000002318460837BD4680BD80B582B000AF43
:1007A00078607B681B68002B04D17868FFF722FF14
:1007B000034601E06FF0850318460837BD4680BD4B
:1007C00080B485B000AFF860B9607A606FF08503DF
:1007D00018461437BD465DF8047B704780B483B07B
:1007E00000AF786039606FF0850318460C37BD465E
:1007F0005DF8047B704780B485B000AFF860B960E5
:100800007A606FF0850318461437BD465DF8047BA7
:10081000704780B485B000AFF860B9607A606FF05F
:10082000850318461437BD465DF8047B704780B4D5
:1008300085B000AFF860B9607A606FF08503184644
:100840001437BD465DF8047B704780B485B000AFB7
:10085000F860B9607A606FF0850318461437BD46BA
:100860005DF8047B704780B485B000AFF860B96074
:100870007A606FF0850318461437BD465DF8047B37
:10088000704780B485B000AFF860B9607A606FF0EF
:10089000850318461437BD465DF8047B704780B564
:1008A00084B000AF786039603B681B68FB603B68D0
:1008B0005B68BB60B968F86808F090FE03461846AC
:1008C0001037BD4680BD80B485B000AFF860B96018
:1008D0007A606FF0850318461437BD465DF8047BD7
:1008E000704780B500AF04F081FC0023184680BD3E
:1008F00080B582B000AF7860FFF7F3FF034618467B
:100900000837BD4680BD80B5AEB000AF786000232B
:10091000C7F8B4300023C7F8B03007F194030022C1
:100920001A605A6007F18C0300221A605A60002393
:10093000FB6407F150033C22002118460BF088FEAF
:100940000023FB6007F110033C22002118460BF046
:100950007FFE0023BB600123C7F8A4300023C7F843
:10096000A0300423C7F8AC300423C7F8A83004E053
:10097000D7F8AC30013BC7F8AC30D7F8AC30002B1F
:100980000ED0D7F8AC305A1E7B68043253F82230B0
:10099000002BEDD004E0D7F8A830013BC7F8A83011
:1009A000D7F8A830002B08D0D7F8A8305A1E7B689B
:1009B000083253F82230002BEDD0D7F8AC30002BA2
:1009C00007D0D7F8AC30022B03D8D7F8A830012BCA
:1009D00001D9012371E07B68586807F108020423FC
:1009E00000210BF0A9FE0346C7F8A030D7F8A030CD
:1009F000042B02D06FF080035FE0D7F8AC30012BFE
:100A00002BD97B685B69C7F89C30D7F89C30402BAA
:100A100002D96FF0890350E07B6858687B685B6996
:100A200007F14C0201210BF087FE0346C7F8A03006
:100A3000D7F8A030D7F89C209A4202D06FF08003FC
:100A40003BE007F14C03C7F89430D7F89C30C7F867
:100A5000983007F19403C7F8B430D7F8A830002BCA
:100A600012D07B681B6A402B02D96FF0800324E010
:100A700007F10C03C7F88C307B681B6AC7F890300D
:100A800007F18C03C7F8B030BB68D7F8B020D7F8AF
:100A9000B410184604F004FCC7F8A400D7F8B0302E
:100AA000002B08D07B685868D7F88C20D7F8903096
:100AB00000210BF060FED7F8A4301846B837BD46C9
:100AC00080BD80B582B000AF78607B681B68B3F5ED
:100AD0007D7F04D040F2F532934205D009E078687A
:100AE000FFF706FF034606E07868FFF70CFF0346B2
:100AF00001E06FF0850318460837BD4680BD80B41D
:100B000000AF00231846BD465DF8047B7047000027
:100B10005B4442475D5B43727970746F5D20496E40
:100B2000697469616C6973696E67201B5B303B3364
:100B3000326D25731B5B306D206173205053412053
:100B400043727970746F206261636B656E64206CB0
:100B50006962726172792E2E2E2000001B5B303B81
:100B600033326D636F6D706C6574652E1B5B306D19
:100B70000D0A00005B4552525D5B43727970746FE1
:100B80005D20556E737570706F7274656420726548
:100B90007175657374210D0A000000004D62656473
:100BA00020544C5320332E352E300000000000001E
:100BB0000000000000000000000000000000000035
:100BC000888500000100000040FC0000802000201B
:100BD0005100000040FC0000201C0020000000002C
:100BE00040FC0000001C002000000000C421002088
:100BF000CA050000201C002018010000001C002075
:100C00000800000080B500AF06F0CAF900BF80BD43
:100C100080B588B000AF72B600BF314B314A9A60E0
:100C2000314B3B603B6883F3098800BF2F4B7B60EF
:100C30007B6883F30A8800BF2C4BBB60BB6883F3DF
:100C40000B8800BF2A4BFB60F96823A3D3E900237C
:100C5000C1E9002300BF00F0D3F9264BFB6119E086
:100C60000023BB610EE0FB691A68BB699B001A4454
:100C7000FB695968BB699B000B4412681A60BB6929
:100C80000133BB61FB699B68BA699A42EBD3FB698C
:100C90000C33FB61FB69184A9342E1D3174B7B612C
:100CA00014E000233B6109E07B691A683B699B0003
:100CB000134400221A603B6901333B617B695B6826
:100CC0003A699A42F0D37B6908337B617B690C4AAD
:100CD0009342E6D308F03CFAA5EDF5FEA5EDF5FE4E
:100CE00000ED00E000000000F80B002000040020F0
:100CF000F80B0020C80B0000EC0B0000EC0B000010
:100D0000040C0000EFF30880EFF309812DE9F00FE8
:100D10006B46724600F072FB08B0FFF773FFFEE708
:100D200000BF000080B400AFBFF34F8F00BF064B81
:100D3000DB6803F4E0620449044B1343CB60BFF368
:100D40004F8F00BF00BFFDE700ED00E00400FA0593
:100D500080B483B000AF114B1B68C3F30B037B60FF
:100D60000F4B1B683B60BFF34F8F00BF7B68092BA5
:100D70000CD13B68012B03D03B68022B02D003E06F
:100D8000012304E0012302E0012300E000231846D0
:100D90000C37BD465DF8047B704700BF3001FF0093
:100DA0003401FF0080B483B000AF114B1B68C3F364
:100DB0000B037B600F4B1B683B60BFF34F8F00BF83
:100DC0007B68092B0CD13B68012B03D03B68022BBD
:100DD00002D003E0012304E0012302E0012300E04C
:100DE000002318460C37BD465DF8047B704700BFF2
:100DF0003001FF003401FF0080B483B000AF114B1D
:100E00001B68C3F30B037B600F4B1B683B60BFF396
:100E10004F8F00BF7B68092B0CD13B68012B03D09F
:100E20003B68022B02D003E0012304E0002302E030
:100E3000002300E0002318460C37BD465DF8047B14
:100E4000704700BF3001FF003401FF0080B483B061
:100E500000AF114B1B68C3F30B037B600F4B1B6888
:100E60003B60BFF34F8F00BF7B68092B0CD13B6801
:100E7000012B03D03B68022B02D003E0002304E0E7
:100E8000012302E0012300E0002318460C37BD4691
:100E90005DF8047B704700BF3001FF003401FF00A4
:100EA00080B483B000AF114B1B68C3F30B037B60AE
:100EB0000F4B1B683B60BFF34F8F00BF7B68092B54
:100EC0000CD13B68012B03D03B68022B02D003E01E
:100ED000012304E0002302E0002300E00023184681
:100EE0000C37BD465DF8047B704700BF3001FF0042
:100EF0003401FF0080B483B000AF114B1B68C3F313
:100F00000B037B600F4B1B683B60BFF34F8F00BF31
:100F10007B68092B0CD13B68012B03D03B68022B6B
:100F200002D003E0012304E0012302E0012300E0FA
:100F3000002318460C37BD465DF8047B704700BFA0
:100F40003001FF003401FF0080B483B000AF154BC7
:100F50001B68C3F30B037B60134B1B683B60BFF341
:100F60004F8F00BF7B68092B14D13B68032B0DD03A
:100F70003B68032B0CD83B68012B03D03B68022B4A
:100F800002D005E0002306E0002304E0012302E094
:100F9000012300E0002318460C37BD465DF8047BB2
:100FA000704700BF3001FF003401FF0080B500AF83
:100FB000FFF7CAFF034683F00103DBB2002B16D113
:100FC0000C4B1B680C4A934201D15A2300E00023CA
:100FD0000A4AC2F8103E074BDB6A074A934201D126
:100FE0005A2300E00023054AC2F8003E00E000BF9B
:100FF00080BD00BF0080FF00FA50FA5000900350FF
:1010000080B586B000AF7F4B1B687E4A43F0020379
:101010001360FFF79DFE0346002B09D04FF05023CD
:101020000022C3F814214FF050230022C3F81821E6
:10103000FFF7E2FE0346002B06D0734B01221A6035
:10104000724B0122C3F87825FFF700FF0346002BFF
:1010500003D06E4B0122C3F87825FFF721FF03462A
:10106000002B02D06A4B0E221A60FFF743FF0346A3
:10107000002B05D0674B00221A60674B01221A60D3
:1010800000237B6111E04FF47F024FF47F017B6905
:10109000603351F8333019467B696033DB00134409
:1010A0005B680B607B6901337B617B69FF2B0ED82A
:1010B0007B69DB0003F57F0303F54073184602F0FC
:1010C0003BFC034683F00103DBB2002BDBD1EFF3E3
:1010D00010837B607B68012B0CBF01230023FB7412
:1010E00000F0D4F80346002B04D100F09DF803462D
:1010F000002B6AD0BFF34F8F00BF00BF474BD3F820
:101100000034012BFAD1454B0122C3F8042500BF5E
:10111000424BD3F80034012BFAD1FB7C83F001035E
:10112000DBB2002B06D0FFF73DFE0346002B01D0BB
:1011300072B600BF00F0AAF80346002B12D0384B5D
:10114000DB69FB60FB6823F00103BB60344ABB68CA
:10115000D361BFF34F8F00BF00BF304BD3F80034D3
:10116000012BFAD100F060F80346002B14D02C4B71
:101170001B6AFB60FB6823F0FF0343F02003BB60A6
:10118000274ABB681362BFF34F8F00BF00BF234BDA
:10119000D3F80034012BFAD1FB7C83F00103DBB2DE
:1011A000002B06D0FFF7FEFD0346002B01D062B6F0
:1011B00000BF1A4B0022C3F8042500BF174BD3F819
:1011C0000034012BFAD1FFF7ADFD164BD3F88C306C
:1011D000144A43F44063C2F88C30FFF7E7FE114B2A
:1011E000D3F888300F4A43F47003C2F88830BFF355
:1011F0004F8F00BFBFF36F8F00BF00BF1837BD46D2
:1012000080BD00BFD0ED00E0384A005000400050E3
:10121000E4AE03500C4700501047005000900350BC
:101220000080FF0000ED00E080B582B000AFEFF37A
:1012300010833B603B68012B0CBF01230023FB7133
:10124000FB7983F00103DBB2002B06D0FFF7AAFD88
:101250000346002B01D072B600BF0B4802F06CFBB6
:101260000346BB71FB7983F00103DBB2002B06D090
:10127000FFF798FD0346002B01D062B600BFBB7993
:1012800018460837BD4680BD2080FF0080B584B079
:1012900000AFEFF310833B603B68012B0CBF0123D1
:1012A0000023FB73FB7B83F00103DBB2002B06D032
:1012B000FFF778FD0346002B01D072B600BF104B3C
:1012C000DB69BB60BFF34F8F00BFBB6803F0010356
:1012D000002B14BF01230023FB71FB7B83F0010370
:1012E000DBB2002B06D0FFF75DFD0346002B01D0DB
:1012F00062B600BFFB7918461037BD4680BD00BFFF
:101300000080FF0080B584B000AF78600023FB73DD
:101310000E212A4802F0A1FB7B681B68033B042BCB
:101320002BD801A252F823F03D1300004713000010
:101330005513000063130000711300000C212048B6
:1013400002F08BFB30E012211E4802F086FB0123E5
:10135000FB7329E00B211C4802F07FFB0123FB7388
:1013600022E00D21194802F078FB0123FB731BE0FA
:101370000E21174802F071FB16E07B681B680F2BEB
:1013800007D87B681B681A461421124805F00EFE28
:1013900007E07B681B68103B1A4625210E4805F0C4
:1013A00005FE0123FB7300BFFB7B7968184602F042
:1013B00040FB00BF1037BD4680BD00BF647B00000E
:1013C000747B0000807B0000947B0000A07B000009
:1013D000B07B0000C07B0000D47B000080B582B0F1
:1013E00000AF78607C22044978680BF0EAF800BF0F
:1013F0000837BD4680BD00BFFC28002080B586B000
:1014000000AFF860B9607A603B60394B7B61394B63
:101410005B68C3F308027B691A60EFF303833B61E7
:101420003A697B695A657B697A685A607B69FA68B0
:101430009A607B69BA68DA607B6958687B699968E9
:101440007B69DB681A4602F0CCFA02467B691A61B6
:101450007B6903F114007B691B69202219460BF09C
:10146000B0F83B68002B06D07B6934332022396802
:1014700018460BF0A6F81F4B9A6A7B699A651D4BBC
:10148000DA6A7B69DA651B4B9A6B7B691A667B6942
:101490009B6D03F400427B695A66164B5A6B7B695D
:1014A0009A667B699B6D03F080027B69DA66114A5C
:1014B0007B699B6D93620F4A7B69DB6DD3620E4B38
:1014C0005A697B691A670C4B9A697B695A677B6911
:1014D0001B6F03F040027B699A67074A7B691B6FA9
:1014E00053617869FFF70EFF00BF1837BD4680BD16
:1014F000FC28002000ED00E0D0ED00E080B584B0D5
:1015000000AF7860396000BF134BDB6A9847034631
:10151000DBB203F00103DBB2002BF5D10E4B5B69AC
:10152000396878689847F860FB68002B01D0002381
:101530000EE000BF084BDB6A98470346DBB203F0BE
:101540000103DBB2002BF5D1034B1B6A984703461E
:1015500018461037BD4680BD947C000080B582B02F
:1015600000AF1A4B9B680020984778607B68002B7F
:1015700005D0174B174A5E2117480AF079F8134B2C
:101580001B690220984778607B68002B05D0104BC0
:10159000104A612110480AF06BF80C4B9B6A4FF41B
:1015A000E1310120984778607B68002B05D0084B1B
:1015B000084A652108480AF05BF8044B9B6A012140
:1015C0001520984700BF0837BD4680BD947C0000B9
:1015D000FC7B0000747C0000147C000080B487B0A9
:1015E00000AFF860B9607A6000237B6133E07B690B
:1015F0009B00BA6813441B6803F07F033B613B699F
:101600007F2B02D14FF0FF333B617B699B00BA68AF
:1016100013441B681B0C032B1AD801A252F823F0A9
:10162000311600003916000041160000491600006E
:10163000FB683A691A600BE0FB683A695A6007E098
:10164000FB683A699A6003E0FB683A69DA6000BFB8
:101650007B6901337B617A697B689A42C7D300BF9B
:1016600000BF1C37BD465DF8047B704780B483B073
:1016700000AF084B1B687B600023BA8862F30F033E
:10168000FA8862F31F4318460C37BD465DF8047BA9
:10169000704700BF807C000080B590B000AF7860DC
:1016A000396007F108033422002118460AF0D0FF00
:1016B0004FF0FF33BB604FF0FF33FB604FF0FF3361
:1016C0003B614FF0FF337B614FF0EB733B630723CC
:1016D00087F83A303B6899683B68DA6807F1080395
:1016E0001846FFF77BFF3B6807F108010022184608
:1016F00000F0A0FCF863FB6B104A934202D06FF03D
:10170000010317E03B6800221A613B6800225A611E
:101710003B68183307F1340212681146198002330E
:10172000120C1A703A6B3B68DA613B68012283F84D
:101730002020002318464037BD4680BD0000AD0B79
:1017400080B598B000AFF860B9607A607B6893F8B4
:10175000203083F00103DBB2002B02D04FF0FF33C7
:1017600049E0F86802F097F9034683F00103DBB221
:10177000002B27D00023FB651FE0BA68FB6DD31A4E
:10178000402B28BF40237B65FA68FB6DD11807F119
:1017900010037A6D18460AF014FF07F110037A68F7
:1017A000796D1846FFF7CCFF38653B6D002B01D0F3
:1017B0003B6D20E0FB6D4033FB65FA6DBB689A42E0
:1017C000DBD317E078680023BA68F96800F090FE70
:1017D000B865BB6D0A4A934202D16FF001030AE07B
:1017E000BB6D084A934202D04FF0FF3303E07B68A1
:1017F000BA681A61002318466037BD4680BD00BF35
:101800000B00AD0B0000AD0B80B586B000AFF860EB
:10181000B9607A607B6893F8203083F00103DBB213
:10182000002B02D04FF0FF3318E07B68BA68F968EC
:10183000184601F013FA78617B690A4A934202D193
:101840006FF001030AE07B69074A934202D04FF030
:10185000FF3303E07B68BA685A61002318461837E3
:10186000BD4680BD0B00AD0B0000AD0B80B586B052
:1018700000AFF860B9607A60FB68DBB2012B02D080
:101880006FF003034AE17B68DB697B617A6807F1EB
:10189000100318321268114619800233120C1A70A4
:1018A000BB68A04A934200F0D680BB689D4A934231
:1018B00000F2D580BB68B3F5612F00F0C880BB682B
:1018C000B3F5612F00F2CB80BB68B3F5E12F00F0D8
:1018D000BA80BB68B3F5E12F00F2C180BB68924AC1
:1018E000934200F0AC80BB688F4A934200F2B7800D
:1018F000BB68B3F5613F00F09E80BB68B3F5613F04
:1019000000F2AD80BB68B3F5E13F00F09080BB68AA
:10191000B3F5E13F00F2A380BB68B3F5963F00F05A
:101920008380BB68B3F5963F00F29980BB68B3F53E
:10193000614F75D0BB68B3F5614F00F29080BB6812
:101940004DF6C022934267D0BB684DF6C022934249
:1019500000F28580BB68B3F5164F59D0BB68B3F56C
:10196000164F7CD8BB6847F6122293424CD0BB6816
:1019700047F61222934272D8BB68B3F5E14F40D0CC
:10198000BB68B3F5E14F6AD8BB68B3F5964F35D065
:10199000BB68B3F5964F62D8BB68B3F5615F2AD0D8
:1019A000BB68B3F5615F5AD8BB68B3F5165F1FD04B
:1019B000BB68B3F5165F52D8BB68B3F5965F14D019
:1019C000BB68B3F5965F4AD8BB68B3F5966F04D091
:1019D000BB68B3F5166F04D041E04FF49E237B61E2
:1019E00040E04FF41D237B613CE0504B7B6139E0CC
:1019F0004F4B7B6136E04F4B7B6133E04E4B7B615D
:101A000030E04E4B7B612DE04FF400037B6129E019
:101A10004FF41D037B6125E04FF465037B6121E0FA
:101A20004FF46B037B611DE0454B7B611AE04FF087
:101A3000EB737B6116E04FF06C737B6112E04FF04B
:101A400080637B610EE04FF0E8637B610AE04FF05A
:101A500070637B6106E04FF080537B6102E06FF0C2
:101A600007035BE0FB6803F4E063002B02D06FF038
:101A7000080353E0FB6803F44043002B03D0B3F5A5
:101A8000804F03D005E00023BB7405E01023BB7436
:101A900002E06FF00A0341E0FB6803F44053002BBF
:101AA00003D0B3F5805F03D005E000237B7405E02D
:101AB0000E237B7402E06FF009032FE0FB6803F450
:101AC0004033002B03D0B3F5403F03D005E00023A3
:101AD0003B7405E001233B7402E06FF00B031DE053
:101AE0007B687A69DA617B68183307F11002126843
:101AF000114619800233120C1A707B681A687B68D1
:101B0000DB691946104601F0F2FF7B681A687B68B2
:101B100018331946104601F0D1FF00231846183734
:101B2000BD4680BD40420F0090D0030000B01300BE
:101B30000050270000F03A0000A04E0000C07500E1
:101B400000903A0180B582B000AF786004497868AF
:101B5000FFF7A2FD034618460837BD4680BD00BF0B
:101B60008420002080B500AF024801F0D9FF034671
:101B7000184680BD8420002080B582B000AF0346A7
:101B8000FB71FB790449184601F0DBFF0346184658
:101B90000837BD4680BD00BF8420002080B582B0DC
:101BA00000AF78603960054A39687868FFF7C8FD8A
:101BB000034618460837BD4680BD00BF842000207C
:101BC00080B582B000AF78603960054A39687868BE
:101BD000FFF71AFE034618460837BD4680BD00BF12
:101BE0008420002080B500AF024801F0CBFF0346FF
:101BF000184680BD8420002080B500AF024801F067
:101C0000CDFF0346184680BD8420002080B582B0F9
:101C100000AF78603960054A39687868FFF726FEBA
:101C2000034618460837BD4680BD00BF842000200B
:101C300080B483B000AF0346FB7197F90730002BE7
:101C40000BDBFB7903F01F02074997F907305B09AB
:101C5000012000FA02F241F8232000BF0C37BD46F4
:101C60005DF8047B704700BF00E100E080B483B002
:101C700000AF0346FB7197F90730002B12DBFB79AD
:101C800003F01F020A4997F907305B09012000FAA7
:101C900002F2203341F82320BFF34F8F00BFBFF380
:101CA0006F8F00BF00BF0C37BD465DF8047B7047E7
:101CB00000E100E080B483B000AF03463960FB71FF
:101CC00097F90730002B0ADB3B68DAB20C4997F929
:101CD00007305201D2B20B4483F800230AE03B687C
:101CE000DAB20849FB7903F00F03043B5201D2B288
:101CF0000B441A7600BF0C37BD465DF8047B704775
:101D000000E100E000ED00E080B584B000AF786055
:101D10007B68002B0AD0074B43F00103FB607B6814
:101D20009B01BB60FB68B868984700E000BF1037B4
:101D3000BD4680BDC086000080B584B000AF78602D
:101D40007B681B68184602F00DFC0346002B06D189
:101D50000E4B0F4A40F269310E4809F089FC00230E
:101D6000FB60786802F024FC0346002B02D10A4B8A
:101D7000FB6006E0094B064A40F27231054809F063
:101D800077FCFB6818461037BD4680BDCC7C000050
:101D900098860000F07C000000258450307D000013
:101DA00080B586B000AF7860084611461A460346F3
:101DB000FB700B46BB7013467B703B1D1846FFF74C
:101DC000BBFF78617A687B69803253F822303B61CF
:101DD000114BFB60FB68DB433A6913403B61FA78C7
:101DE000BB785B001A437B789B001A4397F820303E
:101DF0001B021A4397F824301B0413433A69134318
:101E00003B617A687B698032396943F8221000BFF0
:101E10001837BD4680BD00BF0F07030080B58AB0EC
:101E200000AF786039607B681B791A4613469B00C7
:101E300013441B01534A13447B623B6893F83030D0
:101E400083F00103DBB2002B20D07B6ADB6C43F014
:101E500000731A467B6ADA643B681B68B3F1FF3F84
:101E600009D03B681B68184602F0E1FB3B681B6821
:101E7000184602F0B1FB3B685B68B3F1FF3F05D049
:101E80003B685B680021184602F0B3FB3B6893F89F
:101E90002C30012B28D13B6893F8303083F00103BC
:101EA000DBB2002B20D07B6ADB6C43F000631A4668
:101EB0007B6ADA643B68DB68B3F1FF3F05D03B68BF
:101EC000DB680021184602F094FB3B689B68B3F185
:101ED000FF3F09D03B689B68184602F0A8FB3B68AF
:101EE0009B68184602F078FB3B6893F82F3083F02C
:101EF0000103DBB2002B06D07B6ADB6C43F08073FE
:101F00001A467B6ADA6407F10C0300221A605A60F1
:101F10009A60DA601A615A613B681B68FB603B6833
:101F20005B683B613B689B687B613B68DB68BB61CE
:101F30003B6893F82F3087F823303A6807F1200385
:101F40002C321268114619800233120C1A703B6849
:101F50009B6AFB617B681B6807F10C0211461846FF
:101F600002F070F8786802F06FFB7B6818683B68D5
:101F700093F832200023044902F09DF800BF28376F
:101F8000BD4680BD782900201003420080B588B08E
:101F900000AF78607B681B791A4613469B00134498
:101FA0001B01234A1344FB617B681B6807F10C0289
:101FB0001146184602F0FDF8FB69DB6C03F08073F4
:101FC000002B04D07B681B68184602F017F9FB69E8
:101FD000DB6C03F00073002B25D0FB68B3F1FF3FEF
:101FE00003D0FB68184602F015FB3B69B3F1FF3FD5
:101FF00003D03B69184602F00DFBFB69DB6C03F074
:102000000063002B0FD0BB69B3F1FF3F03D0BB6966
:10201000184602F0FFFA7B69B3F1FF3F03D07B69FA
:10202000184602F0F7FA00BF2037BD4680BD00BF5A
:102030007829002080B58AB000AFF860B9607A6076
:10204000BB68002B06D14B4B4B4A40F2BD114B48AD
:1020500009F00EFBFB681B797B627A6A13469B00D2
:1020600013441B01464A13443B623B6A93F84830D1
:10207000002B03D0434B7B617B6976E0502200212B
:10208000386A0AF0E5FABB681A693B6A1A60BB68ED
:102090005A693B6A9A63BB689B69002B03D13B6A10
:1020A0000022DA6304E0BB689B695A1E3B6ADA636C
:1020B000BB681B6A042B06D9BB68DA693B6A9A6164
:1020C0003B6A0022DA617B68002B04D0BB6893F87E
:1020D0003130002B01D0002301E04FF48073FB610D
:1020E000BB6893F83130002B06D03B6ADB6C43F0C1
:1020F00001031A463B6ADA643B6A7A685A603B6AB3
:10210000012283F84820FB681B68184602F02CFB6C
:10211000034683F00103DBB2002B01D01A4B24E00D
:10212000B968F868FFF77AFEFB681A68BB6893F82D
:1021300031301946104602F063FB034683F0010379
:10214000DBB2002B01D0104B0FE07B68002B01D0DD
:102150000E4A00E00022FB691343BB61FB681B6869
:10216000B969184602F0B2F8094B18462837BD463F
:1021700080BD00BF347D0000C8860000407D0000A7
:10218000782900200C00AD0B0100AD0B10020A00F5
:102190000000AD0B80B586B000AF78607B681B791E
:1021A0001A4613469B0013441B011A4A13447B61D1
:1021B0007B681B683B617B6993F84830002B06D134
:1021C000154B164A40F24D21154809F051FA1549B0
:1021D000386902F09DF8386901F0DAFF0122012127
:1021E000786800F0F3FCF8600121786800F04AFAA2
:1021F000F8607868FFF7CAFE7B690022DA647B69C1
:10220000002283F848207B6900225A6000BF1837FB
:10221000BD4680BD78290020887D0000D88600005A
:10222000407D000010034A0080B588B000AFF86020
:10223000B9607A60FB70FB781946F86802F06EFAB4
:102240000346FB77F86802F0E5F8B861F86802F039
:10225000D0F87861FB7F002B04D17A69BB689A4281
:1022600000D1E8E77A69BB689A4205D17A68BB6910
:102270009A4201D90B4B00E00B4B3B613B690A4A88
:10228000934209D1FB7883F00103DBB2002B03D02A
:102290000C21F86802F088F83B6918462037BD46E3
:1022A00080BD00BF0800AD0B0000AD0B80B58AB04B
:1022B00000AFF860B9601346FB71FB681B791A46E2
:1022C00013469B0013441B01474A1344BB61FB6840
:1022D0001B687B61BB6993F84830012B06D0434BE8
:1022E000434A40F2E521434809F0C2F9424B3B62C0
:1022F000BB699B6B002B0FD1B968786901F0ADFC0D
:10230000034683F00103DBB2002B01D03B4B66E0B8
:10231000002387F8273002E0012387F8273000F0F8
:1023200093FDBB69DB6C03F00103002B14BF012399
:102330000023DBB21946786902F0F0F90346FB741A
:10234000FB7C002B27D0BB695B6C002B06DA78691D
:1023500002F060F803461A46BB695A6497F82730C2
:10236000002B0ED0BB699A6BBB69DB6B1344BA6858
:1023700012781A70BB699A6BBB69DB6B1344FB6103
:1023800001E0BB68FB61FB790122F969786902F021
:102390007DFA1B4B3B6200F067FD3B6A184A934293
:1023A0001CD1FB7983F00103DBB2002B16D0BB6993
:1023B000DB6C03F00103002B14BF01230023DBB20D
:1023C0000122F9697869FFF72FFF386200F03CFDC0
:1023D000B969786902F09CFA00F046FD3B6A18463C
:1023E0002837BD4680BD00BF78290020B47D00009D
:1023F000EC860000407D00000B00AD0B0400AD0B2F
:102400000000AD0B80B588B000AFF860B9607A60AD
:102410003B60FB681B791A4613469B0013441B0163
:102420002F4A13447B617B695B68002B06D03B68B5
:1024300003F00203002B01D0012300E00023FB7412
:10244000FB7C03F00103FB74264BFB61FB7C002B40
:1024500003D07B699B6B002B05D07B69DB6C03F0A1
:102460001003002B01D0204B35E00023BB612DE091
:10247000BA68BB691344FA7C1946F868FFF716FF7F
:10248000F861FB69174A934205D0FB69174A9342EA
:10249000EED0FB691FE000BF7B695B68002B12D1A7
:1024A0007B69DB6C03F00803002B0CD07B694C3399
:1024B000D3E8EF1F21F00801C3E8E21F002AF7D19B
:1024C000094BFB6106E0BB690133BB61BA697B68FC
:1024D0009A42CDD3FB6918462037BD4680BD00BF68
:1024E000782900200000AD0B0800AD0B0B00AD0BF0
:1024F00080B588B000AFF860B9607A603B60FB6877
:102500001B791A4613469B0013441B01524A13447D
:102510007B61FB681B683B617B6993F84830012B4A
:1025200006D04E4B4E4A40F26F314E4809F0A0F8AB
:10253000FB681B79002B03D17B68B3F5005F06D3E2
:10254000494B474A4FF45C71464809F091F8BB6823
:10255000002B06D1454B424A40F27131414809F007
:1025600087F87B68002B06D1414B3D4A40F272311F
:102570003C4809F07DF83F4BFB617B68002B01D1A3
:102580003D4B65E07B695B68002B17D13B68002BF6
:1025900014D17B69DB6A002B0ED17B697A68DA6221
:1025A00000237A68B968F868FFF72CFFF8617B6947
:1025B0000022DA62FB694BE0304B49E03B6803F0F4
:1025C0000303002B07D03B687A68B968F868FFF707
:1025D00019FF03463CE0B968386901F03EFB034649
:1025E00083F00103DBB2002B08D07B699B6B002BCF
:1025F00001D1234BFB610123FB7601E00023FB7635
:10260000FB691C4A934201D0FB6921E000F01CFCED
:102610007B69DB6A002B16D17B697A68DA627B6999
:10262000BA689A62FB7E002B06D07B69DB6C43F0B4
:1026300002031A467B69DA64FB7E1A4679693869B7
:1026400002F0DCF901E00D4BFB6100F00DFCFB69D1
:1026500018462037BD4680BD78290020B47D000093
:10266000F8860000407D0000E07D000070850000DD
:10267000788500000000AD0B0600AD0B0B00AD0B24
:102680000A00AD0B80B586B000AF78600B46FB70DA
:102690007B681B791A4613469B0013441B011D4A95
:1026A00013447B617B681B683B61386902F016F854
:1026B000F8607B69DB6A002B05D1F968386902F0A4
:1026C00020F8154B21E07B694C33D3E8EF1F41F034
:1026D0000801C3E8E21F002AF7D10C21386901F094
:1026E00063FEFB78002B0BD07969386902F02DF975
:1026F0004FF49071386901F091FD7B690022DA6234
:10270000F968386901F0FDFF044B18461837BD46DB
:1027100080BD00BF782900200500AD0B0000AD0B87
:1027200080B584B000AFF860B9607A604FF484710E
:10273000F86801F073FD2021F86801F0B8FD0C4B3A
:102740001946F86801F0E4FDF86802F040FABB6849
:1027500000229A60BB6800221A61B86802F000FA91
:102760007968B86802F0C1F900BF1037BD4680BD76
:1027700010020A0080B586B000AF786039607B68CF
:102780001B791A4613469B0013441B01554A1344F8
:102790007B617B681B683B617B694C33D3E8EF2F1F
:1027A00042F48051C3E8E01F0028F7D1FA60FB68CB
:1027B00003F48053002B01D04B4B8EE03B6803F0B9
:1027C0000403002B05D07B699B69002B01D1474B8B
:1027D00083E0474B1946386901F09AFD386901F0EA
:1027E000B7FD4FF48871386901F018FD4FF4A671F8
:1027F000386901F013FD4FF4A271386901F00EFD44
:102800003B689B0303F480423B681B0303F40053C3
:102810001A433B685B0303F400431343BB607B69CB
:102820004C33BA68D3E8EF0F40EA0200C3E8E10F87
:102830000029F7D17B699B68002B07D17B695B6816
:10284000002B03D00321786902F034F97B699B687F
:10285000002B04D1786902F083F9264B3DE0042176
:10286000386901F042FD0346002B17D07B695B6895
:10287000002B13D07B69DB6C03F40023002B0DD0FD
:102880007B694C33D3E8EF1F21F40021C3E8E21F3A
:10289000002AF7D10621786902F00CF97B69DB6C1C
:1028A00003F48053002B17D04FF4A671386901F060
:1028B000C6FC034683F00103DBB2002B03D00021EA
:1028C000386901F071FD7B695B68002B04D0084B0F
:1028D0001946386901F0FAFC074B18461837BD460F
:1028E00080BD00BF782900200B00AD0B0800AD0BA8
:1028F00010020A000200AD0B0000AD0B80B586B0DF
:1029000000AFF860B9607A603B60324B7B61BB68B6
:102910009B68002B0BD0BB685B68002B36D14FF453
:102920008871F86801F08BFC0346002B2ED0BB6841
:102930009B68002B04D04FF48871F86801F06EFC9E
:10294000BB687A689A60BB683A68DA60B968F86808
:1029500002F055F90346002B35D0BB689A68BB6876
:102960005B6AD118BB68DA68BB685B6AD31A1A461F
:10297000F86801F060FDBB68DB6C03F48053002B4A
:1029800021D00021F86801F00FFD1CE0BB681B6935
:10299000002B15D1BB687A681A61BB683A685A6126
:1029A0003A687968F86801F046FDBB68DB6C03F4AF
:1029B0008043002B08D02021F86801F069FC03E077
:1029C000054B7B6100E000BF7B6918461837BD46A8
:1029D00080BD00BF0000AD0B0B00AD0B80B58AB011
:1029E00000AFF860B9607A60FB681B791946374A16
:1029F0000B469B000B441B01134448331B78012BEF
:102A000006D0334B334A4FF4AC61334808F030FE04
:102A1000FB681B79002B03D17B68B3F5005F06D3FD
:102A20002E4B2C4A40F261512B4808F021FEBB6826
:102A3000002B06D12A4B274A40F26251264808F063
:102A400017FE7B68002B06D1264B224A40F26351C9
:102A5000214808F00DFEFB681B791A4613469B00BF
:102A600013441B01194A13447B62FB681B68BB615A
:102A7000002387F823301C4BFB61B86901F02EFE60
:102A80007861B968B86901F0E8F8034683F001039A
:102A9000DBB2002B02D0154BFB6102E0012387F86B
:102AA000233097F82330002B06D07B68BA68796A08
:102AB000B869FFF723FFF8617969B86901F021FE71
:102AC000FB6918462837BD4680BD00BF7829002025
:102AD000CC85000008870000407D0000E07D0000FC
:102AE00070850000788500000000AD0B0A00AD0B7A
:102AF00080B588B000AFF860B96011461A460B4641
:102B0000FB711346BB712021F86801F0AEFB034650
:102B1000002B14BF01230023FB75BB68DB6C03F49F
:102B20008223B3F5805F01D0254B45E0F86801F0C2
:102B3000D5FDB861FB79002B05D1FB7D83F0010346
:102B4000DBB2002B07D02021F86801F0B0FB4FF476
:102B50008423FB6102E04FF48033FB61BB684C339C
:102B6000FA69D3E8EF0F40EA0200C3E8E10F002959
:102B7000F7D1BB79002B03D1BB685B68002B12D166
:102B8000104B1946F86801F0C3FB0421F86801F006
:102B90000BFCB968F86802F0FFF80A4BDB43BA692E
:102BA0001340BB6103E00421F86801F0FDFBB96943
:102BB000F86801F0A6FD044B18462037BD4680BDDD
:102BC0000500AD0B10020A000000AD0B80B584B00B
:102BD00000AF78600B46FB701346BB707B68002B20
:102BE00006D1194B194A40F22561194808F040FDF9
:102BF0007B681B791946174A0B469B000B441B0147
:102C0000134448331B78012B06D0134B0F4A40F274
:102C100026610F4808F02CFD7B681B791A46134685
:102C20009B0013441B010B4A1344FB607B681B6829
:102C3000BB60BB78FA78F968B868FFF759FF0346BC
:102C400018461037BD4680BD10860000248700005E
:102C5000407D000078290020CC85000080B588B038
:102C600000AFF860B9607A607A68B968F868FFF711
:102C7000B5FEF861FB681B791A4613469B001344A6
:102C80001B013B4A1344BB61BB6993F84830012BDD
:102C900006D0384B384A40F23561384808F0E8FC35
:102CA000FB681B79002B03D17B68B3F5005F06D36B
:102CB000334B314A40F23661304808F0D9FCBB68EA
:102CC000002B06D12F4B2C4A40F237612B4808F0DD
:102CD000CFFC7B68002B06D12B4B274A4FF4C761F2
:102CE000264808F0C5FCFB69284A934201D0FB69DD
:102CF0003AE003237B617969F868FFF73BFDF861EF
:102D0000FB69234A934205D0FB69204A934201D0D4
:102D1000FB6929E01D4BFB61BB695B68002B22D17D
:102D200000BF07F110031946F86800F037F80346B2
:102D3000164A9342F5D13B697A689A4202D9154BFB
:102D4000FB6110E001220121F868FFF73FFFF86105
:102D5000FB690E4A934206D00F4B074A40F2566178
:102D6000064808F085FCFB6918462037BD4680BD43
:102D700078290020B47D000038870000407D0000E5
:102D8000E07D000070850000788500000000AD0B3C
:102D90000B00AD0B0800AD0B1C86000080B584B0A5
:102DA00000AF786039607B681B791A4613469B0038
:102DB00013441B011D4A1344FB60FB6893F8483021
:102DC000012B06D01A4B1B4A40F261611A4808F0E9
:102DD0004FFCFB685B68002B01D0184B22E07B683E
:102DE0001B684FF48871184601F029FA0346002B3E
:102DF0000AD17B681B68184601F0C4FA034683F0C9
:102E00000103DBB2002B0CD03B68002B07D07B68A2
:102E10001B68184601F020FB02463B681A60084B0D
:102E200000E0084B18461037BD4680BD78290020C9
:102E3000B47D000048870000407D00000800AD0B15
:102E40000000AD0B0B00AD0B80B400AF72B600BF3D
:102E5000044B1B680133034A136000BFBD465DF895
:102E6000047B7047C829002080B500AF0B4B1B685E
:102E7000002B05D10A4B0B4A2C210B4808F0F8FB1C
:102E8000064B1B68013B054A1360044B1B68002B73
:102E900001D162B600BF00BF80BD00BFC8290020BD
:102EA0005C870000E88700007487000080B487B06A
:102EB00000AFF860B9607A60FB681B687B617B6972
:102EC000114A1A63BB68002B01D0042200E00022E3
:102ED0007B68002B01D0022300E000231A437B69AA
:102EE0005A607B695B6843F001027B695A60BFF3FB
:102EF0004F8F00BFBFF36F8F00BF002318461C37F2
:102F0000BD465DF8047B704704AAFF0080B582B01F
:102F100000AF7860084611461A460346FB700B4620
:102F2000BB7013467B70FA787B68A03253F832305E
:102F300003F48073002B06D01C4B1D4A4FF46871BC
:102F40001C4808F095FBFB787A68A033DB0013443B
:102F50005B6803F48073002B06D0174B144A40F2D1
:102F6000A131144808F084FB7B783A7C002A02D017
:102F70004FF4807100E00021FA7819437B68A03299
:102F800043F83210BA783B7C002B02D04FF48071AA
:102F900000E00021FB780A437968A033DB000B4492
:102FA0005A6000BF0837BD4680BD00BF04880000DE
:102FB000D48B0000408800008088000080B584B079
:102FC00000AFF8607B600B46FB721346BB72FA7A67
:102FD000FB6802F5C07253F8223003F48073002BB3
:102FE00006D0104B104A40F2BE31104808F040FBAA
:102FF000BB7A002B01D0102200E000227B68134333
:103000003A7E002A02D04FF4807100E00021FA7A63
:103010001943FB6802F5C07243F8221000BF103755
:10302000BD4680BDBC880000748B00004088000055
:1030300080B584B000AFF8607B600B46FB7213462E
:10304000BB72FA7AFB6802F5E07253F8223003F49F
:103050008073002B06D0104B104A40F2CB31104841
:1030600008F006FBBB7A002B01D0102200E0002202
:103070007B6813433A7E002A02D04FF4807100E04F
:103080000021FA7A1943FB6802F5E07243F8221036
:1030900000BF1037BD4680BDF88800008C8B000053
:1030A0004088000080B584B000AFF860B960114678
:1030B0001A460B46FB711346BB71FB68BA6802F5F2
:1030C000007253F82230002B06DB1C4B1C4A4FF4D5
:1030D00076711C4808F0CCFAFB68BA6802F50072F9
:1030E00053F8223003F48073002B06D0164B144A99
:1030F00040F2D931134808F0BBFAFB79002B01D01C
:10310000102200E00022BB79002B01D0202300E038
:10311000002313433A7E002A02D04FF4807200E06D
:10312000002242EA0301FB68BA6802F5007243F824
:10313000221000BF1037BD4680BD00BF308900009F
:103140000C8C0000408800006889000080B582B0C7
:1031500000AF00233B603B6843F001033B603B68EA
:1031600043F002033B603B6843F004033B600023F1
:103170007B600AE0094A7B6852F8233039681846B8
:1031800001F033FF7B6801337B607B68002BF1D05B
:1031900000BF00BF0837BD4680BD00BFE82000204B
:1031A00080B582B000AF00237B6000233B6032E03B
:1031B0001D4A3B6852F823304FF48471184601F0E1
:1031C00004FF0346002B03D07B6843F004037B60BD
:1031D000154A3B6852F823304FF48071184601F0CD
:1031E000F4FE0346002B03D07B6843F001037B60B1
:1031F0000D4A3B6852F823304FF48271184601F0B3
:10320000E4FE0346002B03D07B6843F002037B609F
:103210003B6801333B603B68002BC9D07B68184694
:103220000837BD4680BD00BFE820002080B582B0D1
:1032300000AF00237B601DE0124A7B6852F8233008
:103240004FF48071184601F0ABFE0E4A7B6852F8CD
:1032500023304FF48271184601F0A2FE094A7B68C0
:1032600052F823304FF48471184601F099FE7B68C0
:1032700001337B607B68002BDED000BF00BF0837C6
:10328000BD4680BDE820002080B584B002AF002399
:103290007B6017E07B68DBB219461D4801F0C3FE76
:1032A000034683F00103DBB2002B08D07B68D9B260
:1032B00000230093072301221548FFF77FFE7B6858
:1032C00001337B607B681F2BE4D900233B6017E050
:1032D0003B68DBB219460E4801F096FE034683F0C8
:1032E0000103DBB2002B08D03B68D9B20023009366
:1032F000072301220648FFF79BFE3B6801333B6032
:103300003B681F2BE4D900BF00BF0837BD4680BD16
:103310000030005080B58AB002AFF860B9603B6001
:103320001346FB71FB68DB0BBB61BB68DB0B7B618E
:10333000BB69FB610CE0FB69D9B2FA7997F82830D8
:1033400000933B680748FFF739FEFB690133FB61D7
:10335000FA697B699A42EED900BF00BF2037BD46AB
:1033600080BD00BF0030005080B58AB002AFF86069
:10337000B9603B601346FB71FB6803F160435B0B74
:10338000BB61BB6803F160435B0B7B61BB69FB61A5
:103390000CE0FB69D9B2FA7997F8283000933B68C2
:1033A0000748FFF745FEFB690133FB61FA697B695A
:1033B0009A42EED900BF00BF2037BD4680BD00BF96
:1033C0000030005080B586B002AF786039603A684E
:1033D0007B68D31A0133FB607B68C3F30E03C3F52C
:1033E0000043BB60FA68BB689A4206D9214B224A67
:1033F0004FF48771214808F03BF97A68BB681344A1
:10340000C3F30E03002B06D01D4B1B4A40F21111D3
:103410001A4808F02DF9BB685A1EBB681340002BF0
:1034200006D0184B144A40F21511144808F020F940
:10343000BB681F2B03D9BB68B3F5805F06D9124B5D
:103440000D4A4FF48C710D4808F012F9BB68B3FABD
:1034500083F3DBB2C3F11B03DAB27B68DB0BDBB2B5
:103460000121009100210948FFF750FD00BF1037EE
:10347000BD4680BDA4890000A48B0000B88900006F
:10348000348A0000608A0000848A00000030005006
:1034900080B586B002AF78600B46FB707B681B0B73
:1034A000FB730E4AFB7B03F5007352F8233003F0E5
:1034B0000303002B06D10A4B0A4A4FF4B2710A48A3
:1034C00008F0D6F8F97BFB7800930123012203482A
:1034D000FFF7E8FD00BF1037BD4680BD003000504B
:1034E000AC8A0000EC8B0000B889000080B586B083
:1034F00002AF78600B46FB707B681B0BFB730E4AB8
:10350000FB7B03F5007352F8233003F00303012B18
:1035100006D10A4B0A4A4FF4C1710A4808F0A8F8CC
:10352000F97BFB780093002300220348FFF7BAFDE4
:1035300000BF1037BD4680BD00300050108B00002A
:10354000248C0000B889000080B582B000AF78609C
:103550001621034800F081FA00BF0837BD4680BD40
:10356000488C000080B500AFFFF71AFE0346034AFF
:1035700013600248FFF7E8FF00BF80BD0C30002059
:1035800080B582B000AF78600C220449786809F0F9
:1035900018F800BF0837BD4680BD00BF0C300020C2
:1035A00080B483B000AF0C4BDB687B607B689BB260
:1035B0007B607B6823F008037B607B6843F0BF631C
:1035C00043F400337B60044A7B68D36000BF0C3750
:1035D000BD465DF8047B704700ED00E080B500AFAC
:1035E0002E21024800F039FA00BF80BD608C000037
:1035F00080B483B000AF78603960064A7B6813609E
:10360000054A3B681360002318460C37BD465DF839
:10361000047B7047183000201C30002090B589B022
:1036200000AF7860644B1B687A6852695A62624BDB
:103630001B687A6892699A625F4B1B687A68D269E4
:10364000DA625D4B1B687A68126A1A635A4B1B6810
:103650007A68526A5A63584B1B687A68926A9A630E
:10366000554B1B687A68D26ADA63534B1B687A68D9
:10367000126B1A64504B1B687A68526B5A604E4B3F
:103680001B687A68926B9A604B4B1B687A68D26BA6
:10369000DA60494B1B687A68126C1A61464B1B68EA
:1036A0007A68526C5A61444B1B687A68926C9A61D2
:1036B000414B1B687A68D26CDA613F4B1B687A68B1
:1036C000126D1A623C4B1B687A68926D5A653A4BD0
:1036D0001B687A68D26D9A65374B1B687A68126FDF
:1036E000DA65354B1B687A68126E1A66324B1B68B6
:1036F0007A68926E5A66304B1B687A68526F9A6687
:103700002D4B1B68EFF388827A617A695A642A4BE1
:103710001B68EFF38982BA61BA699A64264B1B6809
:103720007A685268DA64244B1B68EFF39482FA617A
:10373000FA691A65204B1B687A6812681A6707F1E4
:1037400008031846FFF71CFF1B4B1B68BA68DA66B4
:10375000194B1B6801221A70184B1B681C46640821
:1037600064002046214622462346B7EE000AF7EEC3
:10377000000AB7EE001AF7EE001AB7EE002AF7EECD
:10378000002AB7EE003AF7EE003AB7EE004AF7EE3D
:10379000004AB7EE005AF7EE005AB7EE006AF7EEAD
:1037A000006AB7EE007AF7EE007A09F0B5FA00BFCA
:1037B0002437BD4690BD00BF183000201C300020CB
:1037C00080B5A0B000AF3B461846FDF707FE7B680A
:1037D000002B14BF0123002387F87F3097F87F3038
:1037E00083F00103DBB2002B15D17B68184601F092
:1037F000EAFC0346002B0ED13B68052B01D0072BBA
:103800000BD100BF074B1B68002B07D03B46184667
:10381000FFF704FF02E000BF00E000BF8037BD46B5
:1038200080BD00BF1C30002080B400AFBFF34F8FBD
:1038300000BF064BDB6803F4E0620449044B13430A
:10384000CB60BFF34F8F00BF00BFFDE700ED00E08E
:103850000400FA0580B58CB000AF786039600123B0
:103860007B6206233B627B685B680C2B03D13B6861
:103870005B68042B01D0022358E07B681B68FB6166
:103880003B681B68BB61BB694FF0FF321A600223C3
:10389000FB62FB691B68002B03D0FB699B68002B54
:1038A00001D1022342E0FB691B681946FB699A6853
:1038B0003B6A786A03F0C6FE78617B69002B01D011
:1038C000022333E00023BB622CE01A4ABB6A52F8A1
:1038D00033303B61174ABB6ADB0013445B68FB6013
:1038E000FB695B683A699A4219D8FB695A68FB69B7
:1038F0009B681A443969FB680B449A420FD8FB69EC
:103900001868FB695B681946FB699B681A4608F0F2
:1039100058FEBB6900221A600023FB6205E0BB6A07
:103920000133BB62BB6A022BCFD9FB6A1846303722
:10393000BD4680BD908C000080B485B000AF78603B
:103940007B681B68FB60BFF34F8F00BFFB68B3F160
:10395000FF3F0CBF01230023DBB218461437BD46DE
:103960005DF8047B704780B483B000AF78607B68FB
:103970009B0903F00103002B14BF01230023DBB2DA
:1039800018460C37BD465DF8047B704780B483B0A1
:1039900000AF78607B6803F00803002B14BF01239D
:1039A0000023DBB218460C37BD465DF8047B704738
:1039B00080B582B000AF78607B6803F00403002B11
:1039C00007D07868FFF7E2FF0346002B01D0012300
:1039D00000E0002303F00103DBB218460837BD46C0
:1039E00080BD80B588B000AFF860B9607A60F868D3
:1039F000FFF7DEFF0346FB77F868FFF7B4FF0346E7
:103A0000002B06D0FB7F002B01D07B680DE0BB684C
:103A10000BE0FB7F002B04D0EFF38983BB61BB6914
:103A200003E0EFF388837B617B6918462037BD464E
:103A300080BD80B582B000AF03463960FB713B6842
:103A40005B681846FFF78FFF3B685B681846FFF717
:103A50009DFF00BF0837BD4680BD80B582B000AF76
:103A60007860396039687868FDF748FD0346184684
:103A70000837BD4680BD80B584B000AFF860B9603E
:103A80007A607B681946B868FDF738FD034618462A
:103A90001037BD4680BD80B483B000AF78607B68CE
:103AA00003F06043B3F1005F0CBF01230023DBB2DE
:103AB00018460C37BD465DF8047B704780B483B070
:103AC00000AF786039603B685A783B689B78134355
:103AD000DAB23B681B781343DBB21A467B68C3F843
:103AE0006C2500BF0C37BD465DF8047B704780B481
:103AF00083B000AF786039607B683A68C3F82425EA
:103B000000BF0C37BD465DF8047B704780B400AF42
:103B1000002343F001031846BD465DF8047B70475F
:103B200080B582B000AF78607B681846FEF732FB44
:103B30007B68002283F82020002318460837BD4602
:103B400080BD80B483B000AF03463960FB71FB7960
:103B5000022B01D1002301E06FF0030318460C375C
:103B6000BD465DF8047B704780B485B000AFF86057
:103B7000B9607A606FF0030318461437BD465DF8EC
:103B8000047B704780B483B000AF78607B681B69AA
:103B900018460C37BD465DF8047B704780B483B08F
:103BA00000AF78607B685B6918460C37BD465DF8EE
:103BB000047B704780B483B000AF00237B607B68D8
:103BC00018460C37BD465DF8047B704780B483B05F
:103BD00000AF0346FB716FF0030318460C37BD4678
:103BE0005DF8047B704780B483B000AF00237B6036
:103BF0007B6818460C37BD465DF8047B704780B47F
:103C000083B000AF78607B681B0B5BB218460C3743
:103C1000BD465DF8047B704780B483B000AF786028
:103C20007B681B6800BF0C37BD465DF8047B70479E
:103C300080B400AF00BFBD465DF8047B704780B420
:103C400000AF00BFBD465DF8047B704780B400AF95
:103C500000BFBD465DF8047B704780B483B000AF01
:103C6000786039603B6803F06043B3F1005F0CBFDC
:103C700001230023DBB218460C37BD465DF8047BF8
:103C8000704780B483B000AF786039607A683B6871
:103C900013441B68002B14BF01230023DBB218461A
:103CA0000C37BD465DF8047B704780B582B000AF2D
:103CB00078600B467B807B887A68134400221A6008
:103CC0007B887A6813441846FFF7A6FF00BF0837C1
:103CD000BD4680BD80B582B000AF78600B467B806A
:103CE0007B8819467868FFF7CCFF034618460837EB
:103CF000BD4680BD80B483B000AF786039607B681A
:103D0000D3F800223B68134018460C37BD465DF8D7
:103D1000047B704780B483B000AF786039607B6803
:103D2000D3F800223B681A437B68C3F8002200BF27
:103D30000C37BD465DF8047B704780B483B000AF9C
:103D4000786039607B68D3F800223B68DB431A4017
:103D50007B68C3F8002200BF0C37BD465DF8047BCA
:103D6000704780B483B000AF786039607B683A6890
:103D7000C3F8042300BF0C37BD465DF8047B7047D1
:103D800080B483B000AF786039607B68D3F80423D7
:103D90003B68134018460C37BD465DF8047B7047FE
:103DA00080B483B000AF786039607B683A68C3F84C
:103DB000082300BF0C37BD465DF8047B704780B414
:103DC00085B000AF78607B68D3F88034FB607B6897
:103DD000FA68C3F88024FB6818461437BD465DF8BE
:103DE000047B704780B483B000AF78607B680822A2
:103DF000C3F8002500BF0C37BD465DF8047B704753
:103E000080B483B000AF78607B680022C3F80025DF
:103E100000BF0C37BD465DF8047B704780B483B0AB
:103E200000AF78607B68D3F80035082B0CBF012306
:103E30000023DBB218460C37BD465DF8047B7047A3
:103E400080B485B000AFF860B9607A60FB68BA688A
:103E5000C3F80C25FB687A68C3F8142500BF143733
:103E6000BD465DF8047B704780B582B000AF7860D6
:103E70004FF0FF324FF0FF317868FFF7E1FF00BFEE
:103E80000837BD4680BD80B483B000AF78607B68E2
:103E9000D3F80C3518460C37BD465DF8047B7047E7
:103EA00080B483B000AF78607B68D3F814351846CF
:103EB0000C37BD465DF8047B704780B483B000AF1B
:103EC00078607B68D3F8083518460C37BD465DF836
:103ED000047B704780B483B000AF78607B68D3F810
:103EE000103518460C37BD465DF8047B704780B42A
:103EF00085B000AFF860B9607A60FB68BA68C3F853
:103F00000825FB687A68C3F8102500BF1437BD4642
:103F10005DF8047B704780B582B000AF78604FF0E9
:103F2000FF324FF0FF317868FFF7E1FF00BF08373D
:103F3000BD4680BD80B483B000AF78600B46FB7097
:103F4000FB787A68134401221A6000BF0C37BD4623
:103F50005DF8047B704780B483B000AF786039604F
:103F60003B685A783B689B781343DAB23B681B780E
:103F70001343DBB21A467B68C3F86C2500BF0C37CD
:103F8000BD465DF8047B704780B483B000AF7860B5
:103F900039607B683A68C3F8242500BF0C37BD46FA
:103FA0005DF8047B704780B485B000AFF860B960FD
:103FB0007A60BA68FB68C3F84425FB687A68C3F87E
:103FC000482500BF1437BD465DF8047B704780B4B8
:103FD00083B000AF78607B68D3F8443518460C375F
:103FE000BD465DF8047B704780B483B000AF786055
:103FF0007B68D3F84C3518460C37BD465DF8047B1A
:10400000704780B485B000AFF860B9607A60BA6874
:10401000FB68C3F83425FB687A68C3F8382500BF0D
:104020001437BD465DF8047B704780B483B000AFA1
:1040300078607B68D3F83C3518460C37BD465DF890
:10404000047B704780B582B000AF786039603B6810
:104050001B6919467868FFF797FF3B6814331946C8
:104060007868FFF778FF3B68DB7D83F00103DBB204
:10407000002B07D03B6819683B685B681A46786874
:10408000FFF7DEFE3B681B7D012B0ED13B68DB7D1D
:1040900083F00103DBB2002B07D03B6899683B68D3
:1040A000DB681A467868FFF722FFFFF7C1FD00BF03
:1040B0000837BD4680BD80B584B000AFF860B960F8
:1040C00011461A460B46FB711346BB714FF48072C2
:1040D000B968F86800F0D1F94FF48272B968F868ED
:1040E00000F0CBF94FF48472B968F86800F0C5F9B4
:1040F0004FF48872B968F86800F0BFF94FF48E7217
:10410000B968F86800F0B9F94FF49072B968F868C6
:1041100000F0B3F94FF49272B968F86800F0ADF9A5
:104120004FF4A272B968F86800F0A7F94FF4A672CC
:10413000B968F86800F0A1F94FF4A872B968F86896
:1041400000F09BF94FF4AC72B968F86800F095F98B
:10415000FFF76EFDF868FFF752FD03461A46FB793C
:1041600019461046FDF7A6FDF868FFF748FD03461F
:104170001846FDF75DFDBB79002B03D0B968F868E0
:10418000FFF7EFFDFFF754FD00BF1037BD4680BDC0
:1041900080B582B000AF78607868FFF730FD0346E5
:1041A0001846FDF763FDFFF743FD00BF0837BD4626
:1041B00080BD80B582B000AF78603960FFF746FD02
:1041C0007868FFF760FE02463B681A607868FFF780
:1041D00067FE02463B685A607868FFF76EFE02464B
:1041E0003B689A607868FFF775FE02463B68DA60C4
:1041F000FFF725FD00BF0837BD4680BD80B582B002
:1042000000AF78607868FFF72FFE7868FFF783FECD
:10421000FFF70EFD00BF0837BD4680BD80B582B0F8
:1042200000AF78600B467B807B8819467868FFF783
:104230003CFDFFF7FDFC00BF0837BD4680BD80B5E3
:1042400084B000AF78600B467B80FFF7F8FC7B887A
:1042500019467868FFF73EFD0346FB73FFF7EFFC56
:10426000FB7B18461037BD4680BD80B584B000AFDB
:1042700078603960FFF7EAFC39687868FFF73AFD43
:10428000F860FFF7DCFCFB6818461037BD4680BDC0
:1042900080B582B000AF7860396039687868FFF720
:1042A00039FDFFF7C5FC00BF0837BD4680BD80B5AE
:1042B00082B000AF7860396039687868FFF73DFDFB
:1042C000FFF7B6FC00BF0837BD4680BD80B582B0A1
:1042D00000AF7860396039687868FFF742FDFFF712
:1042E000A7FC00BF0837BD4680BD80B584B000AFD5
:1042F00078603960FFF7AAFC39687868FFF740FDFD
:10430000F860FFF79CFCFB6818461037BD4680BD7F
:1043100080B582B000AF7860396039687868FFF79F
:104320003FFDFFF785FC00BF0837BD4680BD80B567
:1043300084B000AF7860FFF789FC7868FFF73FFD35
:10434000F860FFF783FCFB6818461037BD4680BD58
:1043500080B582B000AF78607868FFF743FDFFF763
:1043600067FC00BF0837BD4680BD80B582B000AF96
:1043700078607868FFF744FDFFF75AFC00BF083704
:10438000BD4680BD80B584B000AF7860FFF75EFCAD
:104390007868FFF743FD0346FB73FFF750FCFB7B98
:1043A00018461037BD4680BD80B582B000AF78603A
:1043B0000B46FB70FB7819467868FFF7BBFDFFF7EB
:1043C00037FC00BF0837BD4680BD80B584B000AF64
:1043D000F860B9607A60BB68002B06D07A68B9686B
:1043E000F868FFF7E0FDFFF723FC00BF1037BD467C
:1043F00080BD80B584B000AF7860FFF720FC78689E
:10440000FFF7E5FDF860FFF71AFCFB681846103768
:10441000BD4680BD80B584B000AF7860FFF70FFC6B
:104420007868FFF7E1FDF860FFF709FCFB681846C4
:104430001037BD4680BD80B584B000AFF860B9606C
:104440007A607A68B968F868FFF7DBFDFFF7F0FB80
:1044500000BF1037BD4680BD80B584B000AF786026
:10446000FFF7EDFB7868FFF7E0FDF860FFF7E7FB8B
:10447000FB6818461037BD4680BD80B584B000AFDC
:10448000F860B9601346FB80FB88A3F580739B0836
:1044900001229A40BB681340002B04D0FB881946C8
:1044A000F868FFF702FC00BF1037BD4680BD80B53D
:1044B00084B002AF786000230193002300930023AF
:1044C000012201217868FDF76BFC00BF0837BD466B
:1044D00080BD80B584B002AF78600B46FB70FB787E
:1044E0000022019200220092002200217868FDF74C
:1044F00057FC00BF0837BD4680BD80B584B002AF11
:1045000078600023019300230093002301220021FF
:104510007868FDF745FC00BF0837BD4680BD80B513
:1045200084B000AF78603B1D1846FDF705FCF860CD
:104530007B68012202FA03F31946F86800F004F8D8
:1045400000BF1037BD4680BD80B483B000AF786037
:1045500039607B683A689A6000BF0C37BD465DF8E9
:10456000047B704780B485B000AF78607B685B09DE
:10457000FB600023BB60FB68002B12D14FF0FF33C0
:10458000BB607B6803F01F037B60BA687B6822FA1C
:1045900003F303F00103002B14BF01230023DBB25C
:1045A00000E0002318461437BD465DF8047B7047D1
:1045B00080B485B000AF78607B681B68FB60FB68E7
:1045C00003F01F027B681A60FB685B09184614370A
:1045D000BD465DF8047B704780B582B000AF78605F
:1045E0007868FFF764FFFFF723FB00BF0837BD467D
:1045F00080BD80B582B000AF78600B46FB70FB7861
:1046000019467868FFF765FFFFF712FB00BF083710
:10461000BD4680BD80B582B000AF78607868FFF796
:104620006CFFFFF705FB00BF0837BD4680BD80B5B6
:1046300082B000AF78607868FFF771FFFFF7F8FA93
:1046400000BF0837BD4680BD80B586B000AF78603A
:104650007B681B6803F26453FB607B681B6803F58F
:10466000AD63BB60BB681B68012B05D17B681B6811
:104670000C211846FFF798FEFB681B68012B29D117
:104680007B681B681846FFF763FE7B681B68042184
:104690001846FFF789FE0023FB7549F640433B614E
:1046A000FB681B68002B02D10123FB7508E0012089
:1046B000FDF72AFB3B69013B3B613B69002BEFD1D6
:1046C0007B681B681846FFF732FE7B681B6818463C
:1046D000FFF74BFE00BF1837BD4680BD80B584B0E4
:1046E00000AF78604FF0FF317868FFF7FEFDF860AB
:1046F000F9687868FFF70CFEFB6818461037BD466E
:1047000080BD80B582B000AF786039603968786864
:10471000FFF7DCFD00BF0837BD4680BD80B582B025
:1047200000AF78600B46FB704FF4AC717868FFF710
:1047300086FD0346002B0DD1FB7883F00103DBB22D
:10474000002B09D04FF490717868FFF778FD03468D
:10475000002B01D0012300E0002303F00103DBB2B2
:1047600018460837BD4680BD80B584B000AF78607C
:104770004FF4A6717868FFF762FD0346002B3AD02C
:104780007868FFF7E5FD04217868FFF70DFE002348
:10479000FB736423BB604FF4A2717868FFF74FFD91
:1047A0000346002B07D14FF492717868FFF747FD5D
:1047B0000346002B02D00123FB7308E00A20FDF71B
:1047C000A3FABB68013BBB60BB68002BE3D14FF48D
:1047D000A6717868FFF722FD4FF488717868FFF7BB
:1047E0001DFD4FF4A2717868FFF718FD7868FFF798
:1047F000BCFDFB7B00E0012318461037BD4680BDA1
:1048000080B586B000AF78600B46FB700023FB7369
:104810007868FFF79DFD07F10F03002219467868BD
:10482000FFF7D3FD08217868FFF7BEFD0C217868FB
:10483000FFF7BAFD0023FB750A233B61012178686D
:10484000FFF76CFF0346002B02D00123FB7508E045
:104850000120FDF759FA3B69013B3B613B69002BA5
:10486000ECD1FB7D83F00103DBB2002B01D00023F0
:1048700008E04FF490717868FFF7D0FC7868FFF794
:1048800074FD012318461837BD4680BD80B584B03D
:1048900000AFF860B9607A60FB707A68B968F86850
:1048A000FFF793FD4FF49071F868FFF7B7FC4FF4F2
:1048B000AC71F868FFF7B2FC4FF4A871F868FFF725
:1048C000ADFCF868FFF744FDFB78002B04D04FF4F3
:1048D0008001F868FFF7FAFC0821F868FFF764FD2B
:1048E00000BF1037BD4680BD80B483B000AF786094
:1048F0007B68DB6C1B0B03F00103002B14BF01234F
:104900000023DBB218460C37BD465DF8047B7047C8
:1049100080B582B000AF786039604FF4AC717868D0
:10492000FFF78DFC0346002B0BD03868FFF7DCFF48
:10493000034683F00103DBB2002B02D07868FFF757
:1049400014FD00BF0837BD4680BD80B584B000AF00
:10495000786039603B68DB6C03F00103002B14BF07
:1049600001230023BB730123FB7300BFBB7B1946EC
:104970007868FFF7D3FE034683F00103DBB2002B18
:10498000F4D1FEF761FABB7B83F00103DBB2002BAD
:104990001AD04FF490717868FFF751FC0346002B52
:1049A0000FD00C217868FFF7FFFC00BF0121786869
:1049B000FFF7B4FE034683F00103DBB2002BF5D111
:1049C0000FE00023FB730CE04FF4AC717868FFF745
:1049D00036FC034683F00103DBB2002B01D0002339
:1049E000FB73FB7B002B03D039687868FFF790FFDF
:1049F000FEF73AFA00BF1037BD4680BD80B588B0DB
:104A000000AFF860B9601346FB71BB68DB6C03F064
:104A10000103002B14BF01230023DBB21946F86801
:104A2000FFF77CFE034683F00103DBB2002B0DD0C1
:104A3000BB68DB6C43F004031A46BB68DA644FF4CE
:104A40008001F868FFF742FC00232FE0FB79002B80
:104A50001BD0BB68DA6ABB681B6CD21ABB68DB6B05
:104A6000934228BF13467B61BB68986BBB689A6A08
:104A7000BB681B6C13447A69194607F0A2FDBB683A
:104A80009B6BFB617B69BB6105E0BB689B6AFB615B
:104A9000BB68DB6ABB61BB684FF0FF325A6401231D
:104AA000BA69F969F868FFF7F1FE01231846203763
:104AB000BD4680BD80B586B000AF78600B46FB7008
:104AC00007F1080300221A605A609A60DA60FB78E6
:104AD0003B727B685B687A68116807F108021046D0
:104AE000984700BF1837BD4680BD80B586B000AF7F
:104AF0007860396007F1080300221A605A609A60F2
:104B0000DA6004233B723B68FB607B685B687A6811
:104B1000116807F108021046984700BF1837BD46D4
:104B200080BD80B588B000AFF860B9607A6007F1E9
:104B3000100300221A605A609A60DA6001233B7405
:104B4000BB687B617B68BB61FB685B68FA68116866
:104B500007F110021046984700BF2037BD4680BDC0
:104B600080B483B000AF78607B684C33D3E8EF1F2C
:104B700021F47F0121F47041C3E8E21F002AF5D13E
:104B800000BF0C37BD465DF8047B704780B582B02E
:104B900000AF78604FF4AC717868FFF750FB0346C4
:104BA00083F00103DBB2002B07D14FF4800178685A
:104BB000FFF79BFB0346002B01D0012300E00023FD
:104BC00003F00103DBB218460837BD4680BD80B54F
:104BD00082B000AF7860FEF737F97868FFF7D6FF4C
:104BE000034683F00103DBB2002B02D07868FFF7A5
:104BF000BCFBFEF739F900BF0837BD4680BD80B564
:104C000084B000AF786039603B68DB69002B01D16C
:104C100001235AE03B68DA693B68DB689A4239D97C
:104C20003B689B68FB603B68DB68BB603B680022BD
:104C30009A603B680022DA603B689B69BA68194653
:104C4000F86807F0BEFC3B68DA69BB68D21A3B68BB
:104C5000DA613B6898693B689A69BB68D1183B6820
:104C6000DB691A4607F092FC3B685B68002B0FD0AB
:104C7000BA68F9683868FFF754FF3B68DB6C03F4E7
:104C80000053002B04D0002239687868FDF748FDF6
:104C900000231AE03B6898683B6899693B68DB69C8
:104CA0001A4607F08EFC3B68DA693B685A623B683B
:104CB0000022DA613B684C33D3E8EF1F41F4002156
:104CC000C3E8E21F002AF7D1012318461037BD467A
:104CD00080BD80B584B000AF786039603B68DB6C24
:104CE00003F40043002B03D13B680022DA6150E05B
:104CF0007868FFF7B1FBB8603B689B690522AA2181
:104D0000184607F0A5FC3B689B69052219467868A0
:104D1000FFF791FB4FF488717868FFF77FFA2C2139
:104D20007868FFF741FB00BF4FF488717868FFF7A0
:104D300086FA034683F00103DBB2002BF4D14FF473
:104D4000A6717868FFF76AFA4FF488717868FFF700
:104D500065FA7868FFF780FB02463B68DA613B68DA
:104D6000DB69BA689A4214D10023FB6009E03B6812
:104D70009A69FB6813441B78AA2B09D1FB6801339D
:104D8000FB60FB68042BF2D93B680022DA6100E08B
:104D900000BF1037BD4680BD80B582B000AF7860DF
:104DA000396000BF4FF4A2717868FFF748FA0346F4
:104DB00083F00103DBB2002BF4D14FF4A6717868C5
:104DC000FFF72CFA4FF488717868FFF727FA4FF451
:104DD000A2717868FFF722FA39687868FFF779FFDF
:104DE0007868FFF7F4FE3B6800229A603B68002277
:104DF0001A613868FFF7B4FE00BF0837BD4680BDB2
:104E000080B489B000AF786039607B681B68FB6153
:104E10000023FB763B685B6803F01F03002B01D087
:104E2000012354E0FB691B681B0ADBB27B613B6812
:104E30001B687A699A4201D8012348E0FB695B68E4
:104E40003B61FB6900225A603B681B68DAB2FB6970
:104E50009A603B685B6823F01F03FB603B689B7CA8
:104E6000DB0003F01803FA681343FB603B685B7CCC
:104E70005B0003F00603FA681343FB603B681B7C8E
:104E800003F00103FA681343FB60FB69FA68DA6018
:104E90003B689B68013B23F01F03BB603B68DB68FA
:104EA0005B0003F00E03BA681343BB60BB6843F0BA
:104EB0000103BB60FB69BA681A61FB693A695A6011
:104EC000BFF34F8F00BFBFF36F8F00BFFB7E18464D
:104ED0002437BD465DF8047B704780B487B000AFCF
:104EE000786039607B681B687B610023FB747B6999
:104EF0005B68FB607B6900225A603B68DAB27B69C1
:104F00009A607B690022DA607B6900221A617B6902
:104F1000FA685A60FB7C18461C37BD465DF8047B76
:104F2000704780B586B000AF78607B681B683B61D6
:104F30003B691B681B0ADBB2FB6000237B6106E058
:104F400079697868FFF7C9FF7B6901337B617A690A
:104F5000FB689A42F4D3002318461837BD4680BD3B
:104F600080B483B000AF78607B681B6800BF0C37EB
:104F7000BD465DF8047B704780B483B000AF7860B5
:104F800039607A683B6813441B68002B14BF012307
:104F90000023DBB218460C37BD465DF8047B704732
:104FA00080B582B000AF78600B467B807B887A68E2
:104FB000134400221A607B887A6813441846FFF76E
:104FC000CFFF00BF0837BD4680BD80B582B000AFBF
:104FD00078600B467B807B8819467868FFF7CCFFAA
:104FE000034618460837BD4680BD80B483B000AF85
:104FF000786039607B683A68C3F8042300BF0C37D7
:10500000BD465DF8047B704780B485B000AF786022
:105010000B46FB700023FB73FB7B18461437BD4621
:105020005DF8047B704780B485B000AF78600B46B4
:10503000FB700023FB73FB7B18461437BD465DF8FD
:10504000047B704780B483B000AF78607B68DB037B
:1050500018460C37BD465DF8047B704780B483B0BA
:1050600000AF78607B680133DB03013B18460C37E7
:10507000BD465DF8047B704780B400AF002318463E
:10508000BD465DF8047B704780B400AF1F2318460F
:10509000BD465DF8047B704780B400AF4FF4004319
:1050A0001846BD465DF8047B704780B483B000AFFE
:1050B00078607B6803F57F43C0335B0318460C3789
:1050C000BD465DF8047B704780B483B000AF786064
:1050D0007B6803F57F43C1335B03013B18460C3704
:1050E000BD465DF8047B704780B400AF402318468E
:1050F000BD465DF8047B704780B400AF5F2318465F
:10510000BD465DF8047B704780B400AF4FF4005398
:105110001846BD465DF8047B704780B582B000AF8D
:1051200000237B6004F052FC78607B68002B02D087
:1051300045F2235300E0002318460837BD4680BDE2
:1051400080B582B000AF02F00FFB78607B68002B67
:1051500001D07B680CE0FFF7E0FF78607B68002BF4
:1051600001D07B6804E0FEF71BFAFEF737FA002354
:1051700018460837BD4680BD80B400AF00231846EE
:10518000BD465DF8047B704780B500AFFEF718FBA5
:1051900072B600BF20BFFDE780B400AF0023184601
:1051A000BD465DF8047B704780B400AF002318460D
:1051B000BD465DF8047B704780B400AF00BFBD46BC
:1051C0005DF8047B704780B483B000AF78607B6883
:1051D0009B0903F00103002B14BF01230023DBB262
:1051E00018460C37BD465DF8047B704780B500AFAC
:1051F000FEF71AFB80B588B000AF786039602623CF
:10520000FB612323BB6101237B617B685B68082B07
:1052100003D13B685B68042B01D002233CE07B6830
:105220001B683B613B681B68FB60FB684FF0FF320B
:105230001A603B691B68002B03D03B695B68002B3D
:1052400001D1022328E03B691B681946FB697422DF
:10525000786902F0F7F9B860BB68002B01D002232F
:105260001AE03B695B681946BB690422786902F061
:10527000E9F9B860BB68002B01D002230CE03B6960
:105280001A683B695B6819461046FEF7B1F9034698
:105290001A46FB681A60002318462037BD4680BDB9
:1052A00080B584B000AFF860B9607A60FB68002B0D
:1052B00003D0FB68032B06D00BE07968B868FEF7D3
:1052C000C9FA034606E07968B868FFF793FF03461A
:1052D00000E0032318461037BD4680BD80B485B07A
:1052E00000AF786039600B23FB60FB685A1EFA60E0
:1052F0001A463B6813440A221A70FB685A1EFA6069
:105300001A463B6813440D221A700EE07B6803F0C6
:105310000F02FB6839680B4410498A5C1A70FB68FD
:10532000013BFB607B681B097B60FB68012BEDDCAC
:10533000FB685A1EFA601A463B68134478221A70BA
:10534000FB685A1EFA601A463B68134430221A70F2
:1053500000BF1437BD465DF8047B7047A88C000081
:1053600080B582B000AF43F65C237B604FF0FF3323
:105370003B60204802F075F838603B68002B02D093
:105380006FF0FC0332E0FFF7DBFE38603B68002B78
:1053900002D06FF0FC0329E0FFF7EEFE78607B6837
:1053A000002B02D06FF0FC0320E0FFF7F5FE034670
:1053B000002B08D0FFF7F8FE78607B68002B02D046
:1053C0006FF0FC0312E0FFF7F7FE00F0EFFC352171
:1053D0000948FEF742FB17210848FEF73EFB18215B
:1053E0000748FEF73AFB01F0E3F9002318460837B7
:1053F000BD4680BDCC290020B88C0000F08C000098
:10540000088D000080B582B000AF4FF0FF337B60A5
:105410000C4B184601F0FBFDFFF7A2FF78607B689C
:10542000002B01D001F0BCFD26210748FEF715FB3B
:1054300000F088FC01F04DFF002318460837BD46F8
:1054400080BD00BF00040020208D000080B59CB00E
:1054500000AFF860B9607A603B604FF0FF333B66A5
:1054600000237B66BB681B0E03F00703FB65BB686C
:105470001B0C03F00703BB65A84B1B687B65BB686F
:105480001BB23B653B6D002B02DA6FF0800340E1FD
:10549000FB683A6DDA60BB681BB21A46BB68934280
:1054A00001D1002335E1BB6DDB43FA6D9A4204D88C
:1054B000FA6DBB6D1344042B02D96FF0800328E111
:1054C000BB68002B01DA20237B667B6D98687968C6
:1054D000FB6DDA007B6E43F0020302F0B3F838662E
:1054E0003B6E002B02D06FF0800312E107F1300316
:1054F00020220021184607F0ABF8FB6DDA0007F117
:1055000030037968184607F05CF87B6D9868396855
:10551000BB6DDA007B6E43F0060302F093F8386649
:105520003B6E002B02D06FF08003F2E007F1100316
:1055300020220021184607F08BF8BB6DDA0007F136
:1055400010033968184607F03CF80023FB663AE080
:10555000FB6E0133BB662FE0BB6EDB0070333B4458
:1055600053F8402CBB6EDB0070333B4453F83C3C9B
:105570001A44FB6EDB0070333B4453F8403C9A42C4
:1055800017D9BB6EDB0070333B4453F8402CFB6EE5
:10559000DB0070333B4453F8401CFB6EDB00703380
:1055A0003B4453F83C3C0B449A4202D26FF08003D8
:1055B000AFE0BB6E0133BB66BB6EFA6D9A42CBD8CF
:1055C000FB6E0133FB66FB6E01331A46FB6D9342A3
:1055D000BED8BB6803F00063002B01D020237B669C
:1055E0000023FB663CE07B6D9868FB6EDB0070334C
:1055F0003B4453F8403C1946FB6EDB0070333B44A0
:1056000053F83C2C7B6E43F0020302F01BF8386623
:105610003B6E002B02D06FF080037AE0FB6EDB0064
:1056200070333B4453F83C2CF968FB6E06339B0007
:105630000B445A60FB6EDB0070333B4453F8402C44
:10564000F968FB6E0E339B000B445A60FA68FB6EE0
:1056500012339B00134400225A60FB6E0133FB6639
:10566000FB6EFA6D9A42BED87B6E202B09D1BB68C7
:10567000002B06DBBB6803F40023002B01D10023C1
:105680007B660023FB663CE07B6D9868FB6EDB006D
:1056900070333B4453F8603C1946FB6EDB007033BB
:1056A0003B4453F85C2C7B6E43F0060301F0CAFFC9
:1056B00038663B6E002B02D06FF0800329E0FB6E52
:1056C000DB0070333B4453F85C2CF968FB6E0A3303
:1056D0009B000B445A60FB6EDB0070333B4453F875
:1056E000602CF968FB6E16339B000B445A60FA6815
:1056F000FB6E1A339B00134400225A60FB6E013389
:10570000FB66FB6EBA6D9A42BED8FB683A68DA67F0
:10571000002318467037BD4680BD00BFD829002041
:1057200080B58AB000AFF860B9607A603B60002352
:105730007B62324B1B683B624FF0FF33FB61F868C2
:1057400002F01AF978627B6A002B01D101F028FC83
:105750007B6ADB68002B01DA01F022FCBB68032BBB
:1057600001D901F01DFC7A6ABB6806339B00134423
:105770005A68796ABB6812339B000B445B68D31A82
:10578000BB61BB69002B01D1002333E03B6A986801
:10579000796806233A6801F055FFF861FB69002B30
:1057A00001D001F0FDFBBA693B68934228BF134664
:1057B0007B617A6ABB680E339B0013445A68796A2E
:1057C000BB6812339B000B445B6813447A6919462B
:1057D000786806F0F6FE7A6ABB6812339B001344C1
:1057E0005A687B691A44796ABB6812339B000B4480
:1057F0005A607B6918462837BD4680BDD8290020ED
:1058000080B588B000AFF860B9607A603B60002373
:10581000FB612F4B1B68BB614FF0FF337B61F86866
:1058200002F0AAF8F861FB69002B01D101F0B8FB86
:10583000FB69DB68002B01DA01F0B2FBBB68032BCC
:1058400001D901F0ADFBFA69BB680A339B00134430
:105850005A68F969BB681A339B000B445B68D31A1A
:105860003A689A4201D901F09BFBBB699868796854
:1058700002233A6801F0E6FE78617B69002B01D0D3
:1058800001F08EFBFA69BB6816339B0013445A681B
:10589000F969BB681A339B000B445B6813443A6890
:1058A0007968184606F08DFEFA69BB681A339B00CA
:1058B00013445A683B681A44F969BB681A339B0061
:1058C0000B445A60002318462037BD4680BD00BFF8
:1058D000D829002080B584B000AF78607B68002BA9
:1058E0000DD07B689B68002B09D07B689B681B6888
:1058F000002B04D07B689B685B68002B02D16FF0A3
:1059000080032FE07B689B685B68FB60FB687A68BC
:10591000DA61164AFB681360FB689B69002B13D1A0
:10592000FB681B68DB68002B0BD0FB681B68DB681F
:1059300000209847B860BB68002B02DA6FF0800344
:1059400010E0FB6801229A617B689B681B681B69F9
:105950001A467B680C3318469047B8607B68012272
:105960001A60BB6818461037BD4680BDD829002094
:1059700080B483B000AF786039607B685B68044AAC
:1059800013603B6818460C37BD465DF8047B7047D2
:10599000D829002080B586B000AF78601C4B1B680A
:1059A0003B611C4B5B687B6127E07B691B689B68E4
:1059B00003F40073002B1AD17B699B69012B18D06B
:1059C000134A7B6913607B691B68DB68002B0AD074
:1059D0007B691B68DB6800209847F860FB68002B38
:1059E00001DA01F0DDFA7B6901229A6102E000BF71
:1059F00000E000BF7B691B6A7B617B69002BD4D10F
:105A0000034A3B6913607B6818461837BD4680BD62
:105A1000D8290020D029002080B588B000AF786058
:105A200039607B681B68BB610023FB617B680022D7
:105A3000DA617B6800229A61BB699B6803F440636A
:105A4000002B2DD0BB699B6803F40063002B03D0AF
:105A500000F092FB0346FB61BB6928331A68BB69FF
:105A60001B69134423F00703BB60BB6928331B6821
:105A7000073323F007033B61BB687B610023FB60B6
:105A80000949BB69DB6807F10800FA6901F000FF0A
:105A900007F10803184601F03DFF044A7B681360D4
:105AA00000BF2037BD4680BD95590000D829002091
:105AB00080B500AF0C4BD3E900230C480B498B4257
:105AC00008BF82420DD008210948FDF7C6FF1B21FF
:105AD0000848FDF7C2FFA6220221074801F066FA36
