:1000000050520420198F0200458D0200158F020006
:10001000158F0200158F0200158F0200158F020048
:10002000000000000000000000000000158F02002A
:10003000158F020000000000158F0200158F0200CE
:10004000D16B0200096B0200BD6C02003D6D020025
:10005000E17E0200755B0200ED5B0200E17E0200C2
:100060001D7702005D78020051790200197A0200C2
:1000700045630200E9630200CD640200E565020009
:10008000358B0200000000000000000000000000AE
:100090000000000000000000000000000000000060
:1000A0000000000000000000000000000000000050
:1000B0000000000000000000000000000000000040
:1000C0000000000000000000000000000000000030
:1000D0000000000000000000000000000000000020
:1000E0000000000000000000000000000000000010
:1000F0000000000000000000000000000000000000
:1001000000000000000000000000000000000000EF
:1001100000000000000000000000000000000000DF
:1001200000000000000000000000000000000000CF
:1001300000000000000000000000000000000000BF
:1001400000000000000000000000000000000000AF
:10015000000000000000000000000000000000009F
:10016000000000000000000000000000000000008F
:10017000000000000000000000000000000000007F
:10018000000000000000000000000000000000006F
:10019000000000000000000000000000000000005F
:1001A000000000000000000000000000000000004F
:1001B000000000000000000000000000000000003F
:1001C000FFFFFFFFFFFFFFFFFFFFFFFFFFFFFFFF3F
:1001D000FFFFFFFFFFFFFFFFFFFFFFFFFFFFFFFF2F
:1001E000FFFFFFFFFFFFFFFFFFFFFFFFFFFFFFFF1F
:1001F000FFFFFFFFFFFFFFFFFFFFFFFFFFFFFFFF0F
:1002000010B5054C237833B9044B13B1044800E012
:1002100000BF0123237010BD281200200000000041
:1002200048CD030008B5034B1BB10349034800E068
:1002300000BF08BD000000002C12002048CD0300C4
:100240000149024828F058BBACB40300644B0020BD
:1002500008B50849084828F05BFA034640B9074A40
:100260000548137028F01CFA01210346044A117056
:10027000184608BDD0B40300644B0020451200208E
:100280004412002010B5094C23786BB1024608498E
:100290000B78002BFCD00021064828F007FA064B0B
:1002A0009B7803B9237010BD052010BD44120020B7
:1002B00045120020644B0020ACB4030020B18378C9
:1002C00013B90122014B1A70704700BF451200207C
:1002D000002070472DE9F0410F46154682B038B333
:1002E000012821D13F2A54D806462D492D4827F010
:1002F000FDFEDFF8B0800DF1070403E09DF8073044
:10030000012B05D12146404627F044FE0028F5D0B8
:1003100032463946234828F017F80446214827F08A
:1003200047FE002C18BF0025284602B0BDE8F0812A
:10033000B2F5004F2AD3C2F30E034FEAD2380BB105
:1003400008F1010872B61649164827F0CFFE154E7F
:100350000DF1070403E09DF80730012B05D121467C
:10036000304627F017FE0028F5D0424639460D48A2
:1003700027F0EAFF04460B4827F01AFE62B6002C6D
:1003800018BF0025284602B0BDE8F0814FF00108F3
:10039000D8E7930616BF90099609461CA5E700BF4B
:1003A0004CB60300284C00202DE9F0430F461546BB
:1003B0009946A3B0002800F09A80012840F08E8072
:1003C000032B2BD8002202AE029223B11A462946F3
:1003D000304631F01FFBAC49AC4827F087FEAB4CF0
:1003E0000DF1070503E09DF80730012B05D12946E3
:1003F000204627F0CFFD0028F5D004233A463146A9
:10040000A24827F065FF0446A04827F0D1FD002C44
:1004100014BF4FF000084FF0040861E013F0030F21
:1004200099499A480CBF984603F1010823F0030448
:10043000DFF8589227F05AFE02AE03E09DF808302C
:10044000012B05D13146484627F0A4FD0028F5D000
:1004500023463A4629468D4827F03AFF81468B4885
:1004600027F0A6FD444536D0B9F1000F36D14B46F2
:10047000CDF80890A8EB0408A94419F804105A1CF8
:1004800088336B4403F8801C93B243459946F3D3F9
:100490007D497E4827F02AFEDFF8F08127440DF1E0
:1004A000070503E09DF80730012B05D1294640469A
:1004B00027F070FD0028F5D004233A4631467348F2
:1004C00027F006FF8146714827F072FDB9F1000F51
:1004D00000D18034A046B9F1000F01D04FF00008E0
:1004E0006A4827F065FD404623B0BDE8F0837F2BC6
:1004F00033D8014602907C2203A831F0B2FA02AE52
:10050000B9F1000F04D04A462946304631F082FA4C
:1005100072B65D495D4827F0E9FD5C4C0DF10705B9
:1005200003E09DF80730012B05D12946204627F02E
:1005300031FD0028F5D080233A463146534827F054
:10054000C7FE0446514827F033FD62B6002C14BFA5
:100550004FF000084FF08008C2E713F07F0F0CBF88
:100560001C465C1C23F07F0872B64749474827F0B9
:10057000BDFDDFF8189102AE03E09DF80830012BB5
:1005800005D13146484627F005FD0028F5D0434601
:100590003A4629463D4827F09BFE81463B4827F0D6
:1005A00007FD62B6444596D0B9F1000F96D17C2282
:1005B000494603A8CDF8089031F053FA4FF6F67388
:1005C000A4EB0804A4F109029A4253D83246A008C9
:1005D00005EB080353F8041B09F10109484542F8EB
:1005E000041BF7D824F00302944293B21CD0A9183C
:1005F00011F8081088326A4402F8801C5A1C92B222
:10060000A24211D2A918023311F808109BB2883205
:100610006A449C4202F8801C06D91D4415F8082043
:1006200088336B4403F8802C474472B61649174848
:1006300027F05CFD154C0DF1070503E09DF8073030
:10064000012B05D12946204627F0A4FC0028F5D02F
:1006500080233A4631460D4827F03AFE81460B4842
:1006600027F0A6FC62B6B9F1000F7FF437AF08F1AE
:10067000800835E7334645442C4415F8012BA54244
:1006800003F8012BF9D1CFE74CB60300284C00202A
:10069000B0FBF1F0704700BF70B54FF6FE731B4D15
:1006A00000E033B12C78013B9BB2002CF9D02B78C1
:1006B00043B9174B174A1849002023F01DF84FF48F
:1006C000967070BD00262E7024F0D8FF0446A8B99D
:1006D0004FF6FE7300E033B12A78013B9BB2002A4B
:1006E000F9D02B7843B90D4B0A4A0B49002023F06F
:1006F00003F84FF4967070BD002070BD3046084B73
:10070000044A054922F0F8FF204670BD4612002039
:10071000D04A0300D04B0300FC4A0300404B0300C7
:10072000184B030030B5104D83B0AC68A368206847
:10073000DB699847AB68D3E90112186812689047E3
:1007400058B9206801A926F025FD9DF80430002B3A
:100750000CBF0720002003B030BDF821034B044A32
:10076000044828F0B3FA00BF380E0020604B0300A5
:10077000104C0300744B030070B50026114C26701A
:1007800024F07EFFA8B94FF6FE7300E033B1227863
:10079000013B9BB2002AF9D0237843B90A4B0B4A9C
:1007A0000B49002022F0A8FF4FF4967070BD002086
:1007B00070BD0546074B3046044A054922F09CFFB0
:1007C000284670BD46120020D04A0300004C0300AA
:1007D000FC4A03008C4B03002DE9F0410027164C26
:1007E00082B027700C4616468DF805400222240A76
:1007F00001A9054698468DF8044024F041FF78B9D8
:10080000089B3BB9424631462846FFF745FF02B0F8
:10081000BDE8F0814FF47A71184628F05FFAF1E7ED
:100820000446064B3846064A064922F065FF204634
:1008300002B0BDE8F08100BF461200208C4B0300DF
:10084000E44B0300FC4A03002DE9F0414FF000089F
:1008500082B0154C1646ADF8048001228DF80410C4
:1008600001A905461F4684F8008024F009FF78B9E5
:10087000089B3BB93A4631462846FFF70DFF02B0C8
:10088000BDE8F0814FF47A71184628F027FAF1E7B5
:100890000446064B4046064A064922F02DFF2046F4
:1008A00002B0BDE8F08100BF461200208C4B03006F
:1008B000B44B0300FC4A030020B1037913B90122B1
:1008C000014B1A70704700BF46120020F8B5134C58
:1008D000134E4FF40052134F0021204631F0C1F85F
:1008E0003046114927F0B8F91049384624F0EEFF98
:1008F000BB6805461A6830466FF349221A6027F034
:100900005BF900220A4B0B4E0B4932701A701B78B0
:10091000284604EB03340C60F8BD00BF48120020E9
:10092000244D0020884C002074B703007CB60300DF
:1009300051320020503200204C32002000210B4B5D
:1009400010B50B4C18464FF40052217031F089F865
:100950002178084C00EB01314FF4805206482160A9
:1009600025F0C4F80122054B1A7010BD4812002072
:10097000513200204C320020884C002050320020A0
:100980000021054B054A197013781BB900BF137875
:10099000002BFBD00020704750320020483200204E
:1009A000014B1878704700BF523200202DE9F0410A
:1009B000164B1F78B7FA87F77F0919B300231C4637
:1009C000134E4FEA872E0EEB030C13F0010F03F1C9
:1009D00001039AB20AD156F82C5004F101082DB146
:1009E00056F82C5040F824501FFA88F49142EAD867
:1009F0004FF48052002106EB073031F032F82046E8
:100A0000BDE8F0810C46024EF2E700BF51320020F3
:100A10004812002078B10179144B154A19701278E8
:100A200032B11B7803F0FF02CBB1022A04D0704729
:100A30000122104B1A70704730B40F4C0F492378C5
:100A40000F4DB3FA83F35B09237023784FF4805280
:100A500001EB033129600B4830BC25F047B8084B47
:100A60004FF480521968074825F040B852320020F0
:100A7000503200204832002051320020481200201D
:100A80004C320020884C0020022838D810B4EFF3F4
:100A90001081012383F31088194A13681BB9194C7C
:100AA000E3704023E37013680133136081F310880F
:100AB000154B164C33F810100B0A1B0153FA81F139
:100AC00054F8213023F0011323F4404343F004038E
:100AD00044F82130EFF31081012383F31088136869
:100AE00013B11368013B136013681BB98020054ADA
:100AF000D370D07081F310885DF8044B7047704755
:100B0000EC4F0020000D0840304C03000008084066
:100B1000022838D810B4EFF31081012383F3108832
:100B2000194A13681BB9194CE3704023E37013682A
:100B30000133136081F31088154B164C33F81010F5
:100B40000B0A1B0153FA81F154F8213023F00113F1
:100B500023F4404343F0050344F82130EFF31081C0
:100B6000012383F31088136813B11368013B1360EA
:100B700013681BB98020054AD370D07081F31088A8
:100B80005DF8044B70477047EC4F0020000D0840A3
:100B9000304C0300000808400022214B10B41A70AA
:100BA000EFF31081012383F310881E4B1A681AB9E2
:100BB00040241D48C270C4701A6801321A6081F363
:100BC00010881A4A1A4CD2F89400204040F00500D0
:100BD000C2F89400D2F89800204040F00500C2F816
:100BE0009800D2F89C10214041F00501C2F89C10F9
:100BF000EFF31082012181F31088196811B119688F
:100C0000013919601B681BB980200749CB70C87077
:100C100082F31088074908485DF8044B25F05CB959
:100C200053320020EC4F0020000D0840000808401F
:100C3000FE3FFEFFA4B60300B44C002008B50248F6
:100C400025F03AF8002008BDB44C00200379012BB0
:100C500004BF014A13707047533200202DE9F04160
:100C60004FF0000814460F46C0B03E4D0646FC2229
:100C7000414601A8CDF8008030F0F3FE85F80080F1
:100C80008DF800708DF80140EFF31082012383F39B
:100C90001088354C23681BB940203449CB70C8708C
:100CA00023680133236082F31088314AC6F3072793
:100CB000F6B206EB071152F821303F0123F0011381
:100CC00023F4404343F0040342F82130EFF3108251
:100CD000012383F31088236813B12368013B236049
:100CE00023681BB980202149CB70C87082F310881B
:100CF0000723694602221F4825F080FA2B78002B33
:100D0000FCD0EFF31082012383F3108823681BB912
:100D100040201649CB70C87023680133236082F3EA
:100D20001088134A3E4452F8263023F0011323F46E
:100D3000404343F0050342F82630EFF310820123CD
:100D400083F31088236813B12368013B2360236871
:100D50001BB980200549CB70C87082F3108840B061
:100D6000BDE8F08153320020EC4F0020000D084018
:100D700000080840B44C00202DE9F04300240E4642
:100D8000ADF5037D214607469146484DFC2203A858
:100D90009846029430F065FEFC22214643A8429416
:100DA00030F05FFE2C708DF80860EFF310820123A5
:100DB00083F310883E4C23681BB940203D49CB701B
:100DC000C87023680133236082F310883A4BC7F35D
:100DD0000726FFB207EB061253F82210360121F066
:100DE000011121F4404141F0040143F82210EFF3D6
:100DF0001082012383F31088236813B12368013B19
:100E0000236023681BB980202A49CB70C87082F305
:100E1000108807232948009342AA02A908F1010378
:100E200024F0AEFF00283AD129780029FCD04246B0
:100E300048460DF2091130F0EDFDEFF31082012369
:100E400083F3108823681BB940201A49CB70C870FF
:100E500023680133236082F31088174A3E4452F816
:100E6000263023F0011323F4404343F0050342F8F6
:100E70002630EFF31082012383F31088236813B127
:100E80002368013B236023681BB980200949CB708C
:100E9000C87082F310880DF5037DBDE8F0838821CA
:100EA000074B084A084827F011FF00BF53320020C3
:100EB000EC4F0020000D084000080840B44C002012
:100EC000604B0300504C0300384C030010B50A4936
:100ED0000A4826F0C1FE0A4904460A4826F0BCFE2C
:100EE000044200D110BD0020BDE81040064B074A67
:100EF000074922F001BC00BFD4B60300E44C002037
:100F000024B70300044D00205C4C0300844C030014
:100F1000FC4A030008B5044826F04EFE00200021DC
:100F2000024BC3E9000108BDE44C00205832002008
:100F3000114A124B126A10B51B68114CC2F30261C0
:100F4000247A8B4002F00701CB4023FA04F14FF4DE
:100F50007A720023A1FB00012FF0C6F90022094C90
:100F6000094B014620461A7026F02CFE2046BDE8AB
:100F7000104026F021BE00BF00E001407C5100205F
:100F800024B70300044D0020603200200022024BF1
:100F900002481A7026F00ABE60320020044D00207C
:100FA00010B4054CD4E90023501C43F10001C4E9FE
:100FB00000015DF8044B70475832002008B5034823
:100FC00026F0F4FD0122024B1A7008BD044D0020EA
:100FD00060320020014BD3E90001704758320020F5
:100FE00010B50849084825F0DDFB044608B920463D
:100FF00010BD064B064A0749002022F07DFB204623
:1010000010BD00BF0CB803005C4D0020944C0300E1
:101010002C4D0300FC4A0300F0B5234B87B0059329
:10102000039030F0F2FE02460025204F204C21486C
:101030000399D2B23D70257025F090FB064650BB57
:10104000237863B91C4D05E02B78012B0ED000BF2F
:10105000237823B9059B013B0593002BF4D1059B15
:10106000002B08BF1426304607B0F0BD00244FF413
:1010700096762046114B124A12492C7022F03CFB06
:10108000397820460091104B0D4A0E4922F034FB6E
:10109000304607B0F0BD28460C4B094A094922F0FA
:1010A0002BFB304607B0F0BDFCFF03006534002089
:1010B0006A3400205C4D002064340020E44C0300BE
:1010C000184D0300FC4A03000C4D0300BC4C030008
:1010D00010B4204B1A78012A18D098B11E4B1F4922
:1010E0001B880A889BB292B293420BD21C4C03E03D
:1010F0000A8892B29A4205D9E05C013362289BB219
:10110000F6D100E0FF205DF8044B7047124A134C03
:101110001088218880B289B2884213D2118889B29E
:10112000481C80B210800E48B2F800C0405C218894
:101130001FFA8CFC89B28C45E5D1002121801180F9
:101140001970E0E70023FF2023805DF8044B138033
:10115000704700BF663400206834002062320020EF
:1011600064320020214A0379214913700A8892B21F
:10117000B2F5007F04BF00220A80202B15D8B3B13E
:10118000013B1F2B13D8DFE803F029251217121299
:10119000121312121212121212131212121212122D
:1011A00012121212121212121213402B00D0704798
:1011B0000122104B1A7070470B8880689BB210B4E4
:1011C0005A1C0D4C92B20D280A80E0540AD05DF8EA
:1011D000044B70470122094B1A7070470122084BDB
:1011E0001A7070470122064B1A70F0E76534002030
:1011F0006232002064340020643200206A3400200F
:1012000066340020044B1B688B42A3BF034B03EBE7
:10121000C10148680020704724380020D4370020DE
:1012200038B5274BB3F90C0081421FD047F6FF7247
:1012300090421FD0B3F91C00814239D0904239D07E
:10124000B3F92C00814237D0904237D0B3F93C003B
:10125000884208BF03200AD0904208BF03220AD068
:10126000042118481BF0A2FE002038BD002003EB2B
:10127000001038BD0022144C01EB410E04EBCE0CE3
:1012800014F83E40DCF808509CF801E003EB021033
:10129000022C4FEA0212DCF8044080F808E04560B6
:1012A00002D10A4D2D682C449C501344998138BDBD
:1012B0000120DCE70122DEE70220D8E70222DAE79C
:1012C000943700203C4D0300B00A00206C3400200D
:1012D000444AB2F94000814275D0F8B50B4647F652
:1012E000FF71884226D0B2F9840083421AD0884226
:1012F00071D0B2F9C80083426FD0884270D0B2F981
:101300000C01984208BF4FF0030C0DD0884208BF73
:10131000032510D0042134481BF048FE4FF0000C88
:101320006046F8BD4FF0010C0CEB0C1C02EB8C0C72
:101330006046F8BD0025002105EB051402EB840C86
:101340008CF82D10294903EB430701EBC70090F8F7
:1013500001E011F8377002F824E0C468022FCCF8DD
:10136000184084684FEA0516CCF8084040688CF8AD
:1013700014704FEA430402D11D4F3F6838441C44A7
:1013800006EB050E02EB8E0E01EBC4040EF13007E6
:1013900004F11001CEF8040003C987E803009EF8A9
:1013A0003010012908D16169D1E9004061684068C5
:1013B000CEF80C10CEF81000354402EB85026046E2
:1013C000A2F84030F8BD4FF0000C0CEB0C1C02EB07
:1013D0008C0C604670470125ADE74FF0020CA3E787
:1013E0000225A8E784360020744D0300B00A0020CF
:1013F0006C340020164B174A70B51C681268641ACA
:1014000094420D4611D2144E3368092B15D8012190
:1014100028461BF0A3FE0446A8B133680F4A591CA6
:10142000316042F82300204670BD0A462046002164
:101430001C6030F016FB204670BD002408481BF0ED
:10144000B5FD204670BD294606481BF0AFFDEAE712
:10145000F8370020F437002028380020FC3700201F
:10146000AC4D03002C4E0300F8B5224F3D68032D10
:101470002CD8214B1646214A186813680C465B1A73
:1014800083421BD21E4D2B68092B24D801212046F4
:101490001BF064FE034638B32A681A4941F822005B
:1014A00001322A603D686A1C3A60174A002042F8FF
:1014B000354002EBC50235605360F8BD1360184635
:1014C0000A46002130F0CDFA0346ECE70F481BF046
:1014D0006DFD0120F8BD0E481BF068FD21460D484A
:1014E0001BF064FD0120F8BD21460B481BF05EFD9A
:1014F000F4E700BF24380020F4370020F83700203C
:1015000028380020FC370020D4370020644E030028
:10151000AC4D0300BC4E03002C4E03002DE9F047F8
:1015200003464FF4E951102088B09847BA4B186031
:10153000002800F060821124B84AB94B1460B94CFD
:101540001D785463B84CB949D463B94CB94E14648E
:10155000B94C022DD464B94C0860146500F5E95407
:10156000346000F0738102461D7E022D07D1DD69D3
:101570005E6A05443544AA423CBF2A460D6093F892
:101580003050022D07D15D6BDE6B05443544AA4215
:101590003CBF2A460D6093F84850022D07D1DD6C00
:1015A0005E6D05443544AA423CBF2A460D6093F85F
:1015B0006050022D07D15D6EDE6E05443544AA42AF
:1015C0003CBF2A460D6093F87850022D08D1DD6F9C
:1015D000D3F8846005443544AA423CBF2A460D60D6
:1015E00093F89050022D09D1D3F89450D3F89C6011
:1015F00005443544AA423CBF2A460D6093F8A850E2
:10160000022D09D1D3F8AC50D3F8B4600544354469
:10161000AA423CBF2A460D6093F8C050022D09D162
:10162000D3F8C450D3F8CC6005443544AA423CBF3B
:101630002A460D6093F8D850022D09D1D3F8DC501A
:10164000D3F8E46005443544AA423CBF2A460D6005
:1016500093F8F050022D09D1D3F8F450D3F8FC6080
:1016600005443544AA423CBF2A460D6093F8085110
:10167000022D09D1D3F80C51D3F814610544354437
:10168000AA423CBF2A460D6093F82051022D09D191
:10169000D3F82451D3F82C6105443544AA423CBF09
:1016A0002A460D6093F83851022D09D1D3F83C51E8
:1016B000D3F8446105443544AA423CBF2A460D6034
:1016C00093F85051022D09D1D3F85451D3F85C61ED
:1016D00005443544AA423CBF2A460D6093F8685140
:1016E000022D09D1D3F86C51D3F874610544354407
:1016F000AA423CBF2A460D6093F88051022D09D1C1
:10170000D3F88451D3F88C3128441844904284BFD4
:10171000024608609442C0F06781494E68461AF05C
:10172000A5FCEA46B446BAE80F00ACE80F009AE818
:101730000F008CE80F00684619F0D0FBEE4606F16A
:10174000200CBEE80F00ACE80F009AE80F008CE810
:101750000F0068461AF032FBEE4606F1400CBEE878
:101760000F00ACE80F009AE80F008CE80F00684605
:1017700019F07CFFEE4606F1600CBEE80F00ACE805
:101780000F009AE80F008CE80F0068461AF014FE6C
:10179000EC460027BCE80F0006F1800EAEE80F0013
:1017A0009AE80F008EE80F00264C274DDFF86C906A
:1017B00004F590782B7BA9685B01F358D5E900020A
:1017C000C4E90517C4E900021035E7611BB1002226
:1017D0004846984720612434A045EBD1B268002ADE
:1017E0003DD1B26A002A52D1B26C002A67D1B26AE6
:1017F000002A40F0E380B268002A40F09380B26E85
:10180000002A40F0A980D6F88820002A40F0BF8046
:10181000002008B0BDE8F0876C34002010350020AF
:10182000B00A0020F513000069140000F43700200E
:1018300005120000F8370020D1120000211200002C
:101840007034002064350020B86303005A68DD68F6
:1018500002442A449042BFF486AE0A6084E647F60A
:10186000FF73674D674C68496848A5F84030A5F894
:101870008430A5F8C830A5F80C31A381A383A385D3
:10188000A38790470028C4D1B26A002AACD047F69B
:10189000FF735B4D5B4C5E495C48A5F84030A5F892
:1018A0008430A5F8C830A5F80C31A381A383A385A3
:1018B000A38790470028ACD1B26C002A97D047F696
:1018C000FF734F4D4F4C53495048A5F84030A5F891
:1018D0008430A5F8C830A5F80C31A381A383A38573
:1018E000A3879047002894D1B26A002A68D1B26CCD
:1018F000002A80D047F6FF7347494448A5F8403096
:10190000A5F88430A5F8C830A5F80C31A381A383CD
:10191000A385A387904700287FF47BAFB268002A95
:101920003FF46DAF47F6FF73354D364C3B493748B2
:10193000A5F84030A5F88430A5F8C830A5F80C31DA
:10194000A381A383A385A387904700287FF461AF79
:10195000B26E002A3FF457AF47F6FF73284D294C6B
:101960002F492A48A5F84030A5F88430A5F8C8309A
:10197000A5F80C31A381A383A385A38790470028F2
:101980007FF447AFD6F88820002A3FF441AF47F6EE
:10199000FF731B4D1B4C23491C48A5F84030A5F88C
:1019A0008430A5F8C830A5F80C31A381A383A385A2
:1019B000A387904700283FF42BAF2AE7104D114C26
:1019C00047F6FF7318491148A5F84030A5F8843050
:1019D000A5F8C830A5F80C31A381A383A385A387FC
:1019E0009047002883D014E710481BF0DFFA01204D
:1019F00008B0BDE8F0870E481BF0D8FA012008E7D0
:101A000084360020943700206435002010350020F3
:101A100088350020AC350020F43500201836002031
:101A20003C36002060360020D0350020184F0300DF
:101A3000F04E03000B464FF0000C154A00B5D1687C
:101A4000107892F801E0996191680228996083F812
:101A500000E083F82DC0187515D050680D4903F1CA
:101A6000300C586003C98CE8030093F8301001294A
:101A700006D15269D2E9000142684968DA60196109
:101A800000205DF804FB0449506809680844E5E754
:101A9000B00A0020C00A00206C3400200B464FF032
:101AA000000C184A10B592F8800192F881E1D2F842
:101AB0008841D2F88C11022899619C6083F800E07B
:101AC00083F82DC0187516D0D2F884010E4903F1A1
:101AD000300C586003C98CE8030093F830100129DA
:101AE00007D1D2F89421D2E9000142684968DA604E
:101AF0001961002010BD0549D2F884010968084425
:101B0000E4E700BFB00A0020400C00206C34002045
:101B10002DE9F04747F6FF74124DDFF858A0124F39
:101B2000124EDFF8548005F590799AF80C3029466A
:101B300008EB43130E48DB68A7F84040A7F8844041
:101B4000A7F8C840A7F80C41B481B483B485B48722
:101B5000984724350AF1100A08B94D45E5D1BDE88A
:101B6000F08700BF643500208436002094370020C1
:101B700010350020B86303007034002070B50024D5
:101B80000A4A0B4E0346106898470A4A33681460A5
:101B900043B1094D55F8040B1BF0E2FA33680134E8
:101BA000A342F7D80020306070BD00BF6C34002025
:101BB0002838002024380020FC3700200F4A104B22
:101BC000126810B402F5A251103102F52F6402F52B
:101BD0005070C3F83C415A605DF8044BC3F8DC1008
:101BE000C3F8F420C3F80C11C3F82421C3F854211E
:101BF000C3F86C01C3F88421704700BF6C34002027
:101C0000B00A00200338C0B206289ABF024B53F82E
:101C100020000020704700BF78640300C0B1036853
:101C200010B504469BB1406808B15B6A9847A0684C
:101C300038B12368D968490000F09EFDA0682FF0F4
:101C4000C3FE2046BDE810400C2100F095BD10BD3C
:101C5000704700BF582200212FF003BF10B1582158
:101C600000F08ABD704700BF08B558222FF0D2FEA1
:101C700008BD00BF002330B40649074C074D084A91
:101C8000C0E902414561C0E9003330BC0261184639
:101C9000704700BF89ABCDEF012345677654321002
:101CA000FEDCBA982DE9F04FD94B0C6899B0099435
:101CB0002344D84A0469DFF8B8E300942244446915
:101CC00013930294A644D44BC468DFF8A8C32344FA
:101CD0000593836801941190009C099810939C448B
:101CE000029B604484EA030C019CDFF88C830CEABD
:101CF000040C8CEA030C844420464B6804EB7C6C97
:101D00009E440A9398442346009CDFF870B36040D9
:101D100000EA0C0060408C6870440CEB305002EB21
:101D2000040E83EA0C02024003945A40059CCB68DF
:101D3000724400EBF23204931C448CEA000313401B
:101D400083EA0C0323440C6902EBB32380EA020EFE
:101D5000A3440EEA030EB14F8EEA000EDC440B944E
:101D6000E719F4444C69DFF818A303EB7C6B82EAB3
:101D7000030C1797A2440CEA0B0CA94F8CEA020C37
:101D80005044E71960440BEB305A0C941497A54C5F
:101D90008869DFF8F0920D908144071983EA0B00FF
:101DA00000EA0A0058404A4402440AEBF2399E48CD
:101DB000CA693C460592024413448BEA0A0202EACD
:101DC000090282EA0B02134498480A6A09EBB3231A
:101DD000069210448AEA09021A40834482EA0A02FF
:101DE00002EB0B07924E4A6A03EB776707921644A1
:101DF00089EA0302D1F828C08E483A4082EA0902F3
:101E0000B2440CEB000E02EB0A06C86A8A4D07EBDF
:101E10003656CDF854E083EA070E05440EEA060E66
:101E20008EEA030E2B440546ACF524424F3A0E9041
:101E300091448248F14406EBF939054487EA0600EB
:101E400000EA09007840129503440D6B7C4809EBC9
:101E5000B32386EA090228181A407240074417443F
:101E6000486B784A03EB77678218164489EA0302C5
:101E70003A4082EA0902D1F838B01644C96B724A76
:101E800007EB36560BEB020E0A4604EB060A6F4CC4
:101E9000089083EA07003040214404F10F44F144E4
:101EA0001944A4F5911443409944A4F5D07406EB69
:101EB000F9390F92141987EA060202EA0902B844B6
:101EC0005740394409EBB12189EA01031E4086EAF3
:101ED0000906B04401EBF8681694129C81EA0802E6
:101EE00004EB090E02EA090989EA0109CA4408EB70
:101EF000FA5A139C88EA0A030C44194081EA080143
:101F00008E4416990AEBBE4E149E01EB0E038AEA2C
:101F10000E01464401EA080888EA0A0844440EEB28
:101F20003434159F8EEA040007EB0A0200EA0A0A1D
:101F30008AEA0E0A564404EBF66684EA060707EAC4
:101F40000E0E8EEA040E724406EBF252179986EAE0
:101F50000200214404407440234402EBB34382EA6C
:101F6000030030405040079F0144394803EB3131B2
:101F70003844064483EA010010405840064435487E
:101F800001EBF6665844024481EA060018404840D6
:101F90001044314C049A06EBF0501444234486EA72
:101FA00000040C40069F74402C4A1C4400EBB444CF
:101FB0003A44114480EA0402324042400A44284B29
:101FC000089904EB32320B441E4484EA02030340B6
:101FD000634033442349039E02EBF36331440144DD
:101FE00082EA030020405040059F08441E4903EB4D
:101FF000F0503944214483EA000414405C400C440E
:102000001A4E00EBB44480EA04012E440C9F3BE0DE
:10201000AAC7B6E9DB702024EECEBDC1C8FBD3E76A
:102020005D102FD640B340C0019546FDD898806919
:10203000AFF7448B53144402BED75C89515A5E26D5
:102040002211906B937198FD8E4379A62108B449B3
:10205000E6CDE121D60737C3870DD5F4ED145A45F7
:1020600005E9E3A9F8A3EFFCD9026F678A4C2A8D32
:1020700056B7C7E878A46AD762251EF6AF0F7CF57D
:102080002AC68747134630A8164401EA0302424095
:102090003244A7F5B82604EB3232A6F2BE661E44DF
:1020A00051403144A34B069E02EB31713344184436
:1020B00084EA02034B400E9E18449F4B01EB705084
:1020C00033441C4482EA010343401C449B4B00EB15
:1020D00034445B441A4481EA000363400A9F1A4473
:1020E000974B04EB72223B440B9E80EA0407194491
:1020F000944B57403344394402EB3171184484EA1D
:1021000002034B40059F03448F4801EB735338444F
:10211000044482EA0100584004448C4803EB3444F0
:102120006044024481EA03006040089F02448848FA
:1021300004EB72223844014483EA04005040099EB3
:102140000844844902EB30703144194484EA0203A4
:102150004340049F0B44804900EB735339440C44C3
:1021600082EA000159400D9F21447C4C03EB314130
:102170003C44224480EA03044C40079F1444784ABC
:1021800001EB74243A44024483EA010060401044A5
:10219000744A04EB30702A44134481EA040242403A
:1021A0000F9F1A44704B00EB72523B440B4484EA7D
:1021B00000015140039F19446C4B02EB31413B44F9
:1021C000234480EA02044C401C44694B01EB742414
:1021D0003344184464EA02034B40059E03446548B7
:1021E00004EBB3633044104463EA010262400244EA
:1021F000614803EBB252584462EA04065E4001446F
:1022000031445E480C9E02EB7141304461EA0306A2
:10221000564004445A48344401EBF42428441844FA
:1022200064EA02034B40049E0344ACF5801C55480D
:1022300004EBB363ACF6833C8C44304463EA0101A5
:1022400010446140014403EBB15161EA04025A4079
:102250000A9F94444C4A01EB7C4C3A446CEA0305D7
:102260004D4014442C44494A069D0CEBF4242A4466
:1022700064EA010585EA0C0513442B44444A0F9D8A
:1022800004EBB3632A4463EA0C0565401144294416
:10229000404A0D9D03EBB1512A4461EA0400089DB8
:1022A000584094443C4A844401EB7C4C2A442244E8
:1022B0006CEA03044C400B9E1444384A0CEBF424A3
:1022C00032441A4464EA010383EA0C03109D134468
:1022D000119804EBB363EA180E9E8260304A029DA7
:1022E00032440A4463EA0C016140114403EBB151EA
:1022F0006A18039F42612B4A3A44624461EA040C23
:102300008CEA030C9444009A01EB7C4C6CEA0303C6
:10231000624459400261019B234A079F63443A4447
:1023200014440C4403EBF423C360002019B0BDE84F
:10233000F08F00BF81F6718722619D6D0C38E5FD3D
:1023400044EABEA4A9CFDE4B604BBBF670BCBFBE57
:10235000C67E9B28FA27A1EA8530EFD4051D8804A4
:1023600039D0D4D9E599DBE6F87CA21F6556ACC418
:10237000442229F497FF2A43A72394AB39A093FC66
:10238000C3595B6592CC0C8FD15D84854F7EA86F5D
:10239000E0E62CFE144301A3A111084E827E53F700
:1023A00035F23ABDBBD2D72A91D386EB2DE9F8435B
:1023B0000368064603F03F079B1814460D4603606A
:1023C00002D3436801334360C7B1C7F14008A04559
:1023D00003D914BB2046BDE8F88306F11809294645
:1023E000424609EB07002FF015FB49463046FFF740
:1023F00059FC0028EFD1403C45443C443F2C09D9CE
:1024000029463046FFF74EFC403C40350028E2D1DB
:102410003F2CF5D80027002CDCD006F1180022460E
:10242000294638442FF0F6FA0020BDE8F88300BFB3
:102430000AB1FFF7BBBF1046704700BF70B5044636
:10244000802203680D4603F03F03581C38282344BC
:102450001A7604F1180637D8C0F13802002130444A
:102460002FF0FFFAD4E900305A0F42EAC002DB0035
:102470003146204623656265FFF714FC18BBA3684C
:102480002B70A3681B0A6B706389AB70E37AEB70E7
:10249000E3682B71E3681B0A6B71E389AB71E37B23
:1024A000EB7123692B7223691B0A6B72638AAB720F
:1024B000E37CEB7263692B7363691B0A6B73E38ABA
:1024C000AB73E37DEB7370BD0021C0F1400230447B
:1024D0002FF0C7FA31462046FFF7E4FB0028F2D17F
:1024E0000146382230462FF0BCFABBE7FFFFFFFF62
:1024F00070B50D4696B0064614460021582268462F
:102500002FF0AFFA3AA3D3E90023CDE902233AA38F
:10251000D3E90023CDE9042335B32A463146684682
:10252000FFF744FF0546C0B98022009B03F03F033C
:10253000581C58336B44382803F8402C18D906AE81
:102540002946C0F1400230442FF08BFA31466846EC
:10255000FFF7A8FB0546002841D06846582100F047
:102560000BF9284616B070BD802301208DF8183075
:1025700006AEC0F13802002130442FF072FADDE9D6
:1025800000305A0F42EAC002DB003146684614931D
:102590001592FFF787FB05460028DED1029B0399C1
:1025A0001A0A62701A0C080AA270049A2370217128
:1025B0001B0E6071080C090EE370E171059B110A96
:1025C00022726172110C120EE2721A0A2373627384
:1025D0001A0C1B0EA071A172A273E373BDE7014632
:1025E000382230462FF03DFAC9E700BFAFF3008034
:1025F0000123456789ABCDEFFEDCBA9876543210E3
:10260000FFF750BBFFF730BB10B50446FFF726FBC2
:102610002046BDE810402FF0D7B900BF10B55821B3
:1026200001202EF0EBFF044608B1FFF713FB204614
:1026300010BD00BFFFF702BFFFF7FABEFFF71ABBDE
:1026400000F0D0B800F0ACB810B5044600F0A2F825
:102650002046BDE810402FF0B7B900BF10B55C218F
:1026600001202EF0CBFF044608B100F08FF8204681
:1026700010BD00BF01F08CBB01F084BB00F096B828
:1026800001F0BABC01F096BC10B5044601F08CFC18
:102690002046BDE810402FF097B900BF10B55C216F
:1026A00001202EF0ABFF044608B101F079FC204672
:1026B00010BD00BF02F066BC02F05EBC01F080BC41
:1026C00002F0BCBD02F064BD10B5044602F05AFD34
:1026D0002046BDE810402FF077B900BF10B56C213F
:1026E00001202EF08BFF044608B102F047FD204682
:1026F00010BD00BF012303F0BBBA00BF002303F0ED
:10270000B7BA00BF03F02EBA03F026BA012102F0D7
:1027100045BD00BF002102F041BD00BF03F048BC31
:1027200003F0A0BB10B5044603F096FB2046BDE8BD
:1027300010402FF049B900BF10B5D82101202EF06C
:102740005DFF044608B103F083FB204610BD00BFC7
:10275000012304F0DDBB00BF002304F0D9BB00BFA0
:1027600004F086BA04F07EBA012103F081BB00BFF9
:10277000002103F07DBB00BF21B1034B0A461B685B
:1027800000211847704700BF480C00205C22002140
:102790002FF067B910B15C21FFF7EEBF704700BFA3
:1027A00008B55C222FF036F908BD00BF002370B4D5
:1027B0000749084C084E094D094AC0E90565C0E9BA
:1027C000024170BCC0E9003302611846704700BF87
:1027D00089ABCDEF0123456776543210F0E1D2C3C7
:1027E000FEDCBA9802462DE9F04F1746D2E90352B3
:1027F00099B07C6910926A40149416976240BF6841
:10280000DA4C4E693C1917970B96149F3444109E6E
:102810000B6866EA0706169F6E402644BC69029361
:10282000274604EB3666179C15971C19224407EBC4
:1028300072522F464C68109B03948C6B85EAB355FB
:10284000089401925540C94C159A67EAB35E141971
:10285000089A8EEA060E1444159B149AA644039C0B
:1028600002EBFE5E1C4413462544CC6902EBB545E1
:102870008A680594019C139784EAB75B03F1A1442D
:1028800004F50A14059B66EAB75704F6E6341C44BF
:1028900087EA0E072744149C109B14198BEA050B3A
:1028A000A3441C464FEAF7574FEA7B4B07EBB3575D
:1028B0000BEBB35B019B6EEAB65C85EAB35A029BF5
:1028C0008CEA070C03EBB45404F1A14404F50A1498
:1028D00004F6E6340992A444CA68109C8AEA0B0AFA
:1028E00002EBB454139BA2444FEA7C5C4FEA3A5A81
:1028F0000CEBB35C0AEBB35A4B6A0A921A46069386
:10290000139B0C6902EBB358049408F1A148049A94
:1029100067EABE5908F50A188BEAB55489EA0C092A
:1029200008F6E63884EA0A04C14402EBB35844448A
:10293000019A0B9B4FEAF46404EBB2548AEABB5849
:1029400088EA040803EBB2524244099BDFF81C8278
:102950004FEAF9499844CB6A09EBB65908EBB656E9
:102960006CEAB758019388EA09088B694FEA32622A
:1029700002EBB552464484EABA5888EA020803EBEF
:10298000B5550C934544059B4FEA756505EBBB5562
:10299000DFF8D88103EBBB5B019B4FEA7646984496
:1029A00006EBBE5608EBBE5E69EABC5888EA06082C
:1029B000C64482EAB45888EA0508049BC344DFF899
:1029C000AC81119598444B6B4FEA7E4E1D460B6AC5
:1029D0004FEAFB5B0EEBB75E0BEBBA5B08EBB7574E
:1029E0000D9366EAB95803EBBA5A119B88EA0E08B0
:1029F000474483EAB25888EA0B08C244DFF86C8186
:102A00004FEAF767A84407EBBC570F9508EBBC5C8F
:102A1000119D6EEAB658069B88EA07084FEA7A5A73
:102A20000AEBB45AC4448BEAB55888EA0A0803EBA7
:102A3000B45444440C9BDFF834818D6A9844CB6BCA
:102A4000096B4FEAF44404EBB25407918AEABB5194
:102A5000614005EBB2520E950A44119D01994FEA6F
:102A60007C6C0CEBB95C4FEAB24208EBB95967EAEF
:102A7000BE5802EBB55288EA0C0801EBB55103F1E0
:102A8000A145C14405F50A1505F6E6354FEA796911
:102A900009EBB65905EBB6566CEAB75585EA090558
:102AA0002E444FEA366606EBBE5584EABA565640C7
:102AB0003144079E4FEA714101EBBB5106EBBB5B12
:102AC0000D9EDFF8A88006F1A14606F50A1606F667
:102AD000E63606EBBE5E69EABC566E40B64482EA54
:102AE000B4564E40B3440F9E4FEABB6B0BEBBA5B40
:102AF00006EBBA5A039E4FEA7E5EB04481EAB256B4
:102B000086EA0B060EEBB75EB24408EBB757089E99
:102B100065EAB95888EA0E084FEA7A6A0AEBB45AAD
:102B2000B84406EBB4540E9F104E4FEAB848BE1995
:102B300008EBBC588BEAB15706EBBC5C6EEAB556A5
:102B400086EA080687EA0A07B4442744074E0A9C27
:102B50004FEABC4CA6190CEBB95C4FEAF75706EBF1
:102B6000B95968EABE5607EBB25701E0E68BA250AE
:102B7000079C119303EBB25286EA0C06E34B4E44DA
:102B8000E3184FEA365606EBB55603EBB5538AEA1F
:102B9000BB556CEAB8597D40154489EA0609059A87
:102BA00099444FEA3565DA4B05EBB15587EABA54DB
:102BB0002C40D31803EBB15384EABA544FEAB969F5
:102BC00009EBBE590C9A1C44D24B86EA090101EA72
:102BD000BC51D31803EBBE537140049A19444FEA19
:102BE0007464CB4B04EBBB5485EAB75E0EEA040E6B
:102BF000D31803EBBB538EEAB75E9E44019B4FEAAA
:102C0000F15103F1B84301EBB85103F59B0389EA95
:102C1000010203F5A24302EAB652243303EBB85390
:102C200082EA09021A444FEAF24202EBBC521292C3
:102C3000B74B0F9A4FEABE6E0EEBBA5E84EAB558F8
:102C400008EA0E08D318129A03EBBA5388EAB5586B
:102C500081EA020B98440A9AAE4B0BEAB95BD3188F
:102C600003EBBC53039A8BEA010BDFF8A4C24FEAD3
:102C7000386808EBB7589B448EEAB453944403EA8F
:102C800008030CEBB75783EAB4533B44059F129AF1
:102C90004FEA7B4B07F1B8470BEBB65B07F59B0799
:102CA00082EA0B0C07F5A2470CEAB15C243707EB6C
:102CB000B6568CEA020CB4440E9E4FEAF34306F17A
:102CC000B54603EBB55388EABE5706F51E361F40DE
:102CD00006F299164FEA7C6C0CEBB95C06EBB55525
:102CE00087EABE572F448BEA0C0505EAB255DFF898
:102CF00024A2029A85EA0B0592440AEBB9590C9A70
:102D00004D444FEA7757DFF8089207EBB45783EA50
:102D1000B85691443E4009EBB45486EAB85626446E
:102D2000119ADFF8ECA14FEAF65606EBBE5687EA99
:102D3000B354924434400AEBBE5E84EAB354744404
:102D40004FEA746404EBB8542246DFF8C8E10F9CE4
:102D50004FEA3555A644144605EBB1558CEA0509F2
:102D600009EABB590EEBB15189EA0C098944129961
:102D70004FEA396909EBB1590A9986EAB75A01F164
:102D8000B54101F51E310AEA020A01F2991101EB7F
:102D9000B8518AEAB75A8A440B99129A01F1B8419C
:102DA00001F59B0185EA090801F5A24108EABC5832
:102DB000243101EBB25288EA0508129484EAB65134
:102DC0009044079C524A4FEA7A4A0AEBB35AA21837
:102DD00001EA0A014FEAF85808EBBB580E9C02EBD7
:102DE000B35381EAB6514B4A194489EA080303EA0E
:102DF000B553A21802EBBB5283EA09031344029AAB
:102E0000129C4FEA716102F1B54201EBB7518AEAB7
:102E1000B45E02F51E320EEA010E02F2991202EBC6
:102E2000B7528EEAB45E9644089A4FEA735302F1A1
:102E3000B84203EBBC5302F59B0288EA030702F594
:102E4000A24207EAB9572432069C02EBBC5287EA39
:102E50000807DFF8BCC04FEA3E5E0EEBB65E1744D3
:102E600081EABA52A44402EA0E020CEBB65682EA98
:102E7000BA52129C32444FEA77674FEA724202EB31
:102E8000B45207EBB557119CDFF888B083EA070608
:102E9000A34406EAB8560BEBB5555E402E440B9D95
:102EA000129C05F1B5458EEAB15C05F51E350CEABC
:102EB000020C05F2991505EBB4548CEAB15CA444FC
:102EC0004FEAFC5C0CEBBA5C82EABE5404EA0C04E8
:102ED00084EABE541294DFF838B0099C4FEA766653
:102EE000A344129C0BEBBA5A54444FEA745404EBBB
:102EF000B15406EBB9561294DFF818A00D9C87EA7E
:102F00000605A24405EAB35506E000BFE68BA250D1
:102F10009979825A24D14D5C129C0AEBB9597D40B3
:102F20008CEAB25A4D440AEA040ADFF8B094089CCD
:102F30004FEA3555A14405EBB855079C09EBB15153
:102F40008AEAB25ADFF88C948A4486EA0501A144E1
:102F500001EAB751129C09EBB858714084EABC5B96
:102F60004144019CDFF874844FEA7A6A0AEBBE5A46
:102F7000A0440BEA0A0B08EBBE5E8BEABC5B0D9C1F
:102F8000F344DFF858E44FEA716101EBB351A64412
:102F9000DFF84084049C4FEAFB4B0BEBB25B0EEB7B
:102FA000B25E85EA0102A04402EAB652129C08EB26
:102FB000B3536A401A448AEAB45303EA0B034FEA54
:102FC000B26202EBB75283EAB453DFF80884069C7E
:102FD0009E4481EA0203A04403EAB55308EBB757C5
:102FE0004B403B44039F4FEA734307F1B84703EB61
:102FF000B65307F59B070A9C82EA0308DFF8D893CB
:1030000007F5A24708EAB15824374FEA3E5E0EEBB7
:10301000BC5EA14407EBB65688EA020809EBBC5C2B
:10302000B0446EEA0B09099EEA4F89EABA59129C2C
:10303000F719E1440E9EDFF8A0C34FEAF84808EB09
:10304000B5584FEA795909EBB45907EBB555B44473
:1030500083EA08070CEBB45407EAB25769EA0E0C8E
:103060008CEABB5C5F40089EA4442F44DA4D4FEAD3
:10307000FC4C0CEBBA5C119C7519049E05EBBA5A1A
:103080006CEA090585EABE5506F1DD4604F1DA442D
:10309000554406F5B30604F5E0044FEA77574FEAC6
:1030A000B56506F5D74604F57B5407EBB15705EB3C
:1030B000BB552136333406EBBB5B04EBB15165EAFB
:1030C0000C0667EA080484EAB35486EAB9565E44FB
:1030D0002144DFF804A3069C4FEA766606EBBE5651
:1030E000A2440AEBBE5E66EA050A8AEABC5A0B9C59
:1030F000F244DFF8ECE24FEAF15101EBB251A644A1
:103100000EEBB25261EA070E8EEAB85E9644B24CFC
:10311000119A4FEABA4A0AEBB95A141904EBB95991
:103120006AEA060484EAB554039A4C44DFF8B09284
:103130004FEA7E6E0EEBB35E914409EBB3536EEA39
:10314000010989EAB75999440D9B4FEAF45403F1F8
:10315000DD4303F5B30303F5D74304EBBC5421333C
:1031600003EBBC5C64EA0A0383EAB6539C440A9B03
:103170004FEA794903F1DA4303F5E00303F57B53A2
:1031800009EBB859333303EBB85869EA0E0383EA05
:10319000B1539844904B4FEAFC4C0CEBB55CD31800
:1031A00003EBB5556CEA040383EABA531D44059B4F
:1031B0004FEA785803F1DA4303F5E00303F57B5354
:1031C00008EBB758333303EBB75768EA090383EAD0
:1031D000BE531F44804A099B4FEA754505EBB6551F
:1031E0009A1802EBB65665EA0C0282EAB4523244EF
:1031F000089E4FEA376706F1DA4606F5E00606F55F
:103200007B5607EBB157333606EBB15167EA080638
:1032100086EAB9560E44704B05994FEAB242CB1874
:103220000C994FEAB66601F1DA4101F5E00101F5CA
:103230007B5102EBBA5206EBBE56333103EBBA5A5E
:1032400001EBBE5E62EA050366EA070181EAB85156
:1032500083EABC5353448E44DFF87CB102994FEAB1
:10326000336303EBB4538B440BEBB4540C9963EA14
:10327000020B8BEAB55B5C4401F1DD414FEAF4449B
:1032800001F5B30104EBBC5BDFF854A1069C01F52A
:10329000D74121314FEABE6E0EEBB95EA24401EB7D
:1032A000BC5C019C6BEA03010AEBB95981EAB2519B
:1032B0006EEA060A8AEAB75A8C4404F1DA41CA4433
:1032C00001F5E0014FEABA4A01F57B510AEBB85A21
:1032D000333101EBB8586AEA0E0181EAB6518844ED
:1032E0000F994FEABC6C01F1DD4101F5B30101F525
:1032F000D7410CEBB55C213101EBB5556CEA0B0104
:1033000081EAB3510D440D994FEA385801F1DA4181
:1033100001F5E00101F57B5108EBB758333101EBC2
:10332000B75768EA0A0181EABE51394427462A4C58
:103330004FEAF5653C19079F05EBB25507F1DA47EF
:1033400004EBB25265EA0C0484EABB5407F5E007CB
:1033500022444FEAF1410B9C07F57B5701EBB65134
:10336000333707EBB65604F1DD4461EA080787EA14
:10337000BA5704F5B3043E444FEA3252079F04F5AE
:10338000D74402EBB352213404EBB35307F1DD47CA
:1033900062EA050484EABC5407F5B3071C4407F548
:1033A000D74721374FEA746404EBBB54099B07EB02
:1033B000BB57DFF82CB04FEAF66606EBBE569B44CF
:1033C0000BEBBE5E64EA020366EA010B8BEAB85BB4
:1033D00008E000BF24D14D5CA1EBD96E9979825AE7
:1033E000F33E706D83EAB553F3443B44DFF81CE5CC
:1033F0000E9F4FEABB4B0BEBBA5BBE44029F0EEB3A
:10340000BA5A6BEA060E8EEAB15E07F1DA47D64485
:1034100007F5E0074FEAFE4E07F57B570EEBB85E67
:10342000333707EBB8586EEA0B0787EAB657B8444C
:10343000039F4FEAF36307F10F4703EBBC5307F514
:10344000DD1784EA030907F5E65709EAB2591C3784
:1034500007EBBC5789EA0409B944049F4FEAF848CE
:1034600007F1DA4707F5E00707F57B57333708EB35
:10347000B158DFF898A407EBB1510F9F4FEA795983
:10348000BA4468EA0E0787EABB570F44069909EB6E
:10349000B55901F10F414FEA776701F5DD1107EBEF
:1034A000B6570AEBB65A01F5E65183EA090606EA71
:1034B000B4561C3101EBB5515E400E444FEA36560E
:1034C00006EBB256129689EA0605DFF83CC4019E67
:1034D00067EA0801B44405EAB3550D9E0CEBB252FD
:1034E00081EABE5185EA0905DFF818C45144154444
:1034F000B4444FEAF161129E4FEAB54501EBBB516E
:1035000005EBB45587EAB8520CEBBB5C0A4086EA7F
:10351000050B82EAB8520BEAB95B62448BEA060BF0
:10352000DFF8E4C30E9E4FEA7242B4440CEBB4548D
:103530000C9EA344DFF8CCC302EBBE5281EAB75421
:103540004FEA7B4B0BEBB35B1440B444129E0CEB85
:10355000BE5C84EAB75485EA0B0E64440EEAB65E9C
:10356000DFF8A4C3029E8EEA050EB4440CEBB353FD
:10357000049E9E444FEAF464E24B04EBB85482EAA2
:10358000B15A0AEA040AF31803EBB8538AEAB15AAB
:103590009A44039EDFF86C834FEA3A6A0AEBB75A03
:1035A00084EAB25CB0440CEA0A0C08EBB7578CEA28
:1035B000B25CBC440D9F4FEABE4E07F10F470EEBC5
:1035C000B95E07F5DD178BEA0E0307F5E65703EA48
:1035D000B5531C3707EBB95783EA0B033B440A9FEB
:1035E0004FEA7C5C07F1F44707F5DA0707F5ED478A
:1035F00069370CEBB15C07EBB151079F129E07F1E5
:103600000F4707F5DD1707F5E6571C374FEA7343F9
:1036100003EBB65307EBB656019F8AEAB45909EAA1
:103620000C0907F1F44789EAB45907F5DA07894428
:1036300007F5ED478EEA030101EABB5169374FEA0E
:10364000B94909EBB25981EA0E0107EBB252049F66
:1036500031448CEABA5606EA09064FEAF15107F1FD
:103660000F4701EBB55186EABA5607F5DD17164448
:1036700007F5E65783EA010202EABE521C3707EB60
:10368000B5555A402A444FEA326202EBBB521292BD
:103690009C4F119A4FEAB64606EBB45689EABC55E0
:1036A000D7193540129A07EBB45485EABC55254426
:1036B000954F81EA02040F9A04EAB354D71907EB35
:1036C000BB574C403C44029F129A07F1F44707F560
:1036D000DA074FEAF45407F5ED4704EBBE544FEA1E
:1036E000B565693705EBBA5507EBBA5782EA040AA4
:1036F0000AEAB15A86EAB9588AEA020ADFF808B239
:103700000A9A08EA0508934488EAB9580BEBBE5EAA
:10371000B8440B9AF2444FEAB848DFF8E8E108EB06
:10372000BC5885EAB657964407EA08074FEABA4AF2
:103730000AEBB35A129A0EEBBC5C87EAB6576744A1
:1037400084EA0A0C0CEAB25CDFF8B8B1079A4FEAD7
:10375000B76707EBB95788EAB55E93440EEA070EE0
:103760000BEBB9598EEAB55E059ACE44DFF8989115
:103770008CEA040C914409EBB353099ADFF8849165
:103780004FEAFE5E0EEBB65E9C4487EAB853914466
:1037900003EA0E034FEAFC6C0CEBB15C119A09EBE7
:1037A000B65683EAB853DFF8609133448AEA0C06D0
:1037B000914406EAB45609EBB15186EA0A06129A18
:1037C0000E444FEAB66606EBB256DFF838910F9A10
:1037D0004FEA335303EBB5538EEAB751914409EBEB
:1037E000B555089A1940DFF8209181EAB751914404
:1037F0002944129A8CEA060505EABA5509EBB25239
:1038000085EA0C0515444FEA356505EBB45512956C
:10381000DFF8F090069D4FEAF15101EBB85183EAD1
:10382000BE52A9440A40129D09EBB85882EABE5222
:103830004244DFF8D4B086EA05080B9D08EABC587C
:10384000AB4488EA06080BEBB45B059DC3444FEA22
:103850003252DFF8B08002EBB75281EAB354A84489
:103860001440129D4FEABB6B0BEBBA5B08EBB757EA
:1038700084EAB3543C4485EA0B0707EAB6576F4025
:10388000DFF884800C9D4FEAF464A84408EBBA5832
:10389000099DDFF874A04744AA44DFF868800E9DB4
:1038A00004EBBE5482EAB159A84409EA040908EBC2
:1038B000BE5E89EAB159089DF144DFF848E04FEA5D
:1038C0007949AE4409EBB3594FEAF7670EEBB353AE
:1038D00084EAB25E07EBBC57129D0EEA090E8EEA2F
:1038E000B25E0AEBBC5C8BEA070A0AEAB55A73447B
:1038F000079DDFF81C804FEA336303EBB1538AEA7C
:103900000B0A07E0E9766D7ADCBC1B8FF33E706D25
:103910004EFD53A905EBB151A844DFF8E0E3049D47
:10392000D444AE444FEA3C5C0CEBB65C0EEBB656AE
:1039300067EABB5E8EEA0C0E05EBB95AB644129DDF
:103940004FEAFE5E0EEBB55E89EAB45608EBBE5850
:103950005E40CDF848803144DFF8A083119E4FEAE5
:10396000316101EBB251B04406EBB252029E0491B8
:10397000A6F1AD46A6F53016A6F2B22606EBB55571
:103980006CEAB75686EA0E0635444FEA754505EBF4
:10399000BB510791CDF844800B99DFF86083049DFB
:1039A00083EAB95688446E4008EBBB5801EBB55B1F
:1039B00007995D4632446EEABC5B0E9E8BEA010BB2
:1039C0004FEAF26202EBB452C34406EBB454A6F1E0
:1039D000AD460499A6F530164FEAFB6B0BEBB75BCF
:1039E000A6F2B22606EBBB5881EAB3565640CDF894
:1039F00038802644069C4FEA3656A4F1AD44A4F51F
:103A00003014A4F2B22404EBB757079C06EBB95963
:103A100064EABE5484EA0B04274482EAB15484EA7F
:103A2000090403995444B54E4FEAF45404EBB354DB
:103A30008E1901EBB353DFF8C4A205994FEA77570B
:103A40008A4407EBBC570AEBBC5A01EBB95C0799F7
:103A500000206BEAB15888EA0708D0444FEAB868FA
:103A600008EBBE5806EBB85E89EAB2566640049988
:103A70001E444FEA365606EBB15684EAB951CDF8EA
:103A800014E0129B67EABB5E71408EEA080E29447F
:103A90009E444FEAF161079B01EBB2514FEA3E6E43
:103AA0000EEBB35E0391954B0D99DFF850A201EB3D
:103AB000B252CB180999079D8A440AEBB55501EB20
:103AC000B65ACDF810A068EAB75A8AEA0E0A5544E9
:103AD0004FEAF54505EBBB5B039903EBBB5ACDF809
:103AE0002CA086EAB45A8AEA010A0E9B92446EEA36
:103AF000B85282EA0B024FEABA4A0AEBB95A1A44A0
:103B000081EAB65383EA0A034FEA3252634402EB76
:103B1000B7594FEAB363029A03EBB45C02EBBC52B1
:103B2000089D0992754A0C99AA1802EBB7576BEADF
:103B3000BE5282EA09021744704B4FEAF76707EB5F
:103B4000B858CB1803EBB852039B01EBB4548AEA84
:103B5000B35787EA0C07274405EBBA554FEA376796
:103B600007EBB657089569EABB56059D86EA080635
:103B70002E4411994FEA365606EBBE5601EBB65568
:103B80008CEABA5404997C400C444FEAF4440699F8
:103B900004EBB35407920595584A0F9D01EBB451BD
:103BA00005EBB3530491AA180296544D0A9E01994D
:103BB000751905EBBE5E06EBB755029E069568EAE1
:103BC000B955754075444FEAF54505EBBB5502EB19
:103BD000B55ECDF80CE087EABC5E8EEA040E9E442A
:103BE000019A4FEABE6E0EEBBA5E02EBBE5A66EA6F
:103BF000B8520B9E6A4032444FEAB242159E02EB25
:103C0000B952A1F1AD41CDF804A0A1F5301106EBF8
:103C1000B25A179EA1F2B22101EBB95184EAB7530F
:103C200006EBB259089E83EA0E0333444FEAF3636E
:103C3000149E03EBBC5306EBB35B029E0AEBB35A34
:103C400065EAB65C8CEA020C8C444FEA7C5C0CEBB7
:103C5000B858169E0BEBB8513161099E8EEAB451EB
:103C6000594031444FEA714101EBB7571099079E13
:103C700001EBB75B62EAB55181EA08013144029E6B
:103C80004FEA316101EBB65668EAB25205997240CB
:103C90000A444FEAF26202EBB552169D66EAB85842
:103CA0000BEBB656EE60039E88EA0208B04483EA46
:103CB000BE51069E794031444FEAF14101EBB454C4
:103CC00087EAB353049963400B444FEA735303EB01
:103CD000BE5E139B84EAB75703EBB4542244AA6038
:103CE000019A87EA0E071744CE440AEB77570EEB8A
:103CF000B863C5E9057319B0BDE8F08F4EFD53A94F
:103D00002DE9F8430368064603F03F079B18144665
:103D10000D46036002D3436801334360C7B1C7F166
:103D20004008A04503D914BB2046BDE8F88306F13E
:103D30001C092946424609EB07002DF06BFE494657
:103D40003046FEF74FFD0028EFD1403C45443C444F
:103D50003F2C09D929463046FEF744FD403C40350A
:103D60000028E2D13F2CF5D80027002CDCD006F14A
:103D70001C002246294638442DF04CFE0020BDE8A8
:103D8000F88300BF0AB1FFF7BBBF1046704700BF02
:103D900030B504460D46D0E90021530F43EAC10374
:103DA000D10083B0080A8DF800108DF80100080CCE
:103DB000090E02F03F028DF80310190A372A8DF818
:103DC00005104FEA13418DF804308DF802004FEAD8
:103DD00013638DF8061094BFC2F13802C2F1780265
:103DE00020461F498DF80730FFF78AFF08B103B05E
:103DF00030BD082220466946FFF782FF0028F6D131
:103E0000A3682B70A3681B0A6B706389AB70E37A9D
:103E1000EB70E3682B71E3681B0A6B71E389AB718C
:103E2000E37BEB7123692B7223691B0A6B72638A34
:103E3000AB72E37CEB7263692B7363691B0A6B7370
:103E4000E38AAB73E37DEB73A3692B74A3691B0A4D
:103E50006B74638BAB74E37EEB7403B030BD00BF57
:103E60001C660300FFFFFFFF2DE9F0410D469AB0ED
:103E70000446164600215C2202A82DF0F2FD464BB6
:103E8000089341A3D3E90023CDE9042340A3D3E958
:103E90000023CDE90623002D6ED021462A4602A834
:103EA000FFF72EFF044600285ED1DDE902520146ED
:103EB0006B0FE80043EAC2034FEA132C63F30701D8
:103EC0004FEA102860F307041A0C070C68F30F245C
:103ED0006CF30F2105F03F0562F317414FEA106EB6
:103EE00067F317441B0E6EF31F6463F31F61372DD6
:103EF0000094019188BFC5F178023FD9274902A8F3
:103F0000FFF7FEFE044678BB082269460DEB02006F
:103F1000FFF7F6FE044638BB049B059806991A0A7B
:103F2000050A727030711A0C7571050C000EB270B2
:103F3000F071079A080A337031721B0E7072080C08
:103F4000090EF370F172089B110A32737173110C30
:103F5000120EF2731A0A337472741A0C1B0EB571B6
:103F6000B072B173B274F37402A85C21FEF704FC62
:103F700020461AB0BDE8F081CDE90055C5F1380200
:103F8000BCE700BFAFF300800123456789ABCDEFED
:103F9000FEDCBA9876543210F0E1D2C31C660300FE
:103FA0005C2200212DF05DBD10B15C21FEF7E4BB69
:103FB000704700BF08B55C222DF02CFD08BD00BF86
:103FC000002370B40749084C084E094D094AC0E95E
:103FD0000565C0E9024170BCC0E9003302611846C2
:103FE000704700BF89ABCDEF01234567765432108F
:103FF000F0E1D2C3FEDCBA9802462DE9F04F154637
:10400000D2E903266B6999B0AF68AC69169586EA68
:1040100003050B92154086EAB20214943A401396B7
:104020007240149E5D4006F1B54606F51E3606F256
:10403000991606EBF7663544DFF888C3E04EBC44BA
:104040009E19D1F800B04C68CDF85CC03244D1F86C
:104050000CC04FEAB706139F15930B9BD1F808A02D
:1040600024BA9CFA8CFC9BFA8BFB07F1B5475D44A4
:1040700084EA0C0E224407F51E3786EAB3049AFA46
:104080008AFA2C4007F29917574484EAB3043C4457
:104090001F46D1F81090CA4B02EBF562CDF814E040
:1040A00086EAB50E99FA89F90EEA020E03EBB70714
:1040B00004EBF2648AEA09084FEAB20267448EEA26
:1040C000060E06F1B546CDF80480BE44D1F8148042
:1040D00082EAB50706F51E36274006F299164E44C9
:1040E00098FA88F887EAB507374408EB030606EB29
:1040F000B505CE698CEA080C0EEBF46E36BACDF835
:104100000CC08BEA0A0B82EAB40CD1F818A007EBBA
:10411000FE6788EA06080CEA0E0C4FEABE0E9AFA11
:104120008AFACDF81C808CEA020C8EEAB408AC4402
:1041300008EA07080AEB030589EA0A092A4488EA1B
:10414000B4080CEBF76CF518CDF810909044D1F84A
:1041500020908EEAB70205EBB40402EA0C024D6A25
:1041600099FA89F982EA0E0208EBFC682DBA4FEA47
:10417000BC0C8BEA090B2244914CCDF808B086EABE
:10418000050B8CEAB7068AEA090A06EA08064C44D7
:10419000CDF820A07444059B86EAB706CDF830B070
:1041A000D1F828B02644019C9BFA8BFB84EA0B04CF
:1041B0000594834C02EBF8628CEAB80E0EEA020E0C
:1041C0002C1904EBB7048EEA0C0EA644CC6A89EADB
:1041D0000B0924BACDF8249085EA040906EBF266AF
:1041E000CDF834904FEAB202DFF8D49183EA050AA1
:1041F00082EAB805D9443540CC4485EAB8050EEBCF
:10420000F66E654482EAB60CD1F830900CEA0E0CDA
:10421000039B01928CEA020C049A05EBFE6599FA65
:1042200089F94FEABE0E83EA0407734682EA090E53
:10423000CDF818E08BEA090ECDF838E0DFF880E120
:10424000029AA6440EEBB808C444D1F834800CEBB3
:10425000F56C98FA88F882EA080E87EAFE7B5F46DA
:10426000079A84EA080482EA080B099A0F9782EAFF
:10427000FE72029284EAF772514F079283EAB60403
:10428000019A4F442C403A4484EAB604144404EBA7
:10429000FC62049283EAB5028F6B02EA0C02C96BDE
:1042A00082EA0304059A09BA4A400A928BEAF27B31
:1042B000089A3FBA09930394CDF804B0069C82EAA9
:1042C000070B0F9A0C9B8BEAF27B5A468AEA070A85
:1042D00084EAFA7483EA010B8BEAF47BCDF818B018
:1042E0000594DDE9013484EAF37B5B460D9C119271
:1042F00084EAFA7B8BEAF27B0E9C0A9ACDF808B02E
:1043000084EAF27B069A079C8BEAF27BCDF820B018
:10431000079384EAF37B059B029A89EA070989EAF5
:10432000F37989EAF2794C46DFF89490039AC14414
:10433000049B09EBB6094A4402EBF362019B089E19
:1043400088EA010888EAF3784FEABC0C049B88EA03
:10435000F678CDF80C801A4E8CEAB50808EA030806
:10436000099BBE191E4488EAB508B044119E049BFF
:1043700087EAFE7787EAF677114E87EAFB798CEABF
:10438000B3078E19174087EA0C0706EBB505069EA2
:104390003D4481EAFA710A4F08EBF26881EAF6714E
:1043A0004FEAB20207EBFE76CDF8349081EAF47959
:1043B00082EAB30101EA0801B44407EBFA7603E0AC
:1043C0009979825AD6C162CA099481EAB30106EB8F
:1043D000B3043B4605EBF8658C4482EAB8012940FA
:1043E00051400CEBF56C0C444FEAB5050A9985EA8F
:1043F000B80607EBF17106EA0C0686EAB8060A442D
:1044000004EBFC64CDF830B0CDF8389032440F9F07
:104410000A9902EBF46204924FEAF171079A81EA79
:10442000FE7686EAF276039A03EBF77386EAF27E6B
:104430004FEAF777029A0D9E87EAFA7A8AEAF27AC9
:1044400003EBB8038AEAF678059E089A81EAF671CA
:1044500081EAF271019ACDF83C8087EAF27781EA2D
:10446000F97887EAFB77CDF8408087EAFE78CDF8C7
:104470002880DB4F85EABC08049A08EA04084FEA62
:10448000B40488EA050884EABC0107EBF6765140DB
:104490004344354403EBF2630D4484EAB201019ACC
:1044A00005EBF36507EBF276049A594006EBBC0C7A
:1044B0004FEAB3038C4483EAB201119A694007EBD7
:1044C000F27634440C4405994FEAF27B8BEAF17999
:1044D00009990D9F89EAF1790F990A9E89EAF17984
:1044E0000799049A8BEAF17B8BEAF77B8BEAF678E3
:1044F0000699BB4E0CEBF56C83EAB50706EBF17140
:1045000087EA0C0701EBB202069904EBFC643A441B
:1045100002EBF4674FEAF1720199CDF8448082EA28
:10452000F17803994FEABC0C88EAF17810990020E1
:1045300088EAF178029982EAF1720E9982EAF172C0
:1045400082EAF97ACDF818A007998CEAB50206EB51
:10455000F17162400B441344029A8CEAB40106EBF9
:10456000F27202EBB50579402944089D03EBF7632D
:104570004FEAB70787EAB40206EBF5755A40AC4438
:10458000089D9444079A4FEAF57B8BEAF27282EA1F
:10459000FE7282EAF8750195099D0C9A8BEAF57B0B
:1045A000109D01EBF3618BEAF57B06EBF27687EA6F
:1045B000B3054D4006EBB4042C44029D4FEAF2765D
:1045C0000F9A86EAF57585EAF275119A8BEAFA7AFE
:1045D00085EAF2720292039A0A9D86EAF27686EAE8
:1045E000F576019D099ACDF848A086EAF57A7C4DCA
:1045F0000CEBF16C4FEAB101CDF830A081EAB306C3
:1046000005EBF27A039A86EA0C06574404EBFC6445
:1046100005EBF27A37440D9A81EABC0607EBF467A2
:104620000AEBB30366404FEAB40484EABC0A1E44B2
:1046300005EBF2730B448AEA070A9A444FEAF273D5
:10464000099A06EBF76683EAF271029A81EAF97138
:1046500081EAF27B119983EAFE730E9A83EAF17381
:104660000C99CDF81CB083EAF17B05EBF27184EA7A
:10467000B70301EBBC0C4FEAF271039A73409C4400
:1046800081EAF273129A83EAF873CDF834B083EAC0
:10469000F27B0F9ACDF80CB0069B81EAF271079D70
:1046A00081EAF37181EAF57B4D490AEBF66A4FEA3C
:1046B000B606CDF820B001EBFE7386EAB70B1C44BA
:1046C0008BEA0A0B0CEBFA6C01EBF273A34486EA5B
:1046D000BA0403EBB70784EA0C043C44109F0BEBCD
:1046E000FC6B4FEABC0C8CEABA0301EBF771314466
:1046F00083EA0B030B444FEAF771019F81EAFE76D0
:1047000086EAF776039F81EAF97186EAF77E129FBF
:10471000089E81EAF771CDF810E081EAF67E0A99E9
:104720002F4E04EBFB648CEABB0706EBF17101EB47
:10473000BA0167400F440A99CDF838E04FEAF171A9
:1047400081EAF27A029A81EAF8718AEAF27A0D9A9B
:1047500003EBF4638AEAF27E0C9ACDF814E081EA66
:10476000F271049A4FEAB40481EAF27E324606EB13
:10477000F976B444164684EABB01594007EBF36767
:10478000CDF828E08C4484EAB30E02EBF871119A5C
:104790000CEBF76C8EEA070E4FEAB70701EBBB0B89
:1047A00006EBF27687EAB301344481EA0C01214436
:1047B0000B4E069CDE444FEAF27B06EBF476059A3C
:1047C000069C8BEAF97989EAF57989EAF2794FEA68
:1047D000F474039A0E9D84EAF87888EAF27801E08E
:1047E000A1EBD96E88EAF578019D029A8BEAF57BF8
:1047F0000D9DCDF818808BEAF57B0A9D84EAF27452
:104800008BEAF578089D0EEBFC6E84EAF574CDF822
:104810003C8084EAF97887EABC0484EA0E0406EB5B
:10482000B30301EBFE61DB4DCDF824902344CDF8BA
:104830004080019E03EBF163029A05EBF67A43EAAE
:10484000B10603EAB10906EABE0646EA090605EB27
:10485000F2795744129A41EABE0A09EBBC0901EA0F
:10486000BE040AEABC0AB144019E07EBF3674AEAB8
:10487000040A4FEAF27BBA4405EBF2748BEAF67253
:10488000049E09EBFA69069F04EBBE0E0EEBF96479
:1048900082EAF6724AEAB30E82EAF77C0EEAB10EB9
:1048A000079A0AEAB3070E9E4EEA070EA6448BEA61
:1048B000F27B0C9C49EABA028BEAF67B02EAB3026D
:1048C00009EABA06324305EBF47606EBB106CDF8F9
:1048D00044C016448BEAF87C029A0599CDF848C08A
:1048E0004FEAF47C8CEAF2780F9C88EAF17803991D
:1048F000079F88EAF4780A9C8CEAF17C05EBF77252
:104900008CEAF47C119C02EBB3034EEAB90206EB8D
:10491000FE668CEAF47C02EABA020EEAB90403EB02
:10492000F66322431A4446EABE01039B06EABE042C
:1049300001EAB901214305EBF3740D9B04EBBA04C2
:104940000C4405EBF3714FEAF37301EBB90183EA11
:10495000F779099FCDF830C089EAF779049F0C9D5B
:1049600083EAF7730F9F89EAF87C83EAF77304EB15
:10497000F264CDF81CC083EAF57C42EAB60502EA8F
:10498000B60744EAB20305EABE0501EBF46103EAA7
:10499000B6033D4304EAB2070D443B437D49089FFB
:1049A000CDF834C001EBF77707EBBE0708991F4439
:1049B000039B4FEAF17181EAF37E069B07EBF567F3
:1049C0008EEAF37E129B07EAB50B8EEAF37CCDF8F4
:1049D00008C0059B81EAF371109B81EAF371079B84
:1049E00081EAF37C049B6B49CDF80CC001EBF37CAE
:1049F0000CEBB60645EAB40C05EAB4030CEAB20CBB
:104A000006EBF7664CEA030CB44447EAB501059E91
:104A1000604B01EAB40141EA0B0103EBF67B0BEBBF
:104A2000B20B8B440E99049A03EBF1734FEAF171C8
:104A30000BEBFC6B81EAF27603EBB404119A04EB06
:104A4000FB63029C86EAF276099A86EAF47ECDF848
:104A500010E04CEAB70481EAF27E12990CEAB70A38
:104A600004EAB5048EEAF17E44EA0A0403991C4480
:104A70000A9E484B4BEABC028EEAF17E02EAB7027C
:104A80000BEABC010A4303EBF67101EBB5010A44E2
:104A90004FEAF671059E02EBF46281EAF67A0D9E0A
:104AA0008AEAF87A8AEAF679069ECDF8149081EAC5
:104AB000F6750C9904EABB0685EAF175049985EA56
:104AC000F175099903EBF17101EBB70707EBF2619F
:104AD00044EABB0707EABC0742EAB40337430F4482
:104AE00003EABB0302EAB4012A4E0B43069906EB24
:104AF000F17101EBBC010B4403EBF76301930F9BD6
:104B000006EBF37101EBBB0B0199099E0BEBF16115
:104B10004FEAF37B079B8BEAF67686EAF37686EA22
:104B2000F9760896119E0D9B8BEAF67B8BEAF3795A
:104B300089EAF57C47EAB20BCDF824C00BEAB40B46
:104B4000019B07EAB20C4BEA0C0B8B4403EAB70A51
:104B500043EAB7090F49109B09EAB20949EA0A0971
:104B600001EBF37A06990AEBB40A4FEAF374029B5D
:104B700084EAF17181EAF37181EAFE7C039984EAA7
:104B8000F87484EAF1740899CDF818C084EAF17CCD
:104B900002E000BFDCBC1B8FD449CA440B4601EBCA
:104BA000F67909EBB209019A0AEBFB6A09EBFA61A3
:104BB0004AEABB044BEAB20909EAB70904EAB204BB
:104BC0000BEAB20249EA0209894419460AEABB0221
:104BD000144303EBF87202EBB702129F1444019ADC
:104BE000CDF828C003EBF77C0C9B04EBF9640CEBCD
:104BF000B20C4FEAF77701EBF3720CEBF4614FEA7A
:104C0000F37C87EAF673049E8CEAF87883EAF673FD
:104C1000069E02EBBB0283EAF673059E88EAF678ED
:104C2000099E88EAF678079E87EAF677B04E87EA0B
:104C3000FE7706EBFE7E029ECDF804E08CEAF67E5F
:104C40000A9E8EEAF57E87EAF677A94E8EEAF37E13
:104C500006EBF37CCDF830C049EABA0C0CEABB0B8A
:104C600009EABA0C44EAB9034BEA0C0C8C4403EA97
:104C7000BA0304EAB9010B43134432460E97374690
:104C800006EBF575079E4FEAB40484EAB90102EB1E
:104C9000F67202EBBA0281EA0C0103EBFC631144E9
:104CA00084EABC0201EBF3614FEAB30B5A40029B6A
:104CB00007EBF37A0D9B0AEBB9094A4407EBF37A49
:104CC0008BEABC0989EA010954444FEAF37A089B4C
:104CD0004C448AEAF67902EBF16207EBF37689EA53
:104CE000F379049B04EBF26489EAF87907EBF8782E
:104CF00005EBB405CDF820808AEAF37A07EBF37868
:104D00008BEAB103079553404FEAB205019ACDF8FB
:104D10003490D844019502EB050B099A039D8AEA69
:104D2000F27A8AEAFE7A07EBFE7ECDF810E007EB16
:104D3000FA7ECDF824E007EBF57E0EEBBC0C634465
:104D40004FEAF57C029D07EBF2798CEAF57E3D4651
:104D5000069A03EBF46307EBF27A0E9F8EEAF27E7B
:104D60008EEAF77E059A05EBFE7E05EBF777604D40
:104D7000CDF808E08CEAF27C05EBF27E019A0EEBAE
:104D8000B10E82EAB1016140414482EAB40201EB12
:104D9000F3615A404FEAB30383EAB40472444C40CF
:104DA00002EBF1625C441E4483EAB10304EBF26B54
:104DB0005340079D4FEAB2020AEBB10A82EAB10101
:104DC00081EA0B011D4405EBFB650C9C0E449144EC
:104DD00082EABB0206EBF5666A404FEAB505631945
:104DE0004349089C92440A9A04EBB60801EBF2741A
:104DF0008CEAF27C04EBBB0285EABB0B8BEA060B68
:104E00000AEBF66AD94485EAB60509EBFA6985EA40
:104E10000A054FEABA0A8AEAB606154486EA09067E
:104E20000D9A05EBF965049C1E4457448AEAB90AB9
:104E300006EBF5668AEA050A4FEAB50504EBB90EFA
:104E400001EBF27385EAB9098CEAF27C179A89EAD8
:104E50000609D04408EBF6684F4402EBFC7C2B4477
:104E6000029A85EAB60507EBF86785EA08054FEA76
:104E7000B808099902EBB60288EAB6067E40AE444D
:104E80000EEBF76E01EB080A334488EAB70803EB30
:104E9000FE6388EA0E084FEABE0E0CEBB70C8EEAF2
:104EA000B70787EA0301424402EBF3620B9F8A448F
:104EB000169D0AEBF26A07EB0A04EC602C46139E7F
:104EC00006EBB20129611599149E01EBB3018EEA3C
:104ED000B3035A406244696102EBFA6206EB0E05C5
:104EE000A260A56119B0BDE8F08F00BFDCBC1B8FCC
:104EF000D6C162CA2DE9F8430368064603F03F07AE
:104F00009B1814460D46036002D343680133436087
:104F1000C7B1C7F14008A04503D914BB2046BDE87E
:104F2000F88306F11C092946424609EB07002CF0DC
:104F300071FD49463046FFF75FF80028EFD1403C4D
:104F400045443C443F2C09D929463046FFF754F8E4
:104F5000403C40350028E2D13F2CF5D80027002CFA
:104F6000DCD006F11C002246294638442CF052FDC4
:104F70000020BDE8F88300BF0AB1FFF7BBBF1046B1
:104F8000704700BF70B50446802203680D4603F0E9
:104F90003F03581C382823441A7704F11C0643D8D1
:104FA000C0F13802002130442CF05BFDD4E9003020
:104FB0005A0F42EAC002DB0012BA1BBA3146204641
:104FC000C4E91523FFF718F800282CD1E37A2B70D9
:104FD00063896B70A3681B0AAB70A368EB70E37BFB
:104FE0002B71E3896B71E3681B0AAB71E368EB71AA
:104FF000E37C2B72638A6B7223691B0AAB72236991
:10500000EB72E37D2B73E38A6B7363691B0AAB73EB
:105010006369EB73E37E2B74638B6B74A3691B0A68
:10502000AB74A369EB7470BD0021C0F14002304441
:105030002CF017FD31462046FEF7DEFF0028F2D1A6
:105040000146382230462CF00CFDAFE7FFFFFFFF92
:1050500070B50D4698B00646144600215C2268469D
:105060002CF0FFFC444B06933FA3D3E90023CDE98A
:1050700002233FA3D3E90023CDE9042335B32A4615
:1050800031466846FFF736FF0546C0B98022009BCF
:1050900003F03F03581C60336B44382803F8442C5A
:1050A00018D907AE2946C0F1400230442CF0D9FC93
:1050B00031466846FEF7A0FF054600284BD06846FB
:1050C0005C21FDF759FB284618B070BD80230120F4
:1050D0008DF81C3007AEC0F13802002130442CF0AE
:1050E000C0FCDDE900305A0F42EAC002DB0012BA10
:1050F0001BBA31466846CDE91523FEF77DFF05460C
:105100000028DCD1029B03981A0E0499060E227027
:105110001A0C6270E0711A0A2671060C000AA2705D
:10512000A071059A080EE1722072080C090AE3705A
:10513000A172069B110EE2732173110C120AA27365
:105140001A0EE37422741A0C1B0A66716072617382
:105150006274A374B3E70146382230462CF081FC18
:10516000BFE700BFAFF300800123456789ABCDEFF8
:10517000FEDCBA9876543210F0E1D2C36C220021E2
:105180002CF06FBC10B16C21FDF7F6BA704700BF70
:1051900008B56C222CF03EFC08BD00BF002310B403
:1051A000C0E90033A1B9154C154B164AC0E90243BA
:1051B000154B164CC0E90423154B164AC0E90643AB
:1051C000154B8166C0E908235DF8044B0020704749
:1051D000124C134B134AC0E90243134B134CC0E962
:1051E0000423134B134AC0E90643134B8166C0E9FD
:1051F00008235DF8044B0020704700BF67E6096A8A
:1052000085AE67BB72F36E3C3AF54FA57F520E51E7
:105210008C68059BABD9831F19CDE05BD89E05C177
:1052200007D57C3617DD703039590EF7310BC0FFCA
:1052300011155868A78FF964A44FFABE2DE9F04FF5
:1052400005460F46854BDFB0E9682A69149306933B
:1052500015906B69806816AC0FC43B7879783A7901
:105260001B0643EA014379791206387A42EA014281
:10527000F97A1EAE41EA0061F87801960343F879A5
:105280000243787A41EA0041B87843EA0020BB79CA
:10529000119042EA0322BB7A08921F9241EA03224C
:1052A0001E900E92A8692092E9692A6A6B6A97F8A3
:1052B0000FC00FC43B7BFC7C4CEA036C3B7CF87D4D
:1052C00044EA03643B7DF97E40EA03603B7E3A7F1B
:1052D00041EA0361FB7F97F820E043EA026397F815
:1052E000232042EA0E6297F80DE04CEA0E4C97F844
:1052F00011E044EA0E4497F815E040EA0E4097F8B2
:1053000019E041EA0E4197F81DE043EA0E4397F891
:1053100021E042EA0E4297F80EE04CEA0E2597F89B
:1053200012C00F9544EA0C2410942294BC7D219560
:1053300040EA042013902390B87E97F82F4041EA6A
:10534000002112912491B97F97F833A043EA0123F9
:105350000793259397F8223097F8379042EA032372
:10536000099397F82420269397F8273097F83B1055
:1053700043EA026397F8252097F83C0043EA02438A
:1053800097F8262043EA02230D9397F828202793C5
:1053900097F82B3043EA026397F82C2044EA026422
:1053A00097F830204AEA026A97F8342049EA0269FD
:1053B00097F8382041EA026197F83F2042EA0062FC
:1053C00097F8290043EA004397F82D0044EA004487
:1053D00097F831004AEA004A97F8350049EA00494F
:1053E00097F83900DDF868E041EA004197F83D00A0
:1053F00042EA004297F82A0043EA00230C932893DC
:1054000097F82E3044EA03230393299397F8323018
:10541000DDE918844AEA03230B932A9397F8363080
:10542000DDF874A049EA03230A932B9397F83A30E6
:10543000B14641EA032197F83E30CDF808A042EA90
:105440000323CDE92C13DDE9162704939446DDE907
:105450001BB31E46DFF804A0059101E05C66030063
:10546000DAF80030D9F800204CEA07011A444FEA74
:10547000FE2383EABE1383EA7E63134486EA0B02AB
:1054800002EA0E0272401344029A0CEA0700134427
:105490004FEA7C3201EA080182EABC02014382EA57
:1054A000BC520A441C44D9F804101344DAF804200E
:1054B0008EEA0B055018304425404FEAF42685EA61
:1054C0000B0586EAB416284486EA7466064443EA65
:1054D0000C054FEA733003EA0C023D4080EAB3004A
:1054E000154380EAB350D9F808202844DAF8085068
:1054F000B044A918594484EA0E0B0BEA080B8BEA56
:105500000E0B59444FEAF82B30448BEAB81B43EAA0
:1055100000028BEA786B8B4403EA00054FEA703196
:1055200002EA0C02D9F80C602A4381EAB001DAF8E9
:105530000C5081EAB0511144AA195F44724484EAC4
:10554000080E0EEA070E8EEA040E72444FEAF72E9A
:105550008EEAB71E59448EEA776E96444FEA71324E
:1055600082EAB10282EAB15540EA010200EA01068C
:105570001A4032432A44D9F81060DAF81050F44443
:1055800035442C4488EA070505EA0C0585EA080538
:105590002C444FEAFC2585EABC1585EA7C65254448
:1055A00072442B4402934FEA723441EA020301EA47
:1055B000020684EAB2040340334384EAB2541C4432
:1055C0002C44D9F81460DAF8145087EA0C033544F7
:1055D000A844029D0AF1200A2B407B4098444FEAE0
:1055E000F52383EAB51383EA75634344C6184FEA8B
:1055F000743842EA040002EA0405084088EAB40864
:10560000284388EAB458D9F8185080445AF8080C4E
:1056100098442844029D07448CEA0503334083EAFA
:105620000C031F444FEAF62383EAB61383EA76633A
:105630003B4401EB030B4FEA783744EA0801114081
:1056400087EAB80704EA0800014387EAB8570F441D
:105650001F445AF8041CD9F81C3009F120090B44E6
:105660009C4485EA060303EA0B036B409C444FEA23
:10567000FB2383EABB1383EA7B639C444FEA7733C3
:1056800083EAB70302EB0C0E83EAB75248EA07033A
:10569000234008EA07010B4313449C44064B9A45F8
:1056A0007FF4DEAEDDE90C030296AA466246DDF821
:1056B0005090059E0FE000BF9C660300664604956F
:1056C0000B9D069803950A9D0990CDE90A150C9B40
:1056D0000D98CDF814C00299119D81EA0B0C0CEACB
:1056E0000E0C8CEA01014FEAFE2C8CEABE1C8CEAFF
:1056F0007E6C8C444FEAF64181EA764181EA96213C
:10570000089E1D4429444FEAB64585EAF61585EA08
:10571000D6054E190899019D0893D9F840302E649A
:105720009C4442EA07054FEA72330696B44405EA00
:10573000080502EA070683EAB20383EAB253354357
:10574000D4441D446444AC44049D01444FEAF543F1
:1057500083EA754383EA95230E9D19444FEAB543C6
:1057600083EAF51383EAD503CB181946039E0E90FE
:1057700073190298D9F84460019D064469640E4487
:105780000C918EEA0B01214081EA0B018D194FEA41
:10579000F42686EAB41686EA7466711942EA0C00A9
:1057A0004FEA7C3602EA0C05384086EABC062843FC
:1057B00086EABC5606440E4488440F9909F1200934
:1057C0004FEAB14080EAF11080EAD1000344084674
:1057D0000B994518069903980F904FEAF14080EA1B
:1057E000714080EA91201818019B0D909864D9F8B7
:1057F00028309B448EEA040303EA080383EA0E037D
:10580000584403EB000B4FEAF82080EAB81080EA16
:10581000786000EB0B031F440297109F4CEA060BC5
:105820004FEAB74181EAF71181EAD70129440A9D7D
:105830004FEA763005EB070A0BEA020B0B9F0CEAE6
:10584000060580EAB6004BEA050580EAB6501097D7
:1058500028440C9D18444FEAF54383EA754383EAD4
:105860009523CD18019B029FDD64D9F82C3084EA82
:105870000801734439402B44614001EB030E4FEAA9
:10588000F72383EAB71383EA7763139F03EB0E01D1
:105890000B954FEAB7450A4485EAF715039246EAA5
:1058A000000B059A4FEA703385EAD7050BEA0C0B1B
:1058B000554483EAB00306EA000A02EB070E4BEAFE
:1058C0000A0A0D9A83EAB05353440B444FEAF2415B
:1058D00081EA724181EA922169180A9F019D13971A
:1058E0002965029FD9F83050039A2C4488EA0705AD
:1058F000154085EA08050C44129F2C444FEAF22516
:1059000085EAB2150A9185EA72654FEAB741049AB1
:10591000254481EAF7110CEB050A40EA030B07EB7B
:10592000020C4FEA7334059A81EAD7010BEA060BA1
:1059300084EAB304714400EA030E4BEA0E0E84EAD3
:10594000B35412920B9A74442C444FEAF24585EA00
:10595000724585EA92252944019D6965D9F834503C
:10596000A844DDE902757D4005EA0A057D408844CA
:10597000079FA8444FEAFA2585EABA154FEAB74EC1
:1059800085EA7A6545448EEAF71E72198EEAD70ECB
:1059900043EA04064FEA74380640F44488EAB4083F
:1059A00003EA040E46EA0E0688EAB458B0440A9E9A
:1059B000A8444FEAF64585EA764585EA9625AC4443
:1059C000019D04EA080EC5F858C0D9F83850029F66
:1059D00002922F44039D674485EA0A0616406E40F2
:1059E00037444FEAF22686EAB21686EA7266099AC8
:1059F0003E444FEAB24585EAF21500EB060B85EA14
:105A0000D2054FEA7837079A44EA0800184087EA37
:105A1000B80740EA0E00154487EAB857069A0744CB
:105A20004FEAF140154480EA7140049A80EA9120DF
:105A3000054407920198099A3744119200F1200613
:105A4000039AC565D9F83C000196024402982A449D
:105A50008AEA000000EA0B0080EA0A0002444FEAEA
:105A6000FB2080EABB1080EA7B60104403EB000E51
:105A70004FEA773248EA070382EAB702234008EA8E
:105A80000706334382EAB7521A44114B02444B458E
:105A90007FF414AE002015998B6813448B60CB689B
:105AA0000A6A1F440B69CF6043440B614B6923446E
:105AB0004B618B6973448B61CB695B44CB61029B07
:105AC0001A444B6A0A6253444B625FB0BDE8F08FE0
:105AD0001C6703002DE9F8430368064603F03F07FF
