:020000041000EA
:10000000002000082B0100100D0000008D010010E1
:1000100000000000000000000000000000000000E0
:100020000000000000000000000000008901001036
:10003000000000000000000089010010890100108C
:100040008901001089010010890100108901001048
:100050008901001089010010890100108901001038
:100060008901001089010010890100108901001028
:100070008901001089010010890100108901001018
:100080008901001089010010890100108901001008
:1000900089010010890100108901001089010010F8
:1000A00089010010890100108901001089010010E8
:1000B00089010010890100108901001089010010D8
:1000C00010B5064C2378002B07D1054B002B02D02E
:1000D000044800E000BF0123237010BDF8030008AE
:1000E00000000000D4150010044B10B5002B03D005
:1000F0000349044800E000BF10BDC04600000000F6
:10010000FC030008D41500100230800803D0013031
:100110000238FCD1C046C0467047EFF3108072B67B
:10012000704780F3108870477047FFF7FDFF72B685
:100130000F4C104DAC4209DA21686268A368043B99
:1001400002DBC858D050FAE70C34F3E70A490B4AEF
:100150000020521A02DD043A8850FCDC08480949A4
:100160000860BFF34F8F00F039FF00F0E9FEFEE7B3
:10017000E0150010F8150010F80300081406000838
:100180000000000808ED00E0FEE7FEE700B50420EF
:100190007146084202D0EFF3098002E0EFF30880D5
:1001A000043000F0CDFCFEE7014B18607047C046FC
:1001B00010060008044B1B681A00BA3212881B6A2A
:1001C0005043C0187047C046100600081D4B9842A7
:1001D0000FD010D840282FD005D8002830D01028B4
:1001E00028D019481EE0802828D080235B00984240
:1001F000F7D1144816E0154B984214D008D8A02324
:100200001B0698421CD0124B9842EAD1A0200BE06A
:10021000104B98420AD0104B984209D00F4B98428D
:10022000DFD10F487047A420C003FBE70D48F9E772
:100230000D48F7E70D48F5E70D48F3E70D48F1E7FE
:100240000020EFE706005200FF005200010000F01E
:10025000090000A0040000F0050000F0030000F019
:100260000100520002005200030052000100500041
:10027000020050000500520010B50020FFF79AFF61
:100280000A4B1C682300BC331B68C0180368002B92
:100290000ADB074B1868FFF799FF012263689A6031
:1002A0009A68002AFCD110BD0248FCE7100600083D
:1002B00014040008020050000D4B10B5186000280F
:1002C00004D0FE235B42038000234380094B1B685C
:1002D0001A0050321278002A08D051331B78002BB4
:1002E00004D002220449002000F0DAF810BDC04614
:1002F00024040008100600084501000810B5024853
:10030000FFF7DAFF10BDC046B8030008064B1B68B4
:10031000BC331B68C3181B68002B03DA89B2416029
:10032000002070470148FCE71006000801008A0021
:100330000368002B04DA89B2C26081600020704734
:100340000048FCE701008A00064B1B68BC331B68B1
:10035000C3181B68002B03DAC36800200B607047CA
:100360000148FCE71006000801008A00024B1A68E9
:10037000002A00D11860704728040008F0B52C242A
:100380006043154C1F0024681D0A2018FF242540D7
:100390002740124C1B0C26680760346A4560836056
:1003A000BA36368877433F1907612F0080376D01D1
:1003B0007F01E71964190A4D47611F043B43641923
:1003C000236000238361059BC2610162002B01D081
:1003D0001B888381F0BDC046280400081006000871
:1003E00008100000F0B5836885B002AD2B8003686B
:1003F000066A1933AB704368476A0095826AC16A1E
:10040000040003930369C068FFF7B8FF00213B00B5
:100410000A0000913000FFF7B1FF216B280000F0C7
:1004200043FB0022AB5E002B06DB1F2213401E3A6B
:100430009A401300014A136005B0F0BD00E100E0EE
:10044000F7B52C25134C6843266869433418256991
:1004500001937118002D19D08869002818D12E68D1
:10046000002E15DA6768012426004B689E40B446CA
:1004700013689EB263461B041E431660EA608C61DB
:10048000BC40019BA4B24B62AC60FEBD0248FCE7DD
:100490000248FAE72804000804028A0007028A00DA
:1004A0002C23434306480068C018C369934204D90B
:1004B000036A00209200D15070470248FCE7C04612
:1004C000280400080A028A0073B500264269040065
:1004D000D56801962B0CB34221D01B04136013681E
:1004E000194B00691B68BC331B68C3181B68B342F7
:1004F00015DA01A9FFF728FFB0420CD10198E26993
:1005000003681E0CDBB29A4205D9226A9B009B58F5
:10051000002B00D0984731002069FFF7F7FEADB2FD
:10052000002D09D063691D6000251B68636AAB421A
:1005300005D098476562A56163691B6873BDA36AAE
:10054000002BF8D09847F6E7100600082C2310B5CA
:100550004343034A1068C018FFF7B6FF10BDC046FA
:1005600028040008F8B5194B0F001B681A00333235
:100570001278824227D9002925D01F250A68154004
:1005800021D11900BA310C88114E60431C6AD2087F
:10059000041929007868346000F084FF29002000E5
:1005A000FFF7B4FE3A0029003068FFF7C1FE041ED1
:1005B00007D101003068FFF7A9FE03002000002BDF
:1005C00000D00448F8BD0448FCE7C0461006000807
:1005D0002C04000801018A0003018A0010B5002ADA
:1005E0000DD1002914D10B4B1A681300BA331B88A4
:1005F0005843136AC018084B1860080010BD002942
:1006000006D0064B196019005A60FFF7ABFFF5E7FB
:100610000348F3E7100600082C040008BC03000898
:1006200003018A00F7B5184F04003B680191DE68AA
:100630003368834226D90025A94202D1FFF76DFD18
:10064000050038680368002B1ADA1F2201232240B4
:10065000934064097268A4001419226813420DD0F3
:100660009A43226000240021FFF750FE019B002BDB
:1006700002D12800FFF755FD2000FEBD034CF2E734
:10068000034CF3E7034CF7E72C0400080201880051
:100690000301880004018A000A4B1B68DB681A68A2
:1006A00082420DD959681F23420918401E3B8340DE
:1006B000920050581840431E9841034BC018704791
:1006C0000248FCE72C0400080001880004018A00AD
:1006D000054B1B681A0088321B6812689B18186843
:1006E000000AC0B27047C04610060008044B1B68E1
:1006F0001A0088321B6812689B181868000E704731
:1007000010060008024B18694007C00F7047C0462A
:1007100000002740A6220549D2008B580220DB4367
:100720009B0702D0012388581840704700002640DC
:1007300010B5FFF7EFFF0023022801D1014B1B6822
:10074000180010BD34040008094A83009B18D02209
:100750009200985807221040042807D1C022920026
:1007600098581F2303408020400018437047C0461C
:100770000000264010B5FFF7E7FF03281CD005D87E
:10078000012816D023D9FFF7D3FF10BD1223FF3362
:10079000984213D01423FF33984215D0033B98425C
:1007A00010D10C4A0C4BD358002B0BDA80200002DE
:1007B000EBE70A4B1868E8E7094BFBE7FFF7A2FFF6
:1007C0000028F3D10020E0E7024A064BEBE7064899
:1007D000DBE7C046000026400C050000300400089E
:1007E0008C0400083C05000000127A00B023154A72
:1007F000DB00D35810B59903DB01DB0F890BC37104
:10080000114B0160D3580F24D904DB01DB0D0381A8
:10081000B123DB00D358C90C8180190021408172BB
:1008200019092140C172D9029B009B0F8373074BAA
:10083000C90CD35881815A05DB01520FDB0D82713F
:10084000038210BD00002640840500008C050000D6
:1008500010B5104B421E1B683F331B78934216D9CC
:100860007F221F248030FF300B4B8000C3581A407A
:100870000A701A0C2240180A8A701A012040E240BD
:10088000487000209B009B0FCA700B7110BD03487D
:10089000FCE7C046100600080000264001004A00A0
:1008A000F0B589B003AC14220021200000F0FAFD5D
:1008B0002000FFF79BFFB0231A4ADB00D258002329
:1008C0009A4203DAA37B023B5A1E9341E579002644
:1008D0006A1E95410135B34221D0A488B4421ED08E
:1008E000039B30000193FFF745FF2A003300070008
:1008F0003100200000F0C0FC0C0005003300019A1C
:100900003100380000F0B8FCE6076A08324363089B
:10091000801859412A00230000F08EFC06003000A8
:1009200009B0F0BD00002640F0B50026244B85B08C
:100930001B6807003F331B78B3423ED0B0423CD027
:1009400083423AD30522310002A800F0ABFD02A990
:100950003800FFF77DFF3B008033FF33194A9B00CF
:100960009B58B34229DA02AB1B79022B25D002AB8C
:100970005C78B44221D09D78B5421ED01B783800F7
:100980000193FFF7F7FE2A00330007003100200033
:1009900000F072FC0C0005003300019A31003800B1
:1009A00000F06AFCE6076A08324363088018594180
:1009B0002A00230000F040FC0600300005B0F0BD26
:1009C000100600080000264010B5041E04D1FFF7F1
:1009D00067FF002806D008E0064B1B683F331B78F2
:1009E000834203D22000FFF7C5FE10BDFFF79CFF36
:1009F000EFE7C04610060008E02210B50124094BBD
:100A000080009200C018835880589B069B0F9C4022
:100A10000F231840FFF7D8FF63081818210000F0D3
:100A20007FFB10BD00002640144B30B51A68072428
:100A300013002C331B781F2B15D883081D00A543EA
:100A40002C1E0FD103342040A040814012689B002F
:100A50002032D3180A00FF2181401C6862401140F7
:100A60006140196030BD802320401B06184380235D
:100A70009B011268C91889008850F3E71006000826
:100A8000064B9A680300064810339B00824202D14D
:100A9000985899507047034AD058FBE700ED00E0A2
:100AA0000000000800000010F8B506000D00002846
:100AB0003AD00023C05E002828DBB178FFF7B4FFEE
:100AC0000024FF22032794460023F05E716883B25E
:100AD0001F40FF006646BA4089013140D243B94009
:100AE000002815DB114E83089B009B19C026B60019
:100AF0009F593A40114399510D4B9A680D4B9A42B8
:100B000002D12900FFF7BCFF2000F8BD0A4CD8E74E
:100B10000F263340083B064E9B089B009B19DE695D
:100B200032401143D961E7E7034CEDE700E100E013
:100B300000ED00E00000000801005600FEE70000A4
:100B400002680A4B10B51A6042685A6082689A605F
:100B5000C268DA6002691A6142695A6182699A61FF
:100B6000C269DA61FFF7EAFF10BDC046D80300088A
:100B7000B0235B055A782120002A01D05878C0B2F2
:100B80007047B0235B059A89002A02D0988980B209
:100B9000704780204000FBE77FB5274B86000D00A3
:100BA000F458042901D0012927D100200FE0A368BF
:100BB0002B420BD1E36829001A685B68029201930B
:100BC000039302A8236898471C4B1C606469002C9F
:100BD0000BD01B4B9842EAD1012DE8D1174B184896
:100BE0001A68184B9A5104B070BD012DFBD1144BFB
:100BF0009842F3D0134B9C51F5E7022906D10F4BD5
:100C00001B68181EEFD01C6903E01C006369002BF1
:100C1000FBD10020002CE6D0A3682B4209D1E36869
:100C200029001A685B6802920193039302A8236863
:100C300098472469EEE7C046780400087404000869
:100C4000FF004200600400081A4B1B68190088313D
:100C50001A68096851180968016219008C3109681D
:100C60005218126842621A0046321278002A1FD0C7
:100C70009A68E0321268D2061AD5F222DB68D201F5
:100C80009A580260F022D2019A5842600A4A9A5851
:100C900082600A4A9A58C260094A9A580261094A0F
:100CA0009A584261084A9A588261084A9B58C3611F
:100CB0007047C0461006000804780000087800005D
:100CC0000C780000107800001478000018780000FC
:100CD0001A4B1B681A008832196812688A18016A50
:100CE00011601A008C32196812688A18416A116002
:100CF0001A0046321278002A1ED09A68E032126832
:100D0000D20619D5F0224168DB68D201995081687A
:100D10000B4A9950C1680B4A995001690A4A995087
:100D200041690A4A99508169094A9950C169094A39
:100D300099500168E83299507047C0461006000883
:100D400004780000087800000C780000107800009B
:100D50001478000018780000F7B50700FFF708FFC7
:100D6000664D06006B68002B00D07DE0FFF7D5F9DB
:100D70006B680090002B00D089E0614C2268130062
:100D8000BA33198807234B43126A9B181A68002A42
:100D9000FCDADB68DA0021D51B0F1B0759480193E9
:100DA000FFF752FF5849212E00D075E022689020AD
:100DB000130088331C68136800011C1923680B405A
:100DC0000343236013008C3312681B68D3181A681E
:100DD0001140084318604B4B019A13438022484E40
:100DE0009205316813430A00BA32108807220024A2
:100DF0004243096A5218D36054605368FFF7C1FE3A
:100E000080235B0098425DD1380000F061FB3268BE
:100E10001300BA33198807234B43126A9B181A68C8
:100E2000002AFCDADF68FB0003D538010009FFF770
:100E30004FFF364B32681F401300BA33198807231F
:100E40004B43126A00989B180022DF605A60FFF73C
:100E500068F9002C0FD16B68002B03D0082101200A
:100E6000FFF79AFE2000FEBD01210800FFF794FE67
:100E7000041E00D17AE76B68002B03D00221012009
:100E8000FFF78AFE224B9C42ECD0224CEAE7042179
:100E90000120FFF781FE70E720688022030088337D
:100EA0001C68036852001C1923680B40134323601D
:100EB00003008C3300681B68C318186801400A439C
:100EC0001A6088E733681A00BC32196A126852182F
:100ED0001168002910DBBA331B889A181368002B9D
:100EE0000ADB04230C4A11690B431361012F01D063
:100EF00030BF8CE720BF8AE7054C88E778040008FC
:100F00001006000838040008FF00FFFFFFFFFFDFA6
:100F100005004200FF00420000ED00E0C0228020FA
:100F2000064952008B58C0059B009B0803438B5019
:100F3000802388581B0603438B50704700002640CF
:100F400010B562B6034800F0C1F80020FFF704FFB7
:100F5000FBE7C0460020001010B50020FFF7F6FAAE
:100F600010BD704710B50020FFF746FD041E25D0C8
:100F7000134B1860FFF7BAFB411C200000F0D0F8BB
:100F8000104B04001860FFF7A3FB411C200000F089
:100F9000C7F80D4B441E18600C49200000F0C0F843
:100FA000FA210B4B013018708900200000F0B8F8CE
:100FB000084B01301860084BC003186010BDC046D4
:100FC000C4000008C8000008C000000840420F002C
:100FD000D4000008D0000008CC00000810B521485B
:100FE000FFF7E2F8B022E02130201F4CD200A358D6
:100FF00089005B005B08A3506358834363508023E0
:101000005B04A350194B1A4AE250A0220433920108
:10101000E250FF22174BE250FFF780FFC022012170
:101020005200A3588B43A350FFF79BFFFFF79AFF93
:10103000114B03201A681300BA33198807234B4356
:10104000126A80219B180022DA605A600B4AFFF76F
:10105000C5FA0B48FFF78AF90A48FFF7C3F9FFF70B
:101060004DF910BDE014001000002640840500007A
:10107000010002008C05000010060008C4030008EF
:1010800090040008A0150010024BD86F03231840ED
:101090007047C0460400214010B5FFF73EF80749ED
:1010A000074ACB6F1A40074B1343CB6710230649FF
:1010B0000A681A42FCD0FFF734F810BD0400214042
:1010C000FCFF00000100FA058800214070B50F4CBC
:1010D0000600FFF722F8E36F0500DB439B0701D111
:1010E000FFF7DAFFB0230A4A9B00D650E36F094AA4
:1010F00009491A40094B1343E36710230A681A424F
:10110000FCD02800FFF70DF870BDC0460400214058
:1011100000002140FCFF0000880021400300FA0588
:10112000002243088B4274D303098B425FD3030A26
:101130008B4244D3030B8B4228D3030C8B420DD339
:10114000FF22090212BA030C8B4202D312120902C7
:1011500065D0030B8B4219D300E0090AC30B8B4205
:1011600001D3CB03C01A5241830B8B4201D38B03B3
:10117000C01A5241430B8B4201D34B03C01A524158
:10118000030B8B4201D30B03C01A5241C30A8B429B
:1011900001D3CB02C01A5241830A8B4201D38B0286
:1011A000C01A5241430A8B4201D34B02C01A52412A
:1011B000030A8B4201D30B02C01A5241CDD2C3099C
:1011C0008B4201D3CB01C01A524183098B4201D318
:1011D0008B01C01A524143098B4201D34B01C01A03
:1011E000524103098B4201D30B01C01A5241C3087B
:1011F0008B4201D3CB00C01A524183088B4201D3EA
:101200008B00C01A524143088B4201D34B00C01AD5
:101210005241411A00D20146524110467047FFE741
:1012200001B5002000F006F802BDC0460029F7D045
:1012300076E770477047C046002B11D1002A0FD1C6
:10124000002900D1002802D00021C943081C07B49E
:10125000024802A14018029003BDC046D9FFFFFF1B
:1012600003B4684601B5029800F030F8019B9E4631
:1012700002B00CBC7047C046F0B5CE4647461504D8
:101280002D0C2E0080B50704140C3F0C9946030C5E
:101290007E435D43674363437F19340CE4199C46E6
:1012A000A54203D980235B029846C4444B4643437E
:1012B0005143250C36046544360C2404A4195B19EB
:1012C000591820000CBC90469946F0BDF0B54F4629
:1012D0004646D646C0B5040082B00D0091469846F9
:1012E0008B422FD82CD04146484600F0CFF8290039
:1012F0000600200000F0CAF8331A9C46203B9A46AC
:1013000000D576E04B46524693401F004B4662465E
:1013100093401E00AF4228D825D05346A41BBD41A0
:10132000002B00DA7BE000220023009201930123CE
:10133000524693400193012362469340009318E084
:101340008242D0D900220023009201930A9B002BF5
:1013500001D01C605D600098019902B01CBC9046F1
:101360009946A246F0BDA342D7D90022002300929D
:1013700001936346002BE9D0FB079846414672086B
:101380000A437B0866460EE0AB4201D1A2420CD86C
:10139000A41A9D41012024196D410021013E241809
:1013A0004D41002E06D0AB42EED9013E24196D41CD
:1013B000002EF8D100980199534600196941002B7D
:1013C00023DB2B005246D3402A006446E2401C0037
:1013D00053461500002B2DDB26005746BE40330038
:1013E00026006746BE403200801A99410090019164
:1013F000ACE7624620239B1A4A46DA406146130056
:1014000042468A4017001F4380E7624620239B1A0A
:101410002A0066469A402300F3401343D4E762460D
:10142000202300219B1A0022009101920122DA4020
:10143000019280E72023624626009B1ADE402F009F
:10144000B0466646B74046463B003343C8E7C04611
:101450001C2101231B04984201D3000C10391B0AE4
:10146000984201D3000A08391B09984201D30009A8
:10147000043902A2105C40187047C04604030202FF
:1014800001010101000000000000000010B500296A
:1014900003D1FFF7DDFF203002E0081CFFF7D8FF83
:1014A00010BDC04603001218934200D17047197056
:1014B0000133F9E7F8B5C046F8BC08BC9E46704752
:1014C000F8B5C046F8BC08BC9E4670470000000056
:1014D00001B40248844601BC604700BFA102000875
:1014E0000000214000002540000001400000344081
:1014F00000002440000031400000324000001F4145
:10150000000023400000114000001D411010101089
:10151000101010101010108019005500F000050177
:1015200005013B04101C01010FC000000004000075
:1015300001010101011D3A577896000000000008E2
:101540002000101208000000001F00000010000F13
:10155000002000023F06080E00080009000A000BE8
:1015600024282C30340000001000000090000000FF
:1015700088000000080000008000000004F0000067
:1015800000F00000400200002005A000D001000192
:101590008001A00140019001B00120001000000076
:1015A0000300000001000000010000000000000036
:1015B00005036000040000000100000000000000BE
:1015C000010000000604600008000000F0050008AB
:1015D000590F001000000000F4FCFF7F0100000024
:1015E0000000001000000008C000000000160010FD
:1015F000C0000008F8020000F80300081C02000008
:1016000000093D0000127A0000093D000000D007EB
:10161000A00F000004000000E9000010C10000104D
:1016200080B230B5C00020D0104B07221C682300C8
:10163000BA331B885A43236AD31819680029FCDA85
:101640003E210B4B062519600A4B0B491960A3215B
:101650000A4BC9005D500A4958505858206A121860
:10166000002050605A58002AFCDA30BD10060008ED
:1016700004012640080126401E1F000000002640ED
:101680001C05000010B54378FF2B11D100F004F9C0
:101690000400032000F008F9C3685A6801231168A8
:1016A0001943116011681942FCD1200000F0E4F8E0
:1016B00010BDF7B500900020019100F0F5F83F4D06
:1016C00006002B681A005033BC3214681B780419CA
:1016D000002B5AD000F0F8F8070003281BD000F0C8
:1016E000DBF8374A374B0500D358002B3EDA364A31
:1016F0000121300000F0F0F8002837D10198FFF701
:101700008FFF009B002B3ED02368002BFCDB00F0FA
:10171000ABF804002BE0062000F0C6F82B68BC33C1
:101720001B68C0180368002B02DA284C2000FEBD9D
:10173000002000F0A9F8264B9842F6D00023254A55
:1017400019001268012000F0B7F80025A842ECD17A
:10175000002000F099F81E4A1F4B904203D09D4292
:10176000E3D00135F4E79D42B9D1DEE7174C032FF2
:1017700005D10121002000F0B7F80028F9D1280098
:1017800000F07AF8D2E7154CF1E700F085F80E4A40
:1017900005000121300000F09FF8002809D1009BCE
:1017A000002B08D02368002BFCDB00F05DF8040060
:1017B000E5E7064CE3E7094CE1E7C0461006000800
:1017C000000026401C05000014040008050052001B
:1017D0000101880024040008F049020001005000C3
:1017E000184BF7B51B68184A5C68042311690B4352
:1017F0001361012824D030BF2300FC331B69002B68
:101800001DD1A320114B1249124AC0000F681E5867
:1018100015680195104D0D6006251D503E20106085
:101820000E483E351D501D58002DFCDA0C48FC3486
:1018300020610F60A321C9005E50019B1360F7BDBA
:1018400020BFD9E71006000800ED00E000002640A8
:1018500008012640040126401E1F00001C05000050
:10186000AAAAAAAA0000000001B40248844601BC4A
:10187000604700BF7902001001B40248844601BCF1
:10188000604700BF2301001001B40248844601BC38
:10189000604700BF9906001001B40248844601BCAD
:1018A000604700BF1B01001001B40248844601BC20
:1018B000604700BFB501001001B40248844601BC76
:1018C000604700BF4104001001B40248844601BCD7
:1018D000604700BF8910001001B40248844601BC73
:1018E000604700BF3103001001B40248844601BCC8
:1018F000604700BF25060010000000000000000047
:1019000000000000000000000000000000000000D7
:0419100000000000D3
:1020000000780408D12200100D00000045230010C4
:102010004523001045230010452300100000000058
:10202000000000000000000000000000412300103C
:102030004123001000000000412300104123001044
:1020400041230010412300104123001041230010C0
:1020500041230010412300104123001041230010B0
:1020600041230010412300104123001041230010A0
:102070004123001041230010412300104123001090
:1022800041230010412300104123001010B5054CDC
:10229000237833B9044B13B10448AFF30080012312
:1022A000237010BD002F00080000000024CD051091
:1022B00008B5034B1BB103490348AFF3008008BDC9
:1022C00000000000042F000824CD0510704770475F
:1022D000FFF7FCFF72B6144C144DAC4209DA2168CA
:1022E0006268A368043BA2BFC858D050FAE70C3418
:1022F000F3E70F490F4A00209142BCBF41F8040B9D
:10230000FAE70D480D490860BFF34F8F03F094FFC3
:1023100003F076FFFFF7DBFF47F07EFC1BF0FCFECF
:1023200047F046FCFEE7000030CD051048CD051013
:10233000002F00086C5901080020000808ED00E09B
:10234000FEE7FEE700B504207146084202D0EFF335
:10235000098002E0EFF30880043028F08DFDFEE7ED
:102360002DE9F047894645684E68D2F804A04988AF
:10237000B0F802E0B0F8008000274EE092ED007A5D
:10238000D3ED006A27EE267A77EE877A03EB810396
:1023900092ED017AD3ED006A27EE267A77EE877AFE
:1023A00003EB810392ED027AD3ED006A27EE267AE1
:1023B00077EE877A03EB810392ED037AD3ED006A1F
:1023C00027EE267A77EE877A03EB81030138103205
:1023D0000028D3D10EF003000AE0B2EC017AD3ED6D
:1023E000006A27EE267A77EE877A03EB81030138BD
:1023F0000028F2D1ECEC017A013C0B1B06EB8303C5
:102400002CB14FEA9E002A46DFED087AE0E70F4440
:1024100005EB8E05B8F1010805D00AEB870CD9F859
:1024200004300C46EDE7BDE8F08700BF0000000077
:1024300007EE901A436852680188408800FB01F15A
:1024400088081AE093ED007A27EE277A82ED007A69
:1024500093ED017A27EE277A82ED017A93ED027AE5
:1024600027EE277A82ED027A93ED037A27EE277A18
:1024700082ED037A0138103210330028E2D101F0E6
:10248000030106E0B3EC017A27EE277AA2EC017A89
:1024900001390029F6D10020704770B542684E68B6
:1024A000018845880C464FF0000E2BE0D2F800C0A2
:1024B000C3F800C003EB8103D2F804C0C3F800C026
:1024C00003EB8103D2F808C0C3F800C003EB81031B
:1024D000D2F80CC0C3F800C003EB810301381032FE
:1024E0000028E3D105F0030006E052F804CBC3F85E
:1024F00000C003EB810301380028F6D10EF1010E74
:10250000013C03D006EB8E03A808E9E770BD70B567
:10251000F0EC017A4C1EA5084FF0000C664603E073
:102520000CF1040C013D704675B390ED007AF4EEA9
:10253000C77AF1EE10FA03D50CF10106F0EE477AF6
:1025400090ED017AF4EEC77AF1EE10FA03D50CF1B2
:102550000206F0EE477A90ED027AF4EEC77AF1EED9
:1025600010FA03D50CF10306F0EE477A00F1100ED5
:1025700090ED037AF4EEC77AF1EE10FAD0D50CF1B3
:102580000406F0EE477ACBE704F0030400E0013CD8
:1025900054B1B0EC017AF4EEC77AF1EE10FAF6D548
:1025A0000E1BF0EE477AF2E7C2ED007A1E6070BDB6
:1025B00070B5F0EC017A4C1EA5084FF0000C664691
:1025C00003E00CF1040C013D704675B390ED007A08
:1025D000F4EEC77AF1EE10FA03DD0CF10106F0EE2D
:1025E000477A90ED017AF4EEC77AF1EE10FA03DD46
:1025F0000CF10206F0EE477A90ED027AF4EEC77A1B
:10260000F1EE10FA03DD0CF10306F0EE477A00F16B
:10261000100E90ED037AF4EEC77AF1EE10FAD0DDE9
:102620000CF10406F0EE477ACBE704F0030400E077
:10263000013C54B1B0EC017AF4EEC77AF1EE10FA35
:10264000F6DD0E1BF0EE477AF2E7C2ED007A1E606F
:1026500070BD000010B514468B08DFED1F7A19E03D
:1026600090ED007A27EE077A77EE277A90ED017ADF
:1026700027EE077A37EE277AD0ED027A67EEA77A4F
:1026800037EE877AD0ED037A67EEA77A77EE877A0E
:10269000013B1030002BE3D101F0030306E0B0EC66
:1026A000017A27EE077A77EE877A013B002BF6D185
:1026B00007EE101AB8EE477AC7EE876AF5EEC06AE1
:1026C000F1EE10FA05DB16EE900A43F089F920606E
:1026D00010BD00232360FBE70000000093082CE0FE
:1026E000B0F900C007EE10CAB8EEC77ADFED1D6A78
:1026F00027EE267A81ED007AB0F902C007EE10CA03
:10270000B8EEC77A27EE267A81ED017AB0F904C0D7
:1027100007EE10CAB8EEC77A27EE267A81ED027A64
:10272000B0F906C007EE90CAF8EEE77A67EEA67A2F
:10273000C1ED037A013B08301031002BD0D102F0FB
:1027400003020CE030F9023B07EE903AF8EEE77A2C
:102750009FED047A67EE877AE1EC017A013A002A6C
:10276000F0D170470000003830B54FF0000E1DE08A
:1027700032F81EC04FEA9C0C0EF1010332F8133000
:102780009B0850F82C4050F8235040F82C5040F84B
:1027900023400CF1010C50F82C40013350F8235029
:1027A00040F82C5040F823400EF1020E7145DFD85E
:1027B00030BD2DE9F0412DED028B90B00646084664
:1027C000358801EB850774684FEA550801EB880EE0
:1027D00007EB880CED083A460B46CFE093ED005A24
:1027E0008DED0C5A93ED016A8DED0D6A93ED021A91
:1027F0008DED0E1A93ED037A8DED0F7A92ED000AAE
:102800008DED080AD2ED010ACDED090A92ED023AEA
:102810008DED0A3AD2ED031ACDED0B1A9EED002A8A
:102820008DED042ADEED012ACDED052A9EED024A4A
:102830008DED064ADEED034ACDED074ADCED005A88
:10284000CDED005ADCED016ACDED016ADCED023A16
:10285000CDED023ADCED037ACDED037A35EE008A58
:1028600083ED008A36EE208A83ED018A31EE038AF9
:1028700083ED028A37EE218A83ED038A35EE405AD2
:102880008DED085A36EE606A8DED096A31EE433AF5
:102890008DED0A3A37EE617A8DED0B7A72EE251ADC
:1028A000CEED001A72EEA61ACEED011A74EE231ABE
:1028B000CEED021A74EEA71ACEED031A75EEC25AC7
:1028C000CDED005A76EEE26ACDED016A73EEC42AD0
:1028D000CDED022A77EEE47ACDED037AD4ED004A0D
:1028E00094ED014A65EE243A26EE042A26EE246A87
:1028F00025EE045A73EE823AC2ED003A36EE456A8E
:1029000082ED016A25EE846A26EEA45A66EE846A98
:1029100065EEA45A36EE456A8CED006A76EEA56A3D
:10292000CCED016A94ED026AD4ED035A23EE065A07
:1029300067EE254A27EE067A63EE256A35EE245ABD
:1029400082ED025A37EE667A82ED037A62EEA56A6C
:1029500027EE865A67EEA57A22EE867A76EEC56A6B
:10296000CCED026A77EE877ACCED037A013D103424
:1029700010320CF1100C0EF1100E1033002D7FF4FC
:102980002DAF1FFA88F802237268414600F0D6FA8C
:10299000022372684146384600F0D0FA10B0BDEC10
:1029A000028BBDE8F0812DE9F04F2DED048B95B041
:1029B000054606900C46079103885B0801EB8302ED
:1029C000039201EBC3010E46049101EB83000590D5
:1029D000171FA0F1040C0CEB83016D685B080293D8
:1029E000234694ED007A3446A6F10408D6ED007A29
:1029F00037EE272A37EE677AD3ED017AD6ED016AF2
:102A000077EEA62A77EEE67A92ED013A73EE073A70
:102A1000D0ED016A73EEE63ACDED103AD2ED005AF0
:102A200037EEE54A90ED006A34EE064A8DED114A24
:102A300072EE654A74EEC64ACDED0C4A32EEC35AC8
:102A400035EE665A8DED0D5A37EE437A36EE877ABB
:102A50008DED087A75EEA77A77EEC67ACDED097A14
:102A600075EE825A36EE256A9E461E46083683ED7E
:102A7000006AD2ED016A76EEA26A034690ED016A21
:102A800076EE866ACEED016A10460832C0ED003A55
:102A900080ED014A20460830C4ED004A84ED015A19
:102AA0001C46083384ED007AC4ED017A05F1080A6A
:102AB00005F1100405F1180E029DA5F1020B4FEA75
:102AC0005B0B22E1D6ED006AD0ED007A76EEA73AF4
:102AD00076EEE76A96ED017AD0ED017A37EE274A75
:102AE00037EE677AD2ED017A37EEA62A93ED013AF6
:102AF00032EE432A8DED102AD2ED004A77EE645A69
:102B000093ED006A75EE865ACDED115A73EEE42A04
:102B100072EEC62ACDED0C2A34EE675A35EE435AD2
:102B20008DED0D5A76EEE76A33EE263A8DED083AD2
:102B300034EE877A77EE467ACDED097A74EEA34AC1
:102B400036EE246A3546083586ED006A019592ED29
:102B5000017A37EE047AD3ED016A37EE267A86EDF4
:102B6000017A57ED016A1CED017A76EE878A76EEDE
:102B7000C76A97ED007A9CED000A77EE001A37EEEF
:102B8000400AD8ED000A91ED001A30EEC19A39EEF4
:102B9000264A8DED124A18ED018A70EE483A11ED81
:102BA000017A73EE873ACDED133A78EEC84A74EEA7
:102BB000C74ACDED0E4A31EEE06A36EE416A8DED40
:102BC0000F6A79EE666ACDED0A6A37EE487A37EE1B
:102BD000407A8DED0B7A70EEA10A31EE201AA7F142
:102BE000080587ED001A58ED011A71EEA81A11EDCB
:102BF000011A71EE811A47ED011A0AF10809DAED9E
:102C0000001A9AED011A62EE210A25EE810A65EE9C
:102C1000A15A22EE012A70EE800A02F1080AC2EDE2
:102C2000000A75EEC25AC2ED015A63EE815A24EED3
:102C3000212A24EE014A63EEA13A75EEC25AA8F1A8
:102C40000806C8ED005A34EE234A08ED014A94ED17
:102C5000004AD4ED015A103462EE843A25EE252A5A
:102C600025EE045A62EEA52A73EE823A0246083235
:102C7000C0ED003A35EE625A80ED015A26EE445A14
:102C800064EEA53A64EE844A26EE256A75EE635A30
:102C9000ACF10807CCED005A36EE646A0CED016A1F
:102CA0009EED006ADEED015A0EF1180E23EE065A73
:102CB00067EEA54A67EE867A23EE253A35EE245A6A
:102CC0001846083083ED005A77EEC37AC3ED017AD7
:102CD00067EE257A26EE865A66EEA56A27EE067A14
:102CE00077EEC57AA1F1080CC1ED007A36EE877A4D
:102CF00001ED017A0BF1FF3B034610465246CA46EE
:102D00006146BC46B0462F46019EBBF1000F7FF4E2
:102D1000D9AE96ED004AD0ED004A34EE242A34EEC6
:102D2000644A96ED015AD0ED017A75EE272A35EE08
:102D3000675AD2ED017A77EE845AD3ED014A75EEE7
:102D4000E45ACDED105A92ED003A75EE436AD3ED98
:102D5000003A76EEA36ACDED116A32EE436A36EEA2
:102D6000636A8DED0C6A32EEE77A37EE647A8DEDA8
:102D70000D7A34EE674A74EE844ACDED084A33EE9C
:102D8000055A75EE637ACDED097A33EE023A73EEA9
:102D9000833AC6ED003A92ED015A35EE225A93ED90
:102DA000014A35EE045A86ED015ADAED003A9AED01
:102DB000014A25EEA35A26EE843A66EEA36A65EE32
:102DC000845A35EE035A82ED005A76EEE56AC2ED7A
:102DD000016A94ED005AD4ED015A66EE056A27EEB9
:102DE000254A27EE057A26EE256A76EE846AC0ED3E
:102DF000006A37EE467A80ED017A9EED006ADEEDDC
:102E0000016A24EE867A67EEA65A67EE867A64EE49
:102E1000A64A37EE257A83ED007A77EEE47AC3EDA1
:102E2000017ABDF808400423069D6A682146079888
:102E300000F084F804236A682146039800F07EF8C5
:102E400004236A682146049800F078F804236A682D
:102E50002146059800F072F815B0BDEC048BBDE872
:102E6000F08F2DE9F04106460C4617469846058836
:102E7000012A0FD0B5F5807F21D025D8402D2AD04A
:102E800019D9802D34D0B8F1000F36D1012F3AD0A6
:102E9000BDE8F08101F1040C002109E0DCED007ACD
:102EA000F1EE677A63460CF1080CC3ED007A01314C
:102EB000A942F3D3DEE7102D1AD0202DE3D121460D
:102EC0003046FFF770FDDEE7B5F5006FF7D009D9A2
:102ED000B5F5805FD7D1012372682946204600F0FE
:102EE0002DF8D0E7B5F5007FF5D0B5F5806FCAD1E4
:102EF00021463046FFF75DFCC5E7B268B189204640
:102F0000FFF732FCC2E707EE905AF8EE677AF7EE69
:102F1000006A86EEA77A00230DE0D4ED007A67EE12
:102F2000877AC4ED007AD4ED017A67EEC77AC4EDF2
:102F3000017A08340133AB42EFD3A9E72DE9F04F12
:102F40002DED0E8B8DB08146079108920B93069163
:102F5000069B4FEAD30A4FF0000E0EEB0A010EEB70
:102F60004A030AEB030503EB4A020AEB020602EBF3
:102F70004A070AEB070B4FEACE0809EBCE0090EDAB
:102F8000007A4FEAC20C09EBC202D2ED007A77EE6A
:102F9000276A37EE677ACC00019409EBC1010291F0
:102FA000D1ED005AF10009EBC6060396D6ED007A82
:102FB00035EEA76A75EEE75ADE0009EBC30393ED21
:102FC000005AFC00049409EBC707D7ED007A75EEB0
:102FD000274A75EE677AEC00059409EBC50509955B
:102FE000D5ED003A4FEACB040A9409EBCB0B9BEDED
:102FF000004A33EE845A73EEC43A76EEE40A76EE73
:10300000A46A36EE451A36EE056A36EE865A80ED2B
:10301000005A76EEC66AC2ED006A08F10408C84498
:1030200098ED006A0CF1040CCC44DCED006A36EE3D
:10303000265A76EE664A019C04344C4494ED006AAC
:1030400004314944D1ED006A36EE263A36EE666A1E
:1030500004364E4496ED004A049A151D4D44D5EDB4
:10306000006A34EE262A34EE664A059A04324A444F
:10307000D2ED006A0A9804304844D0ED002A76EE7A
:10308000A21A76EEE26A75EE422A35EE025A33EE65
:10309000612A33EE213A75EE031AC8ED001A35EEB7
:1030A000435A8CED005A30EE825A83ED005A30EECE
:1030B000C23A87ED003A32EEC15A86ED005A31EE3F
:1030C000225A85ED005A35EEE35ADFEDF12A25EE5E
:1030D000225A75EEA35A65EEA25A36EE663A23EEF0
:1030E000223A76EE266A66EEA26A77EE453A37EE27
:1030F000057A37EEE55A77EEA57A74EEC35A34EEC8
:10310000836A74EE664A74EE266A37EE264A029B9C
:1031100083ED004A37EE667A8BED007A33EEA47ABF
:10312000039E86ED007A73EEE43A099DC5ED003A00
:1031300036EE677A84ED007A77EE867AC0ED007A13
:1031400075EEC57AC1ED007A35EE255A82ED005A4A
:10315000069B9E44079B73453FF6FFAEBAF1070FEF
:1031600040F2BA8101230A9300230993D046099CB7
:103170000B9B1C4404EB440204EB8403E71803EBB1
:103180004406E500089800EBC401D1ED008A214611
:103190002401099100EB011191ED008A4FEAC20C64
:1031A00000EBC20292ED000A09984101089A02EB75
:1031B0004012D2ED000ADA00089800EBC30393ED49
:1031C000001AFB0000EBC707D7ED001AF70000EB71
:1031D000C60696ED002A043506460544D5ED002ABC
:1031E0000434044494ED003A0CF104003044D0ED72
:1031F000003A0431314491ED004A04323244D2EDB8
:10320000004A0433334493ED005A04373744D7ED72
:10321000005A0A9B9A460AEB08000AEB480308EB9F
:10322000030403EB480208EB020602EB480108EB3B
:10323000010B4FEACA0E09EBCA0595ED009A4FEA59
:10324000C20C09EBC202D2ED007A79EE276A39EEA0
:1032500067AAC700019709EBC000029090ED006AD1
:10326000F00009EBC6060396D6ED007A36EE277A13
:1032700036EE67CADF0009EBC30393ED006ACE00A8
:1032800009EBC1010491D1ED007A76EE279A76EE32
:10329000677AE10009EBC4040594D4ED00AA4FEA73
:1032A000CB0409EBCB0B9BED006A3AEE869A3AEE23
:1032B000C66A36EEE9DA76EEA96A37EE49EA37EE03
:1032C000097A36EE879A85ED009A76EEC7EA0EF116
:1032D000040ECE449EED00BA0CF1040CCC44DCED9F
:1032E000006A3BEE267A3BEE66BA019D04354D44FA
:1032F000D5ED00BA04304844D0ED006A7BEEA6CA92
:103300007BEEE6BA04374F44D7ED00AA04364E44AC
:10331000D6ED006A7AEEA69A7AEEE6AA043149441E
:1033200091ED009A04344C44D4ED006A79EE26DA2B
:1033300079EE666A37EE699A37EE297A7CEEED9A75
:103340007CEEADCA7DEE29DA3DEE69DA77EE2C9A95
:10335000CEED009A37EE6C7A79EE4E9A3EEE099AEF
:1033600060EEAECA24EE07EA20EE877A64EE2EEA1B
:103370007CEE8ECAC2ED00CA37EE6E7A8CED007A12
:1033800028EE2D7A63EE29CA68EE299A63EE2DDACB
:1033900037EE2C7A83ED007A79EEED9AC7ED009A3C
:1033A00021EE8D7A65EE099A21EE899A25EE0DDAE5
:1033B00037EE297A049A82ED007A39EE4D9A86ED3D
:1033C000009A3CEE469A9FED327A29EE079A3CEE3F
:1033D000066A26EE076A3BEEE6CA2CEE07CA7BEECB
:1033E000A66A66EE876A7AEE499A3AEE099A77EE0D
:1033F000C6BA77EE867A7BEE4CCA3BEE0C6A3AEEA2
:10340000E6AA7AEEA66A39EE26BA39EE667A79EE3F
:103410008AAA79EECA9A76EE676A77EE867A3CEEE9
:10342000EBAA3BEEAC9A28EE8B6A62EEA6BA68EE87
:10343000A66A22EE8BBA36EE2B6A029B83ED006AF7
:1034400076EECB6AC5ED006A62EE076A25EEA7BA92
:1034500062EE277A25EE876A36EE8B7A8BED007A5C
:1034600077EEC67AC4ED007A61EE2A7A24EE8A6A93
:1034700021EE0A7A64EEAA6A77EE867A039EC6ED9A
:10348000007A37EE667A80ED007A60EE296A01E014
:10349000F304353F23EE896A60EE097A23EEA97AB8
:1034A00076EE866A059CC4ED006A77EEC77AC1EDB8
:1034B000007A069B9A44079B53453FF6ACAE0A9BA5
:1034C00001330A9398453FF652AE0B9BDB009BB24B
:1034D0000B93CDF818803BE50DB0BDEC0E8BBDE82D
:1034E000F08F00BF00B54369B0F800C00CF1FF3C9D
:1034F000D1ED007A91ED017A03F1080077EEA77A19
:1035000037EE077A77EE876AB6EE006A66EE866A6D
:1035100013460833C2ED006A77EEC77A67EE867A03
:10352000C2ED017A01EBCC0E08319EED015A7246D4
:10353000AEF1080E92ED007AD1ED004AD1ED017A9C
:10354000D0ED006AD0ED015A083037EE646A35EEEE
:10355000274A66EE863A25EE866A66EE846A65EE4E
:10356000845A37EE247A37EE237A37EE257AF6EE50
:10357000005A27EE257A83ED007A77EEC57A77EE4A
:10358000867A77EEE67A1A46083367EEA57AC2EDB8
:10359000017A08310CF1FF3CBCF1000FC5DC5DF88D
:1035A00004FB10B5436900880138D1ED007A91ED34
:1035B000016A03F1080E37EE867AF6EE006A27EE0E
:1035C000267A02F1080C82ED007A77EEC67A67EE71
:1035D000A67AC2ED017A01EBC004083137E094ED20
:1035E000015A2346083C93ED007AD1ED005AD1ED03
:1035F000017A72460832DEED006A9EED016A35EE10
:10360000C74A75EE274A26EE843A66EE243A26EE3D
:10361000046A66EEA46A37EE257A37EE437A37EE0F
:10362000637AF6EE005A27EE257A634608338CED6E
:10363000007A77EEC57A77EE867A77EEE67A67EEED
:10364000A57ACCED017A0831013896469C460028CF
:10365000C5DC10BDF8B504460D4616461F4643B1FD
:10366000FFF79FFF01233A4631462046FFF7F9FB5B
:10367000F8BD01233A46FFF7F4FB324629462046BF
:10368000FFF730FFF4E730B589B0119CA56815F05D
:10369000030F10D1129D06950594109C04940F9C65
:1036A00003940E9C02940D9C01940C9C009400F0D9
:1036B00052F809B030BD6FF00200FAE7C0688B68BD
:1036C00003FB00F04B6803FB00F08000704770B50F
:1036D0008AB0DC6814F0030F2CD1086900282CD1C3
:1036E000486900282CD1886801282CD1C868012895
:1036F0002CD198685D6805FB00F01B6803FB00F0A7
:10370000139BDD68136852684E6A08960E6A079626
:103710004E680696096805910494039502900192FB
:103720000093149B129A10990E9800F076FC0020DA
:103730000AB070BD6FF00200FAE76FF00200F7E721
:103740006FF00200F4E76FF00200F1E76FF00200A3
:10375000EEE7002070472DE9F04FA3B02D9D319C7E
:1037600000680F901868209098680A90586809902F
:10377000D3F80CA01FFA8AF31693D5F808B01FFAF5
:103780008BF317936B680B939BB21893A3681093FA
:1037900063682193E3681E939BB21F930B690C939C
:1037A0004B6912938B680D93CB6813930B680E9340
:1037B0004B6819930B6A1A934B6A1B9313681C93FB
:1037C00053681D9300231593A0E01FFA8AF252005C
:1037D0000021284646F04CFC1FFA8AF305EB43050E
:1037E0000134089B13FA8BF3A34218DD002EECDBA7
:1037F000BDF824309E42E8DA002CE6DBBDF8280054
:10380000A042E2DD06FB00401FFA8AF2BDF9383023
:1038100029462C9F02FB007001F055F9DCE70136C8
:10382000BDF82C3003EB0802B24209DDBDF834705C
:1038300009FB07F7BDF83030FF1A3C460897D0E780
:103840001FFA8AF203FB02F21FFA8BF302FB03F367
:103850000F9A02EB8303AB4210D009F10109BDF8C6
:10386000403099452ADABDF84C80119B03FB08F8DB
:10387000BDF84830A8EB03084646D1E7149B0693F1
:10388000309B0593169B189A13FB02F3179A13FBB0
:1038900002F39BB20493BDF96C300393BDF9683019
:1038A0000293199B01931C9B00931D9B1F9A0F9DD4
:1038B00029462E9800F053F91490CEE7119B01335E
:1038C0001193BDF884C0119B634502DA4FF00009E3
:1038D000C5E70F9B9D4240F0A580BDF82830BDF89C
:1038E000242002FB03F31FFA8AF22C9903FB021334
:1038F0002C93BDF840300CFB03FCBDF87830329AB5
:103900000CFB03233293159B01331593BDF88030D4
:10391000159A9A4280F28B80329B14930F9D00235C
:103920001193CEE700216BE054F8042B4FEA3228C4
:103930002FFA88F82FFA82F2C8EA224EC2EA084229
:10394000D3F8008022FB0812596808332EFB0122AD
:103950001146013EB6B2002EE6D1169A189E12FB11
:1039600006F2179E12FB06F202F0030207E014F9BA
:10397000016B33F902EB0EFB0611013A92B2002AF9
:10398000F5D155F827301D9A52F8276026EAE672DD
:1039900001FA02F2D1174FEAE37E03FB01F102FBC9
:1039A0000E11A3FB023213F1804341EB0202DB0F45
:1039B00043EA4203002E31DD00260122B240013AE3
:1039C00003EA0201521033412AD4914200DD01334F
:1039D000199A13441A9A9342B8BF13461B9A9342FA
:1039E000A8BF1346149A02F8013B01371492BDF8A0
:1039F00078309F42BFF671AF002893D050F827105F
:103A00001FFA8AF3BDF82C2002FB03F31FFA8BF692
:103A100006FB03F3C3F38F060F9B9CE77642CCE7CC
:103A20000132D2E72E9C00271C9D3098DFE7002052
:103A300023B0BDE8F08FC0688B6803FB00F04B68D3
:103A400003FB00F08000704770B588B00D9D119C9D
:103A50000E6946B94E6936B9DE6816F0030F02D119
:103A60008E68012E1FD06668012E0CD15E68012E73
:103A700009D16E68012E06D1A66816F0030F02D197
:103A80001E68012E27D0129E06960594109C049461
:103A90000F9C03940E9C029401950C9C0094FFF7DC
:103AA0005AFE08B070BDCE68012EDCD1AE68012E82
:103AB000D9D16E68012ED6D1129E06960594109C1F
:103AC00004940F9C03940E9C029401950C9C00940A
:103AD000FFF7FDFDE5E7129E06960594109C049401
:103AE0000F9C03940E9C029401950C9C0094FFF78C
:103AF000CAFDD6E708B5844608461146DCF8102012
:103B000052B9DCF814203AB9C26812F0030F03D19D
:103B1000DCF80820012A12D05A68012A0CD1426828
:103B2000012A09D14A68012A06D19B6813F0030FC4
:103B300002D10368012B0FD0FFF77DFF08BDDCF831
:103B40000C20012AE8D18A68012AE5D14A68012AB5
:103B5000E2D1FFF7FEFDF1E7FFF7B0FDEEE72DE95B
:103B6000F04F8DB001900A910B920493BDF9601053
:103B70000591BDF964100691BDF8681008911C9973
:103B800013468A1809925B08079332E1D0F800E0E7
:103B9000D1F800A0019B53F8042B01934FEA322384
:103BA0002FFA83F32FFA82F2C3EA2248C2EA0342D1
:103BB000029C54F8043B02944FEA33292FFA89F906
:103BC0002FFA83F3C9EA234CC3EA094322FB0E7799
:103BD00022FB0A55039A23FB0E2423FB0AB3D0F8D9
:103BE00004E00830D1F804B0083128FB0E7728FB38
:103BF0000B552CFB0E4403942CFB0B3B013EB6B241
:103C0000002EC3D1039C089B03F00303029A13E028
:103C1000019E16F901EB30F9028B12F9019B31F983
:103C200002CB08FB0E770CFB0E5509FB084409FB81
:103C30000CBB013B9BB20196002BE9D1169B1B6884
:103C4000049A126822EAE2718F40F917D81703FB31
:103C500001F107FB0011A3FB073713F1804341EB90
:103C60000707DB0F43EA4707002A40F3D78000220B
:103C700001239340013B07EA03065B1057FA02F267
:103C800000F1CE809E4200DD0132179B1A44059B55
:103C90009A42B8BF1A46069B9A42A8BF1A461C9B76
:103CA0001A70169B1B68049A126822EAE2718D4012
:103CB000E917D81703FB01F105FB0011A3FB05353C
:103CC00013F1804341EB0505DB0F43EA4505002A6C
:103CD00040F3A880002201239340013B05EA03063C
:103CE0005B1055FA02F200F19F809E4200DD013226
:103CF000179B1A44059B9A42B8BF1A46069B9A42E4
:103D0000A8BF1A46099B1A70169B5B68049A5268F2
:103D100022EAE2718C40E117D81703FB01F104FBA2
:103D20000011A3FB043413F1804341EB0404DB0FC7
:103D300043EA4404002A79DD002201239340013B39
:103D400004EA03055B1054FA02F271D49D4200DDCF
:103D50000132179B1A44059B9A42B8BF1A46069B2C
:103D60009A42A8BF1A461C9B9C1C5A70169B5B6803
:103D7000049A516821EAE1720BFA02F2D017DD17BA
:103D800003FB00F002FB0500A3FB023513F18043A7
:103D900040EB0500DB0F43EA400300294ADD002128
:103DA00001228A40013A03EA0206521053FA01F155
:103DB00042D4964200DD0131179B1944059B99427C
:103DC000B8BF1946069B9942A8BF1946099A517077
:103DD000169B08331693049B08330493019B0899A0
:103DE0000B440193079B013B9BB20793931C0993E0
:103DF0001C94079B13B30A98089B00EB4301019A9C
:103E00001A4402921B9A1768546808321B924FEAB0
:103E1000930EA3463D4603947646F1E6524227E7C9
:103E200001332FE7524256E701335EE7524284E7FF
:103E300001338BE74942B3E70132BAE70B9B13F03A
:103E4000010F00F0A2800A9E089B06EB43021B991B
:103E50000C6898082546019F1CE057F8043B4FEA80
:103E600033212FFA81F12FFA83F3C1EA234CC3EAFD
:103E70000143316823FB0141146823FB0453746838
:103E80000836556808322CFB04142CFB05331D46FC
:103E9000013880B20028E0D139463046089B03F053
:103EA00003030BE011F9016B30F902CB32F9027B0D
:103EB00006FB0C4406FB0755013B9BB2002BF1D1DE
:103EC000169B1B68049A126822EAE2718C40E11783
:103ED000D81703FB01F104FB0011A3FB043413F119
:103EE000804341EB0404DB0F43EA4403002A52DD24
:103EF000002201219140013903EA010049101341D8
:103F00004BD4884200DD0133179A1344059A93423B
:103F1000B8BF1346069A9342A8BF13461C9800F8F0
:103F2000013B169B1A68049B196821EAE17305FAA4
:103F300003F3DC17D51702FB04F403FB0544A2FBD3
:103F4000032312F1804244EB0304D30F43EA4403FA
:103F5000002924DD002101228A40013A03EA0204FB
:103F600052100B411DD4944200DD0133179A1344C3
:103F7000059A9A42B8BF1A461346069A9A42A8BFB3
:103F80001A461346099A13701C900B981C9B1844F0
:103F90000DB0BDE8F08F5242ABE70131B1E74942C5
:103FA000D9E70132DFE72DE9F04F8BB00C469046A0
:103FB000149FDDF854A0DDF858B0DDF864901A9E27
:103FC0001D6822E023690893E3680793D9F80C3051
:103FD0000693DAF800300593D8F804300493D8F843
:103FE00000300393A36802936368019323680093EE
:103FF0003346189A5946384600F083FBDAF8003009
:104000001F44D9F80C301E44013D002DDAD10020A8
:104010000BB0BDE8F08F002070472DE9F04F93B052
:1040200010900B9111920F93209B043B0E93002351
:104030000A93F2E1C45625445C1804572244013324
:104040008B42F7DB219B03FB05F10D9103FB02F291
:104050000C92119848B10A9C50F8243019440D91E3
:10406000631C50F823301A440C921E9B5B10029381
:10407000DDF840B00F9B0493A3E117682FFA87FE89
:10408000DBF800C02FFA8CFA209816582FFA97F711
:104090002FFA9CFC2AFB0E332FFA86F82CFB0733F1
:1040A0002FFA96F62AFB08552CFB065C5BF80000FD
:1040B0002FFA80F52FFA90F025FB0E1125FB0899B9
:1040C00020FB0711576802F1080520FB06992859C3
:1040D0002FFA87F5DBF804E00BF108082FFA8EF6CB
:1040E0002FFA97F72FFA9EFE26FB05332FFA80FA58
:1040F0002EFB07332FFA90F026FB0AC62EFB006E2C
:1041000058F804602FFA86FC2FFA96F62CFB05115E
:104110002CFB0A9926FB0717D2F808A002F10C0124
:1041200026FB009051F804C02FFA8AF8DBF80890BB
:104130000BF10C052FFA89F62FFA9AFA2FFA99F952
:1041400026FB08332FFA8CF129FB0A332FFA9CFC4B
:1041500026FB01EE29FB0CE92E592FFA86FE2FFAD9
:1041600096F62EFB08772EFB010026FB0A7AD16813
:10417000103226FB0C0016592FFA81FEDBF80C508A
:104180000BF1100B2FFA85F72FFA91F12FFA95F515
:1041900027FB0E332FFA86F825FB01332FFA96F60C
:1041A00027FB089925FB06955BF804902FFA89FCFC
:1041B0002FFA99F92CFB0EAA2CFB080C29FB01A164
:1041C00029FB06C901981030019020980F38019EF4
:1041D000B0423FF752AFAC4608463746209912E04E
:1041E00092F9006054569BF9005006FB053304FB1E
:1041F00005CC1BF9015005FB060005FB04990132B3
:104200000BF1010B01378F42EADB0A9A15461C9924
:1042100051F822801D9951F8221021EAE17E03FA1B
:104220000EF3DA174FEAE8740694CDF8248003FB06
:1042300004F408FB0244A3FB083213F1804344EB6F
:104240000202DB0F43EA4202002940F3C7804FF02D
:10425000000A012101FA0AF1013902EA01034F10B3
:1042600052FA0AF2039200F1BC803A46934202DD10
:10427000039B013303936B1C1C9A52F823501D9A25
:1042800052F8236026EAE67305930CFA03FC4FEA22
:10429000EC73EA17079208950CFB02F205FB032268
:1042A000ACFB05C41CF1804C42EB04024FEADC7C01
:1042B0004CEA4203002E40F3968000260122B240D1
:1042C000013A03EA02044FEA620C3341019300F120
:1042D0008C8063469C4202DD019B0133019300FA0E
:1042E0000EF04FEAE07E069C00FB04F408FB0E444F
:1042F000099BA0FB030E10F1804044EB0E04C00F9D
:1043000040EA4400014050FA0AF071D4B94200DD9D
:104310000130059B09FA03F84FEAE871079B08FB97
:1043200003F705FB0177089BA8FB038918F1804878
:1043300047EB09074FEAD87848EA470808EA02023B
:1043400058FA06F856D4624501DD08F10108039ACF
:10435000229B1A44019919440B4622990844884427
:1043600023998A42B8BF0A4624998A42A8BF0A46BE
:1043700023998B42B8BF0B4624998B42A8BF0B46AA
:1043800023998842B8BF084624998842A8BF0846A6
:1043900023998845B8BF884624998845A8BF884690
:1043A00004990A700A464B701F9BCB181F995054F2
:1043B00083F801800B440493209B9B44029B013BA8
:1043C0000293029BCBB10B9ADDF830C0E1460D9B06
:1043D00000276546194601970E9CF6E6C1F1000AD2
:1043E00037E77A1C42E7764268E70CF1010371E790
:1043F00001378BE70CF1010CA5E71E9B13F0010FB1
:1044000040F08B800B9B209A03EB42030B930F9B96
:1044100002330F930A9B02330A931F9B013B0A9AB4
:10442000934240F3028100231A461D460B982099BF
:1044300006E6186853F806C0DBF800702FFA80F91A
:104440002FFA87FE2FFA8CF82FFA90F02FFA97F7B1
:104450002FFA9CFC2EFB091127FB00102EFB0822D3
:1044600027FB0C22596803F1080757F805E0DBF831
:1044700004702FFA81FC2FFA87F82FFA8EF92FFAA1
:1044800091F12FFA97F72FFA9EFE28FB0C0027FBDD
:10449000010C28FB092227FB0E22996803F10C006E
:1044A00050F805E0DBF808002FFA81F72FFA80F8C2
:1044B0002FFA8EF92FFA91F12FFA90F02FFA9EFE33
:1044C00028FB07C720FB017728FB092220FB0E20D1
:1044D000D968103353F805C0DBF80C200BF1100B32
:1044E0002FFA81F92FFA82FE2FFA8CF82FFA91F128
:1044F0002FFA92F22FFA9CFC2EFB097722FB017116
:104500002EFB080022FB0C021034A6F10F00A04283
:104510008FDC08461546209911E00B9B029C0D99F3
:104520000C9A0E9D209EF0E793F900705E561BF9E1
:10453000012B02FB070002FB0655013301348C42BC
:10454000F2DB0C950A9A16461C9B53F822301D99F3
:1045500051F8221021EAE17290400246C017DC17A0
:1045600003FB00F002FB0400A3FB023213F18043C3
:1045700040EB0202DB0F43EA420300294CDD0299C3
:1045800001228A40013A03EA0200521053FA01F56F
:1045900044D4904200DD0135721C1C9B53F822303C
:1045A0001D9951F8220020EAE0720C9991400A46C8
:1045B000C917DC1703FB01F102FB0411A3FB023254
:1045C00013F1804341EB0202DB0F43EA4203002870
:1045D00026DD012202988240013A03EA02015210CC
:1045E000034120D4914200DD0133229A5119134432
:1045F000239A9142B8BF1146249A9142A8BF11460E
:10460000239A9342B8BF1346249A9342A8BF1346F5
:10461000049A11705370F5E64942B1E70132B8E7E8
:1046200042420292D5E70132DCE71F9B13F0010FF3
:1046300057D1002013B0BDE8F08F002140E008F111
:104640008042013A1C9B53F822301D9850F82220DA
:1046500022EAE2708140C817DE1703FB00F001FB7D
:104660000600A3FB013113F1804340EB0101DB0F96
:1046700043EA4103002A30DD002201219140013943
:1046800003EA0100491053FA02F228D4884200DDFF
:104690000132229B1344239A9342B8BF13465B45D1
:1046A000A8BF5B468EF80030C64401355545C0DAD8
:1046B000B9F1000FC1D008F18043013B59F8231034
:1046C0000B980022BA42BADA10F9016B14F9013BD7
:1046D000634403FB06110132F4E75242CDE7013196
:1046E000D4E70025109CDDF84490DDF83CE0DDF8CF
:1046F00078A0DDF87C80209FDDF884C0DDF890B0E4
:10470000D4E72DE9F04F87B0049001910392029312
:10471000DDF85490A9F104030593109B1DB2119B81
:1047200018B2C5EA0545C0EA00400023009383465D
:1047300002E1002213460DE1266820FA86FEDCF82D
:1047400000104FEA362620FA86F625FA81FA159FE0
:10475000E7594FEA312125FA81F12AFB0E3320FA7D
:1047600087FB21FB06334FEA372720FA87F7666875
:1047700004F1080E2AFB0B2221FB072220FA86F700
:10478000DCF804104FEA362620FA86F625FA81FA7C
:104790005EF809E04FEA312125FA81F12AFB07335F
:1047A00020FA8EFB21FB06334FEA3E2720FA87F7DB
:1047B000A66804F10C0E2AFB0B2221FB072720FA26
:1047C00086FBDCF808104FEA362620FA86F625FA32
:1047D00081FA5EF809E04FEA312125FA81F22AFBDD
:1047E0000B3320FA8EF122FB06364FEA3E2E20FADA
:1047F0008EFEE36810342AFB017122FB0E1120FAB1
:1048000083FADCF80C200CF1100C4FEA332320FA69
:1048100083F325FA82FE54F809704FEA322225FA12
:1048200082F22EFB0A6620FA87FB22FB03634FEA23
:10483000372720FA87F72EFB0B1122FB071208F10E
:10484000100815990F3941453FF776AFDDF85490C0
:10485000DDF840A0DDF844E00FE094F90070774403
:1048600014F9096076441CF9011B514401FB07331C
:1048700001FB0622013408F10108C845EDDB83463F
:10488000149921EAE1718B40DF17139CE617A246C9
:1048900003FB06F40AFB0744A3FB0A3713F180432A
:1048A00044EB0704DB0F43EA4403149800285CDD63
:1048B00000270124BC40013C03EA040E4FEA640CCB
:1048C0003B4154D4E046C64500DD01338A40D11750
:1048D00002FB06F6139800FB0166A2FB0A2112F107
:1048E000804246EB0106D20F42EA460214403A41AA
:1048F00040D4644500DD013212990B440A441799F3
:104900008B42B8BF0B4618998B42A8BF0B4617992C
:104910008A42B8BF0A4618998A42A8BF0A46029836
:10492000014601F8023B4270019B03EB49030193EE
:10493000009B023300930291169B013B009A934225
:104940001BDD039A002A3FF4F4AE114651F8083BF0
:1049500052680391019CDDF810C04FF000085846E2
:10496000CDF85490DDF814906BE74742A1E70CF1C5
:104970000108A8E70CF1010CBBE75846169B13F0A1
:10498000010F00F09880039B002B53D01B6800267A
:104990000499019CA9F10F02B2424DDD276820FA6B
:1049A00087FC0A684FEA372720FA87F725FA82FE44
:1049B0004FEA322225FA82F22EFB0C3322FB073714
:1049C000626820FA82FE4B684FEA322C20FA8CFC97
:1049D00025FA83F24FEA332325FA83F322FB0E777D
:1049E00023FB0C7CA26820FA82FE8B684FEA3227F8
:1049F00020FA87F725FA83F24FEA332325FA83F367
:104A000022FB0ECC23FB07C7E268103420FA82FC9D
:104A1000CB6810314FEA322220FA82F225FA83FE67
:104A20004FEA332325FA83F32EFB0C7723FB027323
:104A30001036AFE70023AAE70846109D119F4E45A8
:104A400009DA14F9012B3A4410F9011B294401FB3E
:104A500002330136F3E7149A22EAE2729340DA173E
:104A60001399C917139800FB02F203FB0121A0FB65
:104A7000033213F1804341EB0202DB0F43EA4203AE
:104A8000149A002A1BDD002201219140013903EA1A
:104A900001004910134114D4884200DD0133129AF9
:104AA0001344179A9342B8BF1346189A9342A8BF6B
:104AB0001346029A1370002007B0BDE8F08F5242EF
:104AC000E2E70131E8E770B59408C3EA034510E076
:104AD00050F804CB4FEA3C2E25FA8EFE25FA8CFCCA
:104AE000CEEA2C46CCEA0E4CC1F800C04E6008312C
:104AF000013C002CECDC02F0030C07E010F9012B68
:104B000013FA82F221F8022B0CF1FF3CBCF1000FEA
:104B1000F4DC70BD8800704770B5941002E040F876
:104B200004EB013C002C23DD03689E4651F804CBC6
:104B30004FFA8CF55EB2B54201DD65F3070E4CF31A
:104B4000072543F30726AE4201DA65F30F2E4CF337
:104B5000074543F30746AE4201DA65F3174E4FEAC5
:104B60002C651B16B3EB2C6FD9DA65F31F6ED6E7F5
:104B700002F0030202E001300131013A002A07DDB0
:104B800091F9003090F90040A342F4DD0370F2E7A0
:104B900070BD30B58D103AE0D0F800C0E6464FFA4F
:104BA0008CF49442B8BF144664B264F3070E9C427E
:104BB000A8BF1C4664F3070E4CF307249442B8BF09
:104BC000144664B264F30F2E9C42A8BF1C4664F3E3
:104BD0000F2E4CF307449442B8BF144664B264F3FA
:104BE000174E9C42A8BF1C4664F3174E4FEA2C6C2C
:104BF0009445B8BF94464FFA8CFC6CF31F6E9C45ED
:104C0000A8BF9C466CF31F6E40F804EB013D002DDD
:104C1000C2DC01F003010AE090F900409442B8BF01
:104C200014469C42A8BF1C4600F8014B01390029DC
:104C3000F2DC30BD2DE9F04F91B001931A9B1B9827
:104C400054680694D2F808B044680B9480680590C4
:104C500048680C9008680790586808909B6809930A
:104C6000CB6888680D9008690E9049690F91D2F859
:104C70000CA0C3F100091C9B009300230A934EE093
:104C8000C9F1000631E0C8F10003039332E0524657
:104C90000098FFF741FF0134BC4210DA08EB040131
:104CA00009EB06030BFB0311019B0AFB0131002DED
:104CB000EDD15246009845F0B3F90135EBE70136E6
:104CC000029B9E4201DA039CE6E7009B534400935B
:104CD000079B9844049B01330493049B059A9342D9
:104CE00018DAB9F1000FCBDD0026B8F1000FCADDEC
:104CF00000230393069BA3EB0903089A9342A8BFE2
:104D000013460293ABEB0807099B9F42A8BF1F46BF
:104D10000025D5E70C9B99440A9B01330A930A9B13
:104D20000B9A934205DA0D9BC3F10008002304930C
:104D3000D3E71146059B03FB01F10F9B0E9A0AFB7B
:104D400001F11C98FFF725FF002011B0BDE8F08F9E
:104D50002DE9F04F89B00290079101921E46002381
:104D60000693B24600F0F2BF03924FF0000BDE460E
:104D7000CFE04FF080440020E2E06FF000417F1868
:104D800042F10001EDE0B3F1004F40F0F0806FF030
:104D90000047ECE06FF00042A41843F10002FBE092
:104DA0006FF00040121844F1000008E16FF000407D
:104DB0000CE1022210E14FF08042002417E16FF075
:104DC000004289184CF1000420E1B3F1004F40F09B
:104DD00023816FF000411FE14FF080484FF0000940
:104DE00021E16FF00044091940F100042AE1B2F119
:104DF000004F40F02E816FF000442AE101212FE1A5
:104E00004FF080414FF0000C33E16FF00041761815
:104E100043F100023AE14FF080424FF0000845E1D3
:104E20006FF000429B1841F100064CE14FF08040CA
:104E30004FF000085BE16FF000401B1841F10004E7
:104E400062E1B2F1004F40F066816FF0004462E130
:104E50004FF080414FF000086DE16FF000415218B3
:104E600043F1000474E1B0F1004F40F078816FF03D
:104E7000004474E14FF080434FF000087FE16FF091
:104E80000043C01842F1000486E1B1F1004F40F048
:104E90008A816FF0004486E14FF080424FF00008B5
:104EA00091E16FF00042891840F1000498E1B3F1FC
:104EB000004F40F09C816FF0004498E14FF0804C2F
:104EC0004FF00008A4E16FF000401B1841F1000012
:104ED000ACE1B2F1004F40F0B0816FF00040ACE1C6
:104EE0004FF080440026B7E16FF000401B1841F1FD
:104EF0000000DDE1B2F1004F40F0E0816FF00043CF
:104F0000DCE10025E3E14FF40061ECE19B440EF1AC
:104F1000010E019B9E4580F2EB81029B13F90E303E
:104F2000039A9B1A139A9A42F1DC129A93404FEA21
:104F3000DA72B2EBD37F3FF41CAFD44C4FF0FF30AA
:104F4000D9174FEAEA750AFB01F103FB0512AAFB28
:104F500003710A443F1942EB00021146002AFFF692
:104F60000CAFFF0F47EA410753453FF40CAF47F042
:104F70007F46F51B760106F180564FEAE679314609
:104F800006FB09F2A6FB064314F1804443EB4203FF
:104F90001A46002BFFF6FEAEE40F44EA4204234615
:104FA0004FEAE47CA04604FB0CF4A3FB032012F1BF
:104FB000804240EB44042046002CFFF6F1AED20FB5
:104FC00042EA4000B3F1004F3FF4F0AE00F00304BA
:104FD00080103FF5EEAE0122944200DD0130F20F69
:104FE000B2EBD37F3FF4E7AEA84A4FF0FF3406FBA5
:104FF0000CFC08FB09CCA1FB0818C44489184CEB35
:10500000040C6446BCF1000FFFF6D9AEC90F41EAAB
:1050100044019E423FF4D9AE0A187FF5DDAEDFF8B9
:105020006C824FF0FF39D417DFF864C2A2FB0C107A
:105030000CFB040011EB080140EB090004460028BA
:10504000FFF6CFAEC90F41EA440491498A423FF4CA
:10505000CEAE1C4404F0010263103FF5CFAE002138
:105060008A4200DD0133F6187FF5CAAE87494FF05A
:10507000FF3CF017874AA6FB026302FB0033761859
:1050800043EB0C031A46002BFFF6BFAEF60F46EAC1
:105090004206804C344415F0807C01D04FF0FF3C38
:1050A000002CBFF6B8AE794A4FF0FF38E6177A48C1
:1050B000A4FB003100FB06119B1841EB08010E46D2
:1050C0000029FFF6ADAEDB0F43EA460303EA0C030B
:1050D00024EA0C0483EA040215F0007C01D04FF0AE
:1050E000FF3C002ABFF6A2AE68484FF0FF38D61743
:1050F0006A49A2FB013401FB06411B1841EB080180
:105100000C460029FFF697AEDB0F43EA4404634BDD
:105110009A423FF496AE0CEA040422EA0C00604086
:1051200015F0806C01D04FF0FF3C0028BFF690AE28
:1051300056494FF0FF38C617594BA0FB032403FB19
:105140000643521843EB08031C46002BFFF685AEBE
:10515000D20F42EA4404524B98423FF484AE0CEA28
:10516000040420EA0C01614015F0006C01D04FF0FE
:10517000FF3C0029BFF67EAE444B4FF0FF38CE1700
:10518000484AA1FB020402FB0642C01842EB080297
:105190001446002AFFF673AEC00F40EA4404414BA8
:1051A00099423FF472AE0CEA040421EA0C03634016
:1051B00015F0805C01D04FF0FF3C002BBFF66CAEC9
:1051C000324A4FF0FF38DC17374EA3FB061006FBC0
:1051D0000400891840EB080004460028FFF661AE81
:1051E000C90F41EA4404304A93423FF460AE0CEAEE
:1051F000040423EA0C02624015F0005601D04FF07F
:10520000FF36002ABFF65AAEDFF880C04FF0FF38F5
:10521000D017264CA2FB043104FB001113EB0C0346
:1052200041EB080108460029FFF64DAEDB0F43EACB
:1052300040001E4B9A423FF44CAE304022EA060238
:10524000424015F0804501D04FF0FF35002ABFF6EF
:1052500047AE0E4C4FF0FF36D017010141EA1271F4
:1052600013019B1A61EB0001C90041EA5371DB0095
:105270009B1840EB0101DB1849411B1946EB01016A
:1052800008460029FFF630AE12E000BF010000C062
:10529000ABAAAA2A94A8F5707BBEAF63F2CBA24D4D
:1052A0006CAC162FA4AA5211B72A580211FE0A009C
:1052B000DB0F43EA4003F22A3FF41CAE2B4022EA04
:1052C00005056B40002F7FF41CAE4FF0FF3525F035
:1052D000004223EA05035340C3F30B021B133FF5BF
:1052E00012AE40F2FF718A427FF710AE01330DE635
:1052F000BBF1000F00F07181BBFA8BF3C3F1230205
:1053000005920BFA03FB0BF1004B4FEAEB726FF0C7
:1053100000431BEB030B42F10002002AC0F25F8145
:10532000012100231BEB010B42EB0302D30F13EB14
:105330000B0B42F100024FEA5B0B4BEAC27B584673
:10534000BBF1000FC0F24F81D9494FF0FF354FEA52
:10535000E0788346D74B424203FB0822A0FB03348C
:1053600014445B1844EB05042546002CC0F23F8131
:10537000DB0F43EA450310F13C3F00F03E8103F1AF
:105380005A324FEAD079D60FB6EBD07F00F03C818D
:10539000C74F4FF0FF3ED117154600FB01F402FB4B
:1053A0000844ABFB023C6444DB1944EB0E04A44606
:1053B000002CC0F22E81DB0F43EA4C03904200F038
:1053C0002E81C3F10053B6EBD37F00F02F81B84C90
:1053D0004FF0FF37DE1703FB01F102FB0611A3FBC1
:1053E000053529441B1941EB07010E460029C0F27F
:1053F0002181DB0F43EA46031D469900B3F1005FAC
:10540000C0F21E816FF00043B5F1005FC0F21A8157
:10541000002421404B40B5F1604F00F316814FF05E
:105420000046B5F1604F00F3128100210B4073403C
:105430001A44D70FB9EBD27F00F00C819C4E4FF08D
:10544000FF3ED517114600FB05F402FB0844ABFBF9
:10545000023C64449B1944EB0E04A446002CC0F2A9
:10546000FE80DB0F43EA4C03904200F0FE80C3F164
:105470000053B7EBD37F00F0FF808D4C4FF0FF3629
:10548000DF1703FB05FC02FB07C5A3FB01173D4427
:10549000091945EB06052E46002DC0F2F180C90F13
:1054A00041EA46019A4200F0F1808B00B1F1005FC1
:1054B000C0F2F6806FF00045B1F1005FC0F2F280FB
:1054C000002423405D40B1F1604F00F3EE804FF0C7
:1054D0000046B1F1604F00F3EF8000231D4075409E
:1054E0002A44D60FB9EBD27F00F0E980704D4FF01F
:1054F000FF37D417114600FB04F302FB0838ABFB5F
:10550000023CE0445B1948EB07084746B8F1000F3E
:10551000C0F2D980DB0F43EA4707904200F0D98000
:10552000C7F10057B6EBD77F00F0DA80604B4FF041
:10553000FF30FD1707FB04F602FB0564A7FB01150E
:105540002C44C91844EB00042046002CC0F2CC8047
:10555000C90F41EA4001BA4200F0CC808B00B1F1A2
:10556000005FC0F2D1806FF00044B1F1005FC0F283
:10557000CD80002003405C40B1F1604F00F3C98052
:105580004FF00045B1F1604F00F3C58000231C408F
:105590006C4022444FEA4208B2F1804FC0F2BE8014
:1055A0006FF00043B2F1804FC0F2BA80002108EAE8
:1055B000010888EA0308B2F1404F00F3B4804FF0CD
:1055C0000043B2F1404F00F3B080002208EA020825
:1055D00088EA03084FF0000E8EE120238EE64FF09C
:1055E000FF310B469EE64FF080410025AFE66FF09D
:1055F00000429B1844F10005BAE6B0F1004F7FF479
:10560000BEAE6FF00043BAE64FF080474FF0000E99
:10561000C1E66FF00047DB1944F1000CCBE6B0F1B6
:10562000004F7FF4CEAE6FF00043CAE64FF08044E7
:105630000027CFE66FF000441B1941F10006D8E6C1
:105640000023E1E64FF0FF34E3E60026E9E64FF001
:10565000FF31EBE64FF080464FF0000EF1E66FF0C1
:1056600000469B1944F1000CFBE6B0F1004F7FF4BB
:10567000FEAE6FF00043FAE64FF080440026FFE6EE
:105680006FF00044091945F1000608E7B2F1004F38
:105690007FF40BAF6FF000416FF003030D460BE793
:1056A000002509E74FF0FF340BE7002611E700BFA4
:1056B000010000C0C4C3C3C34FF0FF330EE74FF077
:1056C0008045002715E76FF000455B1948F100079A
:1056D00020E7B0F1004F7FF423AF6FF000471FE7E2
:1056E0004FF08043002024E76FF00043C91844F1D5
:1056F00000002DE7B2F1004F7FF430AF6FF00041B2
:105700006FF003030C4630E700242EE74FF0FF3024
:1057100030E7002536E74FF0FF3338E7002341E755
:105720004FF0FF3143E700234BE74FF0FF324DE7E7
:105730004FF080410024F9E06FF000417F1842F102
:10574000000004E1B3F1004F40F007816FF0004723
:1057500003E16FF00042A41843F1000212E16FF080
:105760000040121844F100001FE16FF0004023E1F7
:10577000022227E14FF0804200242EE16FF0004228
:1057800089184CF1000437E1B3F1004F40F03A8141
:105790006FF0004136E14FF080494FF0000B38E1E7
:1057A0006FF00044091940F1000441E1B2F1004FEB
:1057B00040F045816FF0004441E1012146E14FF0A6
:1057C00080414FF0000C4AE16FF00042B61843F1FF
:1057D000000251E14FF080424FF000095CE16FF0B0
:1057E00000429B1841F1000663E14FF080404FF00A
:1057F000000971E16FF000401B1841F1000478E1ED
:10580000B2F1004F40F07C816FF0004478E14FF03E
:1058100080414FF0000983E16FF00041521843F1DD
:1058200000048AE1B0F1004F40F08E816FF0004437
:105830008AE14FF080434FF0000995E16FF000439B
:10584000C01842F100049CE1B1F1004F40F0A0818A
:105850006FF000449CE14FF080424FF00009A7E157
:105860006FF00042891840F10004AEE1B3F1004F3F
:1058700040F0B2816FF00044AEE14FF0804C4FF049
:105880000009BAE16FF000401B1841F10000C2E1CD
:10589000B2F1004F40F0C6816FF00040C2E14FF01E
:1058A00080440026CDE16FF000401B1841F100005C
:1058B000DFE1B2F1004F40F0F5816FF00043F1E11C
:1058C0000022F8E14FF08041002401E26FF0004136
:1058D0005B1842F100000CE2B8F1004F40F00F827B
:1058E0006FF000400BE2013213E26FF07F00149B77
:1058F000049A98540EF1010E019B9E4580F21C8281
:10590000CDF810E0029B13F90E30039A9B1A139AFC
:105910009342C0F20C82129A93404FEADA72B2EBD1
:10592000D37F3FF405AFD6494FF0FF34D8174FEA85
:10593000EA720AFB00F003FB0202AAFB03700244B6
:105940007F1842EB04021046002AFFF6F5AEFF0F67
:1059500047EA400753453FF4F5AE47F07F46F51B55
:10596000760106F180564FEAE67B314606FB0BF2E4
:10597000A6FB064314F1804443EB42031A46002B76
:10598000FFF6E7AEE40F44EA420423464FEAE47C24
:10599000A14604FB0CF4A3FB032012F1804240EB70
:1059A00044042046002CFFF6DAAED20F42EA400053
:1059B000B3F1004F3FF4D9AE00F0030480103FF57F
:1059C000D7AE0122944200DD0130F20FB2EBD37F5B
:1059D0003FF4D0AEAA4A4FF0FF3406FB0CFC09FBA3
:1059E0000BCCA1FB0919CC4489184CEB040C644680
:1059F000BCF1000FFFF6C2AEC90F41EA44019E425E
:105A00003FF4C2AE0A187FF5C6AEDFF874924FF0CD
:105A1000FF3BD417DFF86CC2A2FB0C100CFB040098
:105A200011EB090140EB0B0004460028FFF6B8AE6D
:105A3000C90F41EA440493498A423FF4B7AE234474
:105A400003F001025B103FF5B8AE00218A4200DD91
:105A50000133F6187FF5B3AE89494FF0FF3CF017DC
:105A6000894AA6FB026302FB0033761843EB0C0362
:105A70001A46002BFFF6A8AEF60F46EA4206824C05
:105A8000344415F0807C01D04FF0FF3C002CBFF671
:105A9000A1AE7B4A4FF0FF39E6177C48A4FB0031EA
:105AA00000FB06119B1841EB09010E460029FFF689
:105AB00096AEDB0F43EA460303EA0C0324EA0C022A
:105AC0005A4015F0007C01D04FF0FF3C002ABFF691
:105AD0008CAE6B484FF0FF39D6176D49A2FB0134ED
:105AE00001FB06411B1841EB09010C460029FFF69A
:105AF00081AEDB0F43EA4404654B9A423FF480AE2B
:105B00000CEA040422EA0C00604015F0806C01D01D
:105B10004FF0FF3C0028BFF67AAE59494FF0FF39ED
:105B2000C6175C4BA0FB032403FB0643521843EB50
:105B300009031C46002BFFF66FAED20F42EA440465
:105B4000544B98423FF46EAE0CEA040420EA0C0178
:105B5000614015F0006C01D04FF0FF3C0029BFF60A
:105B600068AE474B4FF0FF39CE174B4AA1FB0204FA
:105B700002FB0642C01842EB09021446002AFFF657
:105B80005DAEC00F40EA4404434B99423FF45CAE23
:105B90000CEA040421EA0C03634015F0805C01D098
:105BA0004FF0FF3C002BBFF656AE354A4FF0FF39A1
:105BB000DC173A4EA3FB061006FB0400891840EBE5
:105BC000090004460028FFF64BAEC90F41EA440421
:105BD000324A93423FF44AAE0CEA040423EA0C0230
:105BE000624015F0005601D04FF0FF36002ABFF694
:105BF00044AEDFF88CC04FF0FF39D017284CA2FB21
:105C0000043104FB001113EB0C0341EB09010846BE
:105C10000029FFF637AEDB0F43EA4000204B9A42E3
:105C20003FF436AE304022EA0602424015F080458D
:105C300001D04FF0FF35002ABFF631AE104C4FF0C7
:105C4000FF36D017010141EA127113019B1A61EB73
:105C50000001C90041EA5371DB009B1840EB0101D0
:105C6000DB1849411B1946EB010108460029FFF6E4
:105C70001AAEDB0F43EA4003F22A3FF41AAE11E0FA
:105C8000010000C0ABAAAA2A94A8F5707BBEAF633E
:105C9000F2CBA24D6CAC162FA4AA5211B72A58020F
:105CA00011FE0A002B4022EA05056B40002F7FF40D
:105CB00007AE4FF0FF3222F0004523EA02035D40B9
:105CC000EB0FB3EBD87F3FF4FDAD2B494FF0FF3422
:105CD0004FEAE873EA1705FB03F308FB0232A5FB62
:105CE000083002445B1842EB04021046002AFFF61B
:105CF000EDADDB0F43EA4000A8453FF4EDAD0122D6
:105D0000059B9A40013A02EA0004521018413FF5FF
:105D1000EAAD944200DD0130803810F17F0FFFF6CC
:105D2000E4AD7E2801DC40B2E1E57F20DFE58023A1
:105D3000149A02F80E30DDE5029B019A1344029397
:105D4000149B13441493069B01330693069B079AF6
:105D500093420DDA029C94F90020012301988342BA
:105D6000BFF602A8E1568A42B8BF0A460133F6E7F9
:105D700009B0BDE8F08F00BF010000C010282AD88C
:105D8000DFE800F0092B0D11151F190B1B13212340
:105D90001D1725270F0012487047124870471248F8
:105DA00070471248704712487047124870471248AF
:105DB000704712487047124870471248704712489F
:105DC000704712487047124870471248704712488F
:105DD000704712487047124870471248704700BF1A
:105DE000602D0510DC2C0510E42C0510EC2C0510A2
:105DF000F42C0510FC2C0510042D05100C2D05109D
:105E0000142D05101C2D0510282D0510342D0510FE
:105E10003C2D0510442D05104C2D0510582D051056
:105E2000C42C0510D42C051008B500F0ADF800F016
:105E300007F800F09FF800F017F800F021F808BD0F
:105E400008B50021084623F017FDFF22002108466F
:105E500023F0A0FB0021084623F0CCFC01481AF0F7
:105E60003FFF08BD682D051008B504481AF038FF3B
:105E700000221146332023F081FC08BD6C2D051053
:105E800010B5264C264A002120461FF09DF92548D2
:105E90001AF026FF244A012120461FF095F92348D5
:105EA0001AF01EFF22481AF01BFF04F54074214A25
:105EB000042120461FF088F91F481AF011FF1F4ADD
:105EC000062120461FF080F91D481AF009FF1D4ADF
:105ED000072120461FF078F91B481AF001FF1B48E4
:105EE0001AF0FEFE1A481AF0FBFE1A481AF0F8FEE5
:105EF00019481AF0F5FE19481AF0F2FE18481AF07F
:105F0000EFFE18481AF0ECFE17481AF0E9FE1748A1
:105F10001AF0E6FE16481AF0E3FE10BD000032400B
:105F2000442E0510782E05107C2E0510B02E05107D
:105F3000982D05100C2E0510402E0510D42D05109F
:105F4000082E05109C2D0510D02D0510702D051064
:105F5000742D0510782D05107C2D0510802D051051
:105F6000842D0510882D05108C2D0510902D051001
:105F7000942D0510024B33229A601A61704700BFBE
:105F800000203140FEE7000030B583B096210020AC
:105F900024F0BEFF24F030FFD0B1012025F0BEFA7E
:105FA00025F064FA25F03AFB25F024FB0021084691
:105FB00023F044FE002023F0B7FD012023F09CFDD8
:105FC000002023F0C1FC634B1B6893F83F400DE0B9
:105FD00024F002FF23F0C6FE23F0B2FE012023F0DE
:105FE000D5FEDAE7204624F095FA013C002CF9D1E1
:105FF0000021012023F044FF002023F015FE00289B
:1060000000F08D8023F0E0FF0021084623F038FFE8
:106010000021084623F0E8FD1EF0ECFD4E4D002463
:10602000009423462246214628461FF021F800947A
:1060300023462246012128461FF01AF8474823F03C
:106040002FFE002877D1012023F040FD002023F00F
:106050006BFD002023F050FD002023F075FC002193
:10606000012023F00DFF0021084623F009FF002145
:10607000022023F005FF0021032023F001FF00216F
:10608000042023F0FDFE364823F0B8FF002855D148
:10609000344824F0E1F9002853D10021084623F0C8
:1060A000A3FD0021084623F0C9FD2F49012024F05B
:1060B00057FA002848D142F21071012024F078FBF1
:1060C000002844D123F0F8FC002023F0B3FC00208A
:1060D00023F0CCFC23F0DEFC0021084625F0FAFA80
:1060E000002023F093FC23F02BFE012023F04EFE32
:1060F0006421002024F00CFF00F048F81B481AF03F
:10610000EFFD1B481AF0ECFD1A481AF0E9FD1A4899
:106110001AF0E6FD19481AF0E3FD03B030BD23F094
:10612000DDFE40F2111398427FF46CAF0121002094
:1061300023F05AFD66E70520FFF724FF0420FFF750
:1061400021FF0420FFF71EFF0320FFF71BFF0320A2
:10615000FFF718FF6C4601080000324040420F0074
:1061600010300510400D03003830051024300510A4
:10617000283005102C300510303005103430051053
:1061800008B501201FF0D0F908BD704710B50020F8
:1061900024F016FD00B910BD0446114B186023F021
:1061A000B9FC0130B4FBF0F00E4B186023F0CAFCD0
:1061B0000130B4FBF0F40C4B1C60013C0B4BA3FB17
:1061C00004239B0C01330A4A13700A4BA3FB0423DC
:1061D0009B090133084A1360DB03084A1360DAE7BE
:1061E00094220008982200089022000883DE1B43B6
:1061F000A4220008D34D6210A02200089C220008AF
:1062000008B50A481EF0F0FCFFF7BFFFFFF7BEFF1E
:106210000022114603201FF0CFF905481FF072F845
:1062200004481FF0AFF81EF0EBFE08BDC47E051059
:10623000202F00084030051008B517F0CAFF074AA4
:10624000D2F8883043F47003C2F88830BFF34F8F20
:10625000BFF36F8F17F0C1FF08BD00BF00ED00E076
:1062600008B5044824F0D6FF08B1002008BD024854
:10627000FCE700BFA82200080000020610B51AF0D3
:106280002DFD044628B144B1FFF7CEFD5CB1204698
:1062900010BD1DF069FA0446F5E740F6E441002020
:1062A0001DF0AAFAF0E7FFF7DBFF0446EFE7000076
:1062B00070B521B116460C46002005460AE00025BF
:1062C000284670BDA0B10028FAD114F8012B0B4B61
:1062D0001A700135B542F3DA23780A2BF2D1074B55
:1062E0001B780D2BEED00D2105481EF07DF9E9E756
:1062F000217803481EF078F9E5E700BFA8300008D0
:10630000AC30000870B591B116460C460025B54278
:106310000EDA0022214607481EF040F940B9013547
:1063200023780A2B04D00D2B02D00134EFE700258F
:10633000284670BDAC30000870B58AB086460E465F
:1063400015460DF1140C0D4C0FCCACE80F00236872
:10635000CCF8003005AB029300230193FF23009398
:106360003246714606481EF059F908B10AB070BDB0
:106370000022294602481EF0A5F8F7E77430051000
:10638000AC30000882B00346684680E8060040F65C
:106390000F31998100219960997303C883E8050042
:1063A00002B0704770B582B0044602A800E906004A
:1063B000A27B3AB91D46A28940F60F339A4203D018
