:020000041000EA
:1000000000200008EB0000100D0000004D01001062
:1000100000000000000000000000000000000000E0
:100020000000000000000000000000004901001076
:10003000000000000000000049010010490100100C
:100040004901001049010010490100104901001048
:100050004901001049010010490100104901001038
:100060004901001049010010490100104901001028
:100070004901001049010010490100104901001018
:1000800010B5064C2378002B07D1054B002B02D06E
:10009000044800E000BF0123237010BDB003000836
:1000A0000000000014150010044B10B5002B03D005
:1000B0000349044800E000BF10BDC0460000000036
:1000C000B4030008141500100230800803D001307A
:1000D0000238FCD1C046C0467047EFF3108072B6BC
:1000E000704780F3108870477047FFF7FDFF72B6C6
:1000F0000F4C104DAC4209DA21686268A368043BDA
:1001000002DBC858D050FAE70C34F3E70A490B4A2F
:100110000020521A02DD043A8850FCDC08480949E4
:100120000860BFF34F8F00F0FFFE00F0AFFEFEE768
:100130002015001038150010B0030008C80500088D
:100140000000000808ED00E0FEE7FEE700B504202F
:100150007146084202D0EFF3098001E0EFF3088016
:10016000043000F093FCFEE7014B18607047C04676
:10017000C4050008044B1B681A00BA3212881B6AB7
:100180005043C0187047C046C40500081D4B984234
:100190000FD010D840282FD005D8002830D01028F4
:1001A00028D019481EE0802828D080235B00984280
:1001B000F7D1144816E0154B984214D008D8A02364
:1001C0001B0698421CD0124B9842EAD1A0200BE0AB
:1001D000104B98420AD0104B984209D00F4B9842CE
:1001E000DFD10F487047A420C003FBE70D48F9E7B3
:1001F0000D48F7E70D48F5E70D48F3E70D48F1E73F
:100200000020EFE706005200FF005200010000F05E
:10021000090000A0040000F0050000F0030000F059
:100220000100520002005200030052000100500081
:10023000020050000500520010B50020FFF79AFFA1
:100240000A4B1C682300BC331B68C0180368002BD2
:100250000ADB074B1868FFF799FF012263689A6071
:100260009A68002AFCD110BD0248FCE7C4050008CA
:10027000CC03000802005000064B1B68BC331B680F
:10028000C3181B68002B03DA89B241600020704755
:100290000148FCE7C405000801008A000368002B40
:1002A00004DA89B2C2608160002070470048FCE730
:1002B00001008A00064B1B68BC331B68C3181B680F
:1002C000002B03DAC36800200B6070470148FCE78D
:1002D000C405000801008A00024B1A68002A00D1F8
:1002E00018607047E0030008F0B52C246043154CFB
:1002F0001F0024681D0A2018FF2425402740124CA7
:100300001B0C26680760346A45608360BA363688FD
:1003100077433F1907612F0080376D017F01E7198F
:1003200064190A4D47611F043B436419236000238D
:100330008361059BC2610162002B01D01B88838110
:10034000F0BDC046E0030008C40500080810000026
:10035000F0B5836885B002AD2B80154B02681B6831
:10036000066A1B8F476A9B186B8043680095826AF8
:10037000C16A040003930369C068FFF7B5FF002159
:100380003B000A0000913000FFF7AEFF216B280010
:1003900000F030FB0022AB5E002B06DB1F22134077
:1003A0001E3A9A401300034A136005B0F0BDC046E0
:1003B000C405000800E100E0F7B52C25134C6843A4
:1003C000266869433418256901937118002D19D0E6
:1003D0008869002818D12E68002E15DA6768012474
:1003E00026004B689E40B44613689EB263461B04C9
:1003F0001E431660EA608C61BC40019BA4B24B6254
:10040000AC60FEBD0248FCE70248FAE7E0030008E2
:1004100004028A0007028A0073B5002642690400BC
:10042000D56801962B0CB34221D01B0413601368CE
:10043000194B00691B68BC331B68C3181B68B342A7
:1004400015DA01A9FFF736FFB0420CD10198E26935
:1004500003681E0CDBB29A4205D9226A9B009B58A6
:10046000002B00D0984731002069FFF705FFADB29F
:10047000002D09D063691D6000251B68636AAB42CB
:1004800005D098476562A56163691B6873BDA36A5F
:10049000002BF8D09847F6E7C40500082C2310B5C8
:1004A0004343034A1068C018FFF7B6FF10BDC046AB
:1004B000E0030008F8B5194B0F001B681A0033322F
:1004C0001278824227D9002925D01F250A681540B5
:1004D00021D11900BA310C88114E60431C6AD20830
:1004E000041929007868346000F07EFF290020009C
:1004F000FFF7C2FE3A0029003068FFF7CFFE041E66
:1005000007D101003068FFF7B7FE03002000002B81
:1005100000D00448F8BD0448FCE7C046C405000804
:10052000E403000801018A0003018A0010B5002AD3
:100530000DD1002914D10B4B1A681300BA331B8854
:100540005843136AC018084B1860080010BD0029F2
:1005500006D0064B196019005A60FFF7ABFFF5E7AC
:100560000348F3E7C4050008E40300087803000823
:1005700003018A00F7B5184F04003B680191DE685B
:100580003368834226D90025A94202D1FFF7A5FD91
:10059000050038680368002B1ADA1F220123224065
:1005A000934064097268A4001419226813420DD0A4
:1005B0009A43226000240021FFF75EFE019B002B7E
:1005C00002D12800FFF78DFD2000FEBD034CF2E7AD
:1005D000034CF3E7034CF7E7E4030008020188004B
:1005E0000301880004018A000A4B1B68DB681A6853
:1005F00082420DD959681F23420918401E3B83408F
:10060000920050581840431E9841034BC018704741
:100610000248FCE7E40300080001880004018A00A6
:10062000054B1B681A0088321B6812689B181868F3
:10063000000AC0B27047C046C4050008044B1B68DE
:100640001A0088321B6812689B181868000E7047E1
:10065000C4050008024B18694007C00F7047C04628
:1006600000002740A6220549D2008B580220DB4318
:100670009B0702D00123885818407047000026408D
:1006800010B5FFF7EFFF0023022801D1014B1B68D3
:10069000180010BDEC030008094A83009B18D02203
:1006A0009200985807221040042807D1C0229200D7
:1006B00098581F2303408020400018437047C046CD
:1006C0000000264010B5FFF7E7FF02281CD005D830
:1006D000002824D0012814D0002014E01223FF3376
:1006E000984214D01423FF33984215D0033B98420C
:1006F000F2D10C4A0C4BD358002BEDDA80200002CB
:1007000001E00A4B186810BDFFF7BAFFFBE7FFF7DF
:10071000A1FF0028E0D0F1E7024A054BEBE70548CE
:10072000F1E7C046000026400C050000E803000881
:100730003C05000000127A00B023154ADB00D358B4
:1007400010B59903DB01DB0F890BC371114B0160FD
:10075000D3580F24D904DB01DB0D0381B123DB0067
:10076000D358C90C81801900214081721909214098
:10077000C172D9029B009B0F8373074BC90CD358DE
:1007800081815A05DB01520FDB0D8271038210BD9E
:1007900000002640840500008C05000010B5104BB9
:1007A000421E1B683F331B78934216D97F221F24B9
:1007B0008030FF300B4B8000C3581A400A701A0C6F
:1007C0002240180A8A701A012040E2404870002036
:1007D0009B009B0FCA700B7110BD0348FCE7C0461D
:1007E000C40500080000264001004A00F0B589B0A9
:1007F00003AC14220021200000F0F6FD2000FFF7DA
:100800009BFFB0231A4ADB00D25800239A4203DA36
:10081000A37B023B5A1E9341E57900266A1E95414F
:100820000135B34221D0A488B4421ED0039B3000CE
:100830000193FFF747FF2A00330007003100200033
:1008400000F0BCFC0C0005003300019A31003800B8
:1008500000F0B4FCE6076A08324363088018594187
:100860002A00230000F08AFC0600300009B0F0BD29
:1008700000002640F0B50026244B85B01B68070019
:100880003F331B78B3423ED0B0423CD083423AD390
:100890000522310002A800F0A7FD02A93800FFF7E9
:1008A0007DFF3B008033FF33194A9B009B58B342C6
:1008B00029DA02AB1B79022B25D002AB5C78B4425B
:1008C00021D09D78B5421ED01B7838000193FFF7E8
:1008D000F9FE2A00330007003100200000F06EFC12
:1008E0000C0005003300019A3100380000F066FC6E
:1008F000E6076A0832436308801859412A0023003A
:1009000000F03CFC0600300005B0F0BDC405000856
:100910000000264010B5041E04D1FFF767FF002831
:1009200006D008E0064B1B683F331B78834203D296
:100930002000FFF7C7FE10BDFFF79CFFEFE7C046A2
:10094000C4050008E02210B50124094B8000920084
:10095000C018835880589B069B0F9C400F2318405B
:10096000FFF7D8FF63081818210000F07BFB10BDCB
:1009700000002640144B30B51A68072413002C33AE
:100980001B781F2B15D883081D00A5432C1E0FD1E3
:1009900003342040A040814012689B002032D318CD
:1009A0000A00FF2181401C686240114061401960CB
:1009B00030BD802320401B06184380239B01126812
:1009C000C91889008850F3E7C4050008064B9A68E7
:1009D0000300064810339B00824202D19858995078
:1009E0007047034AD058FBE700ED00E00000000824
:1009F00000000010F8B506000D0000283AD00023D2
:100A0000C05E002828DB7188FFF7B4FF0024FF22B6
:100A1000032794460023F05E716883B21F40FF00F5
:100A20006646BA4089013140D243B940002815DBFF
:100A3000114E83089B009B19C026B6009F593A406F
:100A4000114399510D4B9A680D4B9A4202D12900DE
:100A5000FFF7BCFF2000F8BD0A4CD8E70F26334053
:100A6000083B064E9B089B009B19DE6932401143F0
:100A7000D961E7E7034CEDE700E100E000ED00E0BD
:100A80000000000801005600FEE7000002680A4B63
:100A900010B51A6042685A6082689A60C268DA606B
:100AA00002691A6142695A6182699A61C269DA61AE
:100AB000FFF7EAFF10BDC04690030008B0235B05B6
:100AC0005A782120002A01D05878C0B27047B0234C
:100AD0005B059A89002A02D0988980B270478020ED
:100AE0004000FBE77FB5274B86000D00F458042932
:100AF00001D0012927D100200FE0A3682B420BD1A0
:100B0000E36829001A685B6802920193039302A8C4
:100B1000236898471C4B1C606469002C0BD01B4B4E
:100B20009842EAD1012DE8D1174B18481A68184BA2
:100B30009A5104B070BD012DFBD1144B9842F3D0F3
:100B4000134B9C51F5E7022906D10F4B1B68181E69
:100B5000EFD01C6903E01C006369002BFBD100206F
:100B6000002CE6D0A3682B4209D1E36829001A685B
:100B70005B6802920193039302A823689847246953
:100B8000EEE7C046300400082C040008FF004200D5
:100B9000180400081A4B1B68190088311A68096884
:100BA00051180968016219008C31096852181268DD
:100BB00042621A0046321278002A1FD09A68E03248
:100BC0001268D2061AD5F222DB68D2019A58026066
:100BD000F022D2019A5842600A4A9A5882600A4A20
:100BE0009A58C260094A9A580261094A9A58426161
:100BF000084A9A588261084A9B58C3617047C046A8
:100C0000C405000804780000087800000C78000093
:100C10001078000014780000187800001A4B1B6848
:100C20001A008832196812688A18016A11601A005D
:100C30008C32196812688A18416A11601A004632AB
:100C40001278002A1ED09A68E0321268D20619D5AE
:100C5000F0224168DB68D201995081680B4A9950B3
:100C6000C1680B4A995001690A4A995041690A4A78
:100C700099508169094A9950C169094A9950016896
:100C8000E83299507047C046C40500080478000057
:100C9000087800000C78000010780000147800003C
:100CA00018780000F7B50700FFF708FF664D06004B
:100CB0006B68002B00D07DE0FFF70FFA6B680090A7
:100CC000002B00D089E0614C22681300BA331988E8
:100CD00007234B43126A9B181A68002AFCDADB6868
:100CE000DA0021D51B0F1B0759480193FFF752FF6C
:100CF0005849212E00D075E02268902013008833D7
:100D00001C68136800011C1923680B40034323600F
:100D100013008C3312681B68D3181A6811400843FB
:100D200018604B4B019A13438022484E920531685C
:100D300013430A00BA321088072200244243096A8A
:100D40005218D36054605368FFF7C1FE80235B00E4
:100D500098425DD1380000F05BFB32681300BA3373
:100D6000198807234B43126A9B181A68002AFCDA79
:100D7000DF68FB0003D538010009FFF74FFF364B52
:100D800032681F401300BA33198807234B43126A95
:100D900000989B180022DF605A60FFF7A2F9002C30
:100DA0000FD16B68002B03D008210120FFF79AFEBA
:100DB0002000FEBD01210800FFF794FE041E00D1B3
:100DC0007AE76B68002B03D002210120FFF78AFE2F
:100DD000224B9C42ECD0224CEAE704210120FFF791
:100DE00081FE70E720688022030088331C68036856
:100DF00052001C1923680B401343236003008C33FB
:100E000000681B68C318186801400A431A6088E725
:100E100033681A00BC32196A126852181168002926
:100E200010DBBA331B889A181368002B0ADB0423E3
:100E30000C4A11690B431361012F01D030BF8CE7BD
:100E400020BF8AE7054C88E730040008C405000885
:100E5000F0030008FF00FFFFFFFFFFDF0500420077
:100E6000FF00420000ED00E0C02280200649520051
:100E70008B58C0059B009B0803438B5080238858E8
:100E80001B0603438B5070470000264010B562B626
:100E9000034800F0C1F80020FFF704FFFBE7C0465D
:100EA0000020001010B50020FFF7F8FA10BD7047C1
:100EB00010B50020FFF746FD041E25D0134B186027
:100EC000FFF7BCFB411C200000F0CCF8104B0400E5
:100ED0001860FFF7A5FB411C200000F0C3F80D4B84
:100EE000441E18600C49200000F0BCF8FA210B4B9E
:100EF000013018708900200000F0B4F8084B013070
:100F00001860084BC003186010BDC046840000087C
:100F1000880000088000000840420F00940000088C
:100F2000900000088C00000810B52048FFF71CF95D
:100F3000B022E02130201E4CD200A35889005B0073
:100F40005B08A35063588343635080235B04A35022
:100F5000184B194AE250A02204339201E250FF22BA
:100F6000164BE250FFF780FFC02201215200A35828
:100F70008B43A350FFF79BFFFFF79AFF104B032013
:100F80001A681300BA33198807234B43126A802169
:100F90009B180022DA605A600A4AFFF7C7FA0A482B
:100FA000FFF79AF90948FFF7D3F910BD2014001094
:100FB0000000264084050000010002008C050000AE
:100FC000C40500088003000844040008E014001071
:100FD0009023034A5B01D058032318407047C04652
:100FE0000000204010B59024FFF777F8074B64010C
:100FF0001A5907491140074A0A431A5110225968E1
:101000001142FCD0FFF76DF810BDC0460000204033
:10101000FCFF00000100FA05F8B590250E4C6D01AB
:101020000700FFF75AF863590600DB439B0701D11D
:10103000FFF7D8FF80239B00E7506359074A1A4007
:10104000074B13436351102362681A42FCD03000EF
:10105000FFF747F8F8BDC04600002040FCFF000045
:101060000300FA05002243088B4274D303098B4224
:101070005FD3030A8B4244D3030B8B4228D3030C68
:101080008B420DD3FF22090212BA030C8B4202D30A
:101090001212090265D0030B8B4219D300E0090A32
:1010A000C30B8B4201D3CB03C01A5241830B8B423B
:1010B00001D38B03C01A5241430B8B4201D34B0324
:1010C000C01A5241030B8B4201D30B03C01A524189
:1010D000C30A8B4201D3CB02C01A5241830A8B420E
:1010E00001D38B02C01A5241430A8B4201D34B02F7
:1010F000C01A5241030A8B4201D30B02C01A52415B
:10110000CDD2C3098B4201D3CB01C01A524183090E
:101110008B4201D38B01C01A524143098B4201D348
:101120004B01C01A524103098B4201D30B01C01A73
:101130005241C3088B4201D3CB00C01A52418308ED
:101140008B4201D38B00C01A524143088B4201D31A
:101150004B00C01A5241411A00D20146524110467A
:101160007047FFE701B5002000F006F802BDC04659
:101170000029F7D076E770477047C046002B11D1A1
:10118000002A0FD1002900D1002802D00021C94334
:10119000081C07B4024802A14018029003BDC046D3
:1011A000D9FFFFFF03B4684601B5029800F030F89C
:1011B000019B9E4602B00CBC7047C046F0B5CE46BF
:1011C000474615042D0C2E0080B50704140C3F0C67
:1011D0009946030C7E435D43674363437F19340C98
:1011E000E4199C46A54203D980235B029846C44477
:1011F0004B4643435143250C36046544360C2404C6
:10120000A4195B19591820000CBC90469946F0BDF2
:10121000F0B54F464646D646C0B5040082B00D0034
:10122000914698468B422FD82CD04146484600F034
:10123000CFF829000600200000F0CAF8331A9C46B7
:10124000203B9A4600D576E04B46524693401F001D
:101250004B46624693401E00AF4228D825D05346E5
:10126000A41BBD41002B00DA7BE00022002300928A
:101270000193012352469340019301236246934018
:10128000009318E08242D0D90022002300920193FB
:101290000A9B002B01D01C605D600098019902B090
:1012A0001CBC90469946A246F0BDA342D7D9002265
:1012B0000023009201936346002BE9D0FB07984678
:1012C000414672080A437B0866460EE0AB4201D1F4
:1012D000A2420CD8A41A9D41012024196D4100217D
:1012E000013E24184D41002E06D0AB42EED9013EFE
:1012F00024196D41002EF8D1009801995346001928
:101300006941002B23DB2B005246D3402A00644660
:10131000E2401C0053461500002B2DDB26005746EB
:10132000BE40330026006746BE403200801A994115
:1013300000900191ACE7624620239B1A4A46DA40AE
:101340006146130042468A4017001F4380E7624609
:1013500020239B1A2A0066469A402300F340134339
:10136000D4E76246202300219B1A002200910192BB
:101370000122DA40019280E72023624626009B1A70
:10138000DE402F00B0466646B74046463B0033433A
:10139000C8E7C0461C2101231B04984201D3000C5E
:1013A00010391B0A984201D3000A08391B099842D8
:1013B00001D30009043902A2105C40187047C046EE
:1013C000040302020101010100000000000000000E
:1013D00010B5002903D1FFF7DDFF203002E0081C23
:1013E000FFF7D8FF10BDC04603001218934200D18A
:1013F000704719700133F9E7F8B5C046F8BC08BC6E
:101400009E467047F8B5C046F8BC08BC9E4670477B
:1014100001B40248844601BC604700BF6102000875
:1014200000002040000024400000004000000000B8
:1014300000002340000030400000314000009F4089
:10144000000022400000104000009D40202020208D
:1014500020101010101D1D8017007500FF030602DC
:1014600006003604102000007FC0000000040000C9
:10147000000000000019324B647D00000000008075
:101480004000080B100000000000FF012002001FB8
:1014900000800004FF081018001000140018001C41
:1014A0004044484C500000000810000008000000B4
:1014B00004000000041000000012000004210000DD
:1014C000002100000016000040114002C413001368
:1014D0008013A01340138813A81320001C000000E1
:1014E00003000000010000000100000000000000F7
:1014F000050360000400000001000000000000007F
:10150000010000000604600008000000A4050008B7
:10151000A50E001000000000F8FCFF7F0100000095
:1015200000000010000000088000000040150010BE
:1015300080000008F8020000B00300081802000054
:1015400000093D0000127A0000093D000000D007AC
:10155000A00F000004000000A9000010810000108E
:1015600080B230B5C00020D0104B07221C68230089
:10157000BA331B885A43236AD31819680029FCDA46
:101580003E210B4B062519600A4B0B491960A3211C
:101590000A4BC9005D500A4958505858206A121821
:1015A000002050605A58002AFCDA30BDC4050008FB
:1015B00004012640080126401E1F000000002640AE
:1015C0001C05000010B54378FF2B11D100F0ECF89A
:1015D0000400032000F0F8F8C3685A68012311687A
:1015E0001943116011681942FCD1200000F00CF978
:1015F00010BDF7B500900020019100F0E5F83F4DD7
:1016000006002B681A005033BC3214681B7804198A
:10161000002B5AD000F0E0F8070003281BD000F0A0
:10162000C3F8374A374B0500D358002B3EDA364A09
:101630000121300000F0F0F8002837D10198FFF7C1
:101640008FFF009B002B3ED02368002BFCDB00F0BB
:10165000B3F804002BE0062000F0B6F82B68BC338A
:101660001B68C0180368002B02DA284C2000FEBD5E
:10167000002000F0B9F8264B9842F6D00023254A06
:1016800019001268012000F0B7F80025A842ECD13B
:10169000002000F0A9F81E4A1F4B904203D09D4243
:1016A000E3D00135F4E79D42B9D1DEE7174C032FB3
:1016B00005D10121002000F0B7F80028F9D1280059
:1016C00000F0A2F8D2E7154CF1E700F06DF80E4AF1
:1016D00005000121300000F09FF8002809D1009B8F
:1016E000002B08D02368002BFCDB00F065F8040019
:1016F000E5E7064CE3E7094CE1E7C046C40500080E
:10170000000026401C050000CC0300080500520024
:1017100001018800DC030008F049020001005000CC
:10172000184BF7B51B68184A5C68042311690B4312
:101730001361012824D030BF2300FC331B69002B28
:101740001DD1A320114B1249124AC0000F681E5828
:1017500015680195104D0D6006251D503E20106046
:101760000E483E351D501D58002DFCDA0C48FC3447
:1017700020610F60A321C9005E50019B1360F7BD7B
:1017800020BFD9E7C405000800ED00E000002640B6
:1017900008012640040126401E1F00001C05000011
:1017A000AAAAAAAA0000000001B40248844601BC0B
:1017B000604700BFDB00001001B40248844601BC52
:1017C000604700BF3902001001B40248844601BCE2
:1017D000604700BF7501001001B40248844601BC97
:1017E000604700BFD10F001001B40248844601BC1D
:1017F000604700BFE905001001B40248844601BCFF
:10180000604700BFB903001001B40248844601BC20
:10181000604700BFE300001001B40248844601BCE9
:10182000604700BF9D02001001B40248844601BC1D
:10183000604700BF750500100000000000000000B8
:101840000000000000000000000000000000000098
:1020000000F80F08252300100D0000009923001090
:10201000992300109923001099230010000000005C
:1020200000000000000000000000000095230010E8
:102030009523001000000000952300109523001048
:102040009523001095230010952300109523001070
:102050009523001095230010952300109523001060
:102060009523001095230010952300109523001050
:102070009523001095230010952300109523001040
:1022E00010B5054C237833B9044B13B10448AFF350
:1022F00000800123237010BDA02D00080000000005
:10230000BCA8051008B5034B1BB103490348AFF344
:10231000008008BD00000000A42D0008BCA8051026
:1023200070477047FFF7FCFF72B6144C144DAC4277
:1023300009DA21686268A368043BA2BFC858D0507C
:10234000FAE70C34F3E70F490F4A00209142BCBF73
:1023500041F8040BFAE70D480D490860BFF34F8FB1
:1023600004F0D4F804F0B8F8FFF7DBFF31F0AAF876
:102370002BF09AFE31F060F8FEE70000C8A80510C7
:10238000E0A80510A02D0008D04E0008002000088D
:1023900008ED00E0FEE7FEE700B5042071460842C4
:1023A00002D0EFF3098001E0EFF30880043011F070
:1023B000C5FCFEE7000000000230800803D00130B9
:1023C0000238FCD100BF00BF7047EFF3108072B637
:1023D000704780F3108870472DE9F04789464568BB
:1023E0004E68D2F804A04988B0F802E0B0F8008046
:1023F00000274EE092ED007AD3ED006A27EE267AB0
:1024000077EE877A03EB810392ED017AD3ED006AD0
:1024100027EE267A77EE877A03EB810392ED027A34
:10242000D3ED006A27EE267A77EE877A03EB8103F5
:1024300092ED037AD3ED006A27EE267A77EE877A5B
:1024400003EB8103013810320028D3D10EF00300D2
:102450000AE0B2EC017AD3ED006A27EE267A77EE35
:10246000877A03EB810301380028F2D1ECEC017A82
:10247000013C0B1B06EB83032CB14FEA9E002A465E
:10248000DFED087AE0E70F4405EB8E05B8F10108AF
:1024900005D00AEB870CD9F804300C46EDE7BDE80F
:1024A000F08700BF0000000007EE901A43685268F2
:1024B0000188408800FB01F188081AE093ED007A5A
:1024C00027EE277A82ED007A93ED017A27EE277ABC
:1024D00082ED017A93ED027A27EE277A82ED027A75
:1024E00093ED037A27EE277A82ED037A01381032D2
:1024F00010330028E2D101F0030106E0B3EC017AC9
:1025000027EE277AA2EC017A01390029F6D10020C2
:10251000704770B542684E68018845880C464FF098
:10252000000E2BE0D2F800C0C3F800C003EB81031B
:10253000D2F804C0C3F800C003EB8103D2F808C08E
:10254000C3F800C003EB8103D2F80CC0C3F800C08D
:1025500003EB8103013810320028E3D105F00300BA
:1025600006E052F804CBC3F800C003EB8103013846
:102570000028F6D10EF1010E013C03D006EB8E03CC
:10258000A808E9E770BD70B5F0EC017A4C1EA5080B
:102590004FF0000C664603E00CF1040C013D704660
:1025A00075B390ED007AF4EEC77AF1EE10FA03D528
:1025B0000CF10106F0EE477A90ED017AF4EEC77A5D
:1025C000F1EE10FA03D50CF10206F0EE477A90ED29
:1025D000027AF4EEC77AF1EE10FA03D50CF1030695
:1025E000F0EE477A00F1100E90ED037AF4EEC77A20
:1025F000F1EE10FAD0D50CF10406F0EE477ACBE7F5
:1026000004F0030400E0013C54B1B0EC017AF4EEB4
:10261000C77AF1EE10FAF6D50E1BF0EE477AF2E724
:10262000C2ED007A1E6070BD8B08DFED157A11E0F7
:1026300090ED007A77EE877A90ED017A77EE877ADF
:1026400090ED027A77EE877A90ED037A77EE877ACB
:10265000013B1030002BEBD101F0030304E0B0ECA0
:10266000017A77EE877A013B002BF8D107EE101A3A
:10267000B8EE477AC7EE876AC2ED006A704700BFBE
:102680000000000070B5F0EC017A4C1EA5084FF078
:10269000000C664603E00CF1040C013D704675B376
:1026A00090ED007AF4EEC77AF1EE10FA03DD0CF14A
:1026B0000106F0EE477A90ED017AF4EEC77AF1EE7A
:1026C00010FA03DD0CF10206F0EE477A90ED027A83
:1026D000F4EEC77AF1EE10FA03DD0CF10306F0EE2A
:1026E000477A00F1100E90ED037AF4EEC77AF1EE1E
:1026F00010FAD0DD0CF10406F0EE477ACBE704F0D7
:10270000030400E0013C54B1B0EC017AF4EEC77A66
:10271000F1EE10FAF6DD0E1BF0EE477AF2E7C2EDAD
:10272000007A1E6070BD000010B514468B08DFED06
:102730001F7A19E090ED007A27EE077A77EE277A74
:1027400090ED017A27EE077A37EE277AD0ED027AFC
:1027500067EEA77A37EE877AD0ED037A67EEA77A2D
:1027600077EE877A013B1030002BE3D101F00303B1
:1027700006E0B0EC017A27EE077A77EE877A013B24
:10278000002BF6D107EE101AB8EE477AC7EE876A2B
:10279000F5EEC06AF1EE10FA05DB16EE900A2CF0A9
:1027A00081FC206010BD00232360FBE700000000D7
:1027B00030B54FF0000E1DE032F81EC04FEA9C0C01
:1027C0000EF1010332F813309B0850F82C4050F8FA
:1027D000235040F82C5040F823400CF1010C50F8E5
:1027E0002C40013350F8235040F82C5040F823403F
:1027F0000EF1020E7145DFD830BD2DE9F0412DED0F
:10280000028B90B006460846358801EB8507746850
:102810004FEA550801EB880E07EB880CED083A46A5
:102820000B46CFE093ED005A8DED0C5A93ED016A03
:102830008DED0D6A93ED021A8DED0E1A93ED037A6C
:102840008DED0F7A92ED000A8DED080AD2ED010AA6
:10285000CDED090A92ED023A8DED0A3AD2ED031A56
:10286000CDED0B1A9EED002A8DED042ADEED012A36
:10287000CDED052A9EED024A8DED064ADEED034AB6
:10288000CDED074ADCED005ACDED005ADCED016AD2
:10289000CDED016ADCED023ACDED023ADCED037AD2
:1028A000CDED037A35EE008A83ED008A36EE208A7C
:1028B00083ED018A31EE038A83ED028A37EE218AA5
:1028C00083ED038A35EE405A8DED085A36EE606A84
:1028D0008DED096A31EE433A8DED0A3A37EE617AB1
:1028E0008DED0B7A72EE251ACEED001A72EEA61A55
:1028F000CEED011A74EE231ACEED021A74EEA71A69
:10290000CEED031A75EEC25ACDED005A76EEE26AAC
:10291000CDED016A73EEC42ACDED022A77EEE47A9A
:10292000CDED037AD4ED004A94ED014A65EE243AE8
:1029300026EE042A26EE246A25EE045A73EE823A25
:10294000C2ED003A36EE456A82ED016A25EE846AF0
:1029500026EEA45A66EE846A65EEA45A36EE456AFF
:102960008CED006A76EEA56ACCED016A94ED026A00
:10297000D4ED035A23EE065A67EE254A27EE067A6F
:1029800063EE256A35EE245A82ED025A37EE667AF6
:1029900082ED037A62EEA56A27EE865A67EEA57A83
:1029A00022EE867A76EEC56ACCED026A77EE877AF9
:1029B000CCED037A013D103410320CF1100C0EF105
:1029C000100E1033002D7FF42DAF1FFA88F802236C
:1029D0007268414600F062FB022372684146384645
:1029E00000F05CFB10B0BDEC028BBDE8F0812DE97E
:1029F000F04F2DED048B95B0054606900C460791DF
:102A000003885B0801EB8302039201EBC3010E46CE
:102A1000049101EB83000590171FA0F1040C0CEB4F
:102A200083016D685B080293234694ED007A344677
:102A3000A6F10408D6ED007A37EE272A37EE677A3A
:102A4000D3ED017AD6ED016A77EEA62A77EEE67A23
:102A500092ED013A73EE073AD0ED016A73EEE63A71
:102A6000CDED103AD2ED005A37EEE54A90ED006A0E
:102A700034EE064A8DED114A72EE654A74EEC64A8E
:102A8000CDED0C4A32EEC35A35EE665A8DED0D5A35
:102A900037EE437A36EE877A8DED087A75EEA77AAF
:102AA00077EEC67ACDED097A75EE825A36EE256A52
:102AB0009E461E46083683ED006AD2ED016A76EE28
:102AC000A26A034690ED016A76EE866ACEED016A4F
:102AD00010460832C0ED003A80ED014A2046083029
:102AE000C4ED004A84ED015A1C46083384ED007A97
:102AF000C4ED017A05F1080A05F1100405F1180E7C
:102B0000029DA5F1020B4FEA5B0B22E1D6ED006AB4
:102B1000D0ED007A76EEA73A76EEE76A96ED017A86
:102B2000D0ED017A37EE274A37EE677AD2ED017A97
:102B300037EEA62A93ED013A32EE432A8DED102AA4
:102B4000D2ED004A77EE645A93ED006A75EE865A2C
:102B5000CDED115A73EEE42A72EEC62ACDED0C2AA1
:102B600034EE675A35EE435A8DED0D5A76EEE76A2C
:102B700033EE263A8DED083A34EE877A77EE467AD0
:102B8000CDED097A74EEA34A36EE246A354608354F
:102B900086ED006A019592ED017A37EE047AD3ED65
:102BA000016A37EE267A86ED017A57ED016A1CED4F
:102BB000017A76EE878A76EEC76A97ED007A9CED09
:102BC000000A77EE001A37EE400AD8ED000A91EDC0
:102BD000001A30EEC19A39EE264A8DED124A18EDF0
:102BE000018A70EE483A11ED017A73EE873ACDED25
:102BF000133A78EEC84A74EEC74ACDED0E4A31EE6C
:102C0000E06A36EE416A8DED0F6A79EE666ACDEDC7
:102C10000A6A37EE487A37EE407A8DED0B7A70EE1D
:102C2000A10A31EE201AA7F1080587ED001A58ED28
:102C3000011A71EEA81A11ED011A71EE811A47ED11
:102C4000011A0AF10809DAED001A9AED011A62EE8A
:102C5000210A25EE810A65EEA15A22EE012A70EEC4
:102C6000800A02F1080AC2ED000A75EEC25AC2EDEE
:102C7000015A63EE815A24EE212A24EE014A63EEC2
:102C8000A13A75EEC25AA8F10806C8ED005A34EE12
:102C9000234A08ED014A94ED004AD4ED015A10345C
:102CA00062EE843A25EE252A25EE045A62EEA52A24
:102CB00073EE823A02460832C0ED003A35EE625AAF
:102CC00080ED015A26EE445A64EEA53A64EE844A39
:102CD00026EE256A75EE635AACF10807CCED005A72
:102CE00036EE646A0CED016A9EED006ADEED015A73
:102CF0000EF1180E23EE065A67EEA54A67EE867AA5
:102D000023EE253A35EE245A1846083083ED005A52
:102D100077EEC37AC3ED017A67EE257A26EE865AFE
:102D200066EEA56A27EE067A77EEC57AA1F1080C61
:102D3000C1ED007A36EE877A01ED017A0BF1FF3BA7
:102D4000034610465246CA466146BC46B0462F4628
:102D5000019EBBF1000F7FF4D9AE96ED004AD0ED95
:102D6000004A34EE242A34EE644A96ED015AD0ED3E
:102D7000017A75EE272A35EE675AD2ED017A77EEA1
:102D8000845AD3ED014A75EEE45ACDED105A92ED16
:102D9000003A75EE436AD3ED003A76EEA36ACDEDC4
:102DA000116A32EE436A36EE636A8DED0C6A32EEDA
:102DB000E77A37EE647A8DED0D7A34EE674A74EE79
:102DC000844ACDED084A33EE055A75EE637ACDEDAF
:102DD000097A33EE023A73EE833AC6ED003A92ED89
:102DE000015A35EE225A93ED014A35EE045A86ED2A
:102DF000015ADAED003A9AED014A25EEA35A26EE81
:102E0000843A66EEA36A65EE845A35EE035A82ED83
:102E1000005A76EEE56AC2ED016A94ED005AD4EDEF
:102E2000015A66EE056A27EE254A27EE057A26EE58
:102E3000256A76EE846AC0ED006A37EE467A80ED48
:102E4000017A9EED006ADEED016A24EE867A67EE75
:102E5000A65A67EE867A64EEA64A37EE257A83EDA7
:102E6000007A77EEE47AC3ED017ABDF808400423D6
:102E7000069D6A682146079800F010F904236A68E5
:102E80002146039800F00AF904236A682146049851
:102E900000F004F904236A682146059800F0FEF862
:102EA00015B0BDEC048BBDE8F08F2DE9F04106466E
:102EB0000C46174698460588012A0FD0B5F5807F45
:102EC00021D025D8402D2AD019D9802D34D0B8F161
:102ED000000F36D1012F3AD0BDE8F08101F1040C8A
:102EE000002109E0DCED007AF1EE677A63460CF12F
:102EF000080CC3ED007A0131A942F3D3DEE7102DAF
:102F00001AD0202DE3D121463046FFF770FDDEE7D1
:102F1000B5F5006FF7D009D9B5F5805FD7D101239A
:102F200072682946204600F0B9F8D0E7B5F5007F71
:102F3000F5D0B5F5806FCAD121463046FFF75DFC6C
:102F4000C5E7B268B1892046FFF732FCC2E707EE59
:102F5000905AF8EE677AF7EE006A86EEA77A0023B9
:102F60000DE0D4ED007A67EE877AC4ED007AD4EDF7
:102F7000017A67EEC77AC4ED017A08340133AB42B7
:102F8000EFD3A9E7018000234360B1F5807F55D0DE
:102F90000FD9B1F5006F3FD02CD9B1F5805F68D162
:102FA000354B9A8982819A6882605B684360002011
:102FB000704740294BD00AD9802918D12F4B9A89C4
:102FC00082819A6882605B684360002070471029A4
:102FD00046D0202908D12A4B9A8982819A6882603A
:102FE0005B684360002070474FF0FF3070474FF040
:102FF000FF307047B1F5007F17D0B1F5806F08D171
:10300000204B9A8982819A6882605B6843600020C5
:1030100070474FF0FF3070471B4B9A8982819A6846
:1030200082605B68436000207047184B9A898281F8
:103030009A6882605B68436000207047144B9A89ED
:1030400082819A6882605B68436000207047114B00
:103050009A8982819A6882605B6843600020704729
:103060000D4B9A8982819A6882605B684360002078
:1030700070474FF0FF307047645105101451051030
:1030800054510510045105103451051074510510A8
:103090004451051084510510245105102DE9F04FBD
:1030A0002DED0E8B8DB08146079108920B93069102
:1030B000069B4FEAD30A4FF0000E0EEB0A010EEB0F
:1030C0004A030AEB030503EB4A020AEB020602EB92
:1030D0004A070AEB070B4FEACE0809EBCE0090ED4A
:1030E000007A4FEAC20C09EBC202D2ED007A77EE09
:1030F000276A37EE677ACC00019409EBC10102918F
:10310000D1ED005AF10009EBC6060396D6ED007A20
:1031100035EEA76A75EEE75ADE0009EBC30393EDBF
:10312000005AFC00049409EBC707D7ED007A75EE4E
:10313000274A75EE677AEC00059409EBC5050995F9
:10314000D5ED003A4FEACB040A9409EBCB0B9BED8B
:10315000004A33EE845A73EEC43A76EEE40A76EE11
:10316000A46A36EE451A36EE056A36EE865A80EDCA
:10317000005A76EEC66AC2ED006A08F10408C84437
:1031800098ED006A0CF1040CCC44DCED006A36EEDC
:10319000265A76EE664A019C04344C4494ED006A4B
:1031A00004314944D1ED006A36EE263A36EE666ABD
:1031B00004364E4496ED004A049A151D4D44D5ED53
:1031C000006A34EE262A34EE664A059A04324A44EE
:1031D000D2ED006A0A9804304844D0ED002A76EE19
:1031E000A21A76EEE26A75EE422A35EE025A33EE04
:1031F000612A33EE213A75EE031AC8ED001A35EE56
:10320000435A8CED005A30EE825A83ED005A30EE6C
:10321000C23A87ED003A32EEC15A86ED005A31EEDD
:10322000225A85ED005A35EEE35ADFEDF12A25EEFC
:10323000225A75EEA35A65EEA25A36EE663A23EE8E
:10324000223A76EE266A66EEA26A77EE453A37EEC5
:10325000057A37EEE55A77EEA57A74EEC35A34EE66
:10326000836A74EE664A74EE266A37EE264A029B3B
:1032700083ED004A37EE667A8BED007A33EEA47A5E
:10328000039E86ED007A73EEE43A099DC5ED003A9F
:1032900036EE677A84ED007A77EE867AC0ED007AB2
:1032A00075EEC57AC1ED007A35EE255A82ED005AE9
:1032B000069B9E44079B73453FF6FFAEBAF1070F8E
:1032C00040F2BA8101230A9300230993D046099C56
:1032D0000B9B1C4404EB440204EB8403E71803EB50
:1032E0004406E500089800EBC401D1ED008A2146B0
:1032F0002401099100EB011191ED008A4FEAC20C03
:1033000000EBC20292ED000A09984101089A02EB13
:103310004012D2ED000ADA00089800EBC30393EDE7
:10332000001AFB0000EBC707D7ED001AF70000EB0F
:10333000C60696ED002A043506460544D5ED002A5A
:103340000434044494ED003A0CF104003044D0ED10
:10335000003A0431314491ED004A04323244D2ED56
:10336000004A0433334493ED005A04373744D7ED11
:10337000005A0A9B9A460AEB08000AEB480308EB3E
:10338000030403EB480208EB020602EB480108EBDA
:10339000010B4FEACA0E09EBCA0595ED009A4FEAF8
:1033A000C20C09EBC202D2ED007A79EE276A39EE3F
:1033B00067AAC700019709EBC000029090ED006A70
:1033C000F00009EBC6060396D6ED007A36EE277AB2
:1033D00036EE67CADF0009EBC30393ED006ACE0047
:1033E00009EBC1010491D1ED007A76EE279A76EED1
:1033F000677AE10009EBC4040594D4ED00AA4FEA12
:10340000CB0409EBCB0B9BED006A3AEE869A3AEEC1
:10341000C66A36EEE9DA76EEA96A37EE49EA37EEA1
:10342000097A36EE879A85ED009A76EEC7EA0EF1B4
:10343000040ECE449EED00BA0CF1040CCC44DCED3D
:10344000006A3BEE267A3BEE66BA019D04354D4498
:10345000D5ED00BA04304844D0ED006A7BEEA6CA30
:103460007BEEE6BA04374F44D7ED00AA04364E444B
:10347000D6ED006A7AEEA69A7AEEE6AA04314944BD
:1034800091ED009A04344C44D4ED006A79EE26DACA
:1034900079EE666A37EE699A37EE297A7CEEED9A14
:1034A0007CEEADCA7DEE29DA3DEE69DA77EE2C9A34
:1034B000CEED009A37EE6C7A79EE4E9A3EEE099A8E
:1034C00060EEAECA24EE07EA20EE877A64EE2EEABA
:1034D0007CEE8ECAC2ED00CA37EE6E7A8CED007AB1
:1034E00028EE2D7A63EE29CA68EE299A63EE2DDA6A
:1034F00037EE2C7A83ED007A79EEED9AC7ED009ADB
:1035000021EE8D7A65EE099A21EE899A25EE0DDA83
:1035100037EE297A049A82ED007A39EE4D9A86EDDB
:10352000009A3CEE469A9FED327A29EE079A3CEEDD
:10353000066A26EE076A3BEEE6CA2CEE07CA7BEE69
:10354000A66A66EE876A7AEE499A3AEE099A77EEAB
:10355000C6BA77EE867A7BEE4CCA3BEE0C6A3AEE40
:10356000E6AA7AEEA66A39EE26BA39EE667A79EEDE
:103570008AAA79EECA9A76EE676A77EE867A3CEE88
:10358000EBAA3BEEAC9A28EE8B6A62EEA6BA68EE26
:10359000A66A22EE8BBA36EE2B6A029B83ED006A96
:1035A00076EECB6AC5ED006A62EE076A25EEA7BA31
:1035B00062EE277A25EE876A36EE8B7A8BED007AFB
:1035C00077EEC67AC4ED007A61EE2A7A24EE8A6A32
:1035D00021EE0A7A64EEAA6A77EE867A039EC6ED39
:1035E000007A37EE667A80ED007A60EE296A01E0B3
:1035F000F304353F23EE896A60EE097A23EEA97A57
:1036000076EE866A059CC4ED006A77EEC77AC1ED56
:10361000007A069B9A44079B53453FF6ACAE0A9B43
:1036200001330A9398453FF652AE0B9BDB009BB2E9
:103630000B93CDF818803BE50DB0BDEC0E8BBDE8CB
:10364000F08F00BF00B54369B0F800C00CF1FF3C3B
:10365000D1ED007A91ED017A03F1080077EEA77AB7
:1036600037EE077A77EE876AB6EE006A66EE866A0C
:1036700013460833C2ED006A77EEC77A67EE867AA2
:10368000C2ED017A01EBCC0E08319EED015A724673
:10369000AEF1080E92ED007AD1ED004AD1ED017A3B
:1036A000D0ED006AD0ED015A083037EE646A35EE8D
:1036B000274A66EE863A25EE866A66EE846A65EEED
:1036C000845A37EE247A37EE237A37EE257AF6EEEF
:1036D000005A27EE257A83ED007A77EEC57A77EEE9
:1036E000867A77EEE67A1A46083367EEA57AC2ED57
:1036F000017A08310CF1FF3CBCF1000FC5DC5DF82C
:1037000004FB10B5436900880138D1ED007A91EDD2
:10371000016A03F1080E37EE867AF6EE006A27EEAC
:10372000267A02F1080C82ED007A77EEC67A67EE0F
:10373000A67AC2ED017A01EBC004083137E094EDBE
:10374000015A2346083C93ED007AD1ED005AD1EDA1
:10375000017A72460832DEED006A9EED016A35EEAE
:10376000C74A75EE274A26EE843A66EE243A26EEDC
:10377000046A66EEA46A37EE257A37EE437A37EEAE
:10378000637AF6EE005A27EE257A634608338CED0D
:10379000007A77EEC57A77EE867A77EEE67A67EE8C
:1037A000A57ACCED017A0831013896469C4600286E
:1037B000C5DC10BDF8B504460D4616461F4643B19C
:1037C000FFF79FFF01233A4631462046FFF76DFB86
:1037D000F8BD01233A46FFF768FB324629462046EA
:1037E000FFF730FFF4E7000050B110B50446102198
:1037F000FFF7C8FB18B920232382034B636110BD78
:103800004FF0FF30704700BF8407051050B110B56E
:1038100004462021FFF7B6FB18B940232382034B4F
:10382000636110BD4FF0FF30704700BF04500510BA
:1038300050B110B504464021FFF7A4FB18B980230E
:103840002382034B636110BD4FF0FF30704700BF10
:1038500084E1041058B110B504468021FFF792FBB3
:1038600020B94FF480732382024B636110BD4FF087
:10387000FF3070478403051060B110B504464FF463
:103880008071FFF77FFB20B94FF400732382034B55
:10389000636110BD4FF0FF30704700BF0448051052
:1038A00060B110B504464FF40071FFF76BFB20B90F
:1038B0004FF480632382034B636110BD4FF0FF30F0
:1038C000704700BF84D1041060B110B504464FF4B6
:1038D0008061FFF757FB20B94FF400632382034B4D
:1038E000636110BD4FF0FF30704700BF84E30410E8
:1038F00060B110B504464FF40061FFF743FB20B9F7
:103900004FF480532382034B636110BD4FF0FF30AF
:10391000704700BF0408051008B5B1F5007F23D03B
:1039200013D8802922D004D9B1F5807F0AD1154B54
:1039300017E020291CD0402901D1134B11E04FF092
:10394000FF3010E04FF0FF300DE0B1F5006F11D007
:10395000B1F5805F01D10D4B03E0B1F5806F0BD164
:103960000B4B63B1984708BD0A4BFAE70A4BF8E7DF
:103970000A4BF6E70A4BF4E74FF0FF30F3E74FF05E
:10398000FF30F0E7553800100D380010F138001006
:10399000A13800107938001031380010E9370010D4
:1039A000C93800102DE9F04F8BB00C469046149F9B
:1039B000DDF854A0DDF858B0DDF864901A9E1D685B
:1039C00022E023690893E3680793D9F80C30069343
:1039D000DAF800300593D8F804300493D8F80030B2
:1039E0000393A368029363680193236800933346AB
:1039F000189A5946384600F00FF8DAF800301F449C
:103A0000D9F80C301E44013D002DDAD100200BB056
:103A1000BDE8F08F002070472DE9F04F87B004908B
:103A2000019103920293DDF85490A9F104030593E8
:103A3000109B1DB2119B18B2C5EA0545C0EA0040B3
:103A400000230093834602E1002213460DE126681D
:103A500020FA86FEDCF800104FEA362620FA86F6B9
:103A600025FA81FA159FE7594FEA312125FA81F1AC
:103A70002AFB0E3320FA87FB21FB06334FEA372758
:103A800020FA87F7666804F1080E2AFB0B2221FB57
:103A9000072220FA86F7DCF804104FEA362620FACF
:103AA00086F625FA81FA5EF809E04FEA312125FA17
:103AB00081F12AFB073320FA8EFB21FB06334FEA04
:103AC0003E2720FA87F7A66804F10C0E2AFB0B228A
:103AD00021FB072720FA86FBDCF808104FEA362680
:103AE00020FA86F625FA81FA5EF809E04FEA3121DC
:103AF00025FA81F22AFB0B3320FA8EF122FB0636DF
:103B00004FEA3E2E20FA8EFEE36810342AFB017144
:103B100022FB0E1120FA83FADCF80C200CF1100CB9
:103B20004FEA332320FA83F325FA82FE54F8097012
:103B30004FEA322225FA82F22EFB0A6620FA87FB30
:103B400022FB03634FEA372720FA87F72EFB0B117E
:103B500022FB071208F1100815990F3941453FF76C
:103B600076AFDDF85490DDF840A0DDF844E00FE0DA
:103B700094F90070774414F9096076441CF9011B2C
:103B8000514401FB073301FB0622013408F101080F
:103B9000C845EDDB8346149921EAE1718B40DF17BC
:103BA000139CE617A24603FB06F40AFB0744A3FB9B
:103BB0000A3713F1804344EB0704DB0F43EA440365
:103BC000149800285CDD00270124BC40013C03EA76
:103BD000040E4FEA640C3B4154D4E046C64500DD78
:103BE00001338A40D11702FB06F6139800FB0166E9
:103BF000A2FB0A2112F1804246EB0106D20F42EAF3
:103C0000460214403A4140D4644500DD0132129925
:103C10000B440A4417998B42B8BF0B4618998B4244
:103C2000A8BF0B4617998A42B8BF0A4618998A421C
:103C3000A8BF0A460298014601F8023B4270019B68
:103C400003EB49030193009B023300930291169BFF
:103C5000013B009A93421BDD039A002A3FF4F4AE25
:103C6000114651F8083B52680391019CDDF810C0E1
:103C70004FF000085846CDF85490DDF814906BE7EB
:103C80004742A1E70CF10108A8E70CF1010CBBE7E2
:103C90005846169B13F0010F00F09880039B002BF1
:103CA00053D01B6800260499019CA9F10F02B2426F
:103CB0004DDD276820FA87FC0A684FEA372720FA8B
:103CC00087F725FA82FE4FEA322225FA82F22EFB8E
:103CD0000C3322FB0737626820FA82FE4B684FEAFA
:103CE000322C20FA8CFC25FA83F24FEA332325FA92
:103CF00083F322FB0E7723FB0C7CA26820FA82FE62
:103D00008B684FEA322720FA87F725FA83F24FEAC9
:103D1000332325FA83F322FB0ECC23FB07C7E2688B
:103D2000103420FA82FCCB6810314FEA322220FA9C
:103D300082F225FA83FE4FEA332325FA83F32EFB22
:103D40000C7723FB02731036AFE70023AAE708467F
:103D5000109D119F4E4509DA14F9012B3A4410F9D0
:103D6000011B294401FB02330136F3E7149A22EACE
:103D7000E2729340DA171399C917139800FB02F205
:103D800003FB0121A0FB033213F1804341EB02024C
:103D9000DB0F43EA4203149A002A1BDD00220121B3
:103DA0009140013903EA01004910134114D48842BB
:103DB00000DD0133129A1344179A9342B8BF134699
:103DC000189A9342A8BF1346029A1370002007B0B6
:103DD000BDE8F08F5242E2E70131E8E72DE9F04F0C
:103DE00089B00290079101921E4600230693B246C5
:103DF00000F0F2BF03924FF0000BDE46CFE04FF031
:103E000080440020E2E06FF000417F1842F10001A1
:103E1000EDE0B3F1004F40F0F0806FF00047ECE0D0
:103E20006FF00042A41843F10002FBE06FF0004085
:103E3000121844F1000008E16FF000400CE102228A
:103E400010E14FF08042002417E16FF00042891822
:103E50004CF1000420E1B3F1004F40F023816FF0FA
:103E600000411FE14FF080484FF0000921E16FF061
:103E70000044091940F100042AE1B2F1004F40F07A
:103E80002E816FF000442AE101212FE14FF08041A3
:103E90004FF0000C33E16FF00041761843F100025F
:103EA0003AE14FF080424FF0000845E16FF00042E8
:103EB0009B1841F100064CE14FF080404FF00008A4
:103EC0005BE16FF000401B1841F1000462E1B2F1C8
:103ED000004F40F066816FF0004462E14FF0804196
:103EE0004FF000086DE16FF00041521843F10004FB
:103EF00074E1B0F1004F40F078816FF0004474E15C
:103F00004FF080434FF000087FE16FF00043C0188E
:103F100042F1000486E1B1F1004F40F08A816FF078
:103F2000004486E14FF080424FF0000891E16FF0CD
:103F30000042891840F1000498E1B3F1004F40F0CD
:103F40009C816FF0004498E14FF0804C4FF00008E6
:103F5000A4E16FF000401B1841F10000ACE1B2F1A8
:103F6000004F40F0B0816FF00040ACE14FF0804472
:103F70000026B7E16FF000401B1841F10000DDE1C1
:103F8000B2F1004F40F0E0816FF00043DCE100252A
:103F9000E3E14FF40061ECE19B440EF1010E019B63
:103FA0009E4580F2EB81029B13F90E30039A9B1A17
:103FB000139A9A42F1DC129A93404FEADA72B2EB0A
:103FC000D37F3FF41CAFD44C4FF0FF30D9174FEAEA
:103FD000EA750AFB01F103FB0512AAFB03710A440F
:103FE0003F1942EB00021146002AFFF60CAFFF0F0B
:103FF00047EA410753453FF40CAF47F07F46F51BB6
:10400000760106F180564FEAE679314606FB09F261
:10401000A6FB064314F1804443EB42031A46002BEF
:10402000FFF6FEAEE40F44EA420423464FEAE47C86
:10403000A04604FB0CF4A3FB032012F1804240EBEA
:1040400044042046002CFFF6F1AED20F42EA4000B5
:10405000B3F1004F3FF4F0AE00F0030480103FF5E1
:10406000EEAE0122944200DD0130F20FB2EBD37FBD
:104070003FF4E7AEA84A4FF0FF3406FB0CFC08FB08
:1040800009CCA1FB0818C44489184CEB040C644605
:10409000BCF1000FFFF6D9AEC90F41EA44019E42C0
:1040A0003FF4D9AE0A187FF5DDAEDFF86C824FF031
:1040B000FF39D417DFF864C2A2FB0C100CFB04001C
:1040C00011EB080140EB090004460028FFF6CFAED3
:1040D000C90F41EA440491498A423FF4CEAE1C44E0
:1040E00004F0010263103FF5CFAE00218A4200DDEB
:1040F0000133F6187FF5CAAE87494FF0FF3CF01741
:10410000874AA6FB026302FB0033761843EB0C03DD
:104110001A46002BFFF6BFAEF60F46EA4206804C69
:10412000344415F0807C01D04FF0FF3C002CBFF6EA
:10413000B8AE794A4FF0FF38E6177A48A4FB003151
:1041400000FB06119B1841EB08010E460029FFF603
:10415000ADAEDB0F43EA460303EA0C0324EA0C048A
:1041600083EA040215F0007C01D04FF0FF3C002AE6
:10417000BFF6A2AE68484FF0FF38D6176A49A2FBD7
:10418000013401FB06411B1841EB08010C460029D4
:10419000FFF697AEDB0F43EA4404634B9A423FF4C9
:1041A00096AE0CEA040422EA0C00604015F0806C24
:1041B00001D04FF0FF3C0028BFF690AE56494FF0BB
:1041C000FF38C617594BA0FB032403FB06435218C4
:1041D00043EB08031C46002BFFF685AED20F42EAE4
:1041E0004404524B98423FF484AE0CEA040420EAA3
:1041F0000C01614015F0006C01D04FF0FF3C00292C
:10420000BFF67EAE444B4FF0FF38CE17484AA1FBB5
:10421000020402FB0642C01842EB08021446002AC0
:10422000FFF673AEC00F40EA4404414B99423FF49D
:1042300072AE0CEA040421EA0C03634015F0805CC2
:1042400001D04FF0FF3C002BBFF66CAE324A4FF06E
:10425000FF38DC17374EA3FB061006FB0400891855
:1042600040EB080004460028FFF661AEC90F41EAA2
:104270004404304A93423FF460AE0CEA040423EA5B
:104280000C02624015F0005601D04FF0FF36002AB4
:10429000BFF65AAEDFF880C04FF0FF38D017264C7B
:1042A000A2FB043104FB001113EB0C0341EB0801EA
:1042B00008460029FFF64DAEDB0F43EA40001E4BD7
:1042C0009A423FF44CAE304022EA0602424015F0DA
:1042D000804501D04FF0FF35002ABFF647AE0E4CA7
:1042E0004FF0FF36D017010141EA127113019B1AFA
:1042F00061EB0001C90041EA5371DB009B1840EB00
:104300000101DB1849411B1946EB01010846002950
:10431000FFF630AE12E000BF010000C0ABAAAA2A2F
:1043200094A8F5707BBEAF63F2CBA24D6CAC162F98
:10433000A4AA5211B72A580211FE0A00DB0F43EA61
:104340004003F22A3FF41CAE2B4022EA05056B40E5
:10435000002F7FF41CAE4FF0FF3525F0004223EA1A
:1043600005035340C3F30B021B133FF512AE40F29B
:10437000FF718A427FF710AE01330DE6BBF1000FEB
:1043800000F07181BBFA8BF3C3F1230205920BFAA3
:1043900003FB0BF1004B4FEAEB726FF000431BEB9A
:1043A000030B42F10002002AC0F25F8101210023C9
:1043B0001BEB010B42EB0302D30F13EB0B0B42F190
:1043C00000024FEA5B0B4BEAC27B5846BBF1000F81
:1043D000C0F24F81D9494FF0FF354FEAE07883466C
:1043E000D74B424203FB0822A0FB033414445B1862
:1043F00044EB05042546002CC0F23F81DB0F43EA65
:10440000450310F13C3F00F03E8103F15A324FEA80
:10441000D079D60FB6EBD07F00F03C81C74F4FF07C
:10442000FF3ED117154600FB01F402FB0844ABFB2D
:10443000023C6444DB1944EB0E04A446002CC0F299
:104440002E81DB0F43EA4C03904200F02E81C3F132
:104450000053B6EBD37F00F02F81B84C4FF0FF37FD
:10446000DE1703FB01F102FB0611A3FB053529440E
:104470001B1941EB07010E460029C0F22181DB0F19
:1044800043EA46031D469900B3F1005FC0F21E8166
:104490006FF00043B5F1005FC0F21A8100242140A3
:1044A0004B40B5F1604F00F316814FF00046B5F177
:1044B000604F00F3128100210B4073401A44D70F64
:1044C000B9EBD27F00F00C819C4E4FF0FF3ED51728
:1044D000114600FB05F402FB0844ABFB023C6444BC
:1044E0009B1944EB0E04A446002CC0F2FE80DB0FA7
:1044F00043EA4C03904200F0FE80C3F10053B7EB57
:10450000D37F00F0FF808D4C4FF0FF36DF1703FBA9
:1045100005FC02FB07C5A3FB01173D44091945EB48
:1045200006052E46002DC0F2F180C90F41EA460172
:104530009A4200F0F1808B00B1F1005FC0F2F6808A
:104540006FF00045B1F1005FC0F2F280002423401B
:104550005D40B1F1604F00F3EE804FF00046B1F1E5
:10456000604F00F3EF8000231D4075402A44D60FB2
:10457000B9EBD27F00F0E980704D4FF0FF37D417D0
:10458000114600FB04F302FB0838ABFB023CE0449D
:104590005B1948EB07084746B8F1000FC0F2D98015
:1045A000DB0F43EA4707904200F0D980C7F100577C
:1045B000B6EBD77F00F0DA80604B4FF0FF30FD178D
:1045C00007FB04F602FB0564A7FB01152C44C91880
:1045D00044EB00042046002CC0F2CC80C90F41EA15
:1045E0004001BA4200F0CC808B00B1F1005FC0F214
:1045F000D1806FF00044B1F1005FC0F2CD800020A7
:1046000003405C40B1F1604F00F3C9804FF00045BA
:10461000B1F1604F00F3C58000231C406C40224480
:104620004FEA4208B2F1804FC0F2BE806FF0004303
:10463000B2F1804FC0F2BA80002108EA010888EA8E
:104640000308B2F1404F00F3B4804FF00043B2F1E1
:10465000404F00F3B080002208EA020888EA03080D
:104660004FF0000E8EE120238EE64FF0FF310B4617
:104670009EE64FF080410025AFE66FF000429B18A8
:1046800044F10005BAE6B0F1004F7FF4BEAE6FF022
:104690000043BAE64FF080474FF0000EC1E66FF0DE
:1046A0000047DB1944F1000CCBE6B0F1004F7FF47A
:1046B000CEAE6FF00043CAE64FF080440027CFE64D
:1046C0006FF000441B1941F10006D8E60023E1E633
:1046D0004FF0FF34E3E60026E9E64FF0FF31EBE66A
:1046E0004FF080464FF0000EF1E66FF000469B1948
:1046F00044F1000CFBE6B0F1004F7FF4FEAE6FF02A
:104700000043FAE64FF080440026FFE66FF00044D5
:10471000091945F1000608E7B2F1004F7FF40BAF2D
:104720006FF000416FF003030D460BE7002509E72A
:104730004FF0FF340BE7002611E700BF010000C077
:10474000C4C3C3C34FF0FF330EE74FF080450027CB
:1047500015E76FF000455B1948F1000720E7B0F15D
:10476000004F7FF423AF6FF000471FE74FF0804307
:10477000002024E76FF00043C91844F100002DE742
:10478000B2F1004F7FF430AF6FF000416FF00303E0
:104790000C4630E700242EE74FF0FF3030E70025CD
:1047A00036E74FF0FF3338E7002341E74FF0FF31A2
:1047B00043E700234BE74FF0FF324DE74FF08041D6
:1047C0000024F9E06FF000417F1842F1000004E19D
:1047D000B3F1004F40F007816FF0004703E16FF045
:1047E0000042A41843F1000212E16FF000401218D9
:1047F00044F100001FE16FF0004023E1022227E1B5
:104800004FF0804200242EE16FF0004289184CF1F5
:10481000000437E1B3F1004F40F03A816FF00041FE
:1048200036E14FF080494FF0000B38E16FF0004463
:10483000091940F1000441E1B2F1004F40F0458117
:104840006FF0004441E1012146E14FF080414FF01B
:10485000000C4AE16FF00042B61843F1000251E14A
:104860004FF080424FF000095CE16FF000429B186E
:1048700041F1000663E14FF080404FF0000971E123
:104880006FF000401B1841F1000478E1B2F1004FD5
:1048900040F07C816FF0004478E14FF080414FF0B0
:1048A000000983E16FF00041521843F100048AE1EE
:1048B000B0F1004F40F08E816FF000448AE14FF07C
:1048C00080434FF0000995E16FF00043C01842F1BA
:1048D00000049CE1B1F1004F40F0A0816FF0004472
:1048E0009CE14FF080424FF00009A7E16FF00042D9
:1048F000891840F10004AEE1B3F1004F40F0B281FD
:104900006FF00044AEE14FF0804C4FF00009BAE187
:104910006FF000401B1841F10000C2E1B2F1004FFE
:1049200040F0C6816FF00040C2E14FF080440026A5
:10493000CDE16FF000401B1841F10000DFE1B2F162
:10494000004F40F0F5816FF00043F1E10022F8E103
:104950004FF08041002401E26FF000415B1842F10A
:1049600000000CE2B8F1004F40F00F826FF0004001
:104970000BE2013213E26FF07F00149B049A98540B
:104980000EF1010E019B9E4580F21C82CDF810E0D5
:10499000029B13F90E30039A9B1A139A9342C0F2AA
:1049A0000C82129A93404FEADA72B2EBD37F3FF453
:1049B00005AFD6494FF0FF34D8174FEAEA720AFB29
:1049C00000F003FB0202AAFB037002447F1842EBD3
:1049D00004021046002AFFF6F5AEFF0F47EA400733
:1049E00053453FF4F5AE47F07F46F51B760106F1DF
:1049F00080564FEAE67B314606FB0BF2A6FB0643E8
:104A000014F1804443EB42031A46002BFFF6E7AE55
:104A1000E40F44EA420423464FEAE47CA14604FB47
:104A20000CF4A3FB032012F1804240EB4404204627
:104A3000002CFFF6DAAED20F42EA4000B3F1004F8D
:104A40003FF4D9AE00F0030480103FF5D7AE012249
:104A5000944200DD0130F20FB2EBD37F3FF4D0AED1
:104A6000AA4A4FF0FF3406FB0CFC09FB0BCCA1FB60
:104A70000919CC4489184CEB040C6446BCF1000FB6
:104A8000FFF6C2AEC90F41EA44019E423FF4C2AEF6
:104A90000A187FF5C6AEDFF874924FF0FF3BD417CB
:104AA000DFF86CC2A2FB0C100CFB040011EB090137
:104AB00040EB0B0004460028FFF6B8AEC90F41EAF0
:104AC000440493498A423FF4B7AE234403F0010201
:104AD0005B103FF5B8AE00218A4200DD0133F618C5
:104AE0007FF5B3AE89494FF0FF3CF017894AA6FB2A
:104AF000026302FB0033761843EB0C031A46002BCB
:104B0000FFF6A8AEF60F46EA4206824C344415F092
:104B1000807C01D04FF0FF3C002CBFF6A1AE7B4A59
:104B20004FF0FF39E6177C48A4FB003100FB06116B
:104B30009B1841EB09010E460029FFF696AEDB0FEC
:104B400043EA460303EA0C0324EA0C025A4015F038
:104B5000007C01D04FF0FF3C002ABFF68CAE6B48C2
:104B60004FF0FF39D6176D49A2FB013401FB064116
:104B70001B1841EB09010C460029FFF681AEDB0F43
:104B800043EA4404654B9A423FF480AE0CEA0404C5
:104B900022EA0C00604015F0806C01D04FF0FF3C21
:104BA0000028BFF67AAE59494FF0FF39C6175C4B63
:104BB000A0FB032403FB0643521843EB09031C46E6
:104BC000002BFFF66FAED20F42EA4404544B9842DA
:104BD0003FF46EAE0CEA040420EA0C01614015F0CB
:104BE000006C01D04FF0FF3C0029BFF668AE474B88
:104BF0004FF0FF39CE174B4AA1FB020402FB0642DD
:104C0000C01842EB09021446002AFFF65DAEC00F41
:104C100040EA4404434B99423FF45CAE0CEA04047E
:104C200021EA0C03634015F0805C01D04FF0FF3C9B
:104C3000002BBFF656AE354A4FF0FF39DC173A4E1F
:104C4000A3FB061006FB0400891840EB090004468C
:104C50000028FFF64BAEC90F41EA4404324A9342A2
:104C60003FF44AAE0CEA040423EA0C02624015F059
:104C7000005601D04FF0FF36002ABFF644AEDFF8F1
:104C80008CC04FF0FF39D017284CA2FB043104FB35
:104C9000001113EB0C0341EB090108460029FFF654
:104CA00037AEDB0F43EA4000204B9A423FF436AE6A
:104CB000304022EA0602424015F0804501D04FF014
:104CC000FF35002ABFF631AE104C4FF0FF36D0173B
:104CD000010141EA127113019B1A61EB0001C90045
:104CE00041EA5371DB009B1840EB0101DB1849419D
:104CF0001B1946EB010108460029FFF61AAEDB0F2F
:104D000043EA4003F22A3FF41AAE11E0010000C06A
:104D1000ABAAAA2A94A8F5707BBEAF63F2CBA24DD2
:104D20006CAC162FA4AA5211B72A580211FE0A0021
:104D30002B4022EA05056B40002F7FF407AE4FF0B1
:104D4000FF3222F0004523EA02035D40EB0FB3EB94
:104D5000D87F3FF4FDAD2B494FF0FF344FEAE873A5
:104D6000EA1705FB03F308FB0232A5FB08300244F7
:104D70005B1842EB04021046002AFFF6EDADDB0F94
:104D800043EA4000A8453FF4EDAD0122059B9A405F
:104D9000013A02EA0004521018413FF5EAAD94428C
:104DA00000DD0130803810F17F0FFFF6E4AD7E2882
:104DB00001DC40B2E1E57F20DFE58023149A02F8B0
:104DC0000E30DDE5029B019A13440293149B1344B9
:104DD0001493069B01330693069B079A93420DDAC0
:104DE000029C94F90020012301988342BFF602A897
:104DF000E1568A42B8BF0A460133F6E709B0BDE87A
:104E0000F08F00BF010000C010282AD8DFE800F0B2
:104E1000092B0D11151F190B1B1321231D172527F6
:104E20000F001248704712487047124870471248E6
:104E3000704712487047124870471248704712482E
:104E4000704712487047124870471248704712481E
:104E5000704712487047124870471248704712480E
:104E60007047124870471248704700BF3052051013
:104E7000AC510510B4510510BC510510C4510510BA
:104E8000CC510510D4510510DC510510E45105102A
:104E9000EC510510F8510510045205100C52051084
:104EA000145205101C52051028520510945105107B
:104EB000A451051050B1C2695AB1026A62B1436A85
:104EC0000BB1002070474FF0FF3070474FF0FF30BC
:104ED00070474FF0FF3070474FF0FF3070470222AD
:104EE000C271082343711021017103218171C273C2
:104EF0004373142303730023837343688360C3687D
:104F0000036170474B790C2B0BD84A7A93420BD034
:104F1000027802F0F00203F00F0313430370002045
:104F200070476FF00300704700207047CB79072B64
:104F30000CD8CA7A93420CD0027802F08F021B017F
:104F400003F0700313430370002070476FF00300F9
:104F50007047002070478B790C2B0BD88A7A9342CC
:104F60000BD0027802F0F00203F00F03134303703A
:104F7000002070476FF003007047002070474B7BA4
:104F80000D2B0BD84A7C93420BD0027802F0F00232
:104F900003F00F0313430370002070476FF003000A
:104FA000704700207047CB7B022B09D8027802F0B3
:104FB000CF021B0103F0300313430370002070473E
:104FC0006FF0030070478B7B042B0BD88A7C9342D5
:104FD0000BD0027802F0F80203F0070313430370CA
:104FE000002070476FF003007047002070470B7D72
:104FF000C3F38103032B13D8DFE803F002060A0E84
:1050000001230380002070470223038000207047A3
:105010000623038000207047082303800020704788
:105020006FF0040070478BB110B59C46DC6984B109
:1050300092B19B78012B06D013460A4601469CF894
:105040000100A04710BD40F08000F5E74FF0FF30B1
:1050500070474FF0FF30F5E76FF00B00F2E738B51F
:1050600004460D460B46022201464020FFF7DBFFB7
:1050700000B138BD29462046FFF744FF0028F8D18B
:1050800029462046FFF752FF0028F2D12946601C2E
:10509000FFF761FFEDE738B504460D460B460222E7
:1050A00001464220FFF7BFFF00B138BD2946204628
:1050B000FFF765FF0028F8D129462046FFF773FF68
:1050C0000028F2D12946601CFFF77DFFEDE700B50F
:1050D00083B0034600228DF8072001220DF107015D
:1050E0000220FFF7A0FF9DF807305B088DF807301E
:1050F00003F00F038DF80730012B08D0022B09D0E5
:10510000032B0AD0072B0BD003B05DF804FB6FF024
:105110000500F9E76FF00600F6E76FF00700F3E728
:105120006FF00800F0E730B585B005460C46134631
:105130000021019102918DF80C10821D01A912200D
:10514000FFF771FF58BB02469DF805301B021BB2EA
:105150009DF804100B4323809DF807301B021BB2FF
:105160009DF806100B4363809DF809301B021BB2AB
:105170009DF808100B43A380032D04D00023A360E7
:10518000104605B030BD9DF80A109DF80B009DF843
:105190000C301B0443EA00230B43A360F0E76FF0DD
:1051A0000102EDE710B584B00C46134600210091D2
:1051B00001910291CDF80B1020BB062269460C200C
:1051C000FFF731FF0246002848D19DF801301B024D
:1051D0001BB29DF800100B4323809DF803301B0287
:1051E0001BB29DF802100B4363809DF805301B0233
:1051F0001BB29DF804100B43A3800023A36010464C
:1052000004B010BD02460C3269460C20FFF70BFFBC
:10521000024630BB9DF801301B021BB29DF8001006
:105220000B4323809DF803301B021BB29DF8021034
:105230000B4363809DF805301B021BB29DF80410E0
:105240000B43A3809DF80C109DF80D009DF80E30C7
:105250001B0443EA00230B43A360D0E76FF0010275
:10526000CDE76FF00102CAE770B584B006460D467F
:1052700014460022009201920292CDF80B2000F118
:105280000C0269460C20FFF7CEFE002845D10246ED
:105290009DF801301B021BB29DF800100B432380C8
:1052A0009DF803301B021BB29DF802100B43638074
:1052B0009DF805301B021BB29DF804100B43A38020
:1052C0009DF807301B021BB29DF806100B432B8084
:1052D0009DF809301B021BB29DF808100B436B8030
:1052E0009DF80B301B021BB29DF80A100B43AB80DC
:1052F000032E05D00023AB60A360104604B070BD40
:105300009DF80C109DF80D009DF80E301B0443EA2B
:1053100000230B43AB60A360EFE76FF00102ECE703
:105320002DE9F843002B37D00546894690461E46A6
:105330001C6A002C33D0002A34D09B78012B08D073
:10534000337A112B08D0337C152B05D00024274647
:105350001EE000F07F05F3E743464A462946707891
:10536000A0470746736A01209847F7B93846BDE859
:10537000F883376A012309EB040229467078B8479D
:1053800007460135EDB2736A012098470134E4B253
:10539000A3B24345EDD3E8E74FF0FF37E6E74FF020
:1053A000FF37E3E76FF00B07E0E76FF00107DDE79A
:1053B00010B582B004460023ADF80430014601A8C0
:1053C000FFF74DFE08B102B010BD2346012201A92E
:1053D0004020FFF7A5FF0028F5D163796372E379D8
:1053E000E372234601220DF105014120FFF798FFEA
:1053F0000028E8D1A379A372E5E710B582B004468E
:105400000023ADF80430014601A8FFF744FE08B1BF
:1054100002B010BD2346012201A94220FFF780FF00
:105420000028F5D1637B6374E37BE3742346012298
:105430000DF105014320FFF773FF0028E8D1A37B9E
:10544000A374E5E730B583B004460D4600238DF81C
:1054500007300B46012201464020FFF7E4FD38B932
:105460002B79122B06D0227894F90030002B15DB13
:1054700003B030BD237863F07F0323702B460122F5
:1054800021464020FFF74CFF0028F1D12B46022295
:105490000DF107015820FFF743FFE9E702F07F0213
:1054A00022702B46012221464020FFF739FFDFE71B
:1054B00030B583B000238DF807300279A2F11003D4
:1054C000DBB2022B20D80446037A9A4203D100258E
:1054D000284603B030BD01460DF10700FFF7B2FFCB
:1054E00005460028F4D123460122211D7E20FFF726
:1054F00017FF0546237A102B02D023792372E7E7A2
:10550000636A05209847F8E76FF00305E0E738B5D0
:105510000446027BA2F11403DBB2012B01D9172A46
:1055200020D1237C9A4202D10025284638BD23464B
:10553000012204F10C017E20FFF7F2FE0546237CD8
:10554000142B04D0172B06D0237B2374EDE7636A5A
:1055500051209847F8E7237B152BF5D1636A0A2081
:105560009847F1E76FF00305DFE72DE9F04F85B0CD
:10557000824691461F460E9D8DF807100024029426
:1055800003945FFA80FBD8462646B3B2BB423AD2B8
:105590002B4601220DF107014D20FFF7C1FE044605
:1055A0006B6A0A209847002CEFD12B46524602A97D
:1055B0000420FFF738FD044618BBBA4503D95FFA4B
:1055C00087F8002313E0BB1B5345FADA5FFA87F82C
:1055D000A8EB06085FFA88F8F3E7F21803F1100168
:1055E000694411F8081C09F802100133DBB2434585
:1055F000F3D39DF807305B448DF807305E44F6B274
:10560000C3E76FF00104204605B0BDE8F08F10B588
:1056100082B0044600238DF8073019238DF8063038
:10562000034601220DF106017E20FFF779FE80B9C5
:10563000636A01209847234601220DF107016B2080
:10564000FFF7F1FC9DF8073043F020038DF8073099
:1056500008B102B010BD234601220DF107016B20F5
:10566000FFF75EFEF5E730B583B00446034601223E
:105670000DF107014420FFF7D6FC054610B128467E
:1056800003B030BD237DC3F303138DF807302346E9
:1056900001220DF107014420FFF742FE0546636A2F
:1056A0000A209847EBE730B583B0B6238DF8073072
:1056B00010B30546436A13B3034601220DF10701F7
:1056C0007E20FFF72DFE04466B6A0120984714B92F
:1056D000AB78012B03D05CB1204603B030BD2B4624
:1056E00001220DF107017F20FFF79DFC0446F2E740
:1056F0002846FFF7F4FBEFE74FF0FF34ECE74FF0FD
:10570000FF34E9E730B583B00446FFF7D3FB10B9A7
:10571000A378012B04D008BB0023237003220EE0E2
:10572000234601220DF107017F20FFF77CFCF2E701
:105730002346012221460020FFF775FC2A46531E0E
:10574000DDB212B12378D82BF2D148B92378D82B07
:1057500009D1FF23E3702046FFF7A5FF03B030BD5A
:105760006FF00200FAE76FF00200F7E758B110B5EA
:105770000446436A53B1FFF79BFE00B110BD2046BB
:10578000FFF7C5FEFAE74FF0FF3070474FF0FF30EC
:10579000F4E7A8B110B50446436AA3B1FFF708FEC9
:1057A00000B110BD2046FFF728FE0028F9D12046A1
:1057B000FFF7DCFF0028F4D12046FFF788FCF0E774
:1057C0004FF0FF3070474FF0FF30EAE710B58446E6
:1057D0001446C0F380000CF003021CF0040F00D04C
:1057E0000320CBB1022A0BD0032A0FD0012A02D00A
:1057F0006FF0040010BD91B11A46FFF794FCF9E771
:1058000084B11A462146FFF7CDFCF3E76CB179B1BC
:105810002246FFF729FDEDE74FF0FF30EAE74FF0B2
:10582000FF30E7E74FF0FF30E4E74FF0FF30E1E70C
:105830004FF0FF30DEE7F0B585B00E460021ADF841
:105840000E10CBB1054617461C46DB69BBB1237D64
:1058500013F0010F16D021460DF10E00FFF7C7FB24
:1058600008B105B0F0BD00943B4632462946BDF86C
:105870000E00FFF77AFEF4E74FF0FF30F1E74FF04C
:10588000FF30EEE76FF00400EBE72DE9F04182B066
:105890008DF807009BB30F4616461D461B6AA3B33F
:1058A0004FF00008444603E008F101035FFA83F873
:1058B0001FFA88F3B34224D22B46012239464F20E7
:1058C000FFF72EFD04466B6A0A209847002CEBD1A7
:1058D0002B4601220DF107014E20FFF721FD044662
:1058E0006B6A0A209847002CDED1731E9845DBDADC
:1058F00001379DF8073001338DF80730D4E74FF0BA
:10590000FF34204602B0BDE8F0814FF0FF34F8E7E5
:1059100030B583B00446437D5B008DF8043000232E
:105920008DF80530034601220DF105014C20FFF7EB
:105930007AFB054610B1284603B030BD9DF905300D
:1059400003F07F03217DC1F3400243EAC2135AB240
:105950008DF8053022F00303C1F381010B438DF86C
:1059600005302346022201A94B20FFF7D9FC05464A
:10597000636A0A209847DEE710B50446FFF747FE42
:1059800000B110BD2046FFF7C3FFFAE710B504468B
:10599000FFF790FA38B9237D13F0010F06D02046A7
:1059A000FFF7EAFF10BD4FF0FF30FBE76FF0040098
:1059B000F8E738B505460C460846FFF77BFAF8B914
:1059C000237D13F0010F1ED02346012229464D20CE
:1059D000FFF7A6FC0546636A0A2098470DB12846E2
:1059E00038BD2046FFF73FFE05460028F7D1237D4E
:1059F0006FF3410323752046FFF78AFF0546EEE764
:105A00004FF0FF35EBE76FF00405E8E738B50546E2
:105A10000C460846FFF74EFA58B9237D03F00303FE
:105A2000012B09D12346082229460420FFF7FBFA5F
:105A300038BD4FF0FF30FBE76FF00400F8E760B1CE
:105A4000C2686AB1026972B142697AB143680BB146
:105A5000002070474FF0FF3070474FF0FF30704725
:105A60004FF0FF3070474FF0FF3070474FF0FF307E
:105A70007047000010F5805F48D011B9D18C002923
:105A800046D0002946D000B5D38C9B0393FBF1F39D
:105A90009BB2A3F580431BB203FB03FC92F925E004
:105AA0006146BCF1000F22DBC91192F824C00CFB47
:105AB00003F3DB0101FB0E33002B1BDB5B1203F551
:105AC000801392F91A10A03101FB03F3002B14DBB1
:105AD0001B1300FB03F3002B12DB43F34F3392F94C
:105AE000180013EBC0030FD418115DF804FB0CF180
:105AF0007F01D9E703F2FF13E0E703F6FF73E7E75F
:105B000003F5FF531F33E8E70F33EDE70248704713
:105B100001487047004870470080FFFF10F5805F24
:105B200048D011B9D18C002946D0002946D000B503
:105B3000D38C9B0393FBF1F39BB2A3F580431BB281
:105B400003FB03FC92F925E06146BCF1000F22DB68
:105B5000C91192F824C00CFB03F3DB0101FB0E33E7
:105B6000002B1BDB5B1292F91B10A03103F5801395
:105B700001FB03F3002B14DB1B1300FB03F3002BCF
:105B800012DB43F34F3392F9190013EBC0030FD428
:105B900018115DF804FB0CF17F01D9E703F2FF1344
:105BA000E0E703F6FF73E7E703F5FF531F33E8E78A
:105BB0000F33EDE7024870470148704700487047CF
:105BC0000080FFFF10F5804F3FD030B4B2F91E4087
:105BD000002C3DD0958B002D3ED000293ED0D38C9B
:105BE000002B3DD0CB1A1BB2B2F920C003FB0CF343
:105BF000002B1ADB4FEAA30CB2F92230C31ADB03E5
:105C000009B205FB01F14A0012F500420FD4A3EBE3
:105C10000C0304EB224293FBF2F3B3F5004F0ADAD4
:105C200013F5004F09DC0F4B07E00333E2E702F501
:105C30007F42FF32EBE747F6FF731846002B01DB8C
:105C4000001106E003F10F00FAE7074800B27047C1
:105C5000054800B230BC70470348FAE70248F8E74D
:105C60000148F6E70180FFFF0080FFFF2DE9F041CA
:105C700007460D4616461C461846FFF7E0FE60B97B
:105C800080466DB17EB16368324629463846256943
:105C9000A84720724046BDE8F0814FF0FF38F9E791
:105CA0004FF0FF38F6E74FF0FF38F3E700B583B069
:105CB0000B46C2788DF8072001220DF10701512013
:105CC000FFF7D4FF03B05DF804FB00B583B00B46CB
:105CD00002798DF8072001220DF107015220FFF70C
:105CE000C5FF03B05DF804FB2DE9F04106460F4601
:105CF00090461C461846FFF7A2FE80B905468FB1B4
:105D00006378012B01D046F080066368424639462D
:105D10003046E668B04720722846BDE8F0814FF073
:105D2000FF35F9E74FF0FF35F6E730B583B00546AC
:105D30000C4600238DF807300B4601220DF10701B8
:105D40004B20FFF7D1FF08B103B030BD9DF80730FD
:105D500023F001035BB205F0010213438DF8073015
:105D6000234601220DF107014B20FFF77FFF00289A
:105D7000EAD184F82A50E7E738B50446FFF75FFE1A
:105D8000054610B994F82A300BB1284638BD214693
:105D90000120FFF7CAFF05466369616840F6B83025
:105DA0009847F2E710B586B004460022ADF81420FB
:105DB000049201920292ADF80C200346022205A93A
:105DC0005D20FFF791FF08B106B010BD2346042205
:105DD00004A96220FFF788FF0028F5D123460A2294
:105DE00001A96820FFF780FF0028EDD19DF914304C
:105DF00023769DF9153063769DF91230A3769DF9CF
:105E00001330E3769DF807209DF8063043EA02231D
:105E1000A3839DF805209DF8043043EA0223E38321
:105E20009DF80B209DF80A3043EA022323849DF855
:105E300011209DF8103043EA022363849DF80D3051
:105E400084F824309DF90C3084F825309DF8093011
:105E50001B0203F4FE439DF808201343E384B3E7D9
:105E600010B582B0044600238DF8073001460120AA
:105E7000FFF75BFF80B96369616840F6B830984707
:105E8000234601220DF107014020FFF72DFF18B92D
:105E90009DF80730322B01D002B010BD2370204690
:105EA000FFF780FFF8E730B583B004460D460B4698
:105EB00001220DF107014C20FFF716FF08B103B0D6
:105EC00030BD9DF8070020F0060043B2600000F0EE
:105ED000060018438DF807002B4601220DF107013B
:105EE0004C20FFF7C3FEEAE730B583B005460C4609
:105EF0000B4601220DF107014C20FFF7F5FE08B11A
:105F000003B030BD9DF8073023F038035BB2AA78A8
:105F1000D20002F0380213438DF8073023460122E5
:105F20000DF107014C20FFF7A1FEE9E738B5044663
:105F30000D46FFF7D9FF00B138BD29462046FFF7CF
:105F4000B5FE0028F8D129462046FFF7BEFEF3E74C
:105F500038B505460C460846FFF771FD30BB6D7835
:105F6000042D24D8DFE805F0030C23151E0020467D
:105F7000FFF702FFD0B921462846FFF794FF15E04E
:105F80002046FFF7F9FE88B921462846FFF78BFF28
:105F90000CE02046FFF7F0FE40B921462846FFF707
:105FA00082FF03E021460020FFF7BFFE38BD6FF0FF
:105FB0000200FBE738B504460D460846FFF73FFDF3
:105FC00080B96379013B032B2ED8DFE803F0020C84
:105FD00017220023A3700123E37023712946204672
:105FE000FFF7A4FF38BD0023A3700423E370072349
:105FF000237129462046FFF799FFF3E70523A37095
:106000001723E3702923237129462046FFF78EFFCB
:10601000E8E70023A3700723E3700D2323712946CB
:106020002046FFF783FFDDE76FF00200DAE72DE996
:10603000F04383B004460E4615461046FFF7FFFCBA
:10604000814600283FD1002C3DD02078C308237022
:1060500094F9010080B2400100B21843ADF800008D
:1060600094F802804FEAD80884F8028094F903304B
:106070009BB25B011BB248EA0308ADF802802779A6
:106080007F08277194F905309BB2DB011BB21F43D7
:10609000ADF80470A3799B08A371E47943EA8414F2
:1060A000ADF806402A462146FFF7E4FC30802A4638
:1060B00021464046FFF732FD70802A462146384689
:1060C000FFF780FDB080484603B0BDE8F08308B517
:1060D00000F0AAF800F008F800F09CF800F018F8BA
:1060E00000F01EF808BD000008B5002108460CF0BD
:1060F00095FA0022114610460CF004F900210846DA
:106100000CF04AFA014802F0DDF908BD38520510DA
:1061100008B5002211462F200CF002FA08BD00003D
:1061200010B5264C264A0021204607F0EBFC2548F6
:1061300002F0C8F9244A0121204607F0E3FC234875
:1061400002F0C0F9224802F0BDF904F54074214A7A
:106150000421204607F0D6FC1F4802F0B3F91F4A7D
:106160000621204607F0CEFC1D4802F0ABF91D4A7F
:106170000721204607F0C6FC1B4802F0A3F91B4884
:1061800002F0A0F91A4802F09DF91A4802F09AF9B3
:10619000194802F097F9194802F094F9184802F0EA
:1061A00091F9184802F08EF9174802F08BF9174858
:1061B00002F088F9164802F085F910BD0000314060
:1061C0001053051044530510485305107C53051017
:1061D00050520510D85205100C530510A05205104E
:1061E000D4520510685205109C5205103C520510FF
:1061F0004052051044520510485205104C520510EB
:1062000054520510585205105C520510605205108A
:1062100064520510024B33229A601A61704700BF26
:1062200000203040FEE7000030B583B0962100200A
:106230000DF0D6FD0DF042FDC0B9794BD3F8004FFB
:1062400004F03F040DF02AFD30B101200DF018FDDF
:10625000744B9B6C002B24DB714BC3F8004F0CF08C
:106260005FFC0CF04BFC01200CF06EFC01200EF0EA
:10627000C7F80EF06DF80EF047F90EF031F9002175
:1062800008460CF0DBFB00200CF046FB01200CF074
:106290002BFB00200CF03EFA634B1B6893F83F4049
:1062A00006E00620FFF7BEFF20460DF067F8013C30
:1062B000002CF9D1002101200CF0C0FC00200CF0D2
:1062C000ABFB002800F091800CF06CFD002108462B
:1062D0000CF0B4FC002108460CF07EFB534D00246A
:1062E0000094234622462146284607F017FB0094D7
:1062F000234622460121284607F010FB4C480CF0AB
:10630000D7FB00287DD101200CF0D6FA00200CF03C
:1063100003FB00200CF0E8FA00200CF0FBF9002150
:1063200001200CF08BFC002108460CF087FC0021BA
:1063300002200CF083FC002103200CF07FFC0021E4
:1063400004200CF07BFC002105200CF077FC394880
:106350000CF042FD002857D137480CF09DFF002873
:1063600055D1002108460CF037FB002108460CF0FF
:1063700065FB324901200DF027F800284AD142F28E
:10638000107101200DF048F9002846D10CF08AFA6E
:1063900000200CF041FA00200CF05EFA0CF070FACC
:1063A00000200EF0F5F801200CF01EFA0CF0A6FB10
:1063B00001200CF0C9FB642100200DF011FD00F05C
:1063C00051F81F4802F07EF81E4802F07BF81E4884
:1063D00002F078F81D4802F075F81D4802F072F8D6
:1063E0001C4802F06FF803B030BD0CF055FC40F2D1
:1063F000111398427FF468AF012100200CF0ECFAF1
:1064000062E70520FFF70EFF0420FFF70BFF0420D3
:10641000FFF708FF0320FFF705FF0320FFF702FF48
:1064200000F02740000027400432000800003140FF
:1064300040420F00CC540510400D0300F8540510E5
:10644000E0540510E4540510E8540510EC54051010
:10645000F0540510F454051008B5012007F086FD2E
:1064600008BD704710B500200DF0F0FA00B910BD5E
:106470000446114B18600CF045FA0130B4FBF0F003
:106480000E4B18600CF056FA0130B4FBF0F40C4BD4
:106490001C60013C0B4BA3FB04239B0C01330A4AF9
:1064A00013700A4BA3FB04239B090133084A1360B2
:1064B000DB03084A1360DAE7E8220008EC22000850
:1064C000E422000883DE1B43F8220008D34D62104B
:1064D000F4220008F022000808B5094806F032FE50
:1064E000FFF7BFFFFFF7BEFF00221146032007F0B2
