:020000040800F2
:1000000000200020897000088570000885700008B5
:1000100055BB0008857000088570000885700008D1
:1000200085700008857000088570000885700008DC
:100030008570000885700008E921010885700008B6
:1000400085700008857000088570000885700008BC
:10005000A18200088570000885700008857000087E
:10006000857000088570000885700008A5230108C8
:10007000B12301088570000885700008217600080A
:10008000857000088570000885700008857000087C
:1000900085700008557F000885700008857000088D
:1000A000857000088570000885700008857000085C
:1000B0008570000891E6050879F0050831F005081B
:1000C0002DF0050859E8050875F0050835F0050814
:1000D0004DF0050839F00508D9F00508B9F0050814
:1000E000857000088570000885700008857000081C
:1000F000BDB1000885700008857000088570000893
:1001000085700008857000088570000885700008FB
:1001100085700008857000088570000885700008EB
:1001200085700008857000088570000885700008DB
:1001300085700008857000088570000885700008CB
:10014000857000088570000885700008E7CA0008FF
:10015000B1CE05088570000879B405087FB405089C
:10016000857000088570000885700008857000089B
:1001700010B5054C237833B9044B13B1044800E0A3
:1001800000BF0123237010BD202B002000000000C1
:100190005CDC060808B5034B1BB10349034800E0CB
:1001A00000BF08BD00000000242B00205CDC060816
:1001B000154B002B08BF134B9D46A3F5803A002139
:1001C0008B460F461348144A121A39F000FD0F4BA4
:1001D000002B00D098470E4B002B00D098470020F2
:1001E000002104000D000D48002802D00C4800E05A
:1001F00000BF39F00BFB200029001EF0E5F839F0B4
:1002000029F900BF000008000020002000000000C5
:1002100000000000202B0020007B002000000000D8
:100220000000000043684A6801884088484300B9DC
:100230007047F3EC017A67EE807A0138E2EC017ADC
:10024000F5E7F0B502884B68458844684FEA820CB0
:10025000AF0003EB820219462846264620B9043334
:1002600093423C44F7D1F0BD56F804EB0138C1F895
:1002700000E06144F2E730B5F0EC017A00254C1E55
:100280001CB9C2ED007A1D6030BDB0EC017AF4EE0D
:10029000C77AF1EE10FA44BF0D1BF0EE477A013C2D
:1002A000EEE700000B469FED0A7A82B001914BB950
:1002B000DDED017AF8EE677AC7EE276AC2ED006AD3
:1002C00002B07047F0EC017A013B37EE277AEEE797
:1002D0000000000030B5F0EC017A00254C1E1CB97E
:1002E000C2ED007A1D6030BDB0EC017AF4EEC77A41
:1002F000F1EE10FAC4BF0D1BF0EE477A013CEEE7B9
:100300009FED117A13B50B461446F0EE476A019142
:1003100083B9DDED017AF8EE677A87EE270AB5EE4C
:10032000C00AF1EE10FA0BDB41F0B0FA84ED000ADE
:1003300002B010BDF0EC017A013B07EEA77AE7E7C7
:10034000C4ED006AF4E700BF000000002DE9F041B1
:100350000023884602F1020C984501D8BDE8F081DF
:1003600032F813503CF81340AD08A40850F825E0CB
:1003700050F82410AF00A60040F8251040F824E003
:100380003D1D341D47590659023346510751E3E7D5
:100390002DE9F04380460846B8F80070D8F80420EC
:1003A00001EB87092DED028B06464B4694467908F2
:1003B000FF0883B000EB810509EB810402EB07170E
:1003C000BC4506F1100605F1100504F1100403F117
:1003D000100310D189B20223019100F0F7FA022331
:1003E0004846D8F80420019903B0BDEC028BBDE863
:1003F000F04300F0EBBA13ED040A16ED046A53ED76
:10040000030A16ED034A36EE008A54ED046A54EDF1
:10041000034A13ED027A13ED015A55ED032A15ED47
:10042000023A55ED013A54ED027A54ED015A16EDB7
:10043000021A15ED042A06ED048A34EE208A56EDE0
:10044000011A06ED038A31EE078A06ED028A31EEC3
:10045000858A31EEC55A72EE261A06ED018A45EDFF
:10046000041A72EEA41A45ED031A73EE271A45ED2D
:10047000021A73EEA51A45ED011A75EEE35A34EE31
:10048000604ADCED013A74EEE24A77EEC37A36EE6A
:10049000406A9CED003A64EE232A46EE032A26EEDB
:1004A000236A14EE036A76EEC26A03ED036A24EE51
:1004B000836A16EEA36A66EE836A44EEA36A43ED8E
:1004C000042A04ED046A44ED036A0CF1100C1CEDDF
:1004D000026A5CED016A31EE477A65EE264A47EE24
:1004E000064A27EE267A15EE067A43ED024A03ED18
:1004F000017A25EE867A17EEA67A67EE867A45EEC1
:10050000A67A04ED027A44ED017A59E703882DE9D1
:10051000F04F5B0801EBC305D1ED007A95ED007A51
:10052000D5ED015A37EE876A77EEC77A91ED017AF9
:1005300001EB830677EE256A77EE655A96ED007A31
:1005400005EB8304D4ED004A37EE065A35EE245A03
:100550002DED048BD6ED013A94ED014A426881ED10
:10056000005A96ED015A94ED013A36EE855A35EE71
:10057000035A8FB002925A080A920A4681ED015A34
:1005800033EEA75A08320692324635EE445A083204
:100590000B922A4686ED005A36EE476A35EEC75A68
:1005A00076EEE36A77EEE37A37EE257A08320C923C
:1005B000224635EE245A36EE646A76EEC46A77EE49
:1005C000847A37EE647A834608320D92029A86ED79
:1005D000015A08320792029A85ED006A1032C5ED81
:1005E000016A0091C4ED007A84ED017A0892029AC2
:1005F000A4F1040A183209925A08023A4FEA520842
:10060000079AA6F104090492089A2F1F0392099AE7
:100610000AEB83030192009A06F1100102F1100E19
:1006200005F1100C04F11002CDF814805CED023AD3
:100630001EED026A11ED017A76EE634A1CED013A75
:1006400012ED014A5EED017A77EE246A77EEC35A25
:1006500036EE236A76EEC42A77EE837A51ED026A8B
:1006600012ED025A35EEE62A76EE663A37EEC73AD2
:1006700076EEA55A34EEC77A76EE866A049832EEA4
:10068000052A08300490039873EEC53A10300390A1
:10069000019833EE443A18300190059837EE047A09
:1006A00075EEC55A76EE856AA9F10809083FAAF1E8
:1006B000080A083B0EF1080E08310CF1080C08324C
:1006C000002874D1069B182703EBC802C2ED006A0C
:1006D0000998079B07FB08070B9803EBC80100EB81
:1006E000C80CDCED016A0C98089B00EBC80E0D9855
:1006F00003EB081300EBC80877EEA67AD8ED016A81
:1007000077EEA67AC2ED017AD1ED016A91ED006A29
:1007100066EE827A66EEA26A46EE227A56EE026AA9
:10072000CCED007ACCED016AD3ED017A93ED006A4D
:1007300067EE836A67EEA37A46EE236A56EE037A83
:10074000CEED006ACEED017AD7ED017A97ED006A21
:1007500067EEA56A46EE076A27EE877A16EE257AD7
:10076000BDF82810C8ED006A88ED017A029A009859
:100770000423019100F02AF901993046DBF80420A6
:100780000423009100F022F92846DBF804200099A8
:10079000042300F01BF904232046DBF80420009911
:1007A0000FB0BDEC048BBDE8F04F00F00FB94EED7B
:1007B000046A51ED036A77EEA67A52ED036A77EE8A
:1007C000A67A4EED037ADAED017AD9ED011AD9ED68
:1007D000024A31EEA75A71EEE71ADAED027AD3ED4A
:1007E000020A97ED026A74EEA78A36EE609A38EE36
:1007F000C61A36EE286A36EE206A93ED014A97ED66
:10080000018A89ED026A97ED016A74EEE74A75EE96
:10081000487A35EE065A93ED016A35EE065A74EEC3
:10082000C86A89ED015A049877EEC47A10ED016A1E
:1008300076EE846A34EE484A10ED025A74EE644A49
:1008400026EE024A39EE210A05EE224A01ED044A5B
:1008500020EE054A66EE222A16EE864A66EE856A84
:1008600055EE022A40EE066A41ED032A87ED024A60
:10087000C7ED016A039831EE601A10ED036A50ED7E
:10088000046A26EE035A06EEA35A66EE233A0CEDEE
:10089000045A27EE865A56EE833A11EE665A67EEF0
:1008A000A66A51EE066A4CED033A8AED025ACAED89
:1008B000016A019879EE611A50ED067A50ED056AE9
:1008C00026EEA56A07EE876A26EE877A17EEA57AE6
:1008D00002ED037A21EEA77A64EEA77A14EEA67AE7
:1008E00041EEA67A059802ED046A013883ED027A9A
:1008F000C3ED017A059099E6012A2DE9F0410646FB
:100900000C461746984605883ED0B5F5807F49D0FD
:1009100026D8402D31D01CD8102D1CD0202D41D0F0
:10092000B8F1000F04D02046B268B189FFF70EFD80
:10093000012F0CD107EE905AF7EE006AF8EE677AB5
:10094000002386EEA77AAB4204F108042FD3BDE85A
:10095000F081802DE4D121463046FFF719FDDFE715
:10096000B5F5006F1ED005D8B5F5007F05D0B5F5FB
:10097000806FEFE7B5F5805FD2D10123294620468D
:10098000726800F023F8CBE700230A1DAB4202F1A6
:100990000802BAD252ED027AF1EE677A013342EDE3
:1009A000027AF3E721463046FFF7B0FDB8E754ED91
:1009B000027A67EE877A44ED027A54ED017A67EEA7
:1009C000C77A013344ED017ABDE70000DFEDB44A98
:1009D0002DE9F04F2DED108BB0EE644A8FB00190F1
:1009E00003910D92049302911820029B4FF000098D
:1009F000D90800FB01F428200C9400FB01F43020FE
:100A0000DA004B010893019B00FB01FB03EB411C47
:100A1000CB0007936FF0170338204B430CEB030711
:100A200007EB4116F51806940C0100FB01FA05943A
:100A3000019805EB4114234403EB411800F1040E27
:100A40001EED017ADCED007AD7ED005A37EE673AF9
:100A500077EE276AD6ED007A98ED005AD5ED003A88
:100A6000D3ED001A35EEA77A75EEE75AD4ED007A89
:100A700033EEA76A73EEE73A71EE857A76EEC60A30
:100A800037EE671A76EE866A77EE277A36EEA77A21
:100A900076EEE76A0EED017ACCED006ADCED017AC4
:100AA0009EED006A96ED017A71EEC51A76EE672A20
:100AB00036EE275A97ED016AD5ED016A76EE077A90
:100AC00036EE476A94ED017A36EE870A36EEC72A8B
:100AD00098ED017AD3ED016A36EE878A76EEC76A21
:100AE00035EE407A35EE005A37EEC80A77EE887A4E
:100AF00035EE278A35EE675A70EE807A8EED008AE1
:100B000070EEC00A8CED015AC5ED007A77EE417A9D
:100B100031EE071AC4ED000A35EEE17AC5ED017A2F
:100B200075EEA15A84ED011A36EE661A76EE266A43
:100B300065EEA45A27EE247A66EEA46A73EE471A8D
:100B400033EEE55A73EEA57A33EE077A72EE663A23
:100B500072EE266A21EE241A37EE263A37EE667ACE
:100B600087ED003A32EE816A88ED007A31EEA37AA1
:100B700072EEC15A86ED007A71EEE31A36EE677AAC
:100B800077EE867AC3ED001A87ED017AC8ED017A17
:100B900075EEC57A35EE255AC6ED017A83ED015A18
:100BA00002989444814403981744484516441544D8
:100BB00014441344904496443FF642AF072940F250
:100BC00071810198089B012403440B93079B034404
:100BD0000A93069B03440993059B034408930BEB7C
:100BE000000307930C9B034406930AEB0003059351
:100BF00000230498A34603440D9800EBC3056FF04F
:100C00002F0095ED002A05EBC30595ED000A05EBD5
:100C1000C30595ED006A05EBC305D5ED008A05EB2C
:100C2000C30595ED005A05EBC30595ED001A05EBDC
:100C3000C30595ED003A00FB03550198D5ED011A67
:100C400000EBC40A0B9805EBC30500EBC4090A9836
:100C500095ED018A00EBC408099805EBC30500EB8C
:100C6000C40E0898D5ED015A00EBC40C079805EBAB
:100C7000C30500EBC407069895ED019A05EBC30583
:100C8000D5ED013A00EBC40605EBC3050598D5ED9B
:100C9000010A05EBC305D5ED012A00EBC40501E00F
:100CA000F304353F9AED00AAD9ED007AD8ED006A39
:100CB0003AEE67BA7AEE27AADEED007ADCED00CADA
:100CC00036EEA77A76EEE76AD7ED007AD6ED009A8F
:100CD0007CEEA7BA7CEEE7CAD5ED007A39EEA7AA7A
:100CE00079EEE77A37EE4AEA7AEEEB9A37EE0A7A4D
:100CF0007AEEABAA3AEE87AA8AED00AA9AED01CA6B
:100D00007AEEC7AA99ED017A98ED01DA7CEE07FA3E
:100D10003CEE47CA9EED017ADCED01BA7DEE07DAC2
:100D20003DEE47DA97ED017A96ED01FA7BEE87EA20
:100D30007BEEC7BA95ED017A3FEE07AA3FEE477A00
:100D40003FEEEEFA7FEEAEEA7DEECAFA7DEE8ADA8B
:100D500039EEAFAA79EEEF9A7EEEADFA7EEEEDDADD
:100D60007FEE4EEA3EEE0FEA29EE2DFA08EEAAFAE1
:100D700069EE2AAA58EEADAACAED01FAC9ED01AA98
:100D800068EE2EAA40EE0AAA28EE0AAA10EE2EAAB3
:100D900089ED00FA8CED01AA20EE8EAA01EE29AAB7
:100DA00060EEA99A51EE0E9ACCED00AA87ED00AA4A
:100DB000C7ED019A36EEE7AA7DEE479A76EEA77A5E
:100DC0003DEE077A69EE846A2AEE04AA67EE847A19
:100DD00027EE047A7CEE269A3BEE4ADA3BEE0AAA2C
:100DE0003CEEE7BA7CEEA77A7CEE66CA3BEEC7CA59
:100DF0003BEE877A7DEE0CAA7AEE076A3AEE477AE6
:100E00003DEE4CAA39EEE7CA7CEECBBA77EEA97A72
:100E10007BEE2C9A21EE8CBA02EE26BA61EEA66A1F
:100E200052EE0C6AC8ED016A62EEA76A43EE076AE9
:100E300022EE877A13EE277A63EEAB7A45EE2A7AB2
:100E400088ED00BA85ED017AC5ED006A23EEAA7A35
:100E5000CEED007A65EEA97A15EE2B7A46EE0A7A87
:100E60008EED017AC6ED007A65EE8A7A56EE297A21
:100E7000C6ED017A02989244834403989144584500
:100E80009044964494441744164415443FF60AAFE0
:100E90000134A1427FF4ADAE049B0291DB009BB212
:100EA0000493A1E50FB0BDEC108BBDE8F08F00BF3F
:100EB000D1ED007AD1ED016A77EEA77A76EEA66AD7
:100EC000B6EE007A37EEA66A77EEE67A26EE076A85
:100ED00067EE877AF0EE476A038810B54469013BF4
:100EE00004F1100001F1100401EBC30182ED006A6E
:100EF000C2ED017A0839103291ED034A91ED027A80
:100F000054ED023A54ED017A50ED025A50ED014A87
:100F100037EE635A34EE276A37EE237A77EEC47AD7
:100F200005EE857A44EE857A04EE867A45EEC67A39
:100F300027EE267A67EEA67A013B002B02ED027AB5
:100F400042ED017A00F1080002F1080204F1080400
:100F5000A1F10801D0DC10BD91ED007A91ED016A9C
:100F6000F6EE007A77EE066A37EE467A66EEA76A04
:100F700027EE277A038810B54469C2ED006AF0EEC7
:100F8000676A013B82ED017A04F10800083201F141
:100F9000080401EBC301002B02F1080200F1080074
:100FA00004F10804A1F1080100DC10BD91ED034A31
:100FB00091ED027A54ED023A54ED017A50ED025A65
:100FC00050ED014A33EEC75A34EE276A37EE237AE2
:100FD00077EEC47A05EEC57A44EE857A04EEC67AD9
:100FE00045EEC67A27EE267A67EEA67A02ED027AF9
:100FF00042ED017A013BCEE72DE9F04105460F466F
:1010000016461C464BB1FFF7A7FF2246314628463D
:10101000BDE8F0410123FFF76FBC22460123FFF733
:101020006BFC324639462846BDE8F041FFF740BF29
:101030002DE9F0470C4616461D688AB0DDE91279A5
:10104000DDE917A81DB928460AB0BDE8F087236975
:1010500038460893E368169A0793DAF80C30149927
:101060000693D9F80030013D059373680493336803
:101070000393A36802936368019323680093434634
:1010800000F007F8D9F800301F44DAF80C30984423
:10109000D8E72DE9F04F9DB01093269B00921BB22C
:1010A000C3EA0349279B2A9A1CB22A9B002AC3F150
:1010B0000003C8BF0023C4EA044408930123089A2C
:1010C00006909340013B09935B100A9301331193FF
:1010D0002B9B2B9A5B001293109B002A03F10203B7
:1010E00005932B9B13914FEA131315932B9B04919C
:1010F00023F00F03B8BF002307930346079A134456
:101100000B932C9B013B1793109BC3F1FF2303F51B
:101110007F03FE3318932A9B23EAE3731493059A03
:10112000189B1344179A9A426ADCDDE912102C9A34
:101130002C9B002A4FEA5303ACBF1A4600224FEA09
:101140004303B8BF002301FB02020192109A1A4424
:101150002C9B0292DB074FD5009B002B00F0B48143
:101160001D682B9BDDF80480069F0F3B069ABA1A78
:10117000934200F3AB812B9A159B002A4FEA03138D
:10118000B8BF0023079A511E019A0A4491460B9A50
:101190009B1A2B98D1188142C0F2138200214FF084
:1011A00080400F4606462A9B23EAE372299B95401E
:1011B000C3FB05672A9B0122002BCCBF0B465B4279
:1011C0009A40F40F44EA4704013A54FA03F304EA5C
:1011D00002014FEA620248BF01329142289AC8BF19
:1011E000013313442D9A9342B8BF13462E9A93426B
:1011F000A8BF1346029A137000201DB0BDE8F08FFF
:10120000009B002B7BD0009A53F8086B5568009325
:101210002B9A049B13440393049B0293069B019314
:10122000A2F10F031693069A019B9B1A169A9A42F3
:1012300068DC079B049A013B0B991344079AA2EBC5
:10124000010C2B9801EB0C02904200F32D814FF022
:1012500080400023CDE90C03149BDDE90C129E4075
:10126000299BC3FB0612099BC80F40EA420000EA13
:101270000301089B50FA03F20A98119B58BF0346DA
:1012800099424FF080414FF00003CDE90E13149BBB
:10129000DDE90E0105FA03F5299BC8BF0132C3FB46
:1012A0000501C30F43EA410309990A9D03EA0100BE
:1012B00008990B41119958BF294688422899C8BFFF
:1012C00001330A440B442D998A42B8BF0A468B4227
:1012D000B8BF0B462E998A42A8BF0A46059901F865
:1012E000022C2E9A9342A8BF1346129A01F8013C91
:1012F000049B134404930B46023305930FE7009DB0
:101300002E4685E7029904221BA838F039FC019982
:1013100004221BA8DDF86CA038F032FC24FA8AF80D
:101320001B9F042229FA87FB03991BA838F028FC8D
:101330004FEA3A2A1B9A4FEA372724FA8AFA29FAFF
:1013400087F72BFB086624FA82F3199327FB0A66BA
:101350004FEA3228042224FA88F8029B1BA8991825
:1013600038F00EFCDDF86CA0199B2BFB035527FB16
:101370000855042224FA8AF8019B1BA8991838F012
:10138000FFFB0422039B1B9F99181BA838F0F8FB56
:1013900029FA87FB1B9A4FEA3A2A4FEA372724FAA1
:1013A0008AFA29FA87F72BFB086624FA82F3199345
:1013B00027FB0A66029B4FEA322803F10801042248
:1013C00024FA88F81BA838F0DBFBDDF86CA0199B29
:1013D0002BFB035527FB0858019B042224FA8AFBA8
:1013E00003F108011BA838F0CBFB039B1B9F0422D1
:1013F00003F108011BA838F0C3FB4FEA3A2A1B9AF5
:1014000024FA8AF529FA87FA4FEA372729FA87F763
:101410002AFB0B6624FA82F3199327FB0565029BCE
:101420004FEA322B03F10C01042224FA8BFB1BA898
:1014300038F0A6FB029B1B9E10330293199B2AFBDC
:10144000038827FB0B8B019B042224FA86FA03F105
:101450000C011BA838F094FB019B1B9F10330193D8
:10146000039B042229FA87F803F10C011BA838F02A
:1014700087FB4FEA37271B994FEA362629FA87F26E
:1014800024FA86F628FB0A5524FA81F722FB065631
:101490004FEA312524FA85F528FB07BB22FB05B569
:1014A000039B10330393BEE6269811F9012B279F67
:1014B000024413F9010F384402FB00662B981856BA
:1014C000384402FB0055BCE6009D4AE64146042232
:1014D0001BA8009338F054FB394604221BA81B9E1E
:1014E00038F04EFB24FA86FB1B994FEA362629FA80
:1014F00081FA24FA86F64FEA312129FA81F12AFB92
:101500000B5521FB065504221BA808EB020138F0FD
:1015100037FB04221BA8B9181B9E38F031FB24FAB4
:1015200086FB1B9A4FEA362629FA82FA24FA86F6B7
:101530004FEA322229FA82F22AFB0B5522FB065A85
:10154000042208F108011BA838F01AFB042207F155
:1015500008011BA81B9D38F013FB24FA85FB1B9A7E
:101560004FEA352529FA82F624FA85F54FEA322228
:1015700029FA82F226FB0BA622FB0566042208F15B
:101580000C011BA838F0FCFA07F10C0104221BA87F
:101590001B9D38F0F5FA24FA85FA1B9908F110081A
:1015A00029FA81F210374FEA35254FEA312124FA22
:1015B00085F529FA81F122FB0A6621FB0565009B6E
:1015C000D4E5279819F9011F269C014412F9010B53
:1015D000204400FB0155DCE510B50446006818B155
:1015E000237B0BB101F080F8204610BDFEE7000020
:1015F0002DE9F04391B0189C1546620801329A42D9
:1016000007460E4640F09E808C424FD800284DD0B1
:101610000023804602908DF8143001230298CDE912
:10162000033400286CD0B8F1000F0FD1A64228BFB8
:1016300026464FEA86094A46394638F0A1FA02980A
:10164000A61B4146B200484438F0C1FA202C77D09E
:10165000402C75D0802C34D0B4F5807F70D0B4F598
:10166000007F6DD0B4F5806F6AD0B4F5006F67D09D
:10167000B4F5805F64D00AAB0093002320461A467D
:101680001946029E00F0ACFE0446002838D02A46D7
:10169000314600F07DFF204601F026F8002402A824
:1016A000FFF79AFF204611B0BDE8F0830121A000AA
:1016B00001F018F801234FF0000802908DF8143063
:1016C000ABE74023ADF828301F4B01219A894FF436
:1016D0000070ADF834209A685B680C920B931B4B3A
:1016E000ADF838400F9300F0FDFF01230246CDE92D
:1016F000073406908DF8243020B906A8FFF76CFF58
:10170000134CCCE7002302990AA8FFF775FC069B4F
:101710001A682A6000226A605968C5F80422C5F870
:10172000001203F5FC7299680833A9605968934266
:10173000E96005F10805F6D106A8FFF74DFFADE712
:10174000044CACE7044CADE7C8F60508C8F405083E
:1017500016FCFFFF08FCFFFF11FCFFFF000000006C
:101760002DE9F04F2DED048B4D0887B005F10109EF
:1017700003900E464FEA81084FEAC900012100F0AC
:10178000B1FF0746F8B10121404600F0ABFF044627
:10179000B0B10246039B00EB08010493AB00059334
:1017A000039B00EB850C624503F108030ED053F850
:1017B000080C42F8040B53F8040C41F8040DF2E74E
:1017C000384600F091FFDFF8188117E0F30706D5DF
:1017D000039B9844059B58F8042CE3181A604B4669
:1017E0003A46314620460096FFF702FF804658B140
:1017F000204600F079FF384600F076FF404607B0FB
:10180000BDEC048BBDE8F08F700036F075FEBB4672
:1018100041EC190BC246504636F06EFE2EA3D3E9BA
:10182000002336F0E3FE53EC192B37F009F837F0BC
:10183000BFF900EE100A08EE100A3FF061FCF0EE6E
:10184000408AB0EE480A3FF0CFFCDBED017A5B4600
:1018500060EE277A93ED007AE7EE287A049B0AF18E
:10186000010AE3EC017AD1450BF1080B0493D2D8BD
:10187000059B751B03F1040A039B07EBC505534445
:101880009A46B145B4D2484636F036FE12A3D3E9A3
:10189000002336F0ABFE53EC192B36F0D1FF37F0B6
:1018A00087F900EE100A08EE100A3FF029FCF0EE6E
:1018B000408AB0EE480A3FF097FC55ED017A15EDED
:1018C000027A67EEC07AE7EE287A083DEAEC017A00
:1018D00009F10109D5E700BF182D4454FB21094047
:1018E00016FCFFFF2DE9F047002B089C0C9FDDE95B
:1018F0000A56C0F285808B4280F28280002C7FDB0A
:1019000094427DDA03EB050C8C4579DC04EB060C84
:10191000944575DC082F13D1002D25F00307B8BFBF
:1019200000274FF0000C04FB0133099C1844A5F17B
:10193000030E07F1FF38B4452CDB0020BDE8F0872B
:10194000102F5DD104FB0134002D4FEA41074FEA0F
:1019500055014FEA810C4FF0000E4FEA4101BCBF28
:101960004FF0000C0021099A00EB44004FEA4508B3
:1019700005F1FF39B645E0DA40EA020313F002034D
:1019800031D00023AB4236DA30F8134022F813404E
:101990000133F7E740EA040212F0030209D0002302
:1019A000AB4216DAC25CE2540133F9E78358A35024
:1019B00004329645FADC04EB0802C319C0F1000AB0
:1019C00003EB0A094D4504DD13F8019B02F8019F62
:1019D000F6E70CF1010C08442C44ACE750F8134036
:1019E00042F8134002339945F8DCA94203DA30F893
:1019F0000C3022F80C300EF1010E38444244B9E7A5
:101A000000489BE710FCFFFF30B5082587B00C9C11
:101A1000049504EB440402940B9C0D9D01940A9CD4
:101A20000395009403EB430301EB4101FFF75AFFD9
:101A300007B030BD2DE9F04F012A8BB0169D0890FC
:101A40006BDD149C880390FBF4F0049015989203CE
:101A500092FBF0F2059222464FF0000E4FF4005632
:101A60006A436943079225EAE57201930992159A40
:101A7000964556DA4FF000084FF40057C6F30D00B4
:101A8000B20B029005984A4306440298DDF804B070
:101A9000C0F5804006900392149A904536DA4FF0D4
:101AA000000C049ABC0BC7F30D091744039AC9F53F
:101AB000804A05FB0424089A1444AC4521DA605D91
:101AC000227809FB00F00AFB02020819405D02F5CA
:101AD00000520346605C920B0AFB00F000F50050D8
:101AE00009FB0300029B800B5843069B013403FB58
:101AF000020202F50052920B0BF80C200CF1010CC3
:101B0000DBE7099B08F101089B44C5E7019A079BA5
:101B10000EF1010E1A440192A9E703480BB0BDE88B
:101B2000F08F0020FAE700BF10FCFFFF8842CBBF18
:101B30004A434343B2FBF3F3B3FBF2F230B5DDE9C2
:101B40000345CBBF23602A602960206030BD2DE9AA
:101B5000F04186B01D46DDE90C7805AB019304AB7E
:101B6000064600930846434611463A46FFF7DEFF15
:101B7000DDE90424CDE902240C1B831A04EBD474A0
:101B800003EBD37364100A46019501460094304676
:101B90005B10FFF739FF48B9DDE90412032328463B
:101BA000CDE9018300972B46FFF744FF06B0BDE85F
:101BB000F08100002DE9F04F2DED088B164689B01D
:101BC000DDE91A250F46D2F804A01168BAF1010F19
:101BD0000AFB01F9039106FB03F1044600EBC90976
:101BE0004FEAC10816D1034697E8030083E80300D3
:101BF000083399454744F7D105F584730593039B52
:101C0000023B032B00F28482DFE813F01B00560036
:101C1000FB00980108320492039A4FEACA0B724300
:101C20000499019500913946CDE906230590FFF707
:101C3000C1FFDDE906230598474458448145EFD1AB
:101C4000DAE70AF1010304EBC303F6000834D5ED2B
:101C5000436A53ED015AD5ED427A13ED026A26EE3E
:101C6000E57AA6EE277A67EEA57AE6EE267A54EDB7
:101C7000026A76EEC76A43ED026A54ED016A76EEB7
:101C8000E76A43ED016A54ED026A36EE877A04EDA5
:101C9000027A14ED017A77EE277ABAF1010A44ED5F
:101CA000017A03F1080304F108043544CFD109B0E7
:101CB000BDEC088BBDE8F08F06FB0AF305EBC30310
:101CC00093ED439A04EBCA08330104EB0A194FEA77
:101CD000C60B04F1080644465746F1EE499AAA4657
:101CE00003930434D8ED017AD5ED436A66EEE78AB2
:101CF00014ED016A95ED428AB0EE687AA6EE087A94
:101D000028EE278AF0EE487AD9ED015AE6EE267AD7
:101D1000DAED436A99ED006A9AED428A66EEE58A49
:101D2000E6EE088A28EE258AA6EE268A56F8080CE2
:101D300037EE88AA77EE28AA37EEC88A77EE688A47
:101D400036F0FCFB41EC1B0B1AEE900A36F0F6FB6A
:101D50000022EE4B36F04AFC02460B4651EC1B0BC0
:101D600036F08CFA36F024FF44F8040C56F8040CD4
:101D700036F0E4FB41EC1B0B1AEE100A36F0DEFBEA
:101D80000022E24B36F032FC0B46024651EC1B0BB4
:101D900036F074FA36F00CFFC8F8040056ED027AFB
:101DA00077EEAA7A46ED027A56ED017A77EE8A7AD4
:101DB00046ED017A54ED017AE9EE087AC9ED007A30
:101DC000D8ED017AE9EEA87AC9ED017A54ED017AED
:101DD000E9EE887A44ED017AD8ED017AE9EE287AC5
:101DE000C8ED017A039B013F06F1080608F10808D7
:101DF0005D4409F108099A4404F108047FF472AFC4
:101E000055E757461822AE46A8464FEAC60A4FEA9B
:101E1000061904EB071056436A6804EBC70100EB90
:101E2000C70304F1040CD1ED016AD5ED437A91EDBD
:101E3000006A95ED427A67EEE65AE6EE075A27EE1B
:101E4000267AA6EE277AD0ED014AF0EE476A98EDA1
:101E5000437AD8ED427AB0EE655A27EE646AD0ED47
:101E6000005AD3ED013AA5EEA76A67EEA47ADEED3B
:101E7000434A93ED004AE5EE877A9EED427A64EE9E
:101E8000E35AE4EE075A27EE237A1CED013AD4ED2B
:101E9000013AA4EE247A33EE464A73EEE74A36EE70
:101EA000036A77EEA37A35EE253A76EE873A0CEDA3
:101EB000016AC4ED017A36EE436A77EEE37A80ED8B
:101EC000006AC0ED017A36EEC77A5CED016A76EE03
:101ED000836A4CED016AD4ED017A75EE655A77EEAE
:101EE000A37A74EE076AC4ED017A34EE477A74EE91
:101EF000E57A74EEA55AC2B181ED007AC1ED015ABE
:101F0000C3ED006AC3ED017A013F04F1080401F159
:101F10000801554400F10800C84403F10803B64421
:101F20000CF1080C7FF47FAFC1E6C1ED006AC1ED92
:101F3000017A83ED007AC3ED015AE5E70AFB06F367
:101F4000059AAC4602EBC307D7ED012AF2000392D3
:101F50001822AE46A8464FF00009B1EE621A72434D
:101F600097ED002A07EBC30704EB0A13D7ED001A1D
:101F700097ED013A4FEA061B04EBCA0703EBCA01CF
:101F800003EB0A1004927601CA4504F1080407F134
:101F9000080703F1080301F1080100F108007FF7C9
:101FA00086AED5ED436A57ED013AD5ED425A17EDAD
:101FB000026A26EEE34AA6EE254A65EEA35AE6EE4D
:101FC000265AD8ED424A53ED016AF0EE653AD8ED53
:101FD000435A13ED025A25EEE66A64EEA66AE5EE70
:101FE000256AA5EE246ADEED435AF0EE664A51ED0D
:101FF000016A9EED425AB0EE448AB0EE460A11EDF7
:10200000024A25EEE66AA4EE056A25EE265ADCEDC4
:10201000436AA4EE255A50ED015A9CED424A50ED18
:10202000028A66EEE50AE8EE840A70EE069A38EE59
:10203000209A64EE255A14ED027A38EE604AE8EEF2
:10204000A65A34EE858A74EEC56A39EE295A73EEC3
:10205000A58A35EE075A54ED017A04ED025A38EE9E
:10206000885AF0EE474A35EE275A30EE466A04EDBC
:10207000015A73EEE55AB0EE675A63EE260AE2EEB5
:10208000094AE2EEA50AE1EEA94A66EE433AA2EE5B
:10209000285AA1EE897A65EEC35A34EEE00AE2EEE0
:1020A000A65AA1EE885AE1EE043AA2EE297A66EE2B
:1020B000626AE1EEA87A07ED020A37EE256A35EE8C
:1020C000630AE2EE087AE3EE046A74EEA04A35EEA3
:1020D000235A07ED010A37EE657A40ED024A00ED1A
:1020E000015A03ED026A37EEA66A77EEE67A039AA2
:1020F00003ED016A1544049A01ED027A41ED017A7B
:1021000009F10109D8449644B4443DE70000E03F9A
:102110002B680493039B4FEAC30B584600F0E0FA88
:102120004FF0000C034665464FEACA0207920AFBCD
:1021300006F283440692AA4551DDAE460022039979
:10214000914238DCE6464FF0000804EBC5020399E3
:10215000414541DD93E8030082E80300002103F1DB
:102160000800584531D0049F71448F42D8BFC91B25
:10217000059F90ED015A07EBC10999ED016AD0ED79
:10218000005AD9ED007A26EE457AA5EEA77AF0EE50
:10219000476A92ED007A67EE857A37EE267AE5EEA9
:1021A000867A82ED007A92ED017A77EE277A08300E
:1021B000C2ED017AD5E703EBC20804EBCE0103C9F7
:1021C000D64488E803000132B9E7079908F101080D
:1021D0000A4406998E44BAE70135B444ABE7184681
:1021E00009B0BDEC088BBDE8F04F00F07DBA00BF30
:1021F0002DE9F84F00F121072DED028B04460E4624
:102200001546DDF830B0FF00002B3DD1384600F018
:1022100067FA0546D0B3C5E9004605F5847A002E75
:1022200044D056464FF0000A204636F075F9A245D4
:102230008046894606F1080667DA504636F06CF9A2
:102240004BA3D3E9002336F0D1F942464B4636F092
:10225000F7FA41EC100B41EC180B3EF089FD51EC04
:10226000100B36F0A5FCB0EE480AF0EE680A46F80E
:10227000080C3EF0B5FE51EC100B36F099FC0AF15B
:10228000010A46F8040CCFE752B91F60BBF1000FFA
:1022900001D0CBF800702846BDEC028BBDE8F88F6A
:1022A0001A681F60BA42B6D20025EFE7204636F022
:1022B00033F9A642804689460AF1080A25DA3046F3
:1022C00036F02AF92CA3D3E9002336F08FF94246E1
:1022D0004B4636F0B5FA41EC100B41EC180B3EF0D2
:1022E00047FD51EC100B36F063FCB0EE480AF0EEFF
:1022F000680A4AF8080C3EF073FE51EC100B36F0F9
:1023000057FC01364AF8040CD0E7204636F004F9B1
:1023100041EC100B3FF06EF93EF08AFD042659ECBB
:10232000108B05F1080A94FBF6F306FB1342AAB1E1
:10233000022E0FD0042E0FD00236304636F0ECF8C5
:1023400002460B464046494636F0C2FB002818BFFD
:102350002646E8E70326F0E70226EEE7012B1C46B7
:10236000CAE9006392DD0AF1080ADCE7AFF30080F6
:10237000182D4454FB211940182D4454FB2119C039
:102380002DE9F341044691420D4610461F4604F1E3
:10239000080817D12068C00000F0A2F906463B46A5
:1023A00029460122CDE90084FFF704FC226831466A
:1023B0002846D20037F0E4FB304602B0BDE8F041D9
:1023C00000F092B90122CDE90084FFF7F3FB02B0DF
:1023D000BDE8F0810123FFF7D3BF0000000000003B
:1023E0002DE9F04F2DED028B002585B010F0010A8C
:1023F0008B4614461F46039509D0634800F054F9F4
:102400002C46204605B0BDEC028BBDE8F08F451090
:1024100003AB52462846CDF800A0FFF7E9FE05EBD6
:102420004506039B06EBD67676100C3303EBC60607
:10243000002F58D1304600F053F90446002CE0D06C
:10244000039B04F10C021344636003EBC503A36018
:102450000023226059460093284603AB05EBD5774D
:10246000FFF7C6FE7F10BBF1000F42D057457DDD60
:102470000AF1010A504636F04FF880462846894650
:1024800036F04AF802460B464046494636F0D8F93F
:1024900000223E4B35F0F4FE37A3D3E9002336F09B
:1024A000A5F841EC100B41EC180B3EF061FC4FEA33
:1024B000CA08A36851EC100BA8F1080803EB08093F
:1024C00036F076FBB0EE480AF0EE680AC9F8000074
:1024D0003EF086FDA36851EC100B984436F068FB83
:1024E000C8F80400C2E73B683E60B342A6D2544637
:1024F00087E75F453ADD0BF1010B584636F00CF8E3
:1025000080462846894636F007F802460B46404684
:10251000494636F095F900221C4B35F0B1FE18A360
:10252000D3E9002336F062F841EC100B41EC180BB4
:102530003EF01EFC4FEACB08A36851EC100BA8F14B
:10254000080803EB080936F033FBB0EE480AF0EE5A
:10255000680AC9F800003EF043FDA36851EC100B77
:10256000984436F025FBC8F80400C2E7109B002B06
:102570003FF447AF1E6044E7182D4454FB21094047
:10258000182D4454FB2109C0D8F605080000E03F8F
:102590000368F7B55B680646144623B133480191DA
:1025A00000F082F80199306872680568FFF712FF41
:1025B00073680021D3ED007A93ED017A77EE876A94
:1025C00077EEC77A04EBC502C4ED006AB6EE006A86
:1025D000C2ED007A61605160012105EBD57C4FEAC4
:1025E0006C0C03EBC5058C453EDBD3ED035A55ED72
:1025F000024AD3ED026A55ED017AC800A0F108073E
:10260000B06834EEA67A384435EEE75A76EEE46ADE
:1026100077EEA57AD0ED014A90ED004A64EEE75AD4
:1026200067EE847AE6EE845AE6EEA47A77EE256ABF
:1026300066EE866A37EE657AC4ED026A77EE856AE1
:1026400077EEC57A66EE866A27EE067A67EE867AB8
:10265000C4ED036A013102ED027A42ED017A0833DA
:10266000083D0834083ABEE703B0F0BDF1F60508AE
:102670000020704708B580B20AF08AF8002008BD33
:1026800008B50AF067F80AF0BDF8002108BD08B5E2
:10269000FFF7F6FF4FF47A730A46A0FB030103FB32
:1026A000021108BD04F0CEBC0FB407B504A951F85F
:1026B000040B01910FF066FD03B05DF804EB04B06C
:1026C0007047000008B510EE100A35F037FF0246DB
:1026D0000B460248FFF7E8FF08BD00BF17F70508E3
:1026E00037F0E8B936F09ABE37F0ECB910289ABF47
:1026F000024B53F820000248704700BF94F70508CA
:102700001AF7050837B5002305460C46002251ECA0
:10271000100B8DED000B36F0D1F99DED000B20B1C3
:1027200000232B60236003B030BD204637F000FE4D
:102730000022144B51EC100B35F058FF41EC100BFC
:102740003EF0FAFB51EC100B36F0EAFA02464FF07D
:1027500000400B460021904271EB030C01DA36F089
:10276000EFFD8B4201BF824223684FF0804201336C
:1027700008BF236021681F31BEBF002300222360F1
:102780002A60D0E70000E04137B50C4B05460C4607
:10279000002251EC100B8DED000B36F0B7F99DEDDA
:1027A000000B08B936F0CCFD21462846FFF7AAFFFA
:1027B0002368002BF6DB03B030BD00BF0000F03F04
:1027C0002DE9F84F4FF000432DED028B23FA00F076
:1027D00057EC106B59EC118B93468A4635F09CFEF2
:1027E000424604460D464B463046394635F0FEFE1D
:1027F00002460B462046294635F0F8FE02460B46B7
:1028000043EC182B0AA3D3E9002336F07FF908B173
:102810009FED078B59465046B0EE480AF0EE680A25
:10282000BDEC028BBDE8F84FFFF7AEBFAFF3008001
:102830000000C0FFFFFFDF412DE9F843012481467E
:1028400004FA00F001388846154635F065FE064664
:10285000A5EB09000F46C0F12003A0F1200124FAE6
:1028600003F304FA01F104FA00F0194335F090FE85
:1028700002460B463046394635F0B8FEC8F1200313
:102880000F46A8F1200124FA03F304FA01F10646E9
:10289000194304FA08F035F07BFE02460B46304639
:1028A000394635F0CDFF41EC100B3EF0C1FA51EC4A
:1028B000100B36F035F9BDE8F88390ED007AC0EEE4
:1028C000077AF8FE677AFDEEE77A17EE903A4068ED
:1028D000034418467047836810B423B103EB81109A
:1028E0005DF8044B7047036D5DF8044B18470028F2
:1028F00004DB884202DA52F8200070474FF0FF30C4
:102900007047096808B5034610460A1D0968FFF7B5
:10291000EEFF011E04DB1846BDE80840FFF7DBBFF1
:10292000002008BD496808B5034610460A1D09681D
:10293000FFF7DDFF011E04DB1846BDE80840FFF786
:10294000CABF002008BD0000D1ED037A92ED037AE2
:1029500067EE877AF5EEC07AF1EE10FA73B51E468F
:102960000ADA0F4B0F4A0093446940F251130E49A3
:10297000A047012002B070BD17EE900A35F0DEFDD1
:102980000446F0680D4635F0D9FD0B46024629464F
:10299000204635F055FF069BC3E900010020E9E71A
:1029A0003CF80508D8F7050825F8050800000000E0
:1029B0002DE9F74F0446DDE90C7BC86815461E4635
:1029C0008A4635F0BBFD8046E868894635F0B6FD9D
:1029D00002460B464046494635F008FE8046894689
:1029E000D6B1F06835F0AAFD02460B46404649468E
:1029F00035F044FC8046F86821F0004935F09EFD32
:102A000002460B464046494635F01AFF11A3D3E96A
:102A1000002336F067F850B13B462A46514620461F
:102A2000CDF830B003B0BDE8F04FFFF78DBF064BD7
:102A30002046009365694FF4A273044A0449A847ED
:102A4000012003B0BDE8F08F55F80508D8F7050858
:102A500025F805087B14AE47E17A943FF0B51D4692
:102A6000137885B0032B0A9F0ED0092B1FD0072B9C
:102A700021D0264B264A009344694FF4C27325495E
:102A8000A047012005B0F0BDFF2400261369D268DD
:102A900001290292039312D19FED1F0A02A8FFF7AA
:102AA0000CFF8642ACBF2E6028603C601BE07F2498
:102AB0006FF07F06EAE747F6FF74184EE6E7032952
:102AC00013D19FED150A02A8FFF7F7FEB1EE080A31
:102AD0008642ACBF2E60286002A8FFF7EEFE84425B
:102AE000D4BF3C6038600020CCE702290BD1BFEE98
:102AF000000A02A8FFF7E1FEB7EE000A8642ACBF6B
:102B00002E602860E8E72E60CFE700BF77F8050861
:102B1000D8F7050825F80508000000000080FFFF31
:102B2000036810B5052B044603DD406808B11CF0AE
:102B300044FA204610BD002908B501DA36F000FC41
:102B400003688B42FADD052BCBBF436800EB8100A5
:102B500053F82100406808BD10B508B936F0F0FB05
:102B60000029FBD0BDE810400968436D01EB8202EB
:102B70005168184710B508B936F0E2FB0029FBD0C0
:102B8000BDE810404968436D01EB82025168184767
:102B900008B508B936F0D4FB006808BD70B5154615
:102BA0001E46FFF7C8FF314604462846FFF7C3FF1D
:102BB000844201D036F0C4FB70BD0000884210B5DD
:102BC0001FD100F100435C425C4180FB0123002ADD
:102BD00073F100010D49A8BF4FF080419CB9521814
:102BE00043EBE173002A73F1000106DA6FF0004154
:102BF00052184FF0000141EB0303D00F40EA4300AD
:102C000010BD0024E1E76FF00040F9E7010000C0CB
:102C1000002908B506DA4FF4B3710C4B0C4A0D4885
:102C200036F096FB1F2904DD40F267110A4B084A73
:102C3000F5E701238B40013B03EA00025B1003EB45
:102C4000D07308419A42C8BF013008BD7DF805081D
:102C50008BF80508E5F805082CF905086FF0004227
:102C60000023121843EBE073591C05BFB2F1FF3F7C
:102C700011460121184618BF00202DE9F04D5418C7
:102C800043EB0005EB0FE41845F100054FEA54084B
:102C900048EAC57840463B49FFF790FF032500F11D
:102CA0005A3421464046FFF789FFC0F100512046C3
:102CB000FFF784FFB0F1005F56DAB0F1604F4FF0DC
:102CC000FF314FF0000CC8BF00214FEAE07B8200CB
:102CD0004FEA8B0343EA9073B2F1004F73F1FF3078
:102CE00046DB6FF0004A4FF0000B92457BEB030090
:102CF000B8BF6FF000426FEA0C031A40CB432CF0D0
:102D0000004C82EA0C021A4001F000414A40013DA9
:102D10001444C6D1B4F1804F2DDAB4F1404F4FF0D6
:102D2000FF302A46C8BF002026194FEAE47545EB5C
:102D30000507B6F1004F77F1FF3320DB6FF0004459
:102D40000025B44275EB0703ACBF33466FF0004378
:102D5000D6431E40C34322F0004256401E4000F0BE
:102D600000407040BDE8F08D4FF0FF3C0021ACE723
:102D70004FF00042BFE74FF0FF322846D4E74FF054
:102D80000043E5E7C4C3C3C308B5B0FA80F3C91A6A
:102D90009840116000F10040FFF760FF08BD836BB1
:102DA00010B50BB936F0CCFA6421BDE810401847D5
:102DB0002DE9F04F2DED028B83B0DDE91064216821
:102DC0001746B1F1010B994690ED078AD0ED088ABC
:102DD0001D6801D536F0B4FA00224FF0010805292C
:102DE000CCBF6368231D914208D093450CBF0120DE
:102DF00053F82200013200FB08F8F4E7A91E484608
:102E0000FFF799FE594682462046FFF794FE824519
:102E10000446DFD14846691EFFF78DFE830001930B
:102E200000233A469C46DFED236AC4453CDA1299FA
:102E300001EB830900210F46A7422FDA93464FF09A
:102E4000000EDFED1C7A0E9D05EB810A864508DA3F
:102E5000BBEC016ABAEC017A0EF1010EE6EE077ADC
:102E6000F4E7C6B106EB870E9EED007A77EE877A1F
:102E7000F4EE487AF1EE10FA48BFF0EE487AF4EE3C
:102E8000678AF1EE10FA48BFF0EE687A0137E9EC94
:102E9000017A0144D0E7B0EE667AE7E701990CF1D8
:102EA000010C23440A44C0E703B0BDEC028BBDE82B
:102EB000F08F00BF000000002DE9F04FD0E903B40F
:102EC0001E4603688DB0069343683768079383688E
:102ED000012F08934369154601938369DDF86480E7
:102EE000029301DC36F02CFAD8F80030022BF9D12D
:102EF000DDE901329342F5DC00214046FFF71BFE7D
:102F0000012109904046FFF716FEB91E8246304661
:102F1000FFF711FE5045E5DB791E3046FFF70BFE4B
:102F20000021002CC4F100034FF00102C8BF0023B0
:102F30008C469A40013A059224EAE47452100A92AF
:102F400000950B94099CA4457EDA00273E461A9C06
:102F500004EB010E564570DA169C009A3C4403942B
:102F600000242546049285420FDA049A013512F9AD
:102F7000019B0492039A12F9018B0392079A9044E1
:102F8000069A914409FB0844EDE7189A12B152F8E9
:102F900026502C440B9A9440A34530D10BF10042AB
:102FA000D2F1000949EB020984FB0B45002C75F1B5
:102FB0000002274AACBF4FF080489046B9F1000F9D
:102FC00020D114EB080445EBE875002C75F10002E4
:102FD000A046A94605DA6FF0004214EB020845F15D
:102FE00000094FEAD87444EA49041F2B07440CDD5A
:102FF00040F26711174B184A184836F0A9F94FF0FC
:103000000009D1E76FF00044EFE7059A013602EAC4
:1030100004080A9A02EBD4751C41A845C8BF0134C4
:10302000089A1444019A9442B8BF1446029A9442F2
:10303000A8BF14460EF8014B8CE7009A0CF1010C66
:103040000244514400927DE70DB0BDE8F08F00BF0F
:10305000010000C02CF905088BF80508E5F8050803
:1030600070B50E680546042E0C4601DD36F068F991
:103070001022002136F0ABFD002304349E4205DD12
:1030800054F8042B45F823200133F7E7284670BD98
:103090002DE9F04F0C6907460E4693B00CB936F097
:1030A0004FF94D69002DFAD00022FFF72AFC0122CA
:1030B000314681463846FFF724FC02223146039010
:1030C0003846FFF71EFC0022804631463846FFF79F
:1030D00029FC8246B9F1000F0AD1754B7C69009337
:1030E00040F216333846734A7349A04701268FE0F1
:1030F00028B9724B7C69009340F21733F2E799F8D4
:103100000030012B00F0A680092BEFD1B8F1000FA1
:1031100040F0A380C3460AAB297852460093384654
:1031200009ABFFF79BFC0646002871D10022002363
:10313000CDE90C230CABCDE900A349464346384604
:10314000039AFFF735FC0646002861D1D9F8043010
:1031500004AD2846D9F80810A360FFF781FF95E871
:103160000F0004F10C0C8CE80F00D9F810305B4212
:10317000E361039B002B4FD05B682362039B2846CF
:103180009968FFF76DFF95E80F0004F1240C8CE8B7
:103190000F00039B28461B69DAF808105B42636343
:1031A0000023C4E90E3BDAF804302364FFF758FF2C
:1031B00095E80F0004F1440C8CE80F00DAF81030A9
:1031C0009DED0C0B636504F017FD10EE103AA4F8AA
:1031D0005830099B04F1080084F85A300A9B84F89F
:1031E0005B3004F03BFD84F86000B8B920469DEDEB
:1031F0000C0B0BA9FFF786FA0B9B5B42636007E0A1
:103200000CA8FFF78DFC99F80030092B83D000261D
:10321000304613B0BDE8F08F039BAEE7B8F1000F66
:10322000F6D03846BB6B4FEA4B01D8F8048098477C
:10323000054600283FF45AAF01465A46404604F07E
:10324000A9FC00287FF452AF94F86030A563002BEE
:10325000DED1CBE7B8F1000FD9D0D8F8086056F826
:10326000043B052B0C934FEA830B0CDD6FF06040A1
:103270008342B4BF58464FF0FF301BF0C0FE0C9B9A
:103280000D90052B00DC0DA85A46314636F078FC2F
:103290004FF0010B00230C990529CCBF0D9A0DAA04
:1032A0009942ADDD52F82300013300FB0BFBF7E739
:1032B0008DF905083BF9050825F805089EF905086C
:1032C0002DE9F043012AA9B01D46DDE93076329C94
:1032D00019D0032A1CD09FED2A7AF7EE007A022A31
:1032E000DFED286A47FE877ABFEE007A07FE267A6E
:1032F000294606A88DED257ACDED267A00F002FA52
:103300004DB936F01DF8DFED1E7A9FED1F7AEFE71D
:10331000F1EE087AF9E739460CA8D5F8008000F0FC
:10332000F1F9002FEDD012AD314628463F6800F08C
:10333000E9F9002EE5D0D6F8009018AE21463046C7
:1033400000F0E0F904B1246842460CAB06A91EA8BF
:10335000CDE90364CDE901590097FFF729FD304617
:10336000FFF7DEFB2846FFF7DBFB0CA8FFF7D8FBD7
:1033700006A8FFF7D5FB002029B0BDE8F08300BF09
:10338000FFFF7F7FFFFF7FFF0000000070B5044656
:103390000646044D0FCD0FC495E80F0084E80F00DA
:1033A000304670BD1CFB050870B51846144602F186
:1033B0000806FFF7EDFB069DA06005B12D683046BD
:1033C000256404F005FA003818BF012070BD000024
:1033D0002DE9F04F92F86060BDB08246DDE9469875
:1033E00014461F46489D5EB11E7A092E08D1CDE9CC
:1033F0000185CDF80090FFF7D7FF3DB0BDE8F08F15
:10340000B8F1000F01D135F09BFFD8F8003026AE9F
:103410000DF1B00B002B00F0A6802946304600F0DD
:1034200071F9269B022BEED100213046FFF783FB7A
:10343000012109903046FFF77EFB49460890584627
:1034400000F060F92C9958460139FFF774FB3946B2
:10345000834632A800F056F9E169099A2091616D1E
:10346000089B2291616BCDE91932219194F95A1090
:103470001D93239194F95B103846249121680E9294
:103480000A916168CDE911BB49420B910121CDE957
:1034900015310023CDE90F11CDE91311CDE9171135
:1034A000CDE91B11CDE90C33FFF772FB044648460A
:1034B000FFF76EFBD8F80020002D47D02B6806934D
:1034C0001AABCDE9042316ABCDE9020312ABCDE96B
:1034D00000430AAA0EAB20A90CA8FDF7A9FD0028FD
:1034E00036D03846FFF754FB04464846FFF750FBFA
:1034F000DAF814B0D8F8003005B12D681AAACDE971
:10350000043216ABCDE9020312ABCDE900430AAA9F
:103510000EAB20A906950CA8FDF78AFD0023CDE986
:103520000203324B324A0193324B334950460093E7
:1035300040F2A633D84732A8FFF7F2FA2CA8FFF7DB
:10354000EFFA3046FFF7ECFA012056E72B46B6E7D4
:1035500032A8FFF7E5FA2CA8FFF7E2FA3046FFF7AA
:10356000DFFA002049E7E36939463293636B1AA812
:103570003393636D34932368359363685B4236936A
:1035800094F95A30379394F95B30389300F0BAF8D5
:103590003846FFF7FDFA4946089020A800F0B2F837
:1035A0004846FFF7F5FA41460446304600F0AAF8CF
:1035B00029465846D8F8007000F0A4F8089A05B1DA
:1035C0002D6820AB1AA932A8CDE903B5CDE9016772
:1035D0000094FFF771FC5846FFF7A2FA3046FFF758
:1035E0009FFA20A8FFF79CFA1AA8B8E7CAF90508BD
:1035F0003BF90508DBF90508B0F905082DE9F043AA
:10360000D1F8149004460D4685B0B9F1000F01D1F0
:1036100035F096FE0022FFF79FFA01222946064662
:103620002046FFF799FA0222294607462046FFF76F
:1036300093FA0022804629462046FFF79BFA2A6922
:10364000002AE5D0337A012B0CD0092B17D018466D
:103650006569FFF74BF8337A02460D492046A847C3
:10366000012009E099F800203346CDE90180294680
:1036700020460097FFF724FE05B0BDE8F083CDE9B2
:1036800001803346294620460097FFF7A1FEF3E765
:10369000FFFA05082DE9FF4100220D460446FFF719
:1036A0005BFA0122294606462046FFF755FA022218
:1036B000294607462046FFF74FFA00228046294652
:1036C0002046FFF757FA2A690AB935F039FE337AEE
:1036D000092B0CD018466569FFF708F8337A0246C3
:1036E00007492046A847012004B0BDE8F081CDE994
:1036F00001803346294620460097FFF769FEF3E72D
:10370000FFFA050870B5044609B14D681DB90023DC
:103710002360204670BD55F8043B052B03604FEA3B
:10372000830605DC201D3246294636F029FAF0E7EB
:103730006FF060408342B4BF30464FF0FF301BF063
:103740005EFC23686060052BEDDCEBE72DE9F843B8
:1037500004460D46904600260768BE4210DAAE4287
:103760000CD031462046FFF7E6F931468146404607
:10377000FFF7E1F9814501D035F0E2FD0136ECE7D4
:10378000002DF9DBBD42F7DA01200023052FCCBF65
:10379000646804349D420CBF012254F82320013395
:1037A0009F4202FB00F0F5DCBDE8F88308B500217C
:1037B000FFF72EFA08BD08B5FFF700FA08BD0000B4
:1037C0002DE9F04104461448FFF7F0FF0646134880
:1037D000FFF7ECFF04F18054804621462046FFF7B6
:1037E000EAFF21460546FFF7E6FF29460746284639
:1037F000FFF7E1FF0221FFF70BFA41463844FFF7DC
:10380000DAFF01212844FFF703FA21183046FFF7B9
:10381000D2FF3044BDE8F08194A8F570ABAAAA2A83
:10382000C31103F580739BB231F8132001EB430100
:103830004B8840219B1A00F07F0013FB001002EB25
:10384000E01000B2704700002DE9F04F2DED048B21
:103850000C4691461A460B6887B0013B1946019009
:10386000204603920293FFF771FFDDE9023207461B
:1038700019462046FFF792F900260446B0469FED10
:103880002B9A05AAB8454BDA09EB860B8DED059A04
:1038900058460021B500A14223DB149B4FF0000ADB
:1038A0001D442B469FED228AA245029329DA9DED05
:1038B000050AFBEC018A019B78EEC08AD3E900017E
:1038C00035F076F907EE900A28EEA70A3DF058FF8A
:1038D000029B38EE008AA3EC010A0AF1010A05AA4C
:1038E000E2E70346DDED057A93ED007AB4EEE77A80
:1038F000F1EE10FAD8BF13461B680430059301316E
:10390000C9E70023A34207DA95ED007AC7EE087AEB
:103910000133E5EC017AF5E708F101082644B1E747
:1039200007B0BDEC048BBDE8F08F00BFFFFF7FFF49
:103930000000000070B504460646044D0FCD0FC4CC
:1039400095E80F0084E80F00304670BD5CFB050869
:103950002DE9F04F0C468FB005921A460B68804651
:10396000013B1946204602920193FFF7EFFEDDE985
:103970000132039019462046FFF710F900248346D0
:103980000294DDE90232934280F2CD8048F20003D6
:10399000ADF82630059B002203EB440A5146660031
:1039A0000DF126075A450EDA0B46BDF92600B3F98C
:1039B000005002318542D8BF3B46B3F90030013296
:1039C000ADF82630EEE74FF0000947F6FF774D4699
:1039D000189B334401930493D94531DAD8E9021690
:1039E0003AF9023BBDF92600002EA3EB000326EABC
:1039F000E670CCBF0026764203FA00F0FFF7DEF84F
:103A00003146FFF705F947F6FF72484B38449842B4
:103A10000D930B90ACBF0BAB0DAB0C921A68D8F8A2
:103A20002810B2F5004FA8BF0CABB3F90000FFF7A8
:103A3000F7FE019B054423F8190009F10109CBE7C2
:103A4000B5FA85F147F6FF72481EEB17A1F1210781
:103A50000E46834005FA07F7C1F1210125FA01F16D
:103A60003B43854015F5005543EA010343F100034C
:103A7000AD0B45EA83452D4BA5F5C0359D420C9312
:103A80000A95ACBF0AAB0CAB0D921A68D8F82C1093
:103A9000B2F5004FA8BF0DABB3F90000FFF7C0FEB1
:103AA0000122C6F11F03DBB2591E8A4015460021D0
:103AB000D617CDE906560DF12C0A0DF130090DF19E
:103AC000340E59452ADADDE90667049AC3F1200C61
:103AD00032F81120B3F12005C2FB806726FA03F209
:103AE00007FA0CFC42EA0C025CBF47FA05F52A43D0
:103AF0000025AA420B920C95ACBF52464A4647F6A7
:103B0000FF750D9515680131B5F5004FA8BF7246D8
:103B1000019D126825F8022B0195D2E7029B5C44B7
:103B2000013302932DE70FB0BDE8F08F0080FFFF57
:103B30002DE9F84F40F07F4405466001FFF740FE55
:103B400006464248FFF732FE01463046FFF733FE95
:103B5000641BC4F3006BCBF100090BF1FF3B00EADF
:103B600009090BEA060089EA000A3948FFF71EFE38
:103B700001465046FFF71FFEC4F34069C9F1000833
:103B800009F1FF3900EA080009EA0A0980EA09098F
:103B90003048FFF70BFE01464846FFF70CFEC4F322
:103BA00080677E42013F304007EA090747402A48C4
:103BB000FFF7FCFD01463846FFF7FDFDC4F3C06B7F
:103BC000CBF1000A0BF1FF3B00EA0A000BEA070BFE
:103BD00080EA0B0B2148FFF7E9FD01465846FFF745
:103BE000EAFDC4F30079C9F1000809F1FF3900EAE0
:103BF000080009EA0B0980EA09091948FFF7D6FD10
:103C000001464846FFF7D7FDC4F340777E42013FA7
:103C1000304007EA09074740F220FFF7C7FD014699
:103C20003846FFF7C8FDC4F3807463421840B5FA04
:103C300085F3013C3C405B094440581E5B422040F8
:103C400023F000435840BDE8F88F00BF7BBEAF6350
:103C5000F2CBA24D6CAC162FA4AA5211B72A58026F
:103C600011FE0A002DE9F04FD0E9029A0D461446E4
:103C70001A460B688BB0013B1946D0F818B028469D
:103C800002920193FFF762FDDDE9013200901946CF
:103C90002846FEF783FF002705464300149E019344
:103CA000009B9F427ADA6FF07F03214600228DF855
:103CB00017300DF1170EAA420EDA0B469DF91700C8
:103CC00093F900C001318445D8BF734693F90030A1
:103CD00001328DF81730EEE74FF0000822464346D8
:103CE000AB4217DA12F9010B9DF91710401A834500
:103CF0000EDC494600FA0AF0CDE90232FEF75EFF1B
:103D0000FFF716FF0C21FEF783FFDDE90232804446
:103D10000133E5E7404606AA0C21FFF735F82246B5
:103D200080460023AB4234DA12F9010B9DF91710DB
:103D3000401A83452ADC494600FA0AF0CDE90232EE
:103D4000FEF73CFFFFF7F4FE01464046FFF733FD68
:103D500006990F31FEF75CFF47F6FF73A0F50040B0
:103D6000B0F5004F07900F48B8BF07A90893A8BF48
:103D700008A909900868DDE9023210F5004FB8BFC4
:103D800009A9096826F813100133CBE748F20001AE
:103D9000F8E7019B01372C441E4481E70BB0BDE8D6
:103DA000F08F00BF0080FFFF2DE9F04F0C468DB073
:103DB00003921A46D0E902B3009383692046019327
:103DC0000B680592013B19460493FFF7BFFCDDE940
:103DD0000432029019462046FEF7E0FE0025044614
:103DE000A846029B984574DA6FF07F038DF81F3068
:103DF000039B00225F193946A24210DA0B469DF957
:103E00001F0093F90060013186420DF11F00D8BFF9
:103E1000034693F9003001328DF81F30ECE700269D
:103E2000BA46B146A14515DA9DF91F301AF9010BC2
:103E3000C01A019B83420ADC009B59469840FEF75A
:103E4000BDFEFFF775FE0C21FEF7E2FE064409F108
:103E50000109E7E730460C2108AAFEF795FF4FF06D
:103E600000098246169B5E19A1452EDA9DF91F10A6
:103E700017F9010B401A0199814223DC009B594636
:103E80009840FEF79BFEFFF753FE01465046FFF7B2
:103E900092FC08991731FEF7BBFE7F236FF07F027B
:103EA00080389842CCBF0AA909A909900A930868EA
:103EB0000B928030B8BF0BA90968317009F1010974
:103EC0000136D1E76FF07F01F7E708F101082544DB
:103ED00087E70DB0BDE8F08F2DE9F0410C46804634
:103EE0009EB008B935F02CFA0029FBD00A68436D62
:103EF0005168984762680746D8F854304046516880
:103F0000984724690646002CECD00FCC10AD0FC5A5
:103F10000FCC0FC50FCC0FC594E8030085E8030054
:103F2000387A07284BD009281ED001285BD13946A2
:103F300004A8FFF7E7FB3A6831460AA80392FFF7A7
:103F4000E1FB039A06B136680AAB04A910A80096F3
:103F5000FFF77AFC0AA8FEF7E3FD04A8FEF7E0FDF0
:103F600000201EB0BDE8F081337A3946072B0AA83D
:103F700014D1FFF7C7FB3A68314604A80392FFF754
:103F8000C1FB3368039A00930AA904AB10A8FFF79A
:103F900069FE04A8FEF7C4FD0AA8DFE7FFF7B2FB3D
:103FA0003A68314604A80392FFF7ACFB3368039AE2
:103FB00000930AA904AB10A8FFF7F6FEE9E739461B
:103FC0000AA8FFF79FFB3A68314604A80392FFF75F
:103FD00099FB039A06B13668009604AB0AA910A8AB
:103FE000FFF7B6FCD5E7D8F81440FEF77FFB3B7A25
:103FF000024602494046A0470120B2E7FFFA050801
:10400000F7EE007A30EE270A87EE800A70473DF01F
:10401000B7BB00002DE9F04302F1FF3907EE909A9B
:1040200030EEC07AF8EEE77A2DED0C8BC7EE27CA9A
:10403000F6EE009A0446F0EE40AAB0EE60CA0F46D3
:1040400015462CEEA9AA00269FED459ADFED45BA4C
:104050009FED45BA85B0A1F10208B14554DD07EEE8
:10406000906AB0EE6ADAF8EEE77AA7EEACDA0136DB
:10407000B0EE4D0AA04707EE906A20EE098AF8EEEE
:10408000E77AB0EE6A0AA7EEAC0AA047F0EE40DA93
:10409000B0EE4D0AA047F8FE488A20EE098AB8FE25
:1040A000488A3DEE0A0AA047ADEE898A20EE090A49
:1040B00028EE298AB8FE400AB8FE488A38EE408ABF
:1040C00028EE298AB8FE488A38EEC88AB4EEEB8A10
:1040D000F1EE10FA8DED018ACDED02BA4CBF02ABC4
:1040E00001ABD3ED007AF4EECB7AF1EE10FA8DED60
:1040F00003BAC8BF03ABD3ED007AFDEEE77A17EE43
:10410000903A28F8023FA8E7B0EE4C0AA04720EE0C
:10411000090AB8FE400AB4EEEB0AF1EE10FA8DED92
:10412000010ACDED02BA4CBF02AB01ABD3ED007A70
:10413000F4EECB7AF1EE10FA8DED03BAC8BF03AB03
:10414000D3ED007AFDEEE77A17EE903A05F10042E2
:10415000013A27F8123005B0BDEC0C8BBDE8F083B6
:1041600000000047000000C700FEFF46836B10B54B
:104170000BB935F0E5F83821BDE8104018470000CC
:104180002DE9F0432DED028B0B6804461E6889462D
:10419000012E89B011D001259C4BCDE90265019318
:1041A0009B4B9C4A009344695D239B49A04728464A
:1041B00009B0BDEC028BBDE8F0834B681D68012D92
:1041C0000CD0924BCDE902560193944B914A009347
:1041D00044695E239049A0470125E8E70022FEF7E5
:1041E00090FB804640B98E4B009360236669204661
:1041F000884A8C49B047DAE783681B68002B04DCE7
:10420000894B009366696123F1E700224946204605
:10421000FEF788FB064620B9844B0093666963234A
:10422000E5E7D9F8107027B9814B009366696523DB
:10423000DDE798F80030072B17D140F20241204605
:10424000A36B984720B97B4B009366696B23CEE73D
:10425000B86240F202412046A36B984720B9764BE2
:10426000009366696F23C2E7F862327898F80030ED
:10427000072A0CD1092B3DD0072B17D06F4B009389
:10428000752365692046634A6649A847A4E79A42B0
:1042900030D0CDE902326A4B01936A4B0093782308
:1042A000656920465B4A5C49A84795E733694BB18D
:1042B0000022CDE90232644B0193644B009365699F
:1042C0007D23EEE740F20122DFED610ABAEE040A37
:1042D000B96A6048FFF79EFE40F20122F7EE000A3D
:1042E0009FED5B0AF96A5C48FFF794FE3369FB6156
:1042F000F3683B6298F80050D9F81490092D39D032
:10430000072D40F0298133694BB10022CDE90232FB
:104310004D4B01934D4B009365692523C1E7DFEDBC
:104320004F7A96ED037AB4EEE77AF1EE10FADFED0C
:104330004C6ACCBF77EE677A77EEC77AF4EEE67A0E
:10434000F1EE10FA40F3C1804FF07C53002217EEDB
:10435000100ACDE9042334F0F1F8424BCDE9020113
:104360000193414B0093262365692046294A3F4922
:10437000A84731E73078072833D1336913F5004F68
:1043800009D03B4ACDE902323A4B01932F4B0093BF
:1043900065692B2385E7DFED387A96ED037AB4EE75
:1043A000E77AF1EE10FADFED356ACCBF77EE677A87
:1043B00077EEC77AF4EEE67AF1EE10FA40F3A680D3
:1043C00000222F4B17EE100ACDE9042334F0B6F883
:1043D0002C4BCDE902010193234B009365692C23FB
:1043E000C3E7092854D06769FEF780F906462846D6
:1043F000FEF77CF9244BCDE902600193104B204677
:104400000093044A2F232149B847E5E606FC050836
:10441000CDFB05087CFB0508B0F90508DDFB0508A8
:104420008DF9050825F80508EEFB05089EF9050835
:1044300008FC050823FC05083AFC05085DFC050896
:1044400097FC0508A4FC0508AB2B0608B0FC050882
:10445000000000000F400008014000080000003884
:104460006F120333EAFC0508F6FC0508CAFC0508D0
:104470000080FFFF0BFD0508000080376F128332BC
:104480000000F03E12FD050838FD05081EFD050878
:10449000336913F1800F0AD06FF07F02CDE9023249
:1044A000494B0193494B009365693023F9E696ED3A
:1044B000037ADFED477AB4EE677AF1EE10FA25D091
:1044C000444B009365693123DCE6D8F80C0034F0E6
:1044D00035F80446D9F800000D4634F02FF80246AE
:1044E0000B462046294634F081F835A3D3E9002352
:1044F00034F0A6F907F1080641EC100B304607A985
:10450000FEF700F9079BFB60002550E6D8F80C0089
:1045100034F014F841EC180BD9F8000034F00EF820
:1045200007F1080441EC100BB0EE481AF0EE681ADF
:104530002146052007AAFEF743F907991F22F960D3
:104540000520FEF779F933F0E7FF01F10043194642
:1045500034F0E6FAB861D7E7012D13D02846666932
:10456000FEF7C4F805460120FEF7C0F81A4BCDE966
:1045700002500193194B20460093194A4E231949C2
:10458000B04729E63078012812D06769FEF7AEF807
:1045900006462846FEF7AAF80F4BCDE902600193C4
:1045A000114B204600930E4A4F230E49B847FEE5B3
:1045B000D9F8000033F0C2FFC7E90001A4E700BF4B
:1045C000140014001400243F44FD0508B0FC050845
:1045D0000000803B49FD05086BFD0508A4FC0508AB
:1045E0007CFB05081EFD050897FC05080F20704799
:1045F000202808B515DC032804DC0138012808D977
:104600000E200DE00123043803FA00F0084B184295
:10461000F6D0012304220921022005F0DDFC002050
:1046200008BD4028ECD1012304220821F4E700BF93
:104630001100001008B501213A2004F00DF90DF029
:10464000FBFD2020FFF7D4FFBDE808404020FFF726
:10465000CFBF01213A2004F0FFB8000010B5044696
:1046600092B0482268461E4935F08AFA63786BB1E9
:10467000B7EE007AE37843BBDFED1A6ADFED1A7A12
:1046800047EE267AFCEEE77A17EE903AA27872B1FE
:10469000B7EE007A2279EAB9DFED126ADFED137A1C
:1046A00047EE267AFCEEE77A17EE902A1344A279B9
:1046B00012A901EB820252F8482CEA339A4294BFC5
:1046C0006FF00200002012B010BD013B37EE077AF8
:1046D000DBB2D0E7013A37EE077AD2B2DBE700BFB0
:1046E0007CFD05080000FA440000C44300809C43A0
:1046F0002DE9F84314460546D1E9020133F048FF9D
:10470000D4E9002333F0BAFD02460B4606460F46B5
:1047100033F06CFFD4E9042333F068FFD4E90223BB
:10472000804689463046394633F060FF02460B46E4
:10473000404649464FF0000833F0A2FDDFF84490B0
:1047400042464B4606460F4634F0C2F940B10320BC
:10475000C4E91C89D4E91C23C5E90023BDE8F8831A
:104760004FF00008DFF8209042464B46304639466D
:1047700034F0CCF910B9C4E91C67EBE70420C4E9B4
:104780001C89E7E7000044C00040554058B1C368A9
:104790004BB103693BB143692BB14068B0FA80F07B
:1047A0004009404270474FF0FF3070470000000062
:1047B0002DE9F84FD2E91CAB2DED068B0E460546D0
:1047C00059465046144634F0F3F908EE100A68EEE4
:1047D000088A18EE900A33F0B1FE68EE287A41ECB0
:1047E000190B17EE900A33F0A9FE41EC1A0BD6E92B
:1047F000000133F0C5FE8946804634F0D9F9D4E98A
:10480000082308EE100A5946504633F0EFFED4E96B
:10481000062333F035FDD4E90A2306460F4651EC52
:10482000190B33F0E3FE02460B463046394633F0AF
:1048300027FDD4E90C2306460F4651EC1A0B33F042
:10484000D5FE02460B463046394633F019FD424646
:104850004B4633F0CBFED4E9102306460F465046B4
:10486000594633F0C3FED4E90E2333F009FDD4E9F1
:1048700012238046894651EC190B33F0B7FE0246ED
:104880000B464046494633F0FBFCD4E914238046EE
:10489000894651EC1A0B33F0A9FE02460B464046FE
:1048A000494633F0EDFC02460B463046394633F0BC
:1048B000E7FCD4E9182306460F465046594633F024
:1048C00095FED4E9162333F0DBFC68EE088A8046B7
:1048D00018EE900A894633F031FE02460B464046F8
:1048E000494633F083FE68EE287A804617EE900A38
:1048F000894633F023FED4E91A2333F077FE0246CB
:104900000B464046494633F0BBFC02460B46304658
:10491000394633F0B5FC10A3D3E9002306460F4611
:1049200034F0D6F888B90EA3D3E9002330463946CF
:1049300034F0ECF818B10AA7D7E900670620BDECFF
:10494000068BC5E90067BDE8F88F052002A7D7E907
:104950000067F4E7AFF3008000000000004CDD408A
:10496000000000008084FE40F7B514460D461A464C
:1049700074B303280DD120460193FFF7B9FE019AC5
:10498000F0B9294604F1080003B0BDE8F040FFF794
:104990000FBF01284FF000064FF0000709D1204655
:1049A0000193FFF7A5FE20462946E0E80267019A39
:1049B000EAE7022806D12046FFF79AFEC4E902671B
:1049C00003B0F0BD0020C4E90267C4E90067F7E75F
:1049D0004FF0FF30F4E72DE9F043804689B01846E8
:1049E0000E4617461C46FFF7D1FE054668BB61B36D
:1049F000A27A3A44202A04D96FF0050009B0BDE834
:104A0000F083217AD4F80C900129636817D06946A5
:104A100048F08000C84760722846B84206D194F931
:104A20000900002818BF6FF00100E7E7A27A08AB81
:104A30000344134413F8203C33540130EDE73A4665
:104A400031464046C8476072E9E74FF0FF30D5E78E
:104A5000F0B55600202E05461C4689B033D81846BE
:104A6000FFF794FE60BB5DB351B362B30B788DF872
:104A70000030237A9BB1012A17D8012632466946B5
:104A8000276963682878B8470028607218BF6FF0FC
:104A9000010009B0F0BD2F5C07F07F072F54D8B29A
:104AA000824203F10103F6D8E5E768460123EF5C93
:104AB0004770CF5C01339A4200F8027FF7D1DDE7FF
:104AC0004FF0FF30E5E76FF00500E2E71FB5044661
:104AD0001B200B46019101220DF10F018DF80E00F4
:104AE000FFF779FF019B80B99DF80F20240122F088
:104AF000300204F0300414430DF10F0101220DF1D6
:104B00000E008DF80F40FFF7A3FF04B010BD0000AA
:104B1000F7B5044616460D46002900F00E8110F048
:104B2000060027D01B20134601A901228DF80000A2
:104B3000FFF751FFF0B9A20709D59DF804306A7854
:104B400023F0010302F0010213438DF804306307E0
:104B50000AD5AB789DF804205B0003F0020322F035
:104B6000020213438DF8043033460122684601A93E
:104B7000FFF76EFF14F0F00F69D0714B04221B8811
:104B80001C20ADF8003000230DEB02018DF802303F
:104B90003346FFF720FF002859D114F0300F00F002
:104BA000CA80E7062A7909D59DF80430E97823F010
:104BB000070301F007010B438DF80430A00609D567
:104BC0009DF80430D20023F0380302F0380213437A
:104BD0008DF804301C2301278DF80030210615D5EF
:104BE000AB79112B84BF1123AB7102ABD919AA7910
:104BF0009DF8053002F01F0223F01F03134301F854
:104C0000043C1D23013701F8083CFFB2620611D5B0
:104C100002ABD9196B799DF807205B0003F00E03F6
:104C200022F00E02134301F8043C1F23013701F860
:104C3000083CFFB22B78032B03D12846FFF70EFD6B
:104C400028B933463A46684601A9FFF701FF14F434
:104C5000E16F42D019203346012269468DF80400E5
:104C6000FFF7B9FE002838D1E305287A697AAA7AD5
:104C700009D59DF80030EF7923F0010307F0010713
:104C80003B438DF80030A70509D59DF80030400062
:104C900023F0020300F0020003438DF800306005AA
:104CA00009D59DF80030890023F0040301F00401C8
:104CB0000B438DF80030210709D59DF80030920193
:104CC00023F0400302F0400213438DF800303346D6
:104CD0000122694601A8FFF7BBFE14F4C05F28D08B
:104CE0001A203346012201A9EF7A8DF800002D7BAE
:104CF000FFF771FEE8B9220509D59DF804307F0061
:104D000023F0020307F002073B438DF80430E3046D
:104D100009D59DF80430AD0023F0040305F0040527
:104D20002B438DF8043033460122684601A9FFF772
:104D30008FFE03B0F0BD074650E74FF0FF30F8E7B5
:104D4000C4FD05081FB50B460446002847D0019155
:104D5000012203200DF10F01FFF73DFE019BE0BB97
:104D60009DF80F201020C2F30011E170C2F3401132
:104D7000C2F38012217162710DF10F010122FFF760
:104D80002AFE9DF80F2002F00102627228BB012268
:104D90001120019B0DF10F01FFF71DFEE8B99DF8F1
:104DA0000F20022002F001012170C2F34001C2F382
:104DB000C0026170A270019B01220DF10F01FFF78B
:104DC0000AFE50B99DF80F3003F00102E271C3F3FF
:104DD0004002C3F380032272A37104B010BD4FF0F0
:104DE000FF30FAE77E2337B58DF80430B623054649
:104DF0008DF80530012203460DF106010320FFF76F
:104E0000EAFD9DF806300446DB061FD5F0B92B46B7
:104E100001220DF1050101A8FFF71AFE0446A8B909
:104E20004FF4FA606B69696898472B4601220220AB
:104E30000DF10701FFF7CFFD9DF8073003F07E036A
:104E40001843C0B2002818BF6FF00304204603B017
:104E500030BD0000002330B589B004468DF807301E
:104E6000FFF794FC0546002840F0F680237A0122E3
:104E7000013B18BF01230DF10701A3722346FFF781
:104E8000AAFD0546002840F0E7809DF80730502B2A
:104E900002D0602B40F0E38020462370FFF7A2FF92
:104EA0000546002840F0D88001461122029003A850
:104EB00034F08DFE1522234602A93120FFF78BFD29
:104EC0009DF8083005469DF8090043EA002033F0BC
:104ED00013FB0022634B33F089FB9DF80A30029AE2
:104EE000C4E906019DF80B00C4F8902043EA0020B5
:104EF00033F002FB00225C4B33F078FBC4E908017D
:104F00009DF90C0084F8940033F006FB0022574B07
:104F100033F06CFB9DF80E30C4E90A019DF80D00DA
:104F200040EA032000B2A4F89600A0F5804033F0D8
:104F3000F3FA00224E4B33F059FB9DF81030C4E9D0
:104F40000C019DF80F0040EA032000B2A4F898007D
:104F5000A0F5804033F0E0FA0022464B33F046FBE8
:104F6000C4E90E019DF9110084F89A0033F0D4FAD7
:104F70000022414B33F03AFBC4E910019DF91200C5
:104F800084F89B0033F0C8FA00223C4B33F02EFB30
:104F90009DF81430C4E912019DF8130040EA032083
:104FA000A4F89C0033F0A8FA0022354B33F01EFB26
:104FB0009DF81630C4E914019DF8150040EA03205D
:104FC000A4F89E0033F098FA00222E4B33F00EFB2B
:104FD000C4E916019DF9170084F8A00033F09CFA8B
:104FE0000022294B33F002FBC4E918019DF9180097
:104FF00084F8A10033F090FA00224FF07C5333F094
:10500000F5FA9DF81A30C4E91A019DF8190040EA32
:10501000032000B2A4F8A20033F07EFA0022134B62
:1050200033F0E4FAC4E91C019DF91B0084F8A400E4
:1050300033F072FA00220D4B33F0D8FAC4E91E01A6
:105040009DF91C0084F8A50033F066FA00220F4B8E
:1050500033F0CCFAC4E92001284609B030BD6FF026
:105060000605F9E7000070400000103E0000F03C2B
:105070000000B03E0000203E0000F03D0000A03DDA
:10508000000020400000903F0000703F0000E03B27
:1050900010B50B46044648B1014601221B20FFF71C
:1050A0009AFC2378C3F30113237010BD4FF0FF3037
:1050B000FBE7F7B5064608460D46FFF767FB0028F5
:1050C0006CD1002E6AD00DF102003778FFF7E0FFB7
:1050D0009DF802300446F3B1002854D11B202B4622
:1050E000012201A98DF80300FFF775FC044668B999
:1050F0009DF80430012223F030038DF8043001A91B
:105100002B460DF10300FFF7A3FC044641F2883063
:105110006B6969689847B4BB032F37D104222B46CB
:105120000DEB02011C20FFF756FC9DF804300446ED
:1051300003F00702C3F3C20333719DF80530F27028
:1051400003F01F03B3719DF80730C3F3420373717B
:10515000C8B93046FFF782FA0446A0B9294630782C
:10516000FFF7B4FC044670B92B460122022001A9C6
:10517000FFF731FC044630B99DF8043013F0040FFA
:1051800018BF6FF00404204603B0F0BD012FFAD120
:1051900029463078FFF79AFC0446F4E74FF0FF34D5
:1051A000F1E7F0B50D46002187B00646174602A884
:1051B00010220091ADF8041034F009FD3DB33B46D8
:1051C000062269460420FFF706FCF0B99DF802406C
:1051D0009DF80130240444EA03249DF800302A4657
:1051E0001C43CDE902409DF805409DF8043024049D
:1051F00044EA03249DF8033002A91C43CDE904408E
:1052000007F118033046FFF7AFFB07B0F0BD4FF0D2
:10521000FF30FAE703F01AB800B51B7889B05B00DD
:10522000ADF80C300423ADF80E300123ADF8143086
:105230000DF107030493084B8DF8070006911868D9
:1052400003A9ADF81C2002F05FF8003818BF012058
:1052500009B05DF804FB00BFF42B002000B51B78FB
:1052600089B05B00ADF80C300823ADF80E30012397
:10527000ADF814300DF107030493084B8DF80700C7
:105280000691186803A9ADF81C2002F03DF800381B
:1052900018BF012009B05DF804FB00BFF42B00200B
:1052A000F8B5154B0D691860144A154B16461D804C
:1052B0000B4601F108071C4603CCBC42106051604C
:1052C000234602F10802F6D120680C4910602379C8
:1052D000A8B213710B4AFFF71BFC0A4904460748A2
:1052E000FFF7E7FE3278084B204340B200381A70CF
:1052F00018BF0120F8BD00BFF42B0020FC2B0020BC
:10530000FA2B0020402B0020F82B00202DE9F04143
:1053100086B0054602F02AFF4FF4FA6002F096FFCD
:1053200077232C4F01243B7000238DF803302A4B48
:105330002A4EDFF8C880019328460DF1030301A926
:105340003560ADF80C400293ADF81440CDF81080F4
:1053500001F0DAFF18B1012006B0BDE8F08198F83D
:105360000030502B33D11E481E4B476003611E4B4B
:105370000472C3601D4B4361FFF76CFD0028EAD146
:105380000623059340F20113306801A9ADF80430FB
:105390008DF80640FFF784FF10F0FF0FDBD1144AB1
:1053A00001AB03AD1C4603CCAC42106051602346F8
:1053B00002F10802F6D120681060237900201371F1
:1053C0000C4B059A1A8001220B4B1A70C4E72D2052
:1053D000C2E700BFF02B0020EE000400F42B0020F9
:1053E000402B00205D520008195200081552000899
:1053F000FC2B0020FA2B0020F82B0020F12B0020A2
:1054000030B51A4B89B00D461860194A022004A91C
:10541000FFF7C7FE10B1012009B030BD154B1B7856
:10542000012B03D112491448FFF743FE104901A88C
:10543000FFF788FC0028EED10D4C9DF806000128EE
:105440000DD10B4A04A9FFF7ACFE04460028E2D1B7
:10545000DDE9060133F0ACFB28602046DCE721469D
:1054600001A8FFF76FFC0028E7D0D4E7F42B002059
:10547000402B0020F82B0020FC2B00200020704740
:1054800070B5144680220C4B0D461A6040EA0201AA
:105490000A4804F01BFB094E2544AC4204D180228B
:1054A000074B00201A6070BD0021304604F00EFB4F
:1054B00004F8010BF1E700BF40E0034000000A40A0
:1054C00040D00340F8B580260D46094C094F04F53D
:1054D00001531E6000F07F01384604F0F7FA04F52E
:1054E00082542946384604F0F1FA00202660F8BDBF
:1054F00000C0034000000A4008B580216B20FFF780
:10550000E1FF642007F044F9002008BD73B50C46A4
:10551000164601210DF107020546FFF7B1FF50B90C
:105520009DF80730284623EA060244EA02018DF876
:105530000710FFF7C7FF02B070BD000070B5264C22
:105540008EB0264601AD0FCE14340FC50FCC06AD7C
:105550000FC594E80F0085E80F00204B012103934D
:1055600006AB05934FF480735720ADF81C3003F061
:1055700073F901213A2003F06FF90023042203217B
:10558000022004F029FD022100230846012204F034
:1055900023FD002304220121022004F01DFD01232C
:1055A00004220721002004F017FD0D4801A904F092
:1055B00043FC0C4B0C4A0020C3F8CC244FF00212E1
:1055C000C3F8C424A2F58032C3F8C8241C22C3F84F
:1055D000B4240EB070BD00BFC8FD0508A05A32004B
:1055E00000000A4000C003400200030007B5FFF7B7
:1055F000A5FFFFF781FF012175200DF10702FFF7DD
:105600003FFF9DF80730982B12D111216A20FFF738
:1056100059FF01216B20FFF755FF1E2007F0B8F856
:10562000C0213720FFF74EFF002003B05DF804FBD8
:105630001020FAE713B510EE100A32F07FFF024691
:105640000B4600201A4933F0FBF80022194B32F0C8
:1056500015FE33F0ADFA9FED187A07EE900AF4EEDE
:10566000C77AF1EE10FA1FDCF5EEC07AF1EE10FA0F
:1056700001D5DFED127AFCEEE77ACDED017A9DF8E7
:10568000044019202146FFF71DFF601C32F044FF43
:1056900002460B460020064933F0D2F833F088FA70
:1056A00000EE100A02B010BDF0EE477AE3E700BF4B
:1056B00000408F400000F03F00007F4300000000EA
:1056C00010B5C0F3C101044603221B20FFF71EFFE3
:1056D00007221A2004EA0201FFF718FF002010BD7C
:1056E00001460F221D20FFF711BF13B5044601210B
:1056F0001C200DF10702FFF7C3FE9DF8073003F0F1
:105700001800102814D005D848B108280BD0012063
:1057100002B010BD1828FAD14FF0685305E04FF0E1
:1057200062522260F4E74FF0645300202360EFE7F9
:105730004FF06653F9E71FB5044601A8FFF7D5FF00
:1057400002AA06213B20FFF79BFE9DF808209DF84A
:105750000930DDED016A43EA02231BB207EE103A7D
:10576000B8EEC77A27EE267A9DF80A209DF80B300E
:1057700084ED007A43EA02231BB207EE103A9DF84B
:105780000C209DF80D30B8EEC77A43EA02231BB215
:1057900007EE903AF8EEE77A27EE267A67EEA67AD9
:1057A000002084ED017AC4ED027A04B010BD00003F
:1057B00013B5044601211B200DF10702FFF760FE1F
:1057C0009DF8073003F01800102811D005D840B11B
:1057D000082809D0012002B010BD1828FAD1054BC5
:1057E00003E0054A2260F6E7044B00202360F2E75D
:1057F000034BFAE700007A3D0000FA3B00007A3CD8
:105800000000FA3C1FB5044602AA06214320FFF718
:1058100037FE01A8FFF7CCFF9DF808209DF809305E
:10582000DDED016A43EA02231BB207EE103AB8EE3F
:10583000C77A27EE267A9DF80A209DF80B3084ED72
:10584000007A43EA02231BB207EE103A9DF80C20BF
:105850009DF80D30B8EEC77A43EA02231BB207EE7B
:10586000903AF8EEE77A27EE267A67EEA67A0020DD
:1058700084ED017AC4ED027A04B010BD13B504467C
:105880000DF1070201211C20FFF7FAFD9DF807101A
:105890001C2021F0180121438DF80710FFF712FE9C
:1058A000002002B010BD13B504460DF1070201211E
:1058B0001B20FFF7E5FD9DF807101B2021F01801C4
:1058C00021438DF80710FFF7FDFD002002B010BD49
:1058D000002A14BF00230823002810B514BF002499
:1058E000382409B944F00704194608226B20FFF751
:1058F0000DFE3F2221466C20FFF708FE002010BD60
:1059000000290CBF0021E02108B508B141F00101D8
:10591000E1223820FFF7FAFD002008BD13B5044648
:10592000042101AA3A20FFF7ABFD0020019B236070
:1059300002B010BD07B501210DF107023A20FFF7B3
:105940009FFD9DF8070000F0010003B05DF804FB27
:1059500001212DE9F043002285B080460846FFF77B
:10596000B7FF9FED740AFFF765FE0520FFF7A8FE5D
:105970000020FFF798FF6846FFF71AFF322006F075
:1059800007FF40211A20FFF79DFD44216A20FFF701
:1059900099FD78212320FFF795FD052006F0F8FEFC
:1059A0000221722001AAFFF76BFDBDF804305BBA3B
:1059B0009BB2B3F5FC7FF0D34FF000090C2778229F
:1059C00000212320FFF7A2FD0221722001AAFFF788
:1059D00057FDBDF804504C466DBAADB2B5FBF7F7B4
:1059E0004E464D461FFA89F3BB42C0F0858096FBB8
:1059F000F7F607EE906A9DED007AF8EEE77A94FBF1
:105A0000F7F467EE877AC8ED007A07EE904AF8EE71
:105A1000E77A95FBF7F567EE877AC8ED017A07EE2E
:105A2000905AF8EEE77A67EE877A01AAC8ED027A13
:105A300002211320FFF724FD9DF904109DF8058035
:105A400001AA48EA012815200221FFF719FD9DF956
:105A500004309DF8057001AA0221172047EA0327A8
:105A6000FFF70EFD002E9DF904209DF80530B8BF0C
:105A70000336002DB8BF0335002CB8BF033443EA0A
:105A80000223A8EBA606A3EBA505A7EBA40473BA13
:105A9000C6F3072164BA6DBA1320ADF80430ADF82F
:105AA0000640ADF80850FFF70DFD9DF805101420D5
:105AB000FFF708FD9DF806101520FFF703FD9DF880
:105AC00007101620FFF7FEFC9DF808101720FFF7BF
:105AD000F9FC9DF809101820FFF7F4FC4022002182
